:020000040800F2
:100000005037012061020008AB2A0008F5220008E1
:10001000A92A00087F040008D53B00080000000062
:10002000000000000000000000000000A101000826
:100030008908000800000000FD010008AD34000838
:100040007B0200087B0200087B0200087B0200089C
:100050007B0200087B0200087B0200087B0200088C
:100060007B0200087B0200088B0800087B02000866
:100070007B0200087B0200087B0200087B0200086C
:10008000D90700087B0200087B0200087B020008F9
:100090007B0200087B0200087B0200087B0200084C
:1000A0007B0200087B0200087B0200087B0200083C
:1000B0007B0200087B0200086D3500087B02000807
:1000C0007B0200087B0200087B0200087B0200081C
:1000D0007B0200087B020008BD3B00087B02000891
:1000E0007B0200087B0200087B0200087B020008FC
:1000F0007B0200087B0200087B0200087B020008EC
:100100007B0200087B0200087B0200087B020008DB
:100110007B0200087B02000879350008853500085D
:100120007B0200087B0200087B0200087B020008BB
:100130007B0200087B0200087B0200087B020008AB
:100140007B0200087B0200087B0200087B0200089B
:100150007B0200087B0200087B0200087B0200088B
:100160007B0200087B0200087B0200087B0200087B
:100170007B0200087B0200087B02000800000000F0
:100180007B0200087B020008DFF810D000F03AF98B
:100190000048004749480208AFF30080503701206B
:1001A0002C4B19680868B0E8F04F80F30988BFF35A
:1001B0006F8F4FF0000080F311887047000000003F
:1001C00008480068006880F308884FF0000080F35A
:1001D000148862B661B6BFF34F8FBFF36F8F00DF35
:1001E00000BF00BF08ED00E0DFF80C00016841F43B
:1001F00070010160704700BF88ED00E0EFF30980F7
:10020000BFF36F8F134B1A681EF0100F08BF20ED5D
:10021000108A20E9F04F106009B44FF0500080F3CD
:100220001188BFF34F8FBFF36F8F2AF04BF94FF058
:10023000000080F3118809BC19680868B0E8F04F25
:100240001EF0100F08BFB0EC108A80F30988BFF3CE
:100250006F8F7047C4000020EFF3058070470000E7
:100260000648804706480047FEE7FEE7FEE7FEE750
:10027000FEE7FEE7FEE7FEE7FEE7FEE75D35000886
:10028000890100082DE9F05F0546002092469B4653
:1002900088460646814640241BE02846414647469C
:1002A000224600F09EF853465A46C01A914110D398
:1002B00011461846224600F085F82D1A67EB010812
:1002C0004F4622460120002100F07CF817EB000980
:1002D0004E41201EA4F10104DFDC484631462A4687
:1002E0004346BDE8F09F10B5431A934209D28318E4
:1002F000881803E010F8011D03F8011D521EF9D201
:1003000010BD40EA01039B0703D009E008C9121F92
:1003100008C0042AFAD203E011F8013B00F8013BBF
:10032000521EF9D210BDD2B201E000F8012B491ED5
:10033000FBD270470022F6E710B513460A46044682
:100340001946FFF7F0FF204610BD30B505462A4696
:100350000B4612F8010B13F8014B08B1A042F8D07C
:100360001CB1002802D06D1CF1E7284630BD421CAC
:1003700010F8011B0029FBD1801A704710B500222C
:1003800000E0521C835C8C5CA34201D1002BF8D1AD
:10039000D8B2E1B2401A10BD30B504460020034681
:1003A00000E05B1C934203D2E05CCD5C401BF8D0C4
:1003B00030BD034611F8012B00F8012B002AF9D1BA
:1003C00018467047202A04DB203A00FA02F1002088
:1003D00070479140C2F1200320FA03F31943904083
:1003E0007047202A04DB203A21FA02F000217047EE
:1003F00021FA02F3D040C2F120029140084319468D
:1004000070470000064C074D06E0E06840F001032D
:1004100094E8070098471034AC42F6D3FFF7B8FED3
:1004200078FB020898FB020870B58C1810F8015B85
:1004300015F0070301D110F8013B2A1106D110F87D
:10044000012B03E010F8016B01F8016B5B1EF9D181
:100450002B0705D40023521E0DD401F8013BFAE707
:1004600010F8013BCB1A921C03E013F8015B01F872
:10047000015B521EF9D5A142D8D3002070BDFEE722
:1004800070B5104D4FF4807400222146284600F0CC
:100490006EFE00F05DF900226100284600F067FE64
:1004A000012006F04BFD01222146284600F05FFEA8
:1004B000012006F043FD21462846BDE87040002299
:1004C00000F055BE0004024010B586B01421684605
:1004D000FFF730FF1048016841F002010160006839
:1004E0000E4C00F0020005904FF440700090012087
:1004F00001900290022003906946204600F03AFDE8
:1005000001221102204600F032FE01225102204653
:1005100000F02DFE06B010BD30380240000402404D
:1005200070B5104D4FF4807400222146284600F02B
:100530001EFE00F00DF901225102284600F017FEC0
:10054000012006F0FBFC01222146284600F00FFEA8
:10055000012006F0F3FC21462846BDE87040002249
:1005600000F005BE000402402DE9F047804600245B
:1005700000F0DAF8154F00254FF480764FF400793B
:1005800000223146384600F0F2FD032006F0D6FC8A
:1005900001223146384600F0EAFD6006040E494665
:1005A000384600F0DFFD08B1641CE4B26D1CEDB20A
:1005B000082DE5D3B8F1000F04D0FFF761FF204606
:1005C000BDE8F087FFF7ACFFF9E700000004024048
:1005D0002DE9F041054600F0BBF8144E4FF480774A
:1005E00000223946304600F0C2FD00244FF4007866
:1005F000EA094146304600F0BAFD6806050E0122C0
:100600003946304600F0B3FD012006F097FC002289
:100610003946304600F0ABFD012006F08FFC641C2B
:10062000E4B2082CE4D3BDE8F081000000040240ED
:1006300070B500F08DF801220E4D54022146284677
:1006400000F095FD012216023146284600F08FFD8C
:10065000012006F073FC00222146284600F087FDA9
:10066000012006F06BFC31462846BDE870400022B0
:1006700000F07DBD0004024070B500F069F8104D37
:100680004FF4807400222146284600F070FD660079
:1006900000223146284600F06AFD012006F04EFC9B
:1006A00001222146284600F062FD012006F046FCAA
:1006B00031462846BDE87040012200F058BD0000D8
:1006C000000402402DE9F041002400F02DF8012241
:1006D000144D56023146284600F049FD012006F02F
:1006E0002DFC012217023946284600F040FD01206A
:1006F00006F024FC08E0641CE4B2FA2C04D9FFF7ED
:10070000BBFF0120BDE8F0813146284600F02AFDFC
:100710000028F0D100223946284600F028FD0020AC
:10072000F0E700000004024000B585B00020019011
:100730004FF400700090022003900120029069465F
:10074000024800F017FC05B000BD000000040240A4
:1007500000B585B001200190400200900220039076
:100760006946024800F006FC05B000BD00040240E6
:100770002DE9F0410E46074615460421052002F0FA
:10078000ABFC0021012002F0B3FD80210A2002F021
:10079000A3FD002405E0395D092002F0A9FD641CD9
:1007A000E4B2B442F7D30321012002F0A1FDFF24FB
:1007B000052002F025FD641E14F0FF0401D040075F
:1007C000F6D5222002F01CFD2870212002F018FD31
:1007D0006870BDE8F0810000014800F019BA00001F
:1007E000E405002001681823CAB2103AB2FBF3F204
:1007F000054B6FF30901032A9B5CC36500D9091DF2
:100800008165084670470000A8B4020810B501468B
:1008100000208B698A6A4FF0C07453B1B3F5005F52
:1008200015D072B1012A0CD0022A0AD0032A09D1AC
:1008300004E01AB1012A06D0022A03D1C96AC9010B
:1008400000D5012010BDC96AA142FAD010BD002A0E
:10085000F7D0012AF2D0022AF3D0032AF3D010BD38
:1008600030B50468256825F4802525600468636038
:100870008368402B036803D099600068C26030BD74
:100880009A600068C16030BD7047102000F066BB00
:1008900072B6FEE770B588B0142101A8FFF74AFDD3
:1008A0002B480024016841F0020101600068012525
:1008B00000F0020006904020CDE901050220CDE9BC
:1008C0000340244E01A9304600F054FB01A98020CA
:1008D00081E83100304600F04DFBFFF7F5FD0022C6
:1008E0004021304600F043FC0A2006F022FB0122A2
:1008F0004021304600F03BFC4FF4FA7006F019FB43
:1009000001226946A82000F027F89DF80000112870
:1009100018D1022269469F2000F01EF89DF80000C1
:1009200026280FD19DF8010018B1012801D0022816
:1009300008D101226946A32000F00EF89DF80000BE
:10094000642802D0012008B070BD0020FBE7000041
:1009500030380240000402402DE9F04115460E46B1
:100960000446FFF765FE7020FFF732FEFFF7AAFE90
:10097000E0B2FFF72DFEFFF7A5FEFFF759FE71204D
:10098000FFF726FEFFF79EFE00246F1E09E0BC4223
:1009900001D0012000E00020FFF7E6FD3055641C87
:1009A000E4B2AC42F3D3BDE8F041FFF765BE00000E
:1009B0002DE9FC5F644E00244FF00A093088DFF80F
:1009C0008C81401C80B2B0FBF9F209FB1201274672
:1009D000308009B10A2874D2012201A90220FFF750
:1009E000BBFF9DF8041000296CD003296BD2FF20B7
:1009F0008840C04340F0C000DFF854A1DFF854B194
:100A0000454688F8100001273AF814000422694688
:100A1000FFF7A2FF297C07FA04F001426BD09BF894
:100A20000610584631B1012919D002292FD00329C7
:100A300061D149E09DF800109DF8010001F00F011F
:100A400000EB012105EB440001819DF802209DF897
:100A5000031002F00F0201EB022181814BE09DF8AF
:100A600000209DF8011002F00F02BBF8020001EB1C
:100A70000221411A05EB440081819DF802209DF876
:100A8000031002F00F0201EB0221018133E09DF817
:100A900000209DF8011002F00F0201EB02210288F4
:100AA000521A05EB44010A819DF802309DF803209B
:100AB00003F00F03BBF8020002EB0322801A8881C7
:100AC00019E025E027E037E09DF800209DF80110AF
:100AD00002F00F0201EB022205EB44018A819DF82E
:100AE00002309DF8032003F00F03BBF8000002EB77
:100AF0000322801A0881641CE4B2022C84D30127EB
:100B00002989002019B9A98909B98DF80400308014
:100B10009DF8040080B998F81000010602D520F075
:100B2000800007E04FF6FF71A8F80810A8F80C1035
:100B300000F0E00088F810003088F02801D9A6F80D
:100B400000903846BDE8FC9F3A000020500000208D
:100B5000C8B40208700700202DE9F0410446876DF3
:100B600000F00AFB064694F835000025022806D05E
:100B70008020606584F834500120BDE8F081206851
:100B8000016821F0160101602068416921F08001AF
:100B90004161206C08B9A06C20B12068016821F087
:100BA000080101602068016821F0010101600CE08A
:100BB00000F0E2FA801B052807D920206065032099
:100BC00084F8350084F83450D7E720680068C007FF
:100BD000EED194F85C103F208840B860012084F882
:100BE000350084F834500020C7E790F8351002290A
:100BF00003D08021416501207047052180F8351020
:100C00000068016821F001010160002070470000C8
:100C10002DE9F84304464FF00009CDF800906348F1
:100C20004FF41651A56D0068B0FBF1F72E6894F8EB
:100C30005C10082000FA01F131420FD021680A68E7
:100C400052070BD50A6822F004020A6094F85C107F
:100C50008840A860606D40F00100606594F85C1009
:100C60004FF0010808FA01F0304208D021684969C4
:100C7000090604D5A860606D40F00200606594F834
:100C80005C1004208840304208D021680968890738
:100C900004D5A860606D40F00400606594F85C10B5
:100CA00010208840304218D021680968090714D5FF
:100CB000A86020680168490304D50068000308D5CE
:100CC000A16C07E00168C90503D4016821F008019F
:100CD0000160216C09B12046884794F85C102020FF
:100CE0008840304231D021680968C9062DD5A860F6
:100CF00094F8350005282068016806D0490347D5D7
:100D0000006800031DD4616C1CE021F01601016035
:100D10002068416921F080014161206C08B9A06C14
:100D200020B12068016821F00801016094F85C108E
:100D30003F208840A86084F8358084F83490216D85
:100D40001FE0E16B09B120468847606D00282BD079
:100D5000606DC00714D0052084F835002068016854
:100D600021F0010101600098401C0090B84203D8B6
:100D700020680068C007F6D184F8358084F8349084
:100D8000E16C002910D001B02046BDE8F0430847CF
:100D90000168C905D5D4016821F01001016084F80B
:100DA000358084F83490CCE7BDE8F883300000202B
:100DB0002DE9F041044600F0DFF906465CB102205F
:100DC00084F83500002584F834502068016821F04B
:100DD000010101600DE00120BDE8F08100F0CCF9D7
:100DE000801B052805D920206065032084F8350084
:100DF000F2E720680068C007F0D122681168204837
:100E00000140D4E901031843D4E9033633431843BE
:100E100063691843A3691843E3691843236A1843B5
:100E20000843616A042903D1D4E90B131943084329
:100E3000106020684069666A20F0070130460E4362
:100E4000012704280CD1A06A0643E06A40B120467D
:100E5000FFF7DCFC20B14020606584F83570BAE70C
:100E6000206846612046FFF7BDFC94F85C203F21D6
:100E700091408160656584F835700020ACE7000022
:100E80003F8010F02DE9F0410446866D90F8340063
:100E9000002501280DD0012084F8340094F8357025
:100EA0000020012F07D084F8340002252846BDE831
:100EB000F0810220FBE7022784F835706065204648
:100EC000FFF7CEFC94F85C103F208840B0602068AB
:100ED000016841F016010160206C20B120680168B2
:100EE00041F0080101602068016841F001010160E2
:100EF000DCE7000070B5044600F03EF90546601CD2
:100F000002D004480078044400F036F9401BA042A7
:100F1000FAD370BD2400002008B5102817D1102185
:100F20000B4800F01FF9012811D10020009009485A
:100F30006946006829F047FE0098002807D0064956
:100F40004FF080500860BFF34F8FBFF36F8F08BD25
:100F5000000C02401000002004ED00E0044910B530
:100F60000A68024202D00860FFF7D6FF10BD0000F9
:100F7000143C01402DE9F84FDFF8BCA10022012507
:100F800003264FF00F090AF1040BAAF1040E00BF6B
:100F90000B6805FA02F42340A34270D10F7907F0E1
:100FA0000307012F01D0022F16D187684FEA4208AC
:100FB00006FA08FC27EA0C07D1F80CC00CFA08FC6A
:100FC0004CEA070CC0F808C04768A7430C79C4F383
:100FD000001494403C4344600C79E443A4070AD0D5
:100FE000C4684FEA420C06FA0CF7BC438F6807FA54
:100FF0000CF72743C7600C7904F00304022C12D1CC
:10100000D40800EB840CDCF820405707FF0E09FAE7
:1010100007F824EA0804D1F8108008FA07F848EA2B
:101020000408CCF8208004684FEA420C06FA0CF75A
:10103000BC430F7907F0030707FA0CF72743076053
:101040004C6814F4403F70D03C4C276847F480470C
:101050002760246822F0030704F480440094384C8D
:1010600007EB040CDCF8084897074FEA177809FAF1
:1010700008F7BC43334FB84202D1002724E054E0C4
:10108000314FB84201D101271EE0304FB84201D1A3
:10109000022719E02E4FB84201D1032714E02D4F4B
:1010A000B84201D104270FE02B4FB84201D10527E8
:1010B0000AE02A4FB84201D1062705E0284FB8427E
:1010C00001D1072700E0082707FA08F72743CCF8E3
:1010D0000878DAF800405746D1F804C09C435FEA2C
:1010E000CC2C00D51C433C60DBF800405F46D1F8B7
:1010F00004C09C435FEA8C2C00D51C433C60DEF8A6
:1011000000407746D1F804C09C435FEA8C3C00D590
:101110001C433C60084F083F3C68D1F804C09C4326
:101120005FEACC3C00D51C433C60521C102AFFF403
:101130002FAFBDE8F88F0000083C01404438024062
:10114000003001400000024000040240000802405C
:10115000000C02400010024000140240001802403F
:10116000001C02400069084000D0012070470AB10D
:10117000816170470904FBE70148806870470000FF
:101180002400002002488168027811448160704781
:10119000240000200B4810B5016841F40071016083
:1011A000016841F480610160016841F4807101606F
:1011B000032000F09FF80F2000F006F800F050F830
:1011C000002010BD003C024030B505461F4887B0E6
:1011D0000024016841F004010160006806A900F0E4
:1011E0000400009001A800F031F90498A8B100F0C3
:1011F0004DF940001649174AB0FBF1F11648491E57
:10120000026040F2E732C0E90324C0E901148461BE
:1012100000F0E0FC040003D015E000F037F9E9E746
:101220000D4800F005FD04000DD11E2000F034F83B
:10123000102D07D2002229461E2000F03BF8074857
:10124000056000E0012407B0204630BD4038024070
:1012500040420F00000800405803002028000020F2
:101260000C4882B0016841F480410160006800F4DC
:10127000804000900748001F016841F080510160E4
:101280000068002200F0805000900F21901E02B0F4
:1012900000F010B844380240002809DB00F01F02BB
:1012A000012191404009800000F1E020C0F80011C8
:1012B00070470000F0B40E4B1B680C46C3F30223CA
:1012C000C3F10705042D00D90425191D072901D2F2
:1012D000002300E0DB1E012606FA05F1491E21402D
:1012E00099409E40761E16403143F0BC02F002BE8B
:1012F0000CED00E0064900F0070208684FF6FF0316
:10130000184040EA0220034A10430860704700007A
:101310000CED00E00000FA052DE9F0470E4605004F
:1013200065D0DFF81481D8F80000F7B200F00700AC
:10133000B04207D288F80070D8F8000000F007002B
:10134000B04254D128683D4C810712D5400703D5DF
:10135000206840F4E05020602878000703D520681A
:1013600040F4604020602068A96820F0F000084345
:1013700020602878C0072DD03049686808390128D6
:1013800012D0022813D0032811D009688907002938
:101390002DDA216821F0030101432160FFF7ECFE03
:1013A000814641F2883A0EE009688903EFE709684F
:1013B0008901ECE7FFF7E0FEA0EB0901514502D9F6
:1013C0000320BDE8F0872068696800F00C00B0EBEE
:1013D000810FEFD1D8F80010404601F00701B1426B
:1013E00007D90770006800F00700B04201D0012063
:1013F000E7E72878400705D52068E96820F4E05041
:10140000084320602878000706D52068296920F461
:10141000604040EAC100206000F058F82168084AA6
:10142000C1F30311515CC8400649086006480068D2
:10143000FFF7CAFE0020C4E7003C02400838024023
:10144000B0B4020830000020280000200F22026003
:101450000C4A136803F003034360136803F0F003BE
:101460008360136803F4E053C36012684FF4E053E1
:1014700003EAD20202610448006800F00700086035
:101480007047000008380240003C0240044805490B
:1014900000680968044AC1F38221515CC840704762
:1014A0003000002008380240C0B402080448054952
:1014B00000680968044AC1F34231515CC840704772
:1014C0003000002008380240C0B40208154810B5AA
:1014D000006810F00C02144813D04110042A0FD0F9
:1014E000082A0ED10F4C241F2268236802F03F0205
:1014F0005B0207D52068C0F38810A0FB010106E05D
:10150000084610BD2168C1F38811A1FB000100232A
:10151000FEF7B8FE2168C1F30141491C4900B0FB48
:10152000F1F010BD083802400024F4002DE9F84F16
:1015300004006ED02078DFF84C93C007A9F10405B1
:101540004AD009F104000168C1F38101012908D0E2
:101550000068C0F3810002280AD1D9F800004002D7
:1015600006D52868800337D560680028E1D033E0CD
:101570006068B0F5803F10D0B0F5A02F286810D07B
:1015800020F480302860286820F48020286060687B
:10159000A8B1FFF7F1FD06460DE0286840F4803061
:1015A000F4E740F480202860F7E700BFFFF7E4FD90
:1015B000801B642873D828688003F7D50CE0FFF7F8
:1015C000DBFD064605E000BFFFF7D6FD801B642863
:1015D000F0D828688003F7D42078DFF8AC82800741
:1015E0004FF0000A3ED5A748001D016811F00C0F0E
:1015F00008D00068C0F3810002280BD1D9F80000A0
:10160000400207D42868800716D5E068012800D179
:1016100012E033E1E068B8B10120C8F80000FFF73C
:10162000ABFD064605E000BFFFF7A6FD801B0228C4
:10163000C0D828688007F7D52868216920F0F8000D
:1016400040EAC10028600DE0C8F800A0FFF794FD53
:10165000064604E0FFF790FD801B02281FD828688B
:101660008007F7D42078000722D5864F8748616924
:10167000703771B101210160FFF77EFD064604E07D
:10168000FFF77AFD801B022809D838688007F7D554
:101690000EE0C0F800A0FFF76FFD064605E082E00F
:1016A000FFF76AFD801B02287DD838688007F7D4D1
:1016B0002078400768D5DFF8CCB100270BF13C0B50
:1016C000DBF80000C0000BD4DBF8001041F08051C3
:1016D000CBF80010DBF80000012700F080500090EC
:1016E0006B4E3068C00510D4306840F480703060B4
:1016F000FFF742FD009005E0FFF73EFD0099401A1C
:10170000022850D83068C005F6D55E4EA0686C3609
:1017100001280FD00528306810D020F0010030607B
:10172000306820F004003060A068B8B1FFF724FDF5
:1017300000900FE0306840F00100F4E740F0040052
:101740003060F7E7FFF718FD0099411A41F2883041
:10175000814266D830688007F4D50EE0FFF70CFDB3
:10176000009007E0FFF708FD0099411A41F2883028
:10177000814256D830688007F4D42FB1DBF80010CE
:1017800021F08051CBF80010A069C8B33D49091D74
:101790000968C1F3810102294AD00228504607D0C6
:1017A000C8F8600000E03CE0FFF7E6FC04463BE0E0
:1017B0004746C8F86000FFF7DFFC064605E000BFBB
:1017C000FFF7DAFC801B02282BD828688001F7D4A9
:1017D000D4E907010843A16A2E4A490802EB0141F6
:1017E000626A41EA8211084394F82C1040EA0161D0
:1017F000C9F8001001203866FFF7BEFC044606E079
:101800003EE000BFFFF7B8FC001B022809D828689B
:101810008001F7D534E000BFFFF7AEFC001B0228C3
:1018200002D90320BDE8F88F28688001F4D427E0AE
:101830000128F7D0D9F80000E26900F48001914254
:101840001CD1226A00F03F01914217D147F6C071C6
:10185000626A0140B1EB821F10D1A26A4FF0FF33E0
:1018600000F4403103EB5202B1EB024F06D194F881
:101870002C1000F07060B0EB016F01D00120D1E7B7
:101880000020CFE70438024000004742800E474264
:10189000007000400000FFFF90F85100704770B5E5
:1018A000040009D0606A002540B125616561A56228
:1018B00094F8510040B10CE0012070BD6068B0F5B3
:1018C000827FF4D0E561F2E784F85050204600F0C2
:1018D00044F8022084F851002068016821F040019A
:1018E0000160A088218900F4827001F4044108435A
:1018F000A18901F400610843217C01F00201084341
:10190000217D01F001010843218B01F4007108439E
:10191000217F01F03801084394F8201001F0800184
:101920000843218D01F40051084321680860A06933
:10193000042101EA104094F8241001F0100108433A
:10194000216848602068C16921F40061C161656552
:10195000012084F85100002070BD70472DE9F84F38
:10196000044690F8500000270A9E1D4692468B467A
:101970004FF0010901280ED0012084F85000FFF734
:10198000FBFB804694F85100616801280CD0B1F54A
:10199000827F07D102E00220BDE8F88FA16809B973
:1019A000042801D00227C2E0BBF1000F27D0BAF112
:1019B000000F24D01DB394F85100042802D0052054
:1019C00084F8510000206065C4F838A0E587A58739
:1019D000C4F830B0E586A58620646064206801689C
:1019E000490603D4016841F040010160E068B0F5A8
:1019F000006F606805D0E8B3012D46D07FE0012775
:101A000095E008B1012D39D1206B21680088C860AC
:101A1000206B801C2063E08E401EE0862EE0206854
:101A2000816889070FD5E18E69B1B9F1010F0AD13B
:101A3000216B0988C160206B801C2063E08E401EF2
:101A4000E0864FF0000920688168C9070CD0E18F5B
:101A500051B1C068A16B0880A06B801CA063E08FAF
:101A6000401EE0874FF00109FFF786FBA0EB08005E
:101A7000B04200E009E001D3701C50D1E08E002894
:101A8000CDD1E08F0028CAD13FE0206B21680078DB
:101A90000873206B401C2063E08E401EE0862EE021
:101AA0002068816889070FD5E18E69B1B9F1010F0E
:101AB0000AD1216B09780173206B401C2063E08EF2
:101AC000401EE0864FF0000920688168C9070CD0ED
:101AD000E18F51B1C068A16B0870A06B401CA0637E
:101AE000E08F401EE0874FF00109FFF745FBA0EBB8
:101AF0000800B04202D3701C01D010E07EB1E08E2D
:101B00000028CDD1E08F0028CAD142463146204678
:101B100001F020FC28B101272020606507E00327A1
:101B200005E0A06818B92068C168806800900120AD
:101B300084F85100002084F8500038462CE77047A4
:101B40007047000070B590F83C20012A32D0012483
:101B500080F83C40022280F83D2003685A689D6866
:101B600022F070060A6832435A60134B02689A42A8
:101B700014D0B2F1804F11D0104B9A420ED0104BBE
:101B80009A420BD00F4B9A4208D00F4B9A4205D085
:101B90000E4B9A4202D00E4B9A4204D1496825F06E
:101BA00080031943916080F83D40002180F83C108B
:101BB000084670BD022070BD0000014000040040D6
:101BC00000080040000C00400004014000400140BB
:101BD0000018004010B5040003D094F83D0010B187
:101BE00007E0012010BD002084F83C00204600F0F2
:101BF0001EF8022084F83D00211D206801F0C8FC79
:101C0000012084F8460084F83E0084F83F0084F800
:101C1000400084F8410084F8420084F8430084F8CE
:101C2000440084F8450084F83D00002010BD704752
:101C300090F83D10012901D001207047022180F861
:101C40003D100168CA6842F00102CA60006811498B
:101C5000884214D0B0F1804F11D00F4988420ED085
:101C60000E4988420BD00E49884208D00D4988425F
:101C700005D00D49884202D00C49884204D18168C0
:101C800001F00701062903D0016841F0010101605C
:101C900000207047000001400004004000080040A0
:101CA000000C0040000401400040014000180040CA
:101CB000704770B50446006801694FF00005C943DC
:101CC000890715D4C168C943890711D4E91E016188
:101CD00001202077206880698007204602D0FFF726
:101CE000E7FF04E000F098F8204600F096F825772A
:101CF00020680169C943490717D4C168C943490726
:101D000013D46FF0040101610220207720688069FC
:101D100010F4407F204602D0FFF7CAFF04E000F035
:101D20007BF8204600F079F8257720680169C943DF
:101D3000090716D4C168C943090712D46FF0080116
:101D40000161042020772068C0698007204602D006
:101D5000FFF7AEFF04E000F05FF8204600F05DF80A
:101D6000257720680169C943C90617D4C168C943EA
:101D7000C90613D46FF01001016108202077206894
:101D8000C06910F4407F204602D0FFF791FF04E0C5
:101D900000F042F8204600F040F8257720680169FD
:101DA000C943C90708D1C168C943C90704D1891EFD
:101DB0000161204600F032F820680169C943090634
:101DC00009D4C168C943090605D46FF080010161D7
:101DD0002046FFF7B4FE20680169C943490609D4CB
:101DE000C168C943490605D46FF04001016120462E
:101DF00000F036F820680169C94389060BD4C16830
:101E0000C943890607D46FF0200101612046BDE86F
:101E10007040FFF795BE70BD7047704710B504461F
:101E200000680B49884201D1FFF7ACF909488442A8
:101E300004D1BDE81040012022F00AB806488442CF
:101E400004D106484068BDE81040004710BD0000BE
:101E500000080040440600208C06002050000020AE
:101E60007047704710B504460068406994F83D100B
:101E7000C0F3C010212911D180B12068143050E87E
:101E8000001F21F0800140E80012002AF5D1606BAC
:101E900008B1FEF761FE204601F0F8FC20684069B9
:101EA00094F83E10C0F38010222911D180B120682F
:101EB000143050E8001F21F0400140E80012002AD1
:101EC000F5D1A06B08B1FEF747FE204601F0B7FC44
:101ED000002010BD70470000F8B50168044608688E
:101EE000CA684B6910F00F0F4FF0000559D003F08E
:101EF000010602F49077374365D0C10705D0D105BC
:101F000003D5216C41F001012164410705D5D907B2
:101F100003D0216C41F002012164810705D5D90766
:101F200003D0216C41F004012164010707D502F0C0
:101F30002001314303D0216C41F008012164216C60
:101F400000293AD0800604D5900602D5204601F03B
:101F5000ABFC20684069216CC0F38010090700D4F5
:101F600060B3204601F06BFC20684069400621D533
:101F70002068143050E8001F21F0400140E80012B2
:101F8000002AF5D1A06BA8B16C490165A06BFEF7E2
:101F90002CFE002811D0A06B016D01B0BDE8F0400F
:101FA000084783060FD593060DD52046BDE8F840B7
:101FB00001F07ABC2046FFF78DFFF8BD2046FFF701
:101FC00089FF2564F8BD266B2023012E79D1C60632
:101FD00077D5D60675D508684868009048694006E8
:101FE00040D5A16B086840680004000CEAD0A28DBF
:101FF0008242E7D9E085C869B0F5807F2DD020689E
:102000000C3050E8001F21F4807140E80012002AD3
:10201000F5D12068143050E8001F21F0010140E89C
:102020000012002AF5D12068143050E8001F21F07A
:10203000400140E80012002AF5D184F83E302563C3
:1020400020680C3050E8001F21F0100140E8001219
:10205000002AF5D1A06BFEF77FFDA08DE18D401A1F
:1020600081B229E0A08DE18D401A81B2E08D002877
:10207000A8D00029A6D020680C3050E8002F22F408
:10208000907240E80026002EF5D12068143050E808
:10209000002F22F0010240E80026002EF5D184F83E
:1020A0003E30256320680C3050E8002F22F01002EB
:1020B00040E80023002BF5D12046FFF7D2FEF8BD03
:1020C000FFE705062BD5150629D594F83D002128F4
:1020D000F5D1A068B0F5805F01D12069B0B1206A68
:1020E000411C2162216800784860E08C401E000499
:1020F000000CE084E3D12068C16821F08001C16058
:102100002068C16841F04001C160D8E7206A0088BA
:10211000C0F308004860206A801C2062E5E74006A2
:10212000CDD55006CBD5CA68204622F04002CA6001
:1021300084F83D3000F0DDF8C1E7000049370008C1
:1021400070B5040004D094F83D00002510B106E0FD
:10215000012070BD84F83C50204600F022F8242075
:1021600084F83D002068C16821F40051C160204618
:1021700001F0FAFB2068016921F4904101612068B7
:10218000416921F02A0141612068C16841F4005190
:10219000C1602564202084F83D0084F83E000020C2
:1021A00070BD704790F83E30202B0ED159B152B11E
:1021B00090F83C30012B08D0012380F83C300023FC
:1021C000036301F057BC012070470220704790F86C
:1021D0003E30202B0ED159B152B190F83C30012B3A
:1021E00008D0012380F83C300023036301F08CBC4D
:1021F00001207047022070477047704738B5044689
:1022000000680C49884214D10068C00611D52046E8
:10221000FFF728FEA06B006840680749012048705E
:10222000420206492046FFF7BDFF2068016840686A
:10223000009038BD0044004034000020A00300207E
:102240002DE9F843044690F83D001F4616460D461A
:1022500020284CD1C5B1BEB194F83C00012846D02D
:10226000012084F83C004FF00008C4F84080212091
:1022700084F83D00FEF780FFA6848146E684A068CE
:10228000B0F5805F03D004E00120BDE8F883206949
:1022900028B12E465FF0000584F83C800EE0002651
:1022A000FAE78021204601F04CFCA0B9AEB116F847
:1022B000010B21684860E08C401EE084E08C4B46B6
:1022C0004FF0000200970028EBD14FF0400120466C
:1022D00001F037FC30B10320D7E735F8020BC0F32B
:1022E0000800E6E7202084F83D000020CDE702202A
:1022F000CBE77047FEE700002DE9FE4F234C074671
:1023000000216088401E83B22088401E82B20846A9
:1023100000F0EEF9DFF878A04FF40021CAF81810A9
:102320000421CAF8181000204FEA17288DF804007D
:102330008DF8080005466426FFB2A1461CE0002483
:1023400015E000BF11488DF80480012302AA01A9FD
:1023500010300096FFF702FB0C488DF80470012343
:1023600002AA01A910300096FFF7F8FA641CB9F828
:102370000000A042E6D86D1CB9F80210A942DED8D0
:102380000821CAF81810BDE8FE8F00007007002071
:10239000000002402DE9F041141A641CA7B25C1A37
:1023A000641C1FFA84F8069E00F0A2F900250BE0D9
:1023B000002405E0308800F041FA641CA4B2B61C89
:1023C000BC42F7D36D1CADB24545F1D306484188F8
:1023D0000088491EBDE8F041401E8BB282B2002148
:1023E000084600F085B900007007002010B500F025
:1023F0000DF900F069F9CF2000F0C8F9002000F0D5
:10240000A5F9C12000F0A2F9302000F09FF9ED20DD
:1024100000F0BCF9642000F099F9032000F096F96F
:10242000122000F093F9812000F090F9E82000F0EC
:10243000ADF9852000F08AF9002000F087F97820B6
:1024400000F084F9CB2000F0A1F9392000F07EF9EA
:102450002C2000F07BF9002000F078F9342000F007
:1024600075F9022000F072F9F72000F08FF92020B2
:1024700000F06CF9EA2000F089F9002000F066F91C
:10248000002000F063F9C02000F080F9132000F074
:102490005DF9C12000F07AF9132000F057F9C5204A
:1024A00000F074F9222000F051F9352000F04EF9C7
:1024B000C72000F06BF9BD2000F048F9212000F0A2
:1024C00065F9362000F062F9082000F03FF9B620E7
:1024D00000F05CF90A2000F039F9A22000F036F98A
:1024E0003A2000F053F9552000F030F9F62000F0C2
:1024F0004DF9012000F02AF9302000F027F9B12031
:1025000000F044F9002000F021F91B2000F01EF932
:10251000F22000F03BF9002000F018F9262000F02E
:1025200035F9012000F012F9E02000F02FF90F201A
:1025300000F00CF9352000F009F9312000F006F91F
:102540000B2000F003F90E2000F000F9062000F047
:10255000FDF8492000F0FAF8A72000F0F7F8332042
:1025600000F0F4F8072000F0F1F80F2000F0EEF88A
:10257000032000F0EBF80C2000F0E8F80A2000F04F
:10258000E5F8002000F0E2F8E12000F0FFF800207C
:1025900000F0DCF80A2000F0D9F80F2000F0D6F89F
:1025A000042000F0D3F8112000F0D0F8082000F04B
:1025B000CDF8362000F0CAF8582000F0C7F84D20BA
:1025C00000F0C4F8072000F0C1F8102000F0BEF8B9
:1025D0000C2000F0BBF8322000F0B8F8342000F0F6
:1025E000B5F80F2000F0B2F8112000F0CFF87820F5
:1025F00004F09FFC292000F0C9F8002000F0F2F858
:10260000BDE810404FF6FF70FFF776BEF0B587B01B
:1026100014216846FDF78EFE27480024016841F02A
:10262000010101600068254F00F00100059022467D
:102630001E213846FEF79BFD01251E20CDE9000531
:102640000226CDE9025669463846FEF793FC1A4841
:102650001430016841F4805101600068694600F45B
:1026600080500590E020CDE900060320CDE902501E
:10267000052004903846FEF77DFC124810490160A1
:102680004FF48271C0E901144561C0E90346690253
:10269000C0E90614046207214462C0E90A41FFF759
:1026A000FEF808B1FEF7F4F8012202213846FEF7E1
:1026B0005EFD07B0F0BD000030380240000002406F
:1026C000003001408007002070B5084C1025A5613E
:1026D000322004F02EFCE000A061642004F029FC0C
:1026E000A561BDE87040322004F023BC0000024028
:1026F0002DE9F041DFF8508007461C4615460E468E
:1027000098F80C0000F042F8380A00F01FF8F8B210
:1027100000F01CF8280A00F019F8E8B200F016F8EA
:1027200098F80E0000F032F8300A00F00FF8F0B21E
:1027300000F00CF8200A00F009F8E0B200F006F80A
:10274000BDE8F04100F03EB8700700203EB50D4CEA
:102750004FF40021A1610421A16100218DF8041032
:102760008DF808000121084800F020FE6420009048
:10277000012301AA02A90448FFF7F0F80820A0618C
:102780003EBD000000000240800700203EB50B4C1B
:102790004FF40021A1614910A1618DF808000021CA
:1027A00064208DF804100090012301AA02A90448B6
:1027B000FFF7D4F80820A0613EBD000000000240F1
:1027C000800700200148007AFFF7E0BF7007002073
:1027D00010B50C46FFF7DAFFE0B2BDE81040FFF796
:1027E000B5BF000014492A228A812B22CA812C22DB
:1027F0000A812E224A8110F003038B714FF0F00200
:102800004FF4A0700BD0012B0DD0022B0FD0032B57
:1028100011D108804A80A8213620FFF7D9BF0A804D
:1028200048800821F8E708804A806821F4E70A8098
:102830004880C821F0E7704770070020FEB5124DB0
:1028400004464FF40020A8610420A861200A8DF8F6
:10285000040000208DF8080001210C4800F0A6FDBE
:102860006426012302AA01A908480096FFF776F81A
:102870008DF80440012302AA01A904480096FFF73D
:102880006DF80820A861FEBD00000240800700200E
:102890001CB5012027F0E4FF1C4C03220021E0605E
:1028A000012027F0E8FF206100220121052027F008
:1028B000E2FF606100220121052027F0DCFFA0611A
:1028C000134A0021134822F0FFFCE0612046032454
:1028D000CDE90040002380220FA1124828F054FBCC
:1028E0000A480023001DCDE9004080220EA11048B7
:1028F00028F04AFB054800230830CDE900404FF49A
:1029000000720CA10E4828F03FFB1CBD0000002007
:1029100084B40208A53400085043445F5461736BCB
:102920000000000081A5020846505F5461736B00EF
:1029300029A502084C56474C5F5461736B00000098
:1029400051A5020830B5184C87B00025206840F02A
:1029500080002060206800F080000590206840F032
:10296000010020602068142100F0010005906846F5
:10297000FDF7E0FC206840F00100206020680B4C6F
:1029800000F001000590002202212046FEF7EFFB37
:10299000022000900120CDE90105694620460395FB
:1029A000FEF7E8FA07B030BD3038024000000240C0
:1029B0003EB51A480024016841F01001016000682A
:1029C000224600F01000029002213620FEF772FC31
:1029D0003620FEF761FC1348009411490194016010
:1029E000114944F620620968B1FBF2F1491EC0E9C1
:1029F000011409218461C160FFF7ECF808B1FDF70B
:102A000047FF0094694607480194FFF79BF808B117
:102A1000FDF73EFF0348FFF70BF93EBD403802408B
:102A20000010004044060020300000203EB51A4847
:102A30000024016841F0200101600068224600F096
:102A40002000029006213720FEF734FC3720FEF7E5
:102A500023FC13480094114901940160114944F684
:102A600020620968B1FBF2F1491EC0E9011463213B
:102A70008461C160FFF7AEF808B1FDF709FF00946B
:102A8000694607480194FFF75DF808B1FDF700FFBC
:102A90000348FFF7CDF83EBD403802400014004027
:102AA0008C06002030000020FEE7FEE738B50C461B
:102AB000054604F015F803F0CBFF012004F03CF8C4
:102AC000072004F023F80C2003F0FEFF284603F053
:102AD0007DFF200A8DF80000642301226946124818
:102AE000FFF7AEFB8DF800406423012269460E48D3
:102AF000FFF7A6FB2819143080B203F0CFFF0A4875
:102B00000068C16841F00401C160084841780129AA
:102B1000FCD1002141704FF4967003F06DFEFF2848
:102B200000D1012038BD0000A005002034000020A5
:102B300010B5044603F0D4FF03F08AFF012003F030
:102B4000FBFF042003F0E2FF022003F0BDFF20465C
:102B500003F030FFE01D03F0A1FF0A480068C168E0
:102B600041F00401C160084841780129FCD10021ED
:102B700041704FF4967003F03FFEFF2800D1012012
:102B800010BD0000A00500203400002010B503F0A7
:102B9000A7FF03F05DFF012003F0CEFF032003F049
:102BA000B5FF012003F090FF052003F077FF0A48EE
:102BB0000068C16841F00401C160084841780129FA
:102BC000FCD1002141704FF4967003F015FEFF28F0
:102BD00000D1012010BD0000A0050020340000201D
:102BE0007FB514460D46064603F07AFF03F030FF2A
:102BF000012003F0A1FF082003F088FF1B2003F051
:102C000063FF304603F0D6FE284603F00BFF204654
:102C100003F0F2FE70192044243080B203F03EFF2E
:102C20000A480068C16841F00401C1600848417861
:102C30000129FCD10021417003A94FF4967003F0E3
:102C4000DBFDFF2800D1012004B070BDA0050020ED
:102C50003400002070B50C46054603F041FF03F038
:102C6000F7FE012003F068FF062003F04FFF072066
:102C700003F02AFF284603F09DFE204603F0A6FE3F
:102C800028190E3080B203F009FF0A480068C168B5
:102C900041F00401C160084841780129FCD10021BC
:102CA00041704FF4967003F0A7FDFF2800D101207A
:102CB00070BD0000A00500203400002010B503F016
:102CC0000FFF03F0C5FE012003F036FF032003F0E1
:102CD0001DFF032003F0F8FE072003F0DFFE0A4883
:102CE0000068C16841F00401C160084841780129C9
:102CF000FCD1002141704FF4967003F07DFDFF2858
:102D000000D1012010BD0000A005002034000020EB
:102D100010B503F0E5FE03F09BFE012003F00CFF6D
:102D2000032003F0F3FE052003F0CEFE092003F09C
:102D3000B5FE0A480068C16841F00401C160084856
:102D400041780129FCD1002141704FF4967003F0C5
:102D500053FDFF2800D1012010BD0000A005002078
:102D60003400002070B50C46054603F0B9FE03F0B0
:102D70006FFE012003F0E0FE062003F0C7FE0620F0
:102D800003F0A2FE284603F015FE204603F01EFEC7
:102D900028190D3080B203F081FE0A480068C1682E
:102DA00041F00401C160084841780129FCD10021AB
:102DB00041704FF4967003F01FFDFF2800D10120F1
:102DC00070BD0000A00500203400002001B503F014
:102DD00087FE03F03DFE012003F0AEFE032003F06A
:102DE00095FE1D2003F070FE212003F057FE0A48D7
:102DF0000068C16841F00401C160084841780129B8
:102E0000FCD10021417069464FF4967003F0F4FC48
:102E1000FF2800D1012008BDA005002034000020BB
:102E200070B50646082188B00024084600F054F921
:102E300000210D2000F05CFA80210E2000F04CF9FA
:102E400093208DF8040020208DF8050006A801AB22
:102E50000090022219460C2000F018F8054626289A
:102E60000DD1002101A8425C7254425C491C5440BF
:102E7000C9B20429F7D3405CA04200D0BB25802111
:102E80000E2000F029FA08B0284670BD2DE9FF5F3A
:102E90000027BB25DDF838A016468B468146B8468C
:102EA0000C2805D0B9F10E0F05D11227102001E032
:102EB00077273020804647F08001022000F018FA82
:102EC0008021042000F008F90021012000F010FA10
:102ED00080210A2000F000FA002405E01BF804100D
:102EE000092000F005FA641CB442F7D349460120DA
:102EF00000F0FEF9B9F10C0F03D180210D2000F094
:102F0000EBF94FF47A76042000F07AF90446761E45
:102F100004D0E00702D114EA080FF4D080210D207C
:102F200000F0DAF836B1062000F06AF910F01B0F55
:102F30000CD0BB2580210C2000F0CEF9002101200F
:102F400000F0D6F904B02846BDE8F09F26253C40A5
:102F5000E00700D0CC25B9F10C0FEBD10A2000F02E
:102F60004FF904460C2000F04BF910F007004FEA2F
:102F7000C40101D008390144CAF8001024B1122C50
:102F800004D91224002603E00124FBE7002605E013
:102F9000092000F035F903998855761CA642F7D32D
:102FA000C8E700B587B050208DF8040000208DF8E8
:102FB00005000DF10602022101A8FDF7D9FB06A8C4
:102FC00001AB0090042219460C20FFF75FFF07B009
:102FD000262000BD30B50C460546082187B00846BE
:102FE00000F07AF807210D2000F082F90321142067
:102FF00000F072F906A801AB00908DF80450012290
:1030000019460C20FFF742FF262802D10699102905
:1030100002D0BB2007B030BD9DF8041021709DF890
:1030200005106170F6E710B588B000219322069173
:103030008DF8042070228DF805208DF80A1001AA61
:103040005418435CA370445C9DF80A30491C6340EB
:10305000C9B28DF80A300429F2D3072101A8D21D84
:10306000FDF786FB0821084600F036F806A801ABFC
:103070000090092219460C20FFF708FF262802D1EC
:103080000699182900D0BB2008B010BD10B5142037
:1030900000F0B6F8800705D005A1BDE8104009A0F2
:1030A00000F018BF0321142000F016F906A1F4E780
:1030B000B2BBD0E8D2AABFAAC6F4CCECCFDF0D0ACF
:1030C0000000000025730000D0E8D2AABFAAC6F411
:1030D000CCECCFDF0D0A000070B50C46054600F0C1
:1030E0008FF820EA04012846BDE8704000F000B9DE
:1030F00010B508210846FFF7EFFF3D21112000F031
:10310000F7F88621172000F0F3F87F21262000F041
:10311000EFF81E212D2000F0EBF800212C2000F00C
:10312000E7F88D212A2000F0E3F83E212B2000F063
:10313000DFF84021152000F0DBF86420FDF7DAFE0F
:10314000BDE81040FFF7A2BF70B586B014216846F5
:10315000FDF7F0F825480024016841F00401016002
:103160000068234E00F00400059001220C21304637
:10317000FDF7FDFF0C2000900125CDE901546946C3
:1031800030460394FDF7F6FE18481430016841F408
:10319000805101600068022600F480500590E02014
:1031A000CDE900060320CDE90250052004906946D0
:1031B0001048FDF7DFFE11480F4901604FF482719E
:1031C000C0E901146902C0E90551C0E903461821AC
:1031D000C0E9071407214462C0E90A41FEF75FFB1A
:1031E000002801D0FDF754FB06B070BD3038024016
:1031F000000802400000024000300140800700202B
:1032000070B57E2101EA40000A4D40F080040022A2
:1032100004212846FDF7ABFF204600F047F80020C8
:1032200000F02CF80446012204212846FDF79FFFF8
:10323000204670BD0008024010B50F4C0122082145
:103240002046FDF794FF642003F078FE0022082159
:103250002046FDF78CFF642003F070FE0122082158
:103260002046FDF784FF642003F068FE0F21BDE8CF
:103270001040012000F03CB80008024001B582B0C7
:10328000094800F04FF8FF200090012301AA02A98D
:103290000548FEF763FB0448FEF7FEFA0128FAD161
:1032A0009DF804000EBD00008007002001B582B02B
:1032B000084800F037F8FF200090012301AA02A976
:1032C0000448FEF74BFB0348FEF7E6FA0128FAD163
:1032D0000EBD00008007002070B50C460546FFF7C4
:1032E0008FFF40EA04012846BDE87040AFF300803C
:1032F00070B50E467E2101EA4004094D00220421EA
:103300002846FDF734FF2046FFF7D0FF3046FFF791
:10331000CDFF2846BDE8704001220421FDF727BFFC
:10332000000802400A4910B5C96918290ED0016881
:103330000A6822F040020A601821C161FEF7AFFA64
:10334000002803D0BDE81040FDF7A2BA10BD000070
:103350008007002038B504461248134B0068B0FBC4
:10336000F3F04FF47A73584300906068B0F5827FB1
:103370000DD10B46009200228021204600F036F845
:1033800070B1606D40F020006065032038BD00988A
:1033900030B1401E009020688068C0430006F6D51A
:1033A000002038BD3000002000366E0110B5C26923
:1033B000012910D0202A06D001680A6822F04002B4
:1033C0000A602021C161FEF76AFA00280CD0BDE82E
:1033D0001040FDF75DBA002AEED001680A6822F0BD
:1033E00040020A600021EDE710BD00002DE9F8431E
:1033F0001E46914688460446089DFDF7BDFE401BCB
:10340000351AFDF7B9FE074625480068C0F3CB30F2
:10341000684338E0701C37D0FDF7AEFEC01BA842F1
:1034200003D215B1009860B32CE02068416821F008
:10343000E00141606068B0F5827F0BD1A068B0F513
:10344000004F02D0B0F5806F04D12068016821F0F0
:1034500040010160A06AB0F5005F09D120680168F1
:1034600021F4005101602068016841F400510160BD
:10347000012084F85100002084F850000320BDE8AA
:10348000F8830025401E00902068816838EA01001A
:1034900004D000214945BDD10020F0E70121F9E722
:1034A00030000020012021F0D4FEFBE710B54FF0E2
:1034B000E020006927F0C0FD012803D0BDE81040DE
:1034C00027F0B8B910BD000030B593B03021684680
:1034D000FCF730FF14210CA8FCF72CFF1D48002539
:1034E000016841F080510160006800F08050119047
:1034F0001948016841F4804101600068022400F429
:103500008040119001200090000401908001CDE9DD
:10351000064008AA0420A82182E813000B90684600
:10352000FEF704F808B172B6FEE70CA90F2081E897
:1035300031004FF4A0500F904FF4805010900521AF
:103540000CA8FDF7E9FE002801D072B6FEE713B023
:1035500030BD000040380240007000400248016861
:1035600041F470010160704788ED00E00148FEF70A
:10357000A0BB0000580300200148FEF79ABB0000E2
:10358000440600200148FEF794BB00008C06002092
:10359000F0B50268254C264D264E274F274B4FF09D
:1035A000804CA04209D0604507D0A84205D0B04267
:1035B00003D0B84201D0984204D122F0700E4A687C
:1035C00042EA0E02A0421BD0604519D0A84217D093
:1035D000B04215D0B84213D0984211D0184DA8422D
:1035E0000ED0184DA8420BD0174DA84208D0174D49
:1035F000A84205D0164DA84202D0164DA84203D1CC
:1036000022F44075CA682A434D6922F080022A4399
:1036100002608A68C2620A688262A04201D098424F
:1036200001D10969016301214161F0BD0000014040
:103630000004004000080040000C0040000401406D
:103640000040014000440140004801400018004093
:10365000001C00400020004010B5FDF71BF908B128
:10366000012010BD034902484860002010BD000041
:10367000B10900085000002070B52E4886B0002522
:10368000016841F001010160016801F0010105914B
:10369000016841F001010160006800F0010005903F
:1036A00024481430016841F01001016000680724CB
:1036B00000F0100005904FF400700090022001907F
:1036C000012002900320CDE903041B4E69463046D9
:1036D000FDF750FC30150090694604943046FDF724
:1036E00049FC002211462520FDF7E4FD2520FDF7C9
:1036F000D3FD1348114C4FF4E1320460C0E90125B9
:10370000C5600C210561C0E90515C561FEF718FD0E
:1037100008B1FDF7BDF8206820F040002060206867
:1037200020F020002060012206490548FEF74FFDE9
:1037300006B070BD30380240000002400010014069
:10374000D40600202000002010B5806B0021C18528
:10375000C184FEF7BFFB10BD70B5846B2068406963
:1037600094F83D10C0F3C0100025212904D118B1F0
:10377000E584204600F08AF82068406994F83E10FD
:10378000C0F38010222904D118B1E585204600F04D
:1037900056F8206C40F0100020642046FEF79AFB9B
:1037A00070BD10B50146806B09680968C9052FD442
:1037B0000021C18501680C3151E8002F22F480728C
:1037C00041E80023002BF5D10168143151E8002FA6
:1037D00022F0010241E80023002BF5D101681431E9
:1037E00051E8002F22F0400241E80023002BF5D1E0
:1037F000202180F83E10016B012909D101680C31AC
:1038000051E8002F22F0100241E80023002BF5D1EF
:10381000016B012902D0FEF7EFFC10BD818DFEF790
:1038200020FB10BD10B5806B016B012902D0FEF7A3
:10383000E4FC10BD818D4908FEF713FB10BD016843
:103840000C3151E8002F22F4907241E80023002B44
:10385000F5D10168143151E8002F22F0010241E84E
:103860000023002BF5D1016B012909D101680C312E
:1038700051E8002F22F0100241E80023002BF5D17F
:10388000202180F83E1000210163704701680C314F
:1038900051E8002F22F0C00241E80023002BF5D1AF
:1038A000202180F83D10704708B590F83E1022297D
:1038B00001D0022008BD82684FF480539A4201D1A2
:1038C000016921B1816A9A421BD04AB10AE00268BB
:1038D000816A5268C2F308020A80816A891C08E082
:1038E000026972B10268526802F07F020A70816A4E
:1038F000491C8162C18D491E0904090CC18503D090
:1039000019E002685268F1E70168CA6822F02002F3
:10391000CA600168CA6822F48072CA6001684A6994
:1039200022F001024A61202180F83E10016B01293A
:1039300003D0FEF761FC002008BD0021016301688F
:103940000C3151E8002F22F0100241E80023002B37
:10395000F5D101680A68D20602D50A684968009163
:10396000818DFEF77EFAE6E770B5044600680169CE
:10397000E26821F44051114301612169A068E269C4
:1039800008436169114308432168CA6849F20C631E
:103990009A430243CA6020684169A26921F44071D8
:1039A0001143416131492068884202D03049884240
:1039B00002D1FDF77BFD01E0FDF768FDE269002320
:1039C000192164253226B2F5004F626828D0A0FB89
:1039D0000101930F9200FCF755FC0146B0FBF5F096
:1039E0006FF01802504301EB800006EB0010B0FBB3
:1039F000F5F000F0F002B1FBF5F002EB0012B1FBC4
:103A0000F5F06FF01803584301EB800006EB00104F
:103A1000B0FBF5F000F00F0021681044886070BD25
:103A2000A0FB010192185B41FCF72CFC0146B0FBA6
:103A3000F5F00201B1FBF5F06FF01803584301EB0C
:103A4000800006EBC000B0FBF5F000F0F80002EBE0
:103A50004002B1FBF5F0584301EB800006EBC000DB
:103A6000B0FBF5F000F00700D6E7000000100140C1
:103A70000014014038B58162828500251346044652
:103A80000564222084F83E00A26B1C48D063A26B20
:103A90001B481064A26B1B48D064A06B0A460565E6
:103AA0002168A06B091DFDF7EDF9206801684068E9
:103AB000009084F83C50206948B120680C3050E8F0
:103AC000001F41F4807140E80012002AF5D12068FF
:103AD000143050E8001F41F0010140E80012002AB4
:103AE000F5D12068143050E8001F41F0400140E853
:103AF0000012002AF5D1002038BD0000A3370008CD
:103B0000253800085937000881628285C285002166
:103B10000164222280F83E2080F83C10016921B126
:103B20000168CA6842F48072CA6001684A6942F05A
:103B300001024A610068C16841F02001C1600020B3
:103B400070472DE9F041984617460E460446069DFB
:103B500027E0681C25D02DB1FDF70EFBA0EB080077
:103B6000A8421ED920680C3050E8001F21F4D07103
:103B700040E80012002AF5D12068143050E8001FF8
:103B800021F0010140E80012002AF5D1202084F83C
:103B90003D0084F83E00002084F83C000320BDE88E
:103BA000F0812068006836EA000004D00020B842A6
:103BB000CFD00020F3E70120F9E7000010B504485A
:103BC000FEF78AF9BDE810400148FEF717BB000078
:103BD000A0050020FEE700002DE9F04116460C4646
:103BE000054600F02BF9DFF84C804FF40047002227
:103BF00039464046FDF7BBFA032000F00DF9C4F347
:103C0000074000F009F9C4F3072000F005F9E0B21D
:103C100000F002F9002404E000F0FAF805F8010BC6
:103C2000641CB442F8D339464046BDE8F041012255
:103C3000FDF79DBA000002402DE9F0410746144609
:103C40000E4611F0FF000BD0C0F58075A54200D9DB
:103C500015462A46384600F087F82F442E44641B48
:103C60004FF48075FF2C0BD92A463146384600F0B8
:103C70007BF8A4F5807406F5807607F58077F1E788
:103C8000002C06D0224631463846BDE8F04100F00F
:103C90006BB8BDE8F081000030B587B014216846EC
:103CA000FCF748FB1A480024016841F40041016018
:103CB000006800F40040059015481038016841F094
:103CC00001010160016801F001010591016841F005
:103CD00002010160006801AA00F0020005904FF4A3
:103CE000004000900120022582E831006946094821
:103CF000FDF740F93820CDE900050320CDE9024069
:103D00000620049069460448FDF734F907B030BD39
:103D100040380240000002400004024010B5FFF7A6
:103D2000BBFF10480E49022201604FF482714160CE
:103D300000218160C0E903120122426152028261C6
:103D40000822C0E90721416281620A21C162FDF7B0
:103D5000A6FD002803D0BDE81040FCF799BD10BDBA
:103D6000003C0040180700202DE9F04114460D46A4
:103D7000064600F063F800F08BF84FF48070844240
:103D800000D90446DFF854804FF40047002239463A
:103D90004046FDF7ECF9022000F03EF8C5F307407D
:103DA00000F03AF8C5F3072000F036F8E8B200F06A
:103DB00033F8002504E0307800F02EF86D1C761CF6
:103DC000A542F8D3012239464046FDF7D0F900F06C
:103DD00035F8BDE8F04100F039B8000000000240BD
:103DE00070B50A4E4FF40045002229463046FDF7D3
:103DF000BEF9052000F010F800F00AF80446012290
:103E000029463046FDF7B3F9204670BD0000024058
:103E1000FF2000F001B800000EB501238DF8080066
:103E20004FF48050009001AA02A90348FDF796FDC7
:103E30009DF804000EBD0000180700202DE9104079
:103E4000FFF7CEFFC007FBD110BD000070B50E4DCF
:103E50004FF40044002221462846FDF788F904204B
:103E6000FFF7DAFF0948E210036800E0521E986885
:103E7000000601D5002AF9D121462846BDE8704048
:103E80000122FDF774B9000000000240180700206D
:103E900070B50E4D4FF40044002221462846FDF730
:103EA00066F90620FFF7B8FF0948E210036800E052
:103EB000521E9868000601D5002AF9D121462846ED
:103EC000BDE870400122FDF752B900000000024039
:103ED000180700200FB4054B10B503A9044A029837
:103EE00001F016FC10BC5DF814FB0000C9090108C4
:103EF000540300200907090E002804DB00F1E0202C
:103F000080F80014704700F00F0000F1E02080F806
:103F1000141D704702E008C8121F08C1002AFAD118
:103F200070477047002001E001C1121F002AFBD139
:103F3000704770B5044600256FF02F0608E0206832
:103F4000411C2160007805EB850106EB4101451815
:103F50002068007800F004F80028F0D1284670BDF1
:103F60003038092801D80120704700207047000030
:103F700010B54421074800F08DFE00221E2106489E
:103F80001FF0C0FF054CA06002F0F2F80020207086
:103F900010BD00008465002025620008BC020020DE
:103FA0002DE9F0470E46814617461146304600F08F
:103FB0001CF94FF0FF3A00287DD0002239463046E8
:103FC00000F0BFF800284FF0000075D1B6F904806A
:103FD000B6F900305246A8EB0301491C0AFA81F1F8
:103FE0000FFA81FAB6F906C0B6F90210ACEB010C73
:103FF0000CF1010C02FA8CF2B7F802C012B2ACEB71
:10400000010C0FFA8CFCBCF1000F0EDD63F30F0402
:1040100068F30F0501EB0C0061F31F4460F31F45CB
:10402000C9F800400120C9F80450B7F90610738898
:10403000CB1AD21A12B2002A13DDB6F90630994211
:104040000FDA338863F30F04B38861F31F4463F31B
:104050000F05114461F31F4509EBC001401C0C60C2
:104060004D60B7F90220B6F902108A4200DD114610
:10407000B7F90630B6F90620934200DA1A463B88B3
:10408000B6F900C0521AA3EB0C031BB212B2002BFC
:1040900010DD002A0EDD634463F30F058B1863F314
:1040A0001F456CF30F0409EBC00361F31F441C6050
:1040B0005D60401C01E01AE017E0B7F90430368873
:1040C0009F1BAAEB070636B2002E0EDD63F30F042A
:1040D00061F31F44334463F30F05114461F31F453B
:1040E00009EBC001401C0C604D60BDE8F0875046F4
:1040F000FBE770B5B1F90030B2F90040A34200DC33
:1041000023460380B1F90250B2F90240A54200DD16
:104110002C464480B1F90460B2F90450AE4200DA92
:1041200035468580B1F90610B2F90620914200DBD0
:104130001146C1800120AB4201DC8C4200DD002031
:1041400070BDF8B50D460446B0F90000B1F9001095
:104150001646884247DBB4F90210B5F902209142B5
:1041600041DBB4F90410B5F9042091423BDCB4F909
:104170000610B5F90620914235DC96B3ADF8000083
:104180006088ADF8020032466946284600F099F88A
:10419000002827D0A088ADF800006088ADF80200A4
:1041A00032466946284600F08CF800281AD020884C
:1041B000ADF80000E088ADF80200324669462846B6
:1041C00000F07FF800280DD0A088ADF80000E0884E
:1041D000ADF8020032466946284600F072F8002821
:1041E00000D00120F8BD0020F8BDB0F90020B1F9E1
:1041F00004309A4213DCB0F90420B1F900309A423D
:104200000DDBB0F90220B1F906309A4207DCB0F9B3
:104210000600B1F90210884201DB0120704700203E
:104220007047F8B50D460446B0F90400B1F9001026
:104230001646884243DBB4F90600B5F902108842FD
:104240003DDBB4F90000B5F90410884237DCB4F95D
:104250000210B5F90620914231DC76B3ADF80000CA
:104260006088ADF8020032466946284600F029F819
:1042700018BBA088ADF800006088ADF80200324697
:104280006946284600F01DF8B8B92088ADF800004E
:10429000E088ADF8020032466946284600F011F881
:1042A00058B9A088ADF80000E088ADF802003246A9
:1042B0006946284600F005F808B10020F8BD012045
:1042C000F8BD2DE9FC4114460E46B1F90020B0F9C5
:1042D000001005468A423ADBB5F90400824236DC1A
:1042E000B6F90270B5F90220974230DBB5F9063015
:1042F0009F422CDC002C75DD401A9A1A401C521C7F
:1043000000B212B200EBD07002EBD2724010521029
:10431000904200DB1046844200DD0446ADF80010F8
:10432000288800222044ADF804006888ADF8020017
:10433000688831462044ADF806006846FFF7C1FFA3
:1043400040B1BDF804002044ADF804003FE0002077
:10435000BDE8FC81E8880022001BADF80200E88877
:10436000ADF8060031466846FFF7ABFF28B1BDF84F
:1043700004002044ADF8040011E0A8880022001BCE
:10438000ADF80000A888ADF8040031466846FFF794
:1043900098FF50B1BDF80000001BADF80000BDF85B
:1043A0000200001BADF8020016E06888ADF80200BC
:1043B000688800222044ADF8060031466846FFF7C1
:1043C00080FF70B1BDF80000001BADF80000BDF823
:1043D00006002044ADF80600314668461DF0DCF8C2
:1043E000B6E7FFE70120B3E710B5B1F90040B2F935
:1043F00000309C4200DA23460380B1F90240B2F952
:1044000002309C4200DA23464380B1F90440B2F9FD
:1044100004309C4200DD23468380B1F90610B2F9D6
:104420000620914200DC1146C18010BDF8B5074658
:104430001FF004FD0025374C0646009537B1F8689B
:10444000606038461FF02CFE606802E012F09CF9B4
:10445000606000691CF09CFF6068406908B11CF056
:1044600097FF6068C0691CF093FF6068006A1CF0E9
:104470008FFF6068016991B11DF03CF922F076FA76
:1044800021F09CFF6068B0F85011D9B30068017C3E
:10449000C9071DD0C0684068D0B1002713E0A0F85C
:1044A0005051F8BDC11991F8301151B900F5AC70F7
:1044B00000F047FC616801EBC7010A6B0260496BC1
:1044C00041607F1CBFB26068B0F85011B942E9D8B2
:1044D00060684FF48071303018F0D6FB606820219E
:1044E00000F5987018F0D0FB6068A0F85051304685
:1044F0001FF09EFC009060680068436A13B1226858
:104500000099984718F03EFA00F032F8BDE8F840FC
:1045100000F002B87C01002070B50A4D002400BFF5
:10452000C4EBC40655F8260008B118F09FFA05EB55
:1045300086001C2118F0A8FB641CE4B2042CEFD305
:1045400070BD000060660020084949680AE04A68BA
:10455000824202D00A68824203D10A7E42F00102FE
:104560000A7649690029F2D1704700005001002005
:10457000704700000421014800F08CBB78650020E2
:104580002021014800F086BB906500202DE9FF4105
:104590000446DDE90A671D004FF0000002D1B6F5C0
:1045A000807F2BD0039001900290ADF80C1000900A
:1045B000ADF80410ADF80A20ADF80E203B463246A7
:1045C000294668461CF048FF3B463246294601A86A
:1045D0001CF042FF3B463246294602A81CF03CFF35
:1045E0003B463246294603A81CF036FFBDF90000C1
:1045F000BDF90430984209DA054608E02080491EDA
:104600006080A180521EE280BDE8FF811D46BDF999
:104610000820BDF90C108A4201DA164600E00E4669
:10462000B54203DA984206DB184604E08A4201DA12
:10463000104600E00846801E2080BDF90030BDF91C
:104640000420934201DD1D4600E01546BDF9080037
:10465000BDF90C10884201DD064600E00E46B54269
:1046600005DD934201DD194604E0114602E088426F
:1046700000DD0146891CA180BDF90230BDF906208C
:10468000934201DA1D4600E01546BDF90A00BDF966
:104690000E10884201DA064600E00E46B54205DA01
:1046A000934201DA194604E0114602E0884200DA3A
:1046B0000146891E6180BDF90230BDF90620934292
:1046C00001DD1D4600E01546BDF90A00BDF90E10DA
:1046D000884201DD064600E00E46B54205DD934204
:1046E00001DD194604E0114602E0884200DD014682
:1046F000891CE18088E700002DE9F04115460E464F
:104700000746114C1FF09AFB80462B46324639462D
:10471000204616F029FA20B10020A062E06950B1CD
:1047200010E02C21204618F0AFFA4FF00040A062B4
:104730000020BDE8F08140461FF07AFBE06108B937
:104740000120E0612046F4E7B465002010B5142193
:10475000074800F09FFA16F0CDF940B10549016015
:1047600005494160054981600549C16010BDFEE70A
:104770009C650020C9A4010845A8010815AA0108E4
:1047800095A4010870B50D4604461021284618F07E
:104790007BFA20680078012804D0022807D004287A
:1047A00007D008E0A08A2880E08A688003E0E068FB
:1047B00000E00A20686020684268002A03D0294689
:1047C000BDE87040104770BD2DE9FE430446808A65
:1047D00010B9E08A002874D0D4F82C805FEA080071
:1047E00010D120460BF08BFB5FEA000869D0204611
:1047F0000DF060FF00220921404615F0AFF8607807
:1048000080075ED44FF4807900274E46454600214C
:1048100028461AF09DFE384407B2002128461AF0B7
:10482000B5FEC11700EB1160001210FB06F006B2D6
:10483000284619F089FE0500E9D10FB94E450CD084
:10484000784201B24FF4803090FBF6F002B26B4632
:1048500004F1140000951CF0FFFDADF80450ADF814
:10486000085094F8400000F00F000328404616D08E
:1048700019F0BCFF0646404619F072FE03460C20B4
:104880000090B4F91610324640460AF0F1FEADF839
:104890000800404619F0B6FEC10713D018E019F021
:1048A00039FF0646404619F0D5FE02460320009027
:1048B000B4F91410334640460AF0DAFEADF80400AD
:1048C000E7E736E0BDF90410002901DDADF804503A
:1048D000810705D4BDF90410002901DAADF80450B0
:1048E000410705D4BDF90810002901DDADF80850D5
:1048F000000705D4BDF90800002801DAADF808501A
:1049000002AA01A9204622F0CDFBBDF90820BDF97D
:104910000410404600F08AFA6078800709D4208BA2
:10492000BDF8041008442083608BBDF808100844CB
:104930006083BDE8FE832DE9FC5F0446C06A5FEA40
:10494000000B71D094F8400000076DD016F09EFB6C
:10495000019000684021457E58461AF043FF4FF011
:10496000000818B9A4F81E80A4F81C80584619F055
:104970002FFF8246584619F032FF064694F8400051
:104980004FF0640900F00F000C2802D003284CD02F
:104990009AE0A4F81C8056B1B4F91E50002716F016
:1049A00075FB00684946407EC0F1640022E0E08B60
:1049B000C5F1640110FB01F191FBF9F0E083584669
:1049C00019F0CEFD0546584619F010FF02460C209E
:1049D0000090B4F91E102B4658460AF049FEE083B9
:1049E000024600231EE07A1917B210FB05F292FB73
:1049F000F1F215B2002DF6D1ADF80070A4F81E80CA
:104A00006A460021204622F04DFB41F6FF72BDF9B7
:104A10000030514258460BF009FCBDF8001001234C
:104A2000084402B200214CE09AE0A4F81E80BAF1DA
:104A3000000F0AD0B4F91C50002716F027FB0068BD
:104A40004946407EC0F1640022E0A08BC5F16401BC
:104A500010FB01F191FBF9F0A083584619F0FAFD23
:104A60000546584619F056FE034603200090B4F957
:104A70001C102A4658460AF0FBFDA083014600237D
:104A80001EE07A1917B210FB05F292FBF1F215B293
:104A9000002DF6D1ADF80070A4F81C800022694604
:104AA000204622F0FFFA41F6FF72BDF90030514274
:104AB00058460BF033FBBDF800100123084401B247
:104AC000002258461BF0CAFFA08B002848D1E08B7B
:104AD000002845D1C6B9584619F088FE0546584603
:104AE00019F03EFD002D06DC00280DDD002D02DA58
:104AF00001232A4604E0002806DA0123404202B2DC
:104B0000002158461BF0AAFFBAF1000F19D15846F0
:104B100019F0A0FD0546584619F0FCFD002D07DCF4
:104B200000280EDD002D03DA01230022294605E0CE
:104B3000002806DA01230022404201B258461BF049
:104B40008DFF0A215846019A14F008FF607880070B
:104B500006D414F8400F20F00F00207044F8148C95
:104B6000BDE8FC9F7FB50E46040003D111F00CFE9A
:104B700004002CD011F07CFE002828D094F82800E6
:104B8000400724D4002506B3ADF80050ADF802501C
:104B9000204611F011FE401EADF80400204611F031
:104BA00051FE401EADF806006A46314602A8FFF7E6
:104BB000A0FA00280BD02068017C890708D5DDE920
:104BC0000001C4E90C01012029E0A4F850517FBD87
:104BD00082690AB102A9904700260AE004EBC601E7
:104BE000002202A83031FFF7ACFA0028EFD1761C82
:104BF000B6B2B4F85001B042F0D880B2202804D246
:104C000004EBC00002A9303004E0A4F8505104F1D4
:104C1000300069460FF059FBB4F85001401CA4F86D
:104C2000500160680028D2D01FF046FA7FBD70B5F1
:104C3000054600F012F804460CE02146284600F034
:104C40001EF806462146284600F0A2F8204617F036
:104C50000DFF3446002CF0D170BD002800D0406814
:104C6000704700B503460022FFF7F7FF03E0184640
:104C7000521C00F004F80100F9D1104600BD006894
:104C8000091D40587047006840587047002800D000
:104C90008068704700224260C91C21F003018260D5
:104CA0000160704770B504460068083017F052FE86
:104CB000050013D001460022204620F02DFA294697
:104CC0002046626820F022FA616819B12A4620461F
:104CD00020F022FA6560A06800B9A560284670BD82
:104CE0002DE9F0410C4606000AD04CB1FFF7B5FFA4
:104CF000A04208D13046FFF7D5FF051E01D01EE0C7
:104D00000020BDE8F0813068083017F023FE051E52
:104D1000F7D030682A4607593046394620F0F6F970
:104D20003A462946304620F0F7F92A4621463046D1
:104D300020F0F2F922462946304620F0E7F92846CD
:104D4000DFE770B504460068083017F003FE050081
:104D500013D001460022204620F0D8F929462046EB
:104D6000A26820F0D9F9A16819B12A46204620F09E
:104D7000CDF9A560606800B96560284670BD28B1AE
:104D8000416809B9806808B1002070470120704768
:104D900070B504000DD0FFF760FF00228842204666
:104DA00008D1FFF76CFF6060011E01D000221EE0F9
:104DB000A26070BDFFF76AFF8842206808440AD1EC
:104DC0000168A16029B12046BDE87040002220F0B2
:104DD0009DB9626070BD05682046FFF750FF06462A
:104DE00002462946204620F091F92A4631462046BF
:104DF000BDE8704020F090B910B5044600688268A4
:104E00000AB12146904720680068002801D0206040
:104E1000F5E710BD8068002801D0B0F91600704792
:104E20008068002801D0807E8009704770B51646E2
:104E300005460C4651EA06001AD0284618F08AFCAE
:104E4000A86801233246018A21440182A868418A68
:104E500031444182214628461BF058F800220B219C
:104E6000284614F07BFD012803D128461AF0A8FF3C
:104E7000012070BD77B581B00E46050017D06222C3
:104E80001AF094FA040012D0206880B12846314606
:104E900063221AF08BFA10F0FF0208D02368204634
:104EA000039998470090BDF80000ADF80C000398F6
:104EB00004B070BD2DE9F047074692B0408C1A9EB1
:104EC00040F00800788490463A8499468A463289B0
:104ED00038461AF06BFA0546A7F8209032895146F9
:104EE00038461AF063FA0446788CA54220F0080090
:104EF000788403D12904B1EB044F68D0A7F820804F
:104F00003289514638461AF051FA05468046A7F8CC
:104F10002090514638460CF029FC318900682A4619
:104F20001DF094FE30890B2823D147F6FF794D45BB
:104F300001D04C451DD138461AF00BFC00EBD07067
:104F40004510384619F0BFFA00EBD0704010C84544
:104F500006D1691C431C994200DA00E019468846D4
:104F60004C4506D1691C421C914201DA6C1C00E0E0
:104F700014461948FFF796FE05002BD02F60C5E9AF
:104F800003843089A8806846C5F808A00EF010FC9C
:104F90001248FF21CDE900501148029011480390BA
:104FA00000200890CDE9090130880B9070889DF8A9
:104FB000421040420C90F0680790002060F300011E
:104FC0008DF842103069069068460EF065FC12B00C
:104FD000BDE8F087FEE70000A86500208D9A020872
:104FE000759C0208D19B020814210148FFF752BEAC
:104FF000A86500202DE9F84F002590468946064611
:105000002C460427E6E000BFF06807EBC4014058D7
:1050100081017CD480B230EA090112D05FF0000235
:1050200030EA08000FD00020824270D0F0686A4653
:10503000102150F8340082461DF06AFB002871D11F
:1050400003E00122ECE70120EEE76A461121504619
:105050001DF05EFB002865D16A46122150461DF006
:1050600057FB00285ED16A46132150461DF050FBC5
:10507000002857D16A46152150461DF049FB0028EB
:1050800050D16A46142150461DF042FBF0BB6A46DF
:105090000A2150461DF03CFBC0BB6A466B215046BE
:1050A0001DF036FB90BB6A466C2150461DF030FB6C
:1050B00060BB6A46012150461DF02AFB30BB6A46A0
:1050C000042150461DF024FB00BB6A4602215046D5
:1050D0001DF01EFBD0B96A46032150461DF018FB97
:1050E000A0B96A46052150461DF012FB70B96A4608
:1050F000062150461DF00CFB40B96A46322150464D
:105100001DF006FB10B96A466E2101E00AE060E07E
:1051100050461DF0FDFA28B96A466D2150461DF033
:10512000F7FA10B10320BDE8F88F6A4669215046AE
:105130001DF0EEFAF0BB6A466A2150461DF0E8FA0F
:10514000C0BB6A466E2150461DF0E2FA90BB6A462B
:105150006D2150461DF0DCFA60BB6A46372150468F
:105160001DF0D6FA30BB6A46382150461DF0D0FA01
:1051700000BB6A46352150461DF0CAFAD0B96A46CE
:10518000402150461DF0C4FAA0B96A464521504658
:105190001DF0BEFA70B96A46412150461DF0B8FABA
:1051A00040B96A46422150461DF0B2FA10B96A462B
:1051B000432100E009E050461DF0AAFA28B96A46EA
:1051C000492150461DF0A4FA08B1022501E005B9B5
:1051D0000125641C708CC0F30510A0423FF614AF8B
:1051E0002846A0E701484068704700007C01002085
:1051F0007047C0F30410072800D90720704700004B
:10520000A0F57F41FF3905D0002804D0712803D2D2
:1052100008490AE01F2070470749713880B20968C1
:1052200029B1064A5268904201D2085C70470020BA
:105230007047000068F40208E8020020FC02002029
:1052400010B518210348FFF725FD03490120087018
:1052500010BD000054650020040300202DE9F0413A
:1052600090460C46050015D0FBF781F80A4F06461C
:105270002146BA68284690470446BA68281941462C
:1052800090470146701A03E06218AA5C2A55641C14
:10529000A042F9D2BDE8F081180300202DE9F041C9
:1052A000094D90460E466A681C46074619469047C7
:1052B000306020B120686A68384400219047C8F8FF
:1052C0000000BDE8F0810000180300202DE9F04F38
:1052D00087B08A46DDE910581F46934604460021F0
:1052E00005B129805CB12078002809D0BAF1000FFF
:1052F00005D0002618F0060F15D0002004E000208D
:1053000007B0BDE8F08F401C215C0A2904D00D29AC
:1053100002D00029F7D100E0401C002DF0D04FF062
:10532000FF312980ECE75FEA887001D541F6FF770D
:10533000894608468DF81410049127E00498CDF8AA
:10534000189068B34FF0000C05AA06ABCDF80CC05E
:10535000CDF80080CDE9013220443B465A46514603
:105360001EF0ECFF06997A1A314417B20EB288B1DA
:1053700004990144049120780A280BD00D2809D003
:10538000605C0A280FD00D280DD00846205C08B1BB
:10539000002FD3DC049848B105B12E800498AFE704
:1053A0004FF0010CD0E7481C0490F3E7064A04A92B
:1053B000204652689047002DF0D00146002250460A
:1053C00014F0E0FB06B2E8E7180300202DE9F041F5
:1053D0001746884606001ED0002F1CD0FAF7C7FFDC
:1053E00004463846FAF7C3FF050014D00B4A2C4494
:1053F0004146926830469047411903E0621BB25C17
:105400003255641EA142F9D930442A463946BDE8D6
:10541000F04117F0FBBBBDE8F0810000180300204D
:1054200000230278232902D0012A0DD00FE02AB1EF
:105430000021012A04D0022A04D008E0012101E061
:10544000017004E0017001E0202902D00123184618
:1054500070470221F6E72DE9F0410E4680460246EC
:105460000021334608461FF0A7F904460027401CD8
:1054700017F070FA050008D02F5533464246611CDC
:105480001FF09AF92846BDE8F081FEE72DE9F047C4
:105490001E4614460D468246DDF8209015E000BFFA
:1054A0004FEA540808FB0657394650464A4690478B
:1054B000002808DD44F30000C0EB540407EB0605A8
:1054C000A4F1010401E005DA4446002CE8D12046AD
:1054D000BDE8F0873846FBE72DE9FC5F9B460CAB47
:1054E0008A468146DDE9116093E81210DDE90F5725
:1054F0005FEA80784FF030031AD45EB15FEAC0787B
:1055000008D000F00C0858EA0C0803D0761E01E021
:105510000B55641CBC4204D2202CF9D301E00B557E
:10552000641C5FEAC07803D0B44201D2202CF6D3C9
:105530005FEAC06825D55FEA40580AD44CB1BC4246
:1055400001D0B44205D1641E03D0102D03D1641ED6
:1055500004E0102D02D0022D0AD00EE0850603D4FF
:10556000202C1ED2782506E0202C1AD2582502E0E5
:10557000202C16D262250D55641C202C11D20B55FF
:10558000641C202C0DD2BCF1000F01D02D2306E0AD
:10559000430701D52B2302E0030702D520230B5537
:1055A000641CCDE900BAC846154681468B46AA461A
:1055B000800714D1274607E02A46DDE900316D1C3B
:1055C0002020C446E0477F1CB742F5D307E02A46B7
:1055D0006D1C641EDDE900311BF80400C047002C7F
:1055E000F5D15FEA897006D409E02A46DDE9003189
:1055F0006D1C2020C047A5EB0A00B042F5D3284619
:10560000BDE8FC9F2DE9F04F8FB099468B46DDE950
:105610001818DDE91C63DDE91A4792468646002228
:1056200009B923F01003580507AD00D5C9B1B1FB86
:10563000F4F004FB1010C0B20A2801D2303009E0A7
:105640005FEA836C02D54FF0410C01E04FF0610C32
:1056500060440A38B1FBF4F1A854521C09B1202A65
:10566000E5D3CDF80880CDE90563CDE90052CDE959
:1056700003474B46524659467046FFF72DFF0FB081
:10568000BDE8F08F2DE9FF4F8FB01CACDDE923950D
:1056900094E8030820AC94E8C004002450EA010216
:1056A00001D125F010056A050DF11C0802D550EA5C
:1056B000010217D032463B46FAF7E4FDD2B20A2A7D
:1056C00001D2303206E0AB0601D5412300E0612370
:1056D0001A440A3A08F80420641C50EA010201D076
:1056E000202CE7D3CDE90084CDF808B0CDE90595AD
:1056F000CDE9036A0FAF97E80F00FFF7EDFE13B097
:10570000BDE8F08F9A4200D288547047704700007D
:105710002DE9FF4F8DB09B460F460446002606E05C
:1057200025280BD05A460F999047641C761C207888
:105730000028F5D111B03046BDE8F08F0025A8460D
:105740000122984900E0054314F8013F203B02FA8A
:1057500003F00842F7D120782E2817D114F8010F52
:1057600045F004052A280ED06FF02F022078A0F112
:10577000300109290AD808EB880102EB410100EB4E
:105780000108641CF2E757F8048B641C20786C282D
:105790000DD004DC4C2812D06A2811D104E0742802
:1057A0000DD07A280CD10AE045F4001507E06178A5
:1057B00045F48015814202D1641C05F58015641CF6
:1057C0002078692844D008DC0028B3D0582867D056
:1057D00063280FD0642808D13AE0702865D0732878
:1057E00012D075285AD078285AD05A460F99904727
:1057F000761CD5E017F8040B8DF8000000208DF81A
:105800000100E946012003E057F8049B4FF0FF3008
:1058100069074FF0000501D40AE06D1C45450DDA1B
:105820008542FADB19F805100029F6D106E06D1C57
:105830008542FCDB19F805100029F8D12E4404E05C
:1058400019F8010B5A460F9990476D1EF8D2A7E040
:105850000A200021CDE90801C5F3025002280CD02E
:1058600001CFC117021E71F100020CDA0023D0EB48
:10587000030063EB01012D2208E0FF1D27F007075D
:10588000F7E80201EEE72A0504D52B228DF828203F
:1058900001223CE0EA073AD02022F7E70A2000E0A4
:1058A00010200021CDE9080107E01020002145F07B
:1058B0000405CDE908014FF00808C5F3025002289D
:1058C00010D001CF00214FF0000A2A0720D52278FE
:1058D000702A0DD0DDE908C38CF0100C5CEA030CD3
:1058E0000CD015E0FF1D27F00707F7E80201EAE7F3
:1058F00040228DF828204FF0010A0CE050EA010305
:1059000006D030238DF828308DF8292002229246C7
:105910002278582A04D024A20DF120090B9209E024
:1059200026A2F9E7DDE90823FAF7ACFC0B9B9B5CA8
:1059300009F8013D50EA0102F4D1ADEB0900203035
:105940000890680701D44FF001080899884503DDE5
:105950000898A8EB000000E000208046002506E043
:105960000AA85A46405D0F9990476D1C761C554514
:10597000F6DB04E030205A460F999047761CB8F1C8
:105980000001A8F10108F5DC05E019F8010B5A4601
:105990000F999047761C0899481E08900029F4DC5E
:1059A000641CC4E6092801003031323334353637FF
:1059B000383961626364656600000000303132335B
:1059C00034353637383941424344454600000000FB
:1059D0002DE9FF4F89B005460A9800249246002819
:1059E00000D1FE4D8FE1252804D02246641C534689
:1059F0000A990BE2491C4FF0000808460C91017807
:105A00002B2919D004DC202919D0232904D119E02D
:105A10002D290ED0302909D00026C8B2FEF7A0FAF1
:105A2000B0B10CA8FEF785FA06461FE048F0010168
:105A30000AE048F0020107E048F0040104E048F001
:105A4000080101E048F01001401C88460C90D6E7A0
:105A50000C9908782A2809D1169840C81690002E6B
:105A600002DA48F002087642491C0C910C984FF07B
:105A7000000B01782E2919D1401C0C9048F4806845
:105A80000078FEF76DFA20B10CA8FEF752FA8346B3
:105A90000CE00C9A10782A2808D1169802C81690A3
:105AA000002900DC0021521C8B460C920C980178D6
:105AB0006C290AD004DC68290FD06A2919D128E0A2
:105AC000742929D07A2914D126E0401C0C90017841
:105AD00048F480786C291CD00BE0401C0C900178B5
