:020000040800F2
:10000000404C012061020008433400081D2C000808
:1000100041340008F9080008D1450008000000003C
:10002000000000000000000000000000A101000826
:100030001D0D000800000000FD010008A93E000899
:100040007B0200087B0200087B0200087B0200089C
:100050007B0200087B0200087B0200087B0200088C
:100060007B0200087B0200081F0D00087B020008CD
:100070007B0200087B0200087B0200087B0200086C
:10008000550C00087B0200087B0200087B02000878
:100090007B0200087B0200087B0200087B0200084C
:1000A0007B0200087B0200087B0200087B0200083C
:1000B0007B0200087B020008693F00087B02000801
:1000C0007B0200087B0200087B0200087B0200081C
:1000D0007B0200087B020008B94500087B0200088B
:1000E0007B0200087B0200087B0200087B020008FC
:1000F0007B0200087B0200087B0200087B020008EC
:100100007B0200087B0200087B0200087B020008DB
:100110007B0200087B020008753F0008813F000851
:10012000610C00087B0200087B0200086D0C0008CF
:100130007B0200087B0200087B0200087B020008AB
:100140007B0200087B0200087B0200087B0200089B
:100150007B0200087B0200087B0200087B0200088B
:100160007B0200087B0200087B0200087B0200087B
:100170007B0200087B0200087B02000800000000F0
:100180007B0200087B020008DFF810D000F008FBBB
:100190000048004701600208AFF30080404C012096
:1001A0002C4B19680868B0E8F04F80F30988BFF35A
:1001B0006F8F4FF0000080F311887047000000003F
:1001C00008480068006880F308884FF0000080F35A
:1001D000148862B661B6BFF34F8FBFF36F8F00DF35
:1001E00000BF00BF08ED00E0DFF80C00016841F43B
:1001F00070010160704700BF88ED00E0EFF30980F7
:10020000BFF36F8F134B1A681EF0100F08BF20ED5D
:10021000108A20E9F04F106009B44FF0500080F3CD
:100220001188BFF34F8FBFF36F8F2DF0FBFB4FF0A3
:10023000000080F3118809BC19680868B0E8F04F25
:100240001EF0100F08BFB0EC108A80F30988BFF3CE
:100250006F8F70476C010020EFF30580704700003E
:100260000648804706480047FEE7FEE7FEE7FEE750
:10027000FEE7FEE7FEE7FEE7FEE7FEE7593F000880
:10028000890100082DE9F05F0546002092469B4653
:1002900088460646814640241BE02846414647469C
:1002A000224600F0B4F853465A46C01A914110D382
:1002B00011461846224600F09BF82D1A67EB0108FC
:1002C0004F4622460120002100F092F817EB00096A
:1002D0004E41201EA4F10104DFDC484631462A4687
:1002E0004346BDE8F09F10B5431A934209D28318E4
:1002F000881803E010F8011D03F8011D521EF9D201
:1003000010BD40EA01039B0703D009E008C9121F92
:1003100008C0042AFAD203E011F8013B00F8013BBF
:10032000521EF9D210BDD2B201E000F8012B491ED5
:10033000FBD270470022F6E710B513460A46044682
:100340001946FFF7F0FF204610BD30B505462A4696
:100350000B4612F8010B13F8014B08B1A042F8D07C
:100360001CB1002802D06D1CF1E7284630BD421CAC
:1003700010F8011B0029FBD1801A704710B500222C
:1003800000E0521C835C8C5CA34201D1002BF8D1AD
:10039000D8B2E1B2401A10BD30B504460020034681
:1003A00000E05B1C934203D2E05CCD5C401BF8D0C4
:1003B00030BD034611F8012B00F8012B002AF9D1BA
:1003C0001846704730B50B46014600202022012414
:1003D00009E021FA02F59D4205D303FA02F5491B13
:1003E00004FA02F52844151EA2F10102F1DC30BD29
:1003F000202A04DB203A00FA02F1002070479140E5
:10040000C2F1200320FA03F3194390407047202AD9
:1004100004DB203A21FA02F00021704721FA02F3AE
:10042000D040C2F1200291400843194670472DE99F
:10043000FE4F804681EA0300C00F0C46009021F079
:10044000004123F00045B8EB0200A94105D2404627
:10045000214690461C460B46024623F000401043BE
:1004600047D0270DC7F30A00C3F30A510290401A80
:10047000019040286BDAC3F3130040F4801B00980E
:10048000924620B10023D2EB030A63EB0B0B0198D9
:100490005946C0F140025046FFF7AAFF06460D46F6
:1004A00050465946019A00F08DF910EB0800614161
:1004B000002487EA115284EAE7731A4340D0009A75
:1004C00062B3019A012A4FEA075215DC001B61EB67
:1004D00002014FF0004202EA0752CDE90042001C3F
:1004E00041F5801132462B4600F08DF903B0BDE88E
:1004F000F08F40462146F9E7001B61EB0201001C2A
:1005000041F5801300185B412018A2F5001747EB56
:10051000030140EAD570B6196D4111E06D084FEA4C
:10052000360645EAC0754FEA0752001B61EB02012F
:10053000001C41F5801149084FEA30000019514173
:1005400032462B4603B0BDE8F04F00F04DB900989D
:10055000012240000023D0EB020263EBE07300981D
:1005600021464FEAE074B8EB000061EB0401E9E7D3
:1005700083F000435BE781F0004158E72DE9FE4F2F
:1005800081EA030404F0004421F0004100944FF09C
:10059000000B23F0004350EA01045ED052EA03044A
:1005A0005BD0C3F30A54C1F30A552C44A4F2F334CC
:1005B0000194A0FB0254C1F3130141F48011C3F371
:1005C000130343F4801301FB024400FB034E840A2F
:1005D000970A44EA815447EA8357A4FB07680295C7
:1005E0008D0A05FB07854FEA932C04FB0C54270565
:1005F000029D4FEA065847EA1637B5EB08056EEB41
:10060000070C870E920E47EA811742EA8312A7FB76
:100610000201B6EB0B0164EB00042B0D43EA0C3333
:100620005E1844EB1C50DA465146E7FB0201C5F365
:1006300013044FEA0B3343EA14534FEA0432019C8C
:1006400043EA0603A4F10C040294009CCDE900B433
:1006500000F0D9F803B0BDE8F08F00200146F9E7BB
:100660002DE9F04D81EA030404F0004B21F0004530
:1006700014464FF0000A23F0004150EA050220D052
:1006800054EA01021DD0C5F30A570246C5F313030D
:10069000C1F31300C1F30A5640F4801543F48013EC
:1006A000A7EB0608101BD64608F2FD3873EB0500D1
:1006B00002D308F1010801E092185B41B8F1000F84
:1006C00003DA00200146BDE8F08D00204FF48011D0
:1006D000064684460EE0171B73EB050705D3121B75
:1006E00063EB050306434CEA010C49084FEA30006E
:1006F00092185B4150EA0107EDD152EA030012D093
:1007000082EA040083EA0501084305D0101BAB41CF
:1007100006D20122002306E000224FF0004302E04F
:100720006FF0010253101AEB06004CEB085110EB6E
:100730000A0041EB0B01BDE8F04D00F055B8C1F3E4
:100740000A52C1F3130140F2FF3341F480119A427F
:1007500002DA00200146704740F233439A42A2F287
:10076000334202DC5242FFF752BEFFF741BE0000A7
:1007700030B5041E71F1000404DB4FF00044404228
:1007800064EB0101141E73F1000405DB1C464FF0FD
:100790000043524263EB0403994208BF904230BDCC
:1007A000064C074D06E0E06840F0010394E80700BE
:1007B00098471034AC42F6D3FFF7EAFCC031030887
:1007C000E0310308202A06DBCB17203A41FA02F079
:1007D00043EAE07306E041FA02F3D040C2F120029E
:1007E000914008431946704710B5141E73F1000478
:1007F00008DA401C41F1000192185B411A4301D113
:1008000020F0010010BD2DE9F04D92469B4611B13C
:10081000B1FA81F202E0B0FA80F220329046FFF79E
:10082000E7FD04460F4640EA0A0041EA0B01534641
:100830005A46084313D0114653EA010019D0C8F1B3
:1008400040025046FFF7E3FD05460E465046594626
:100850004246FFF7CDFD084305D0012004E02046C5
:100860003946BDE8F08D0020054346EAE0762C438A
:1008700037430A986305E40AA0EB08000022FD0A4A
:1008800044EA47540A3002D500200146E9E7010551
:1008900010196941DDE9084500196941BDE8F04DCD
:1008A000A2E770B58C1810F8015B15F0070301D1B1
:1008B00010F8013B2A1106D110F8012B03E010F8C3
:1008C000016B01F8016B5B1EF9D12B0705D40023E6
:1008D000521E0DD401F8013BFAE710F8013BCB1A88
:1008E000921C03E013F8015B01F8015B521EF9D57D
:1008F000A142D8D3002070BDFEE7000070B5104DB6
:100900004FF4807400222146284601F056F800F08A
:100910005DF900226100284601F04FF8012007F040
:100920009DFD01222146284601F047F8012007F0ED
:1009300095FD21462846BDE87040002201F03DB8F3
:100940000004024010B586B014216846FFF7F2FC9F
:100950001048016841F00201016000680E4C00F08F
:10096000020005904FF44070009001200190029029
:10097000022003906946204600F022FF0122110266
:10098000204601F01AF801225102204601F015F824
:1009900006B010BD303802400004024070B5104D62
:1009A0004FF4807400222146284601F006F800F03A
:1009B0000DF901225102284600F0FFFF012007F047
:1009C0004DFD01222146284600F0F7FF012007F0E7
:1009D00045FD21462846BDE87040002200F0EDBFED
:1009E000000402402DE9F0478046002400F0DAF8C8
:1009F000154F00254FF480764FF4007900223146E0
:100A0000384600F0DAFF032007F028FD01223146C6
:100A1000384600F0D2FF6006040E4946384600F022
:100A2000C7FF08B1641CE4B26D1CEDB2082DE5D31C
:100A3000B8F1000F04D0FFF761FF2046BDE8F08752
:100A4000FFF7ACFFF9E70000000402402DE9F04198
:100A5000054600F0BBF8144E4FF48077002239466B
:100A6000304600F0AAFF00244FF40078EA0941461E
:100A7000304600F0A2FF6806050E012239463046D6
:100A800000F09BFF012007F0E9FC002239463046C8
:100A900000F093FF012007F0E1FC641CE4B2082C95
:100AA000E4D3BDE8F08100000004024070B500F01E
:100AB0008DF801220E4D54022146284600F07DFF9C
:100AC000012216023146284600F077FF012007F088
:100AD000C5FC00222146284600F06FFF012007F0E8
:100AE000BDFC31462846BDE87040002200F065BFDD
:100AF0000004024070B500F069F8104D4FF48074A6
:100B000000222146284600F058FF660000223146A8
:100B1000284600F052FF012007F0A0FC01222146E8
:100B2000284600F04AFF012007F098FC314628468D
:100B3000BDE87040012200F040BF00000004024008
:100B40002DE9F041002400F02DF80122144D560249
:100B50003146284600F031FF012007F07FFC0122DA
:100B600017023946284600F028FF012007F076FCDE
:100B700008E0641CE4B2FA2C04D9FFF7BBFF0120A3
:100B8000BDE8F0813146284600F012FF0028F0D180
:100B900000223946284600F010FF0020F0E7000050
:100BA0000004024000B585B0002001904FF40070B1
:100BB000009002200390012002906946024800F054
:100BC000FFFD05B000BD00000004024000B585B087
:100BD00001200190400200900220039069460248E3
:100BE00000F0EEFD05B000BD000402402DE9F0412B
:100BF0000E46074615460421052002F039FF002164
:100C0000012003F04BF880210A2003F03BF8002478
:100C100005E0395D092003F041F8641CE4B2B442F8
:100C2000F7D30321012003F039F8FF24052002F057
:100C3000BDFF641E14F0FF0401D04007F6D522204A
:100C400002F0B4FF2870212002F0B0FF6870BDE808
:100C5000F0810000014800F057BB0000C0060020F2
:100C6000014800F051BB000078090020014800F065
:100C70004BBB00001809002001681823CAB2103AC3
:100C8000B2FBF3F2054B6FF30901032A9B5CC365CA
:100C900000D9091D816508467047000064EA020812
:100CA00010B5014600208B698A6A4FF0C07453B1B9
:100CB000B3F5005F15D072B1012A0CD0022A0AD018
:100CC000032A09D104E01AB1012A06D0022A03D16D
:100CD000C96AC90100D5012010BDC96AA142FAD074
:100CE00010BD002AF7D0012AF2D0022AF3D0032A3D
:100CF000F3D010BD30B50468256825F48025256043
:100D0000046863608368402B036803D099600068BF
:100D1000C26030BD9A600068C16030BD704710206D
:100D200000F042BD72B6FEE7002229B101291AD0B7
:100D300002291BD04FF440720E490B6823F4407314
:100D40000B600B6813430B600A6822F0F8020A601C
:100D50000A68022303EBC00002430A60086840F4FB
:100D60008030086070474FF48072E5E74FF40072FE
:100D7000E2E70000103C02401348016889050FD5E6
:100D8000016821F400710160016841F400610160B3
:100D9000016821F400610160016841F400710160A3
:100DA000016849050FD5016821F48061016001687F
:100DB00041F480510160016821F4805101600168B3
:100DC00041F4806101607047003C024008490A68B4
:100DD00022F440720A600A6842F004020A600A685B
:100DE0004FF4803343EA002002430A60704700005A
:100DF000103C0240064A136823F4407313601368E2
:100E00001360136843F00103136001707047000022
:100E1000103C0240094910B50C6824F440740C6081
:100E20000C6844F440740C600C6844F001040C60DD
:100E30000260BFF36F8F436010BD0000103C0240A2
:100E4000074A136823F440731360136843F48073F4
:100E50001360136843F001031360018070470000C2
:100E6000103C0240074A136823F440731360136870
:100E700043F400731360136843F0010313600160CF
:100E800070470000103C024017490868C206174826
:100E900005D5C26942F01002C26110220A600A68D8
:100EA000920605D5C26942F00802C26120220A609A
:100EB0000A68520605D5C26942F00402C2614022A6
:100EC0000A600A68120605D5C26942F00202C261D0
:100ED00080220A600A68920705D5C26942F02002A2
:100EE000C2610220086070470C3C02405C04002094
:100EF00070B5114904460020C86100F063FD064644
:100F00000E4D09E0601C07D024B100F05BFD801B92
:100F1000A04201D9032070BD2868C003F2D428681C
:100F2000C00701D001202860286810F0F200F2D03C
:100F3000FFF7AAFF012070BD5C0400200C3C0240BA
:100F400070B588B0142101A8FFF7F4F92B480024EC
:100F5000016841F0020101600068012500F0020013
:100F600006904020CDE901050220CDE90340244E42
:100F700001A9304600F024FC01A9802081E831005D
:100F8000304600F01DFCFFF7DDFC0022402130461A
:100F900000F013FD0A2007F05CFA012240213046E0
:100FA00000F00BFD4FF4FA7007F053FA0122694686
:100FB000A82000F027F89DF80000112818D102227F
:100FC00069469F2000F01EF89DF8000026280FD1EA
:100FD0009DF8010018B1012801D0022808D1012292
:100FE0006946A32000F00EF89DF80000642802D0A6
:100FF000012008B070BD0020FBE70000303802403F
:10100000000402402DE9F04115460E460446FFF764
:101010004DFD7020FFF71AFDFFF792FDE0B2FFF7DC
:1010200015FDFFF78DFDFFF741FD7120FFF70EFD68
:10103000FFF786FD00246F1E09E0BC4201D00120AD
:1010400000E00020FFF7CEFC3055641CE4B2AC4257
:10105000F3D3BDE8F041FFF74DBD00002DE9FC5F83
:10106000644E00244FF00A093088DFF88C81401C60
:1010700080B2B0FBF9F209FB12012746308009B1BA
:101080000A2874D2012201A90220FFF7BBFF9DF8B4
:10109000041000296CD003296BD2FF208840C04384
:1010A00040F0C000DFF854A1DFF854B1454688F89D
:1010B000100001273AF8140004226946FFF7A2FF46
:1010C000297C07FA04F001426BD09BF806105846C1
:1010D00031B1012919D002292FD0032961D149E06A
:1010E0009DF800109DF8010001F00F0100EB0121B7
:1010F00005EB440001819DF802209DF8031002F0E9
:101100000F0201EB022181814BE09DF800209DF848
:10111000011002F00F02BBF8020001EB0221411A9C
:1011200005EB440081819DF802209DF8031002F038
:101130000F0201EB0221018133E09DF800209DF8B0
:10114000011002F00F0201EB02210288521A05EB96
:1011500044010A819DF802309DF8032003F00F033B
:10116000BBF8020002EB0322801A888119E025E017
:1011700027E037E09DF800209DF8011002F00F02F3
:1011800001EB022205EB44018A819DF802309DF8B3
:10119000032003F00F03BBF8000002EB0322801AC8
:1011A0000881641CE4B2022C84D301272989002021
:1011B00019B9A98909B98DF8040030809DF8040097
:1011C00080B998F81000010602D520F0800007E0F1
:1011D0004FF6FF71A8F80810A8F80C1000F0E00016
:1011E00088F810003088F02801D9A6F80090384619
:1011F000BDE8FC9F4C0000205801002090EA020846
:10120000B0080020F0B587B016460F46054600F03E
:1012100093FA002000900120019003900720029093
:101220000220049005A9684600F0F2F9002409E0C4
:1012300007EBC4002946D0E90023022000F03EFA63
:10124000641C2D1DB442F3DB00F02EFA07B0F0BD94
:101250002DE9F0410446876D00F0B4FB064694F892
:1012600035000025022806D08020606584F83450BF
:101270000120BDE8F0812068016821F016010160BD
:101280002068416921F080014161206C08B9A06C9F
:1012900020B12068016821F0080101602068016820
:1012A00021F0010101600CE000F08CFB801B05289F
:1012B00007D920206065032084F8350084F8345075
:1012C000D7E720680068C007EED194F85C103F2093
:1012D0008840B860012084F8350084F8345000203C
:1012E000C7E790F83510022903D08021416501201D
:1012F0007047052180F835100068016821F0010170
:1013000001600020704700002DE9F84304464FF0CB
:101310000009CDF8009063484FF41651A56D0068A0
:10132000B0FBF1F72E6894F85C10082000FA01F188
:1013300031420FD021680A6852070BD50A6822F0A3
:1013400004020A6094F85C108840A860606D40F068
:101350000100606594F85C104FF0010808FA01F094
:10136000304208D021684969090604D5A860606D3B
:1013700040F00200606594F85C1004208840304220
:1013800008D021680968890704D5A860606D40F01D
:101390000400606594F85C1010208840304218D03A
:1013A00021680968090714D5A86020680168490305
:1013B00004D50068000308D5A16C07E00168C905E1
:1013C00003D4016821F008010160216C09B12046B5
:1013D000884794F85C1020208840304231D0216842
:1013E0000968C9062DD5A86094F83500052820683D
:1013F000016806D0490347D5006800031DD4616C1D
:101400001CE021F0160101602068416921F0800193
:101410004161206C08B9A06C20B12068016821F0FE
:101420000801016094F85C103F208840A86084F8AF
:10143000358084F83490216D1FE0E16B09B12046BE
:101440008847606D00282BD0606DC00714D0052040
:1014500084F835002068016821F0010101600098DE
:10146000401C0090B84203D820680068C007F6D13D
:1014700084F8358084F83490E16C002910D001B0F4
:101480002046BDE8F04308470168C905D5D4016886
:1014900021F01001016084F8358084F83490CCE7A5
:1014A000BDE8F883380000202DE9F041044600F043
:1014B00089FA06465CB1022084F83500002584F8DC
:1014C00034502068016821F0010101600DE0012025
:1014D000BDE8F08100F076FA801B052805D92020B0
:1014E0006065032084F83500F2E720680068C007D3
:1014F000F0D12268116820480140D4E90103184363
:10150000D4E903363343184363691843A369184386
:10151000E3691843236A18430843616A042903D125
:10152000D4E90B1319430843106020684069666AC8
:1015300020F0070130460E43012704280CD1A06A91
:101540000643E06A40B12046FFF7AAFB20B14020E5
:10155000606584F83570BAE7206846612046FFF779
:101560008BFB94F85C203F2191408160656584F895
:1015700035700020ACE700003F8010F02DE9F0410D
:101580000446866D90F83400002501280DD0012016
:1015900084F8340094F835700020012F07D084F8C7
:1015A000340002252846BDE8F0810220FBE702272F
:1015B00084F8357060652046FFF79CFB94F85C105A
:1015C0003F208840B0602068016841F0160101604A
:1015D000206C20B12068016841F00801016020689A
:1015E000016841F001010160DCE7000070B50446CC
:1015F00000F0E8F90546601C02D004480078044475
:1016000000F0E0F9401BA042FAD370BD2C0000208E
:101610002DE9F047044622480F46017E01290AD0F1
:101620000121804601764CF250394846FFF760FCB4
:10163000020003D02FE00220BDE8F0874FF0FF301A
:1016400038602068174D012801D0A6681CE0207C76
:101650006168FFF7BBFB4846FFF74AFC0246286873
:1016600020F00400286014E0217C3046FFF75CFB8A
:101670004846FFF73DFC0200286820F0FA00286089
:1016800001D03E6005E0761CD4E902100844B04267
:10169000EAD8FFF771FB002188F818101046CBE755
:1016A0005C040020103C02400348016841F0004106
:1016B0000160002070470000103C02402DE9F04717
:1016C0001B4E05461446307E1F468946012808D029
:1016D000012030764CF250384046FFF709FC18B133
:1016E00014E00220BDE8F0879DB1012D16D0022D37
:1016F00019D022463B464846FFF78CFB4046FFF791
:10170000F7FB0C490A6822F001020A6000213176D9
:10171000E8E7E1B24846FFF76DFBEFE7A1B24846C4
:10172000FFF78EFBEAE721464846FFF79BFBE5E71C
:101730005C040020103C0240074900200A68002A8F
:1017400009DA054A054B0C3A1360054B136009682A
:10175000002900DA01207047103C02402301674550
:10176000AB89EFCD08B5102817D110210B4800F038
:101770001FF9012811D1002000900948694600682E
:101780002CF0FFFC0098002807D006494FF080504D
:101790000860BFF34F8FBFF36F8F08BD000C02408E
:1017A0001400002004ED00E0044910B50A6802426C
:1017B00002D00860FFF7D6FF10BD0000143C0140C6
:1017C0002DE9F84FDFF8BCA10022012503264FF0D8
:1017D0000F090AF1040BAAF1040E00BF0B6805FA09
:1017E00002F42340A34270D10F7907F00307012FC1
:1017F00001D0022F16D187684FEA420806FA08FC8A
:1018000027EA0C07D1F80CC00CFA08FC4CEA070CCC
:10181000C0F808C04768A7430C79C4F3001494408B
:101820003C4344600C79E443A4070AD0C4684FEAFF
:10183000420C06FA0CF7BC438F6807FA0CF72743F3
:10184000C7600C7904F00304022C12D1D40800EB19
:10185000840CDCF820405707FF0E09FA07F824EA49
:101860000804D1F8108008FA07F848EA0408CCF810
:10187000208004684FEA420C06FA0CF7BC430F794B
:1018800007F0030707FA0CF7274307604C6814F4C6
:10189000403F70D03C4C276847F48047276024685D
:1018A00022F0030704F480440094384C07EB040C46
:1018B000DCF8084897074FEA177809FA08F7BC439D
:1018C000334FB84202D1002724E054E0314FB842F0
:1018D00001D101271EE0304FB84201D1022719E0A3
:1018E0002E4FB84201D1032714E02D4FB84201D149
:1018F00004270FE02B4FB84201D105270AE02A4FF9
:10190000B84201D1062705E0284FB84201D1072788
:1019100000E0082707FA08F72743CCF80878DAF838
:1019200000405746D1F804C09C435FEACC2C00D558
:101930001C433C60DBF800405F46D1F804C09C4388
:101940005FEA8C2C00D51C433C60DEF800407746F3
:10195000D1F804C09C435FEA8C3C00D51C433C603A
:10196000084F083F3C68D1F804C09C435FEACC3C78
:1019700000D51C433C60521C102AFFF42FAFBDE879
:10198000F88F0000083C014044380240003001401C
:10199000000002400004024000080240000C024027
:1019A000001002400014024000180240001C0240D7
:1019B0000069084000D0012070470AB1816170477A
:1019C0000904FBE701488068704700002C000020F4
:1019D0000248816802781144816070472C00002021
:1019E0000B4810B5016841F400710160016841F4D1
:1019F00080610160016841F480710160032000F0A2
:101A00009FF80F2000F006F800F050F8002010BDFD
:101A1000003C024030B505461F4887B000240168ED
:101A200041F004010160006806A900F00400009084
:101A300001A800F031F90498A8B100F04DF9400078
:101A40001649174AB0FBF1F11648491E026040F2F0
:101A5000E732C0E90324C0E90114846100F04EFDBF
:101A6000040003D015E000F037F9E9E70D4800F075
:101A700073FD04000DD11E2000F034F8102D07D2A4
:101A8000002229461E2000F03BF80748056000E0D0
:101A9000012407B0204630BD4038024040420F00CC
:101AA0000008004014040020300000200C4882B0E0
:101AB000016841F480410160006800F480400090BA
:101AC0000748001F016841F0805101600068002252
:101AD00000F0805000900F21901E02B000F010B86E
:101AE00044380240002809DB00F01F020121914028
:101AF0004009800000F1E020C0F8001170470000AC
:101B0000F0B40E4B1B680C46C3F30223C3F1070568
:101B1000042D00D90425191D072901D2002300E056
:101B2000DB1E012606FA05F1491E214099409E4020
:101B3000761E16403143F0BC02F01ABF0CED00E0F7
:101B4000064900F0070208684FF6FF03184040EA14
:101B50000220034A10430860704700000CED00E0CB
:101B60000000FA052DE9F0470E46050065D0DFF8C4
:101B70001481D8F80000F7B200F00700B04207D295
:101B800088F80070D8F8000000F00700B04254D187
:101B900028683D4C810712D5400703D5206840F4E2
:101BA000E05020602878000703D5206840F46040AA
:101BB00020602068A96820F0F000084320602878A1
:101BC000C0072DD0304968680839012812D0022892
:101BD00013D0032811D00968890700292DDA21685C
:101BE00021F0030101432160FFF7ECFE814641F241
:101BF000883A0EE009688903EFE709688901ECE794
:101C0000FFF7E0FEA0EB0901514502D90320BDE832
:101C1000F0872068696800F00C00B0EB810FEFD10D
:101C2000D8F80010404601F00701B14207D907700B
:101C3000006800F00700B04201D00120E7E72878F3
:101C4000400705D52068E96820F4E050084320608B
:101C50002878000706D52068296920F4604040EA0A
:101C6000C100206000F058F82168084AC1F3031150
:101C7000515CC8400649086006480068FFF7CAFE84
:101C80000020C4E7003C0240083802406CEA020829
:101C900038000020300000200F2202600C4A136838
:101CA00003F003034360136803F0F00383601368D9
:101CB00003F4E053C36012684FF4E05303EAD20226
:101CC00002610448006800F00700086070470000E7
:101CD00008380240003C0240044805490068096891
:101CE000044AC1F38221515CC8407047380000208B
:101CF000083802407CEA020804480549006809687F
:101D0000044AC1F34231515CC8407047380000209A
:101D1000083802407CEA0208154810B5006810F047
:101D20000C02144813D04110042A0FD0082A0ED1F7
:101D30000F4C241F2268236802F03F025B0207D584
:101D40002068C0F38810A0FB010106E0084610BD22
:101D50002168C1F38811A1FB00010023FEF792FA6C
:101D60002168C1F30141491C4900B0FBF1F010BDED
:101D7000083802400024F4002DE9F84F04006ED02A
:101D80002078DFF84C93C007A9F104054AD009F187
:101D900004000168C1F38101012908D00068C0F383
:101DA000810002280AD1D9F80000400206D528682F
:101DB000800337D560680028E1D033E06068B0F573
:101DC000803F10D0B0F5A02F286810D020F48030CC
:101DD0002860286820F4802028606068A8B1FFF798
:101DE000F1FD06460DE0286840F48030F4E740F449
:101DF00080202860F7E700BFFFF7E4FD801B642820
:101E000073D828688003F7D50CE0FFF7DBFD0646A2
:101E100005E000BFFFF7D6FD801B6428F0D82868D6
:101E20008003F7D42078DFF8AC8280074FF0000AF7
:101E30003ED5A748001D016811F00C0F08D00068BE
:101E4000C0F3810002280BD1D9F80000400207D46A
:101E50002868800716D5E068012800D112E033E138
:101E6000E068B8B10120C8F80000FFF7ABFD0646F6
:101E700005E000BFFFF7A6FD801B0228C0D8286838
:101E80008007F7D52868216920F0F80040EAC100F2
:101E900028600DE0C8F800A0FFF794FD064604E0B6
:101EA000FFF790FD801B02281FD828688007F7D411
:101EB0002078000722D5864F87486169703771B155
:101EC00001210160FFF77EFD064604E0FFF77AFD81
:101ED000801B022809D838688007F7D50EE0C0F8C3
:101EE00000A0FFF76FFD064605E082E0FFF76AFD00
:101EF000801B02287DD838688007F7D420784007F7
:101F000068D5DFF8CCB100270BF13C0BDBF8000003
:101F1000C0000BD4DBF8001041F08051CBF800106A
:101F2000DBF80000012700F0805000906B4E306815
:101F3000C00510D4306840F480703060FFF742FD77
:101F4000009005E0FFF73EFD0099401A022850D8A6
:101F50003068C005F6D55E4EA0686C3601280FD0FB
:101F60000528306810D020F001003060306820F083
:101F700004003060A068B8B1FFF724FD00900FE0C6
:101F8000306840F00100F4E740F004003060F7E70B
:101F9000FFF718FD0099411A41F28830814266D856
:101FA00030688007F4D50EE0FFF70CFD009007E0E5
:101FB000FFF708FD0099411A41F28830814256D856
:101FC00030688007F4D42FB1DBF8001021F0805185
:101FD000CBF80010A069C8B33D49091D0968C1F3D9
:101FE000810102294AD00228504607D0C8F8600073
:101FF00000E03CE0FFF7E6FC04463BE04746C8F85B
:102000006000FFF7DFFC064605E000BFFFF7DAFCE3
:10201000801B02282BD828688001F7D4D4E9070157
:102020000843A16A2E4A490802EB0141626A41EA6B
:102030008211084394F82C1040EA0161C9F800109D
:1020400001203866FFF7BEFC044606E03EE000BF14
:10205000FFF7B8FC001B022809D828688001F7D5D3
:1020600034E000BFFFF7AEFC001B022802D90320BA
:10207000BDE8F88F28688001F4D427E00128F7D064
:10208000D9F80000E26900F4800191421CD1226A73
:1020900000F03F01914217D147F6C071626A0140DA
:1020A000B1EB821F10D1A26A4FF0FF3300F4403130
:1020B00003EB5202B1EB024F06D194F82C1000F062
:1020C0007060B0EB016F01D00120D1E70020CFE7B5
:1020D0000438024000004742800E47420070004032
:1020E0000000FFFF704790F85100704770B5040082
:1020F00009D0606A002540B125616561A56294F848
:10210000510040B10CE0012070BD6068B0F5827FE5
:10211000F4D0E561F2E784F85050204600F044F82E
:10212000022084F851002068016821F0400101601C
:10213000A088218900F4827001F404410843A18938
:1021400001F400610843217C01F002010843217D74
:1021500001F001010843218B01F400710843217F44
:1021600001F03801084394F8201001F08001084381
:10217000218D01F40051084321680860A069042101
:1021800001EA104094F8241001F01001084321687E
:1021900048602068C16921F40061C1616565012062
:1021A00084F85100002070BD70472DE9F84F0446B7
:1021B00090F8500000270A9E1D4692468B464FF02D
:1021C000010901280ED0012084F85000FFF7FAFB26
:1021D000804694F85100616801280CD0B1F5827FE7
:1021E00007D102E00220BDE8F88FA16809B90428F0
:1021F00001D00227C2E0BBF1000F27D0BAF1000FD7
:1022000024D01DB394F85100042802D0052084F88E
:10221000510000206065C4F838A0E587A587C4F8A0
:1022200030B0E586A58620646064206801684906B0
:1022300003D4016841F040010160E068B0F5006F2F
:10224000606805D0E8B3012D46D07FE0012795E016
:1022500008B1012D39D1206B21680088C860206B3E
:10226000801C2063E08E401EE0862EE0206881689E
:1022700089070FD5E18E69B1B9F1010F0AD1216B40
:102280000988C160206B801C2063E08E401EE086C0
:102290004FF0000920688168C9070CD0E18F51B167
:1022A000C068A16B0880A06B801CA063E08F401EFB
:1022B000E0874FF00109FFF785FBA0EB0800B04273
:1022C00000E009E001D3701C50D1E08E0028CDD190
:1022D000E08F0028CAD13FE0206B216800780873A6
:1022E000206B401C2063E08E401EE0862EE02068BC
:1022F000816889070FD5E18E69B1B9F1010F0AD163
:10230000216B09780173206B401C2063E08E401E16
:10231000E0864FF0000920688168C9070CD0E18F82
:1023200051B1C068A16B0870A06B401CA063E08F26
:10233000401EE0874FF00109FFF744FBA0EB0800C7
:10234000B04202D3701C01D010E07EB1E08E0028B4
:10235000CDD1E08F0028CAD142463146204601F057
:1023600017FD28B101272020606507E0032705E05D
:10237000A06818B92068C16880680090012084F8BE
:102380005100002084F8500038462CE72DE9F04138
:10239000044690F850000026012809D0012784F84F
:1023A000507094F851000025012804D002264EE018
:1023B0000220BDE8F08189B182B1032084F8510088
:1023C00065652163A286E286A56365642564A587A9
:1023D000E587A068B0F5004F02D00BE0012636E09B
:1023E0002068016821F0400101602068016841F423
:1023F00080410160A16C18480864A16C1748C8634B
:10240000A16C1748C864A06C0565E38E2268216B37
:102410000C32A06CFFF7B2F838B1606D40F01000DC
:102420006065012684F8517011E020680168490652
:1024300003D4016841F0400101602068416841F027
:10244000200141602068416841F00201416084F848
:1024500050503046ADE70000233D00082D3D0008F8
:10246000013D0008704770477047704770B590F89D
:102470003C20012A32D0012480F83C40022280F81E
:102480003D2003685A689D6822F070060A6832434E
:102490005A60134B02689A4214D0B2F1804F11D0A7
:1024A000104B9A420ED0104B9A420BD00F4B9A42CF
:1024B00008D00F4B9A4205D00E4B9A4202D00E4BD9
:1024C0009A4204D1496825F080031943916080F84D
:1024D0003D40002180F83C10084670BD022070BDD0
:1024E000000001400004004000080040000C0040D3
:1024F00000040140004001400018004010B50400F5
:1025000003D094F83D0010B107E0012010BD002079
:1025100084F83C00204600F01EF8022084F83D00BC
:10252000211D206801F032FD012084F8460084F866
:102530003E0084F83F0084F8400084F8410084F8AD
:10254000420084F8430084F8440084F8450084F88D
:102550003D00002010BD704790F83D10012901D0CA
:1025600001207047022180F83D100168CA6842F0DE
:102570000102CA6000681149884214D0B0F1804F4E
:1025800011D00F4988420ED00E4988420BD00E4917
:10259000884208D00D49884205D00D49884202D0B2
:1025A0000C49884204D1816801F00701062903D053
:1025B000016841F001010160002070470000014006
:1025C0000004004000080040000C004000040140EE
:1025D0000040014000180040704770B50446006894
:1025E00001694FF00005C943890715D4C168C94383
:1025F000890711D4E91E01610120207720688069D4
:102600008007204602D0FFF7E7FF04E000F098F8CB
:10261000204600F096F8257720680169C9434907EC
:1026200017D4C168C943490713D46FF0040101618D
:10263000022020772068806910F4407F204602D075
:10264000FFF7CAFF04E000F07BF8204600F079F8BD
:10265000257720680169C943090716D4C168C943B1
:10266000090712D46FF00801016104202077206867
:10267000C0698007204602D0FFF7AEFF04E000F0FB
:102680005FF8204600F05DF8257720680169C943AE
:10269000C90617D4C168C943C90613D46FF0100125
:1026A0000161082020772068C06910F4407F20462F
:1026B00002D0FFF791FF04E000F042F8204600F05E
:1026C00040F8257720680169C943C90708D1C16866
:1026D000C943C90704D1891E0161204600F032F8C0
:1026E00020680169C943090609D4C168C9430906BC
:1026F00005D46FF0800101612046FFF7B5FE206828
:102700000169C943490609D4C168C943490605D4CA
:102710006FF040010161204600F036F82068016941
:10272000C94389060BD4C168C943890607D46FF031
:10273000200101612046BDE87040FFF796BE70BDE4
:102740007047704710B5044600680B49884201D1B4
:10275000FFF73EF90948844204D1BDE8104001204A
:1027600022F02ABF0648844204D106484068BDE8EA
:102770001040004710BD000000080040780700200E
:10278000C0070020580100207047704710B504466C
:102790000068406994F83D10C0F3C010212911D1A0
:1027A00080B12068143050E8001F21F0800140E81B
:1027B0000012002AF5D1606B08B1FEF749FD2046F2
:1027C00001F062FD2068406994F83E10C0F380106B
:1027D000222911D180B12068143050E8001F21F067
:1027E000400140E80012002AF5D1A06B08B1FEF7C5
:1027F0002FFD204601F021FD002010BD7047000094
:10280000F8B5016804460868CA684B6910F00F0FF4
:102810004FF0000559D003F0010602F490773743DA
:1028200065D0C10705D0D10503D5216C41F0010168
:102830002164410705D5D90703D0216C41F002017D
:102840002164810705D5D90703D0216C41F004012B
:102850002164010707D502F02001314303D0216C28
:1028600041F008012164216C00293AD0800604D58A
:10287000900602D5204601F015FD20684069216CC4
:10288000C0F38010090700D460B3204601F0D5FCE6
:1028900020684069400621D52068143050E8001FA8
:1028A00021F0400140E80012002AF5D1A06BA8B148
:1028B0006C490165A06BFEF714FD002811D0A06BD8
:1028C000016D01B0BDE8F040084783060FD59306BF
:1028D0000DD52046BDE8F84001F0E4BC2046FFF7E6
:1028E0008DFFF8BD2046FFF789FF2564F8BD266BF4
:1028F0002023012E79D1C60677D5D60675D508686E
:10290000486800904869400640D5A16B0868406857
:102910000004000CEAD0A28D8242E7D9E085C869A4
:10292000B0F5807F2DD020680C3050E8001F21F4D6
:10293000807140E80012002AF5D12068143050E878
:10294000001F21F0010140E80012002AF5D12068A3
:10295000143050E8001F21F0400140E80012002A26
:10296000F5D184F83E30256320680C3050E8001F14
:1029700021F0100140E80012002AF5D1A06BFEF70B
:1029800067FCA08DE18D401A81B229E0A08DE18D18
:10299000401A81B2E08D0028A8D00029A6D0206876
:1029A0000C3050E8002F22F4907240E80026002EF0
:1029B000F5D12068143050E8002F22F0010240E8E1
:1029C0000026002EF5D184F83E30256320680C30B7
:1029D00050E8002F22F0100240E80023002BF5D130
:1029E0002046FFF7D2FEF8BDFFE705062BD51506FA
:1029F00029D594F83D002128F5D1A068B0F5805F75
:102A000001D12069B0B1206A411C2162216800789F
:102A10004860E08C401E0004000CE084E3D1206894
:102A2000C16821F08001C1602068C16841F04001A7
:102A3000C160D8E7206A0088C0F308004860206AB7
:102A4000801C2062E5E74006CDD55006CBD5CA688C
:102A5000204622F04002CA6084F83D3000F0DDF8E4
:102A6000C1E700004541000870B5040004D094F8A7
:102A70003D00002510B106E0012070BD84F83C50F7
:102A8000204600F022F8242084F83D002068C16828
:102A900021F40051C160204601F064FC2068016906
:102AA00021F4904101612068416921F02A014161CE
:102AB0002068C16841F40051C1602564202084F879
:102AC0003D0084F83E00002070BD704790F83E3015
:102AD000202B0ED159B152B190F83C30012B08D0C7
:102AE000012380F83C300023036301F0C1BC0120C6
:102AF00070470220704790F83E30202B0ED159B11C
:102B000052B190F83C30012B08D0012380F83C30C2
:102B10000023036301F0F6BC0120704702207047D8
:102B20007047704738B5044600680C49884214D194
:102B30000068C00611D52046FFF728FEA06B00688C
:102B40004068074901204870420206492046FFF7C5
:102B5000BDFF206801684068009038BD0044004017
:102B60003C0000207C0400202DE9F843044690F846
:102B70003D001F4616460D4620284CD1C5B1BEB1BA
:102B800094F83C00012846D0012084F83C004FF026
:102B90000008C4F84080212084F83D00FEF712FFB1
:102BA000A6848146E684A068B0F5805F03D004E087
:102BB0000120BDE8F883206928B12E465FF00005AA
:102BC00084F83C800EE00026FAE78021204601F0E0
:102BD000B6FCA0B9AEB116F8010B21684860E08CD4
:102BE000401EE084E08C4B464FF000020097002826
:102BF000EBD14FF04001204601F0A1FC30B10320A1
:102C0000D7E735F8020BC0F30800E6E7202084F888
:102C10003D000020CDE70220CBE77047FEE7000033
:102C20002DE9FE4F234C074600216088401E83B2E9
:102C30002088401E82B2084600F04EFADFF878A0E5
:102C40004FF40021CAF818100421CAF81810002007
:102C50004FEA17288DF804008DF808000546642611
:102C6000FFB2A1461CE0002415E000BF11488DF81A
:102C70000480012302AA01A910300096FFF795FAFB
:102C80000C488DF80470012302AA01A910300096A7
:102C9000FFF78BFA641CB9F80000A042E6D86D1C5F
:102CA000B9F80210A942DED80821CAF81810BDE808
:102CB000FE8F0000B0080020000002402DE9F04720
:102CC0008146A2EB0900401C884684B2A3EB0800B1
:102CD000401CDDF820A01E46174685B21448FFF7B9
:102CE00002FA0128FAD133463A464146484600F0F6
:102CF000F3F910484FF400216C4381610421816194
:102D00005146002009E000BF01EB400211F81030ED
:102D1000557801F810505370401CA042F4D34FF680
:102D2000FF7000EA4402BDE8F0470148FFF72EBB00
:102D3000C00800200000024010B500F00DF900F0BE
:102D4000B7F9CF2000F012FA002000F0F3F9C1200B
:102D500000F0F0F9302000F0EDF9ED2000F006FA77
:102D6000642000F0E7F9032000F0E4F9122000F0FD
:102D7000E1F9812000F0DEF9E82000F0F7F9852084
:102D800000F0D8F9002000F0D5F9782000F0D2F951
:102D9000CB2000F0EBF9392000F0CCF92C2000F02A
:102DA000C9F9002000F0C6F9342000F0C3F9022070
:102DB00000F0C0F9F72000F0D9F9202000F0BAF9AE
:102DC000EA2000F0D3F9002000F0B4F9002000F070
:102DD000B1F9C02000F0CAF9132000F0ABF9C1200E
:102DE00000F0C4F9132000F0A5F9C52000F0BEF9E9
:102DF000222000F09FF9352000F09CF9C72000F058
:102E0000B5F9BD2000F096F9212000F0AFF9362089
:102E100000F0ACF9082000F08DF9B62000F0A6F91A
:102E20000A2000F087F9A22000F084F93A2000F08F
:102E30009DF9552000F07EF9F62000F097F9012069
:102E400000F078F9302000F075F9B12000F08EF92B
:102E5000002000F06FF91B2000F06CF9F22000F068
:102E600085F9002000F066F9262000F07FF90120A6
:102E700000F060F9E02000F079F90F2000F05AF935
:102E8000352000F057F9312000F054F90B2000F004
:102E900051F90E2000F04EF9062000F04BF94920C0
:102EA00000F048F9A72000F045F9332000F042F97E
:102EB000072000F03FF90F2000F03CF9032000F05C
:102EC00039F90C2000F036F90A2000F033F900201F
:102ED00000F030F9E12000F049F9002000F02AF973
:102EE0000A2000F027F90F2000F024F9042000F058
:102EF00021F9112000F01EF9082000F01BF93620FE
:102F000000F018F9582000F015F94D2000F012F9E2
:102F1000072000F00FF9102000F00CF90C2000F051
:102F200009F9322000F006F9342000F003F90F20EF
:102F300000F000F9112000F019F9782005F089FA65
:102F4000292000F013F9002000F03CF9BDE8104002
:102F50004FF6FF70FFF764BE2DE9F04186B01421F3
:102F60006846FDF7E7F94D480024016841F001018A
:102F70000160016801F001010591016841F48001DF
:102F800001600068224600F48000059021463B2045
:102F9000FEF7B6FD3B20FEF7A5FD002211463820C6
:102FA000FEF7AEFD3820FEF79DFD3E4E3C484FF04B
:102FB000C067E6E8020740204FF48068A6E81101E8
:102FC000384846F81449B461F46134627462FEF71B
:102FD0006BFA08B1FDF7A6FE324D3148583D48382E
:102FE000AE64B56305F1B8063060C6E90174C6E9A0
:102FF00003487461B461F461346230467462FEF770
:1030000053FA08B1FDF78EFEDFF89C80EE640022D3
:103010001E214046B563FEF7D0FC01261E20CDE9F7
:103020000006022769464046CDE90267FEF7C8FB65
:103030001A481430016841F4805101600068694603
:1030400000F480500590E020CDE900070320CDE991
:103050000260052004904046FEF7B2FB134828604A
:103060004FF48270C5E901046E61C5E9034770023F
:10307000C5E906042C6207206C62C5E90A400948CC
:103080005838FFF733F808B1FDF74CFE0122022152
:103090004046FEF792FC06B0BDE8F08130380240B1
:1030A000586402401809002000000240003001402E
:1030B00070B5084C1025A561322005F0CAF9E00072
:1030C000A061642005F0C5F9A561BDE8704032201B
:1030D00005F0BFB9000002402DE9F041DFF8508053
:1030E00007461C4615460E4698F80C0000F03EF8C0
:1030F000380A00F01FF8F8B200F01CF8280A00F0B7
:1031000019F8E8B200F016F898F80E0000F02EF862
:10311000300A00F00FF8F0B200F00CF8200A00F0CE
:1031200009F8E0B200F006F8BDE8F04100F03AB866
:10313000B00800203EB50B4C4FF40021A1610421E2
:10314000A1618DF80800002164208DF80410009022
:10315000012301AA02A90448FFF727F80820A0616B
:103160003EBD000000000240C00800203EB50B4CF0
:103170004FF40021A1614910A1618DF808000021E0
:1031800064208DF804100090012301AA02A90448CC
:10319000FFF70BF80820A0613EBD000000000240D0
:1031A000C00800200148007AFFF7E0BFB008002007
:1031B00010B50C46FFF7DAFFE0B2BDE81040FFF7AC
:1031C000B9BF000014492A228A812B22CA812C22ED
:1031D0000A812E224A8110F003038B714FF0F00216
:1031E0004FF4A0700BD0012B0DD0022B0FD0032B6E
:1031F00011D108804A80A8213620FFF7D9BF0A8064
:1032000048800821F8E708804A806821F4E70A80AE
:103210004880C821F0E77047B00800201CB50120A5
:103220002AF0FCFD1F4C03220021206101202AF01E
:1032300000FE60610022012105202AF0FAFDA06154
:103240000022012105202AF0F4FDE06100220C217A
:1032500005202AF0EEFD2062134A0021134823F0D6
:103260000BFC6062201D0324CDE900400023802276
:103270000FA112482BF066F90A4800230830CDE967
:10328000004080220EA110482BF05CF90548002375
:103290000C30CDE900404FF400720CA10E482BF029
:1032A00051F91CBD0000002040EA0208A13E0008C0
:1032B0005043445F5461736B0000000021DB02083F
:1032C00046505F5461736B0089DA02084C56474CD4
:1032D0005F5461736B000000F9DA020830B5184CD6
:1032E00087B00025206840F080002060206800F052
:1032F00080000590206840F00100206020681421C3
:1033000000F0010005906846FDF714F8206840F0D1
:103310000100206020680B4C00F0010005900022A5
:1033200002212046FEF749FB022000900120CDE952
:103330000105694620460395FEF742FA07B030BD05
:1033400030380240000002403EB51A4800240168AF
:1033500041F0100101600068224600F01000029068
:1033600002213620FEF7CCFB3620FEF7BBFB1348CC
:103370000094114901940160114944F620620968E2
:10338000B1FBF2F1491EC0E9011409218461C16059
:10339000FFF7B4F808B1FDF7C5FC0094694607488B
:1033A0000194FFF763F808B1FDF7BCFC0348FFF791
:1033B000D3F83EBD4038024000100040780700209E
:1033C000380000203EB51A480024016841F0200171
:1033D00001600068224600F020000290062137209C
:1033E000FEF78EFB3720FEF77DFB13480094114952
:1033F00001940160114944F620620968B1FBF2F1C1
:10340000491EC0E9011463218461C160FFF776F8A9
:1034100008B1FDF787FC0094694607480194FFF75F
:1034200025F808B1FDF77EFC0348FFF795F83EBD8F
:103430004038024000140040C0070020380000203F
:10344000FEE7FEE738B50C46054604F0E7FD04F05C
:103450009DFD012004F00EFE072004F0F5FD0C2078
:1034600004F0D0FD284604F04FFD200A8DF800003E
:103470006423012269461248FFF776FB8DF800406D
:103480006423012269460E48FFF76EFB28191430A9
:1034900080B204F0A1FD0A480068C16841F004014F
:1034A000C160084841780129FCD1002141704FF4E6
:1034B000967004F03FFCFF2800D1012038BD0000C9
:1034C0007C0600203C00002010B5044604F0A6FD58
:1034D00004F05CFD012004F0CDFD042004F0B4FDF7
:1034E000022004F08FFD204604F002FDE01D04F0F0
:1034F00073FD0A480068C16841F00401C1600848D2
:1035000041780129FCD1002141704FF4967004F0FC
:1035100011FCFF2800D1012010BD00007C06002016
:103520003C00002010B504F079FD04F02FFD0120CF
:1035300004F0A0FD032004F087FD012004F062FDEB
:10354000052004F049FD0A480068C16841F0040103
:10355000C160084841780129FCD1002141704FF435
:10356000967004F0E7FBFF2800D1012010BD000099
:103570007C0600203C0000207FB514460D46064620
:1035800004F04CFD04F002FD012004F073FD08205E
:1035900004F05AFD1B2004F035FD304604F0A8FC71
:1035A000284604F0DDFC204604F0C4FC70192044D9
:1035B000243080B204F010FD0A480068C16841F070
:1035C0000401C160084841780129FCD10021417003
:1035D00003A94FF4967004F0ADFBFF2800D1012041
:1035E00004B070BD7C0600203C00002070B50C4685
:1035F000054604F013FD04F0C9FC012004F03AFD77
:10360000062004F021FD072004F0FCFC284604F00D
:103610006FFC204604F078FC28190E3080B204F0CC
:10362000DBFC0A480068C16841F00401C160084839
:1036300041780129FCD1002141704FF4967004F0CB
:1036400079FBFF2800D1012070BD00007C0600201E
:103650003C00002010B504F0E1FC04F097FC0120D0
:1036600004F008FD032004F0EFFC032004F0CAFC82
:10367000072004F0B1FC0A480068C16841F0040169
:10368000C160084841780129FCD1002141704FF404
:10369000967004F04FFBFF2800D1012010BD000000
:1036A0007C0600203C00002010B504F0B7FC04F0BC
:1036B0006DFC012004F0DEFC032004F0C5FC0520B5
:1036C00004F0A0FC092004F087FC0A480068C168E7
:1036D00041F00401C160084841780129FCD1002172
:1036E00041704FF4967004F025FBFF2800D10120B3
:1036F00010BD00007C0600203C00002070B50C4688
:10370000054604F08BFC04F041FC012004F0B2FCFF
:10371000062004F099FC062004F074FC284604F00E
:10372000E7FB204604F0F0FB28190D3080B204F0CE
:1037300053FC0A480068C16841F00401C1600848B0
:1037400041780129FCD1002141704FF4967004F0BA
:10375000F1FAFF2800D1012070BD00007C06002096
:103760003C00002001B504F059FC04F00FFC0120DE
:1037700004F080FC032004F067FC1D2004F042FCF0
:10378000212004F029FC0A480068C16841F00401C6
:10379000C160084841780129FCD100214170694687
:1037A0004FF4967004F0C6FAFF2800D1012008BD3E
:1037B0007C0600203C00002070B50646082188B039
:1037C0000024084600F054F900210D2000F066FAAC
:1037D00080210E2000F04CF993208DF80400202069
:1037E0008DF8050006A801AB0090022219460C20B6
:1037F00000F018F8054626280DD1002101A8425CEA
:103800007254425C491C5440C9B20429F7D3405C4D
:10381000A04200D0BB2580210E2000F033FA08B072
:10382000284670BD2DE9FF5F0027BB25DDF838A0D5
:1038300016468B468146B8460C2805D0B9F10E0FC6
:1038400005D11227102001E077273020804647F06D
:103850008001022000F022FA8021042000F008F903
:103860000021012000F01AFA80210A2000F00AFA53
:10387000002405E01BF80410092000F00FFA641C76
:10388000B442F7D34946012000F008FAB9F10C0F11
:1038900003D180210D2000F0F5F94FF47A76042051
:1038A00000F084F90446761E04D0E00702D114EA41
:1038B000080FF4D080210D2000F0DAF836B1062090
:1038C00000F074F910F01B0F0CD0BB2580210C20E8
:1038D00000F0D8F90021012000F0E0F904B02846FA
:1038E000BDE8F09F26253C40E00700D0CC25B9F18B
:1038F0000C0FEBD10A2000F059F904460C2000F01F
:1039000055F910F007004FEAC40101D0083901440D
:10391000CAF8001024B1122C04D91224002603E0A6
:103920000124FBE7002605E0092000F03FF9039998
:103930008855761CA642F7D3C8E700B587B050205B
:103940008DF8040000208DF805000DF1060202211B
:1039500001A8FDF74BF906A801AB00900422194617
:103960000C20FFF75FFF07B0262000BD30B50C46E6
:103970000546082187B0084600F07AF807210D2097
:1039800000F08CF90321142000F07CF906A801ABAB
:1039900000908DF80450012219460C20FFF742FFD9
:1039A000262802D10699102902D0BB2007B030BDCD
:1039B0009DF8041021709DF805106170F6E710B5B0
:1039C00088B00021932206918DF8042070228DF892
:1039D00005208DF80A1001AA5418435CA370445CBA
:1039E0009DF80A30491C6340C9B28DF80A30042999
:1039F000F2D3072101A8D21DFDF7F8F808210846E7
:103A000000F036F806A801AB0090092219460C20F8
:103A1000FFF708FF262802D10699182900D0BB20FD
:103A200008B010BD10B5142000F0C0F8800705D014
:103A300005A1BDE8104009A000F082BF03211420B9
:103A400000F020F906A1F4E7B2BBD0E8D2AABFAAE1
:103A5000C6F4CCECCFDF0D0A000000002573000097
:103A6000D0E8D2AABFAAC6F4CCECCFDF0D0A000082
:103A700070B50C46054600F099F820EA0401284686
:103A8000BDE8704000F00AB910B508210846FFF7FC
:103A9000EFFF3D21112000F001F98621172000F0F1
:103AA000FDF87F21262000F0F9F81E212D2000F0DE
:103AB000F5F800212C2000F0F1F88D212A2000F0EB
:103AC000EDF83E212B2000F0E9F84021152000F010
:103AD000E5F86420FDF78AFDBDE81040FFF7A2BFBE
:103AE00070B586B014216846FCF724FC2A480024EF
:103AF000016841F004010160016801F004010591D1
:103B0000016841F0020101600068244E00F00200EB
:103B1000059001220C213046FDF74FFF0C2000904C
:103B20000125CDE90154694630460394FDF748FE6E
:103B300019481030016841F4804101600068022694
:103B400000F4804005904FF44440CDE90006032086
:103B5000CDE902500520049069461148FDF730FE7A
:103B60001148104901604FF48271C0E901146902E3
:103B7000C0E90551C0E903461821C0E9071407212F
:103B80004462C0E90A41FEF7B1FA002801D0FDF70E
:103B9000C9F806B070BD000030380240000802408D
:103BA00000040240003800402007002070B57E214C
:103BB00001EA40000A4D40F080040022042128461A
:103BC000FDF7FBFE204600F047F8002000F02CF83F
:103BD0000446012204212846FDF7EFFE204670BD71
:103BE0000008024010B50F4C012208212046FDF7C5
:103BF000E4FE642004F032FC002208212046FDF798
:103C0000DCFE642004F02AFC012208212046FDF796
:103C1000D4FE642004F022FC0F21BDE810400120F6
:103C200000F03CB80008024001B582B0094800F03D
:103C30004FF8FF200090012301AA02A90548FEF7D2
:103C4000B4FA0448FEF74FFA0128FAD19DF80400AF
:103C50000EBD00002007002001B582B0084800F02A
:103C600037F8FF200090012301AA02A90448FEF7BB
:103C70009CFA0348FEF737FA0128FAD10EBD00007E
:103C80002007002070B50C460546FFF78FFF40EA7D
:103C900004012846BDE87040AFF3008070B50E46C1
:103CA0007E2101EA4004094D002204212846FDF747
:103CB00084FE2046FFF7D0FF3046FFF7CDFF2846B1
:103CC000BDE8704001220421FDF777BE00080240E4
:103CD0000A4910B5C96918290ED001680A6822F08E
:103CE00040020A601821C161FEF700FA002803D0E3
:103CF000BDE81040FDF716B810BD000020070020F9
:103D000010B5806B01684A6822F003024A60416D79
:103D100041F010014165012180F85110FEF7E2F9F0
:103D200010BD10B5806BFEF79EFB10BD38B5054683
:103D3000846BFDF747FE024628680068C00523D45F
:103D40002068416821F0200141602068416821F02D
:103D5000020141606421204600F01AF818B1606D3C
:103D600040F020006065A068002118B92068C26892
:103D700080680090E186012084F85100606D18B1E0
:103D80002046FEF7AFF938BD2046FEF76BFB38BD85
:103D900038B504461248134B0068B0FBF3F04FF4FB
:103DA0007A73584300906068B0F5827F0DD10B465E
:103DB000009200228021204600F016F870B1606D5C
:103DC00040F020006065032038BD009830B1401EEF
:103DD000009020688068C0430006F6D5002038BDFA
:103DE0003800002000366E012DE9F8431E4691464A
:103DF00088460446089DFDF7E5FD401B351AFDF792
:103E0000E1FD074625480068C0F3CB30684338E041
:103E1000701C37D0FDF7D6FDC01BA84203D215B1E8
:103E2000009860B32CE02068416821F0E001416017
:103E30006068B0F5827F0BD1A068B0F5004F02D06A
:103E4000B0F5806F04D12068016821F04001016065
:103E5000A06AB0F5005F09D12068016821F4005123
:103E600001602068016841F400510160012084F87C
:103E70005100002084F850000320BDE8F88300259D
:103E8000401E00902068816838EA010004D00021BB
:103E90004945BDD10020F0E70121F9E738000020B5
:103EA000012022F0AEFDFBE710B54FF0E0200069E5
:103EB0002AF0A0FB012803D0BDE8104029F098BFEC
:103EC00010BD000030B593B030216846FCF732FADF
:103ED00014210CA8FCF72EFA1D480025016841F0BA
:103EE00080510160006800F080501190194801680D
:103EF00041F4804101600068022400F48040119088
:103F000001200090000401908001CDE9064008AA3C
:103F10000420A82182E813000B906846FDF72CFFCF
:103F200008B172B6FEE70CA90F2081E831004FF40A
:103F3000A0500F904FF48050109005210CA8FDF771
:103F400011FE002801D072B6FEE713B030BD0000AC
:103F500040380240007000400248016841F470019E
:103F60000160704788ED00E00148FEF736BB0000B5
:103F7000140400200148FEF730BB00007807002041
:103F80000148FEF72ABB0000C0070020F0B5026818
:103F9000254C264D264E274F274B4FF0804CA042F4
:103FA00009D0604507D0A84205D0B04203D0B8423E
:103FB00001D0984204D122F0700E4A6842EA0E0203
:103FC000A0421BD0604519D0A84217D0B04215D0EE
:103FD000B84213D0984211D0184DA8420ED0184DB7
:103FE000A8420BD0174DA84208D0174DA84205D0C3
:103FF000164DA84202D0164DA84203D122F44075B6
:10400000CA682A434D6922F080022A4302608A6806
:10401000C2620A688262A04201D0984201D1096955
:10402000016301214161F0BD000001400004004036
:1040300000080040000C0040000401400040014026
:10404000004401400048014000180040001C0040AE
:104050000020004010B5FCF773FF08B1012010BD2F
:10406000034902484860002010BD00005D100008B0
:104070005801002070B52E4886B00025016841F037
:1040800001010160016801F001010591016841F041
:1040900001010160006800F001000590244814301F
:1040A000016841F0100101600068072400F0100071
:1040B00005904FF4007000900220019001200290C2
:1040C0000320CDE903041B4E69463046FDF778FB1B
:1040D00030150090694604943046FDF771FB0022CC
:1040E00011462520FDF70CFD2520FDF7FBFC1348AC
:1040F000114C4FF4E1320460C0E90125C5600C2188
:104100000561C0E90515C561FEF7AEFC08B1FCF715
:1041100009FE206820F040002060206820F0200088
:104120002060012206490548FEF7E5FC06B070BD97
:104130003038024000000240001001400808002012
:104140002800002010B5806B0021C185C184FEF7D6
:1041500055FB10BD70B5846B2068406994F83D1024
:10416000C0F3C0100025212904D118B1E5842046F0
:1041700000F08AF82068406994F83E10C0F380107F
:10418000222904D118B1E585204600F056F8206CAC
:1041900040F0100020642046FEF730FB70BD10B5E3
:1041A0000146806B09680968C9052FD40021C185C3
:1041B00001680C3151E8002F22F4807241E800239D
:1041C000002BF5D10168143151E8002F22F00102D3
:1041D00041E80023002BF5D10168143151E8002F8C
:1041E00022F0400241E80023002BF5D1202180F885
:1041F0003E10016B012909D101680C3151E8002FF3
:1042000022F0100241E80023002BF5D1016B0129B7
:1042100002D0FEF785FC10BD818DFEF7B6FA10BD09
:1042200010B5806B016B012902D0FEF77AFC10BD3E
:10423000818D4908FEF7A9FA10BD01680C3151E8DB
:10424000002F22F4907241E80023002BF5D1016881
:10425000143151E8002F22F0010241E80023002B25
:10426000F5D1016B012909D101680C3151E8002F0A
:1042700022F0100241E80023002BF5D1202180F824
:104280003E1000210163704701680C3151E8002F96
:1042900022F0C00241E80023002BF5D1202180F854
:1042A0003D10704708B590F83E10222901D0022039
:1042B00008BD82684FF480539A4201D1016921B14F
:1042C000816A9A421BD04AB10AE00268816A526848
:1042D000C2F308020A80816A891C08E0026972B18F
:1042E0000268526802F07F020A70816A491C81628A
:1042F000C18D491E0904090CC18503D019E002686B
:104300005268F1E70168CA6822F02002CA600168B9
:10431000CA6822F48072CA6001684A6922F0010208
:104320004A61202180F83E10016B012903D0FEF77D
:10433000F7FB002008BD0021016301680C3151E842
:10434000002F22F0100241E80023002BF5D1016874
:104350000A68D20602D50A6849680091818DFEF785
:1043600014FAE6E770B5044600680169E26821F4D2
:104370004051114301612169A068E2690843616904
:10438000114308432168CA6849F20C639A43024307
:10439000CA6020684169A26921F4407111434161FA
:1043A00031492068884202D03049884202D1FDF765
:1043B000A3FC01E0FDF790FCE269002319216425CC
:1043C0003226B2F5004F626828D0A0FB0101930F9E
:1043D0009200FBF757FF0146B0FBF5F06FF01802B3
:1043E000504301EB800006EB0010B0FBF5F000F04D
:1043F000F002B1FBF5F002EB0012B1FBF5F06FF04B
:104400001803584301EB800006EB0010B0FBF5F0F9
:1044100000F00F0021681044886070BDA0FB01010E
:1044200092185B41FBF72EFF0146B0FBF5F002014D
:10443000B1FBF5F06FF01803584301EB800006EB79
:10444000C000B0FBF5F000F0F80002EB4002B1FB59
:10445000F5F0584301EB800006EBC000B0FBF5F02F
:1044600000F00700D6E700000010014000140140F2
:1044700038B58162828500251346044605642220F2
:1044800084F83E00A26B1C48D063A26B1B481064EA
:10449000A26B1B48D064A06B0A4605652168A06B1F
:1044A000091DFDF76BF8206801684068009084F8EA
:1044B0003C50206948B120680C3050E8001F41F49E
:1044C000807140E80012002AF5D12068143050E8CD
:1044D000001F41F0010140E80012002AF5D12068D8
:1044E000143050E8001F41F0400140E80012002A5B
:1044F000F5D1002038BD00009F410008214200088E
:104500005541000881628285C28500210164222212
:1045100080F83E2080F83C10016921B10168CA682A
:1045200042F48072CA6001684A6942F001024A613D
:104530000068C16841F02001C160002070472DE98A
:10454000F041984617460E460446069D27E0681C33
:1045500025D02DB1FDF736FAA0EB0800A8421ED9F0
:1045600020680C3050E8001F21F4D07140E80012A0
:10457000002AF5D12068143050E8001F21F0010115
:1045800040E80012002AF5D1202084F83D0084F88C
:104590003E00002084F83C000320BDE8F081206844
:1045A000006836EA000004D00020B842CFD00020D6
:1045B000F3E70120F9E7000010B50448FEF720F901
:1045C000BDE810400148FEF7ADBA00007C060020AF
:1045D000FEE700002DE9F04116460C46054600F0C6
:1045E00063F9DFF84C804FF400470022394640461B
:1045F000FDF7E3F9032000F045F9C4F3074000F0AC
:1046000041F9C4F3072000F03DF9E0B200F03AF9B7
:10461000002404E000F0FAF805F8010B641CB44231
:10462000F8D339464046BDE8F0410122FDF7C5B94F
:10463000000002402DE9F041074614460E4611F0F5
:10464000FF000BD0C0F58075A54200D915462A465B
:10465000384600F087F82F442E44641B4FF48075D1
:10466000FF2C0BD92A463146384600F07BF8A4F5DA
:10467000807406F5807607F58077F1E7002C06D088
:10468000224631463846BDE8F04100F06BB8BDE83F
:10469000F081000030B587B014216846FBF74AFE70
:1046A0001A480024016841F400410160006800F4E8
:1046B0000040059015481038016841F00101016083
:1046C000016801F001010591016841F002010160FA
:1046D000006801AA00F0020005904FF4004000902D
:1046E0000120022582E8310069460948FDF768F893
:1046F0003820CDE900050320CDE9024006200490D2
:1047000069460448FDF75CF807B030BD4038024008
:10471000000002400004024010B5FFF7BBFF104844
:104720000E49022201604FF48271416000218160D4
:10473000C0E9031201224261520282610822C0E9EB
:104740000721416281620A21C162FDF7CFFC002886
:1047500003D0BDE81040FCF7E5BA10BD003C0040B6
:104760004C0800202DE9F04114460D46064600F0A5
:104770009BF800F0C3F84FF48070844200D90446DF
:10478000DFF854804FF40047002239464046FDF7D9
:1047900014F9022000F076F8C5F3074000F072F833
:1047A000C5F3072000F06EF8E8B200F06BF80025C2
:1047B00004E0307800F066F86D1C761CA542F8D352
:1047C000012239464046FDF7F8F800F06DF8BDE8E3
:1047D000F04100F071B800000000024070B50A4ED0
:1047E0004FF40045002229463046FDF7E6F8052043
:1047F00000F048F800F00AF8044601222946304645
:10480000FDF7DBF8204670BD00000240FF2000F0FD
:1048100039B8000070B5044600F046F800F06EF8B4
:10482000164E4FF40045002229463046FDF7C5F8E4
:10483000202000F027F8C4F3074000F023F8C4F369
:10484000072000F01FF8E0B200F01CF80C48EC1054
:10485000006800E0641E8168090601D5002CF9D1CA
:10486000012229463046FDF7A8F800F01DF800F0B7
:1048700023F80CB1012070BD002070BD0000024083
:104880004C0800200EB501238DF808004FF480502D
:10489000009001AA02A90348FDF787FC9DF80400D7
:1048A0000EBD00004C0800202DE91040FFF796FFD8
:1048B000C007FBD110BD000070B50E4D4FF4004491
:1048C000002221462846FDF778F80420FFF7DAFF9A
:1048D0000948E210036800E0521E9868000601D5FE
:1048E000002AF9D121462846BDE870400122FDF793
:1048F00064B80000000002404C08002070B50E4D66
:104900004FF40044002221462846FDF756F80620C1
:10491000FFF7B8FF0948E210036800E0521E9868EC
:10492000000601D5002AF9D121462846BDE870408D
:104930000122FDF742B80000000002404C080020B0
:104940000FB4054B10B503A9044A029801F0E6FD27
:1049500010BC5DF814FB0000551A0108100400207B
:10496000014B024A01F0DABD551A0108100400207B
:104970000907090E002804DB00F1E02080F800148C
:10498000704700F00F0000F1E02080F8141D704720
:1049900002E008C8121F08C1002AFAD17047704708
:1049A000002001E001C1121F002AFBD1704770B541
:1049B000044600256FF02F0608E02068411C2160A6
:1049C000007805EB850106EB410145182068007869
:1049D00000F0C6F80028F0D1284670BD2DE9FF5F31
:1049E00082B00021DDE90430020DDDF840B0034360
:1049F00018D044F61050A2F2FF3242431514119819
:104A000001281FD0A5EB0B00401C5FEA000A4FF005
:104A100000064E4FDFF83891B046504615D5CAF122
:104A2000000413E0119801244AA3012801D16FEA80
:104A30000B010298119AC0E90031C0E9024206B0A8
:104A4000BDE8F09FCBF10000DFE704460021404ABB
:104A5000491842EB0450CDE9001012E0E00707D0FE
:104A600032463B4640464946FBF788FD804689462C
:104A700032463B4610461946FBF780FD06460F4678
:104A80006410002CEAD1DDE90401DDE90023BAF16C
:104A9000000F06DAFBF772FD42464B46FBF76EFD50
:104AA00005E0FBF7DDFD42464B46FBF7D9FD04462A
:104AB0000E460022284BFBF75BFE03D84FF0FF3079
:104AC000014607E00022254B20463146FBF7AFFCAC
:104AD000FBF735FE102409E0002C0ADB0A22002334
:104AE000FBF7D0FB039B30321A55641E50EA0102DB
:104AF000F2D1641C039AC4F111031444119A012ADF
:104B000003D0012208430DD10AE0084304D000205D
:104B10004FF0110B119072E7A3EB0B056D1E0DE02A
:104B20005B4504DD4FF0000205F1010504E003DA06
:104B30004FF00002A5F10105002AECD0029811996E
:104B4000C0E90231C0E9004579E7000000001440E7
:104B50000000F03F300000000000F0430000E03FA4
:104B60003038092801D80120704700207047000024
:104B700010B54421074800F085FF00221E21064899
:104B800020F074FD054CA06002F034FD0020207080
:104B900010BD0000707A0020A9760008780300207C
:104BA0002DE9F0470E46814617461146304600F083
:104BB0001CF94FF0FF3A00287DD0002239463046DC
:104BC00000F0BFF800284FF0000075D1B6F904805E
:104BD000B6F900305246A8EB0301491C0AFA81F1EC
:104BE0000FFA81FAB6F906C0B6F90210ACEB010C67
:104BF0000CF1010C02FA8CF2B7F802C012B2ACEB65
:104C0000010C0FFA8CFCBCF1000F0EDD63F30F04F6
:104C100068F30F0501EB0C0061F31F4460F31F45BF
:104C2000C9F800400120C9F80450B7F9061073888C
:104C3000CB1AD21A12B2002A13DDB6F90630994205
:104C40000FDA338863F30F04B38861F31F4463F30F
:104C50000F05114461F31F4509EBC001401C0C60B6
:104C60004D60B7F90220B6F902108A4200DD114604
:104C7000B7F90630B6F90620934200DA1A463B88A7
:104C8000B6F900C0521AA3EB0C031BB212B2002BF0
:104C900010DD002A0EDD634463F30F058B1863F308
:104CA0001F456CF30F0409EBC00361F31F441C6044
:104CB0005D60401C01E01AE017E0B7F90430368867
:104CC0009F1BAAEB070636B2002E0EDD63F30F041E
:104CD00061F31F44334463F30F05114461F31F452F
:104CE00009EBC001401C0C604D60BDE8F0875046E8
:104CF000FBE770B5B1F90030B2F90040A34200DC27
:104D000023460380B1F90250B2F90240A54200DD0A
:104D10002C464480B1F90460B2F90450AE4200DA86
:104D200035468580B1F90610B2F90620914200DBC4
:104D30001146C1800120AB4201DC8C4200DD002025
:104D400070BDF8B50D460446B0F90000B1F9001089
:104D50001646884247DBB4F90210B5F902209142A9
:104D600041DBB4F90410B5F9042091423BDCB4F9FD
:104D70000610B5F90620914235DC96B3ADF8000077
:104D80006088ADF8020032466946284600F099F87E
:104D9000002827D0A088ADF800006088ADF8020098
:104DA00032466946284600F08CF800281AD0208840
:104DB000ADF80000E088ADF80200324669462846AA
:104DC00000F07FF800280DD0A088ADF80000E08842
:104DD000ADF8020032466946284600F072F8002815
:104DE00000D00120F8BD0020F8BDB0F90020B1F9D5
:104DF00004309A4213DCB0F90420B1F900309A4231
:104E00000DDBB0F90220B1F906309A4207DCB0F9A7
:104E10000600B1F90210884201DB01207047002032
:104E20007047F8B50D460446B0F90400B1F900101A
:104E30001646884243DBB4F90600B5F902108842F1
:104E40003DDBB4F90000B5F90410884237DCB4F951
:104E50000210B5F90620914231DC76B3ADF80000BE
:104E60006088ADF8020032466946284600F029F80D
:104E700018BBA088ADF800006088ADF8020032468B
:104E80006946284600F01DF8B8B92088ADF8000042
:104E9000E088ADF8020032466946284600F011F875
:104EA00058B9A088ADF80000E088ADF8020032469D
:104EB0006946284600F005F808B10020F8BD012039
:104EC000F8BD2DE9FC4114460E46B1F90020B0F9B9
:104ED000001005468A423ADBB5F90400824236DC0E
:104EE000B6F90270B5F90220974230DBB5F9063009
:104EF0009F422CDC002C75DD401A9A1A401C521C73
:104F000000B212B200EBD07002EBD272401052101D
:104F1000904200DB1046844200DD0446ADF80010EC
:104F2000288800222044ADF804006888ADF802000B
:104F3000688831462044ADF806006846FFF7C1FF97
:104F400040B1BDF804002044ADF804003FE000206B
:104F5000BDE8FC81E8880022001BADF80200E8886B
:104F6000ADF8060031466846FFF7ABFF28B1BDF843
:104F700004002044ADF8040011E0A8880022001BC2
:104F8000ADF80000A888ADF8040031466846FFF788
:104F900098FF50B1BDF80000001BADF80000BDF84F
:104FA0000200001BADF8020016E06888ADF80200B0
:104FB000688800222044ADF8060031466846FFF7B5
:104FC00080FF70B1BDF80000001BADF80000BDF817
:104FD00006002044ADF80600314668461DF098FDF5
:104FE000B6E7FFE70120B3E710B5B1F90040B2F929
:104FF00000309C4200DA23460380B1F90240B2F946
:1050000002309C4200DA23464380B1F90440B2F9F1
:1050100004309C4200DD23468380B1F90610B2F9CA
:105020000620914200DC1146C18010BD2DE9F041FF
:105030008AB0074620F0B6FA0026A34C0546009633
:105040000FB1F86801E012F0A3FC606000691DF088
:1050500053FC6068406908B11DF04EFC6068C0698F
:105060001DF04AFC6068006A1DF046FC606801693A
:1050700091B11DF0FDFD23F031F922F057FE60687B
:10508000B0F85011E9B30068017CC9071FD0C068AF
:105090004068E0B1002715E0A0F850610AB0BDE813
:1050A000F081C11991F8301151B900F5AC7000F0E0
:1050B00040FD616801EBC7010A6B0260496B41600A
:1050C0007F1CBFB26068B0F85011B942E9D860687F
:1050D0004FF48071303018F04BFF6068202100F5EC
:1050E000987018F045FF6068A0F85061284620F0DD
:1050F00053FA009060680068436A13B1226800990F
:10510000984718F06DFD00F02BF900F0FDF86F4D99
:105110006F69D7BB18F015FB17F00EFC074600228D
:105120007F211DF0DCFA11F0F5FD01460022384622
:105130001DF0B8FA12F089F80146002238461DF039
:1051400044FB0022032138461DF030FB00220321DE
:1051500038461DF01CFB0022032138461DF01CFBC5
:105160000022032138461DF01CFB00220321384693
:105170001DF026FB56A1384618F064FA00231A46A3
:105180000621384619F000FC6F61286820F004FA07
:105190004FF4967840450CD2206841F2883188421D
:1051A00034D96968009808446860A868401CA86001
:1051B0002CE020F0F7F928606068406828B10068AA
:1051C0004FF47A71B1FBF0F000E02120696809B971
:1051D00001216960A968F1B14FF47A7251436A689C
:1051E000B1FBF2F46E60AE60844200D904462869D7
:1051F00020442861E868401CE86020F069FAC0F1AA
:105200006403224633A1384618F053FA2E4D083570
:105210006C6814B137E00446E4E718F092FA17F02E
:105220008BFB044600227F211DF059FA11F072FD1C
:105230000146002220461DF035FA12F006F801461C
:10524000002220461DF0C1FA0022032120461DF055
:10525000ADFA0022032120461DF099FA0022032115
:1052600020461DF099FA0022032120461DF099FAEC
:1052700017A1204618F0E6F900231A46042120461B
:1052800019F082FB6C60286820F086F940457FF6B3
:1052900005AF20F087F9286002A818F039FD0499BD
:1052A0000298401A820A514200EB81206621B0FB2D
:1052B000F1F39DF821109DF82000CDE9000109A12E
:1052C000204618F0F6F9E9E628020020B878002018
:1052D0003F0000002575204650530A2575252520DE
:1052E0004350550025752E2575206B42207573653A
:1052F0006420282564202525290A25642525206683
:105300007261672E0000000070B50A4D002400BFD6
:10531000C4EBC40655F8260008B118F0D5FC05EB1F
:1053200086001C2118F024FE641CE4B2042CEFD388
:1053300070BD00004C7B0020084949680AE04A68BB
:10534000824202D00A68824203D10A7E42F0010200
:105350000A7649690029F2D170470000FC0100205B
:10536000704700000421014800F08CBB647A0020E3
:105370002021014800F086BB7C7A00202DE9FF4106
:105380000446DDE90A671D004FF0000002D1B6F5C2
:10539000807F2BD0039001900290ADF80C1000900C
:1053A000ADF80410ADF80A20ADF80E203B463246A9
:1053B000294668461DF00CFB3B463246294601A8AB
:1053C0001DF006FB3B463246294602A81DF000FBB5
:1053D0003B463246294603A81DF0FAFABDF9000003
:1053E000BDF90430984209DA054608E02080491EDC
:1053F0006080A180521EE280BDE8FF811D46BDF99C
:105400000820BDF90C108A4201DA164600E00E466B
:10541000B54203DA984206DB184604E08A4201DA14
:10542000104600E00846801E2080BDF90030BDF91E
:105430000420934201DD1D4600E01546BDF9080039
:10544000BDF90C10884201DD064600E00E46B5426B
:1054500005DD934201DD194604E0114602E0884271
:1054600000DD0146891CA180BDF90230BDF906208E
:10547000934201DA1D4600E01546BDF90A00BDF968
:105480000E10884201DA064600E00E46B54205DA03
:10549000934201DA194604E0114602E0884200DA3C
:1054A0000146891E6180BDF90230BDF90620934294
:1054B00001DD1D4600E01546BDF90A00BDF90E10DC
:1054C000884201DD064600E00E46B54205DD934206
:1054D00001DD194604E0114602E0884200DD014684
:1054E000891CE18088E700002DE9F04115460E4651
:1054F0000746114C20F056F880462B463246394676
:10550000204616F059FC20B10020A062E06950B19D
:1055100010E02C21204618F02BFD4FF00040A06237
:105520000020BDE8F081404620F036F8E06108B97F
:105530000120E0612046F4E7A07A002010B5142194
:10554000074800F09FFA16F0FDFB40B105490160E5
:1055500005494160054981600549C16010BDFEE70C
:10556000887A002019B7010895BA010865BC0108BE
:10557000E5B6010870B50D4604461021284618F01E
:10558000F7FC20680078012804D0022807D00428FE
:1055900007D008E0A08A2880E08A688003E0E068FD
:1055A00000E00A20686020684268002A03D029468B
:1055B000BDE87040104770BD2DE9FE430446808A67
:1055C00010B9E08A002874D0D4F82C805FEA080073
:1055D00010D120460BF0E5FB5FEA000869D02046B9
:1055E0000EF0AEF800220921404615F0DFFA60788F
:1055F00080075ED44FF4807900274E46454600214F
:1056000028461BF03CFA384407B2002128461BF01C
:1056100054FAC11700EB1160001210FB06F006B23D
:1056200028461AF025FA0500E9D10FB94E450CD0ED
:10563000784201B24FF4803090FBF6F002B26B4634
:1056400004F1140000951DF0C3F9ADF80450ADF855
:10565000085094F8400000F00F000328404616D090
:105660001AF058FB064640461AF00EFA03460C2084
:105670000090B4F91610324640460AF04BFFADF8E0
:10568000080040461AF052FAC10713D018E01AF089
:10569000D5FA064640461AF071FA024603200090F9
:1056A000B4F91410334640460AF034FFADF8040054
:1056B000E7E736E0BDF90410002901DDADF804503C
:1056C000810705D4BDF90410002901DAADF80450B2
:1056D000410705D4BDF90810002901DDADF80850D7
:1056E000000705D4BDF90800002801DAADF808501C
:1056F00002AA01A9204623F08DF9BDF90820BDF9C1
:105700000410404600F08AFA6078800709D4208BA4
:10571000BDF8041008442083608BBDF808100844CD
:105720006083BDE8FE832DE9FC5F0446C06A5FEA42
:10573000000B71D094F8400000076DD016F0CEFD3C
:10574000019000684021457E58461BF0E2FA4FF078
:10575000000818B9A4F81E80A4F81C8058461AF056
:10576000CBFA824658461AF0CEFA064694F8400024
:105770004FF0640900F00F000C2802D003284CD031
:105780009AE0A4F81C8056B1B4F91E50002716F018
:10579000A5FD00684946407EC0F1640022E0E08B30
:1057A000C5F1640110FB01F191FBF9F0E08358466B
:1057B0001AF06AF9054658461AF0ACFA02460C206F
:1057C0000090B4F91E102B4658460AF0A3FEE08361
:1057D000024600231EE07A1917B210FB05F292FB75
:1057E000F1F215B2002DF6D1ADF80070A4F81E80CC
:1057F0006A460021204623F00DF941F6FF72BDF9FB
:105800000030514258460BF063FCBDF800100123F4
:10581000084402B200214CE09AE0A4F81E80BAF1DC
:10582000000F0AD0B4F91C50002716F057FD00688D
:105830004946407EC0F1640022E0A08BC5F16401BE
:1058400010FB01F191FBF9F0A08358461AF096F98C
:10585000054658461AF0F2F9034603200090B4F9C1
:105860001C102A4658460AF055FEA0830146002324
:105870001EE07A1917B210FB05F292FBF1F215B295
:10588000002DF6D1ADF80070A4F81C800022694606
:10589000204623F0BFF841F6FF72BDF900305142B7
:1058A00058460BF08DFBBDF800100123084401B2EF
:1058B000002258461CF06AFBA08B002848D1E08BE0
:1058C000002845D1C6B958461AF024FA054658466C
:1058D0001AF0DAF8002D06DC00280DDD002D02DAC2
:1058E00001232A4604E0002806DA0123404202B2DE
:1058F000002158461CF04AFBBAF1000F19D1584656
:105900001AF03CF9054658461AF098F9002D07DCC4
:1059100000280EDD002D03DA01230022294605E0D0
:10592000002806DA01230022404201B258461CF04A
:105930002DFB0A215846019A15F038F96078800746
:1059400006D414F8400F20F00F00207044F8148C97
:10595000BDE8FC9F7FB50E46040003D112F018F895
:1059600004002CD012F088F8002828D094F82800E1
:10597000400724D4002506B3ADF80050ADF802501E
:10598000204612F01DF8401EADF80400204612F02B
:105990005DF8401EADF806006A46314602A8FFF7E2
:1059A000A8F900280BD02068017C890708D5DDE91B
:1059B0000001C4E90C01012029E0A4F850517FBD89
:1059C00082690AB102A9904700260AE004EBC601E9
:1059D000002202A83031FFF7B4F90028EFD1761C7D
:1059E000B6B2B4F85001B042F0D880B2202804D248
:1059F00004EBC00002A9303004E0A4F8505104F1D7
:105A0000300069460FF00DFDB4F85001401CA4F8B9
:105A1000500160680028D2D01FF008FF7FBD70B52C
:105A2000054600F012F804460CE02146284600F036
:105A30001EF806462146284600F0A2F8204618F037
:105A400043F93446002CF0D170BD002800D04068E6
:105A5000704700B503460022FFF7F7FF03E0184642
:105A6000521C00F004F80100F9D1104600BD006896
:105A7000091D40587047006840587047002800D002
:105A80008068704700224260C91C21F003018260D7
:105A90000160704770B504460068083018F088F857
:105AA000050013D001460022204620F00DFF2946B4
:105AB0002046626820F002FF616819B12A4620463C
:105AC00020F002FF6560A06800B9A560284670BD9F
:105AD0002DE9F0410C4606000AD04CB1FFF7B5FFA6
