:020000040800F2
:1000000068EA0020A1010008471E000855150008F5
:10001000451E000853050008932800080000000052
:10002000000000000000000000000000AD1F0008FC
:10003000D105000800000000491E0008AF1F00089D
:10004000BB010008BB010008BB010008BB010008A0
:10005000BB010008BB010008BB010008BB01000890
:10006000BB010008BB0100082F060008BB01000807
:10007000BB010008BB010008BB010008BB01000870
:10008000BB010008BB010008BB010008BB01000860
:10009000BB010008BB010008BB010008BB01000850
:1000A000BB010008BB010008BB010008BB01000840
:1000B000BB010008BB010008BB010008BB01000830
:1000C000BB010008BB010008BB010008BB01000820
:1000D000BB010008BB010008BB010008BB01000810
:1000E000BB010008BB010008BB010008BB01000800
:1000F000BB010008BB010008BB010008BB010008F0
:10010000BB010008BB010008BB010008BB010008DF
:10011000BB010008BB010008592000086520000849
:10012000BB010008BB010008BB010008BB010008BF
:10013000BB010008BB010008BB010008BB010008AF
:10014000BB010008BB010008BB010008BB0100089F
:10015000BB010008BB010008BB010008BB0100088F
:10016000BB010008BB010008BB010008BB0100087F
:10017000BB010008BB010008BB0100080000000033
:10018000BB010008BB010008DFF810D000F0A4F9A3
:100190000048004795200208AFF3008068EA00207D
:1001A0000648804706480047FEE7FEE7FEE7FEE711
:1001B000FEE7FEE7FEE7FEE7FEE7FEE74920000870
:1001C000890100082DE9F05F0546002092469B4614
:1001D00088460646814640241BE02846414647465D
:1001E000224600F0BBF853465A46C01A914110D33C
:1001F00011461846224600F0A2F82D1A67EB0108B6
:100200004F4622460120002100F099F817EB000923
:100210004E41201EA4F10104DFDC484631462A4647
:100220004346BDE8F09F10B5431A934209D28318A4
:10023000881803E010F8011D03F8011D521EF9D2C1
:1002400010BD40EA01039B0703D009E008C9121F53
:1002500008C0042AFAD203E011F8013B00F8013B80
:10026000521EF9D210BDD2B201E000F8012B491E96
:10027000FBD270470022F6E710B513460A46044643
:100280001946FFF7F0FF204610BD421C10F8011B75
:100290000029FBD1801A704710B5002200E0521CE3
:1002A000835C8C5CA34201D1002BF8D1D8B2E1B2BF
:1002B000401A10BD034611F8012B00F8012B002A4B
:1002C000F9D1184670470EB540F233410291002132
:1002D000CDE900110A460B4600F05FF803B000BDFF
:1002E000C1F30A5210B5C1F3130140F2FF3341F4D8
:1002F00080119A4201DA002010BD40F233439A4245
:10030000A2F2334203DC524200F028F810BD9040C4
:1003100010BD30B50B46014600202022012409E023
:1003200021FA02F59D4205D303FA02F5491B04FAAE
:1003300002F52844151EA2F10102F1DC30BD202A8D
:1003400004DB203A00FA02F1002070479140C2F12C
:10035000200320FA03F3194390407047202A04DB5E
:10036000203A21FA02F00021704721FA02F3D0402E
:10037000C2F12002914008431946704710B5141E7F
:1003800073F1000408DA401C41F1000192185B414E
:100390001A4301D120F0010010BD2DE9F04D924625
:1003A0009B4611B1B1FA81F202E0B0FA80F220323C
:1003B0009046FFF7C4FF04460F4640EA0A0041EAB0
:1003C0000B0153465A46084313D0114653EA010025
:1003D00019D0C8F140025046FFF7C0FF05460E464F
:1003E000504659464246FFF7AAFF084305D0012070
:1003F00004E020463946BDE8F08D0020054346EA7A
:10040000E0762C4337430A986305E40AA0EB080022
:100410000022FD0A44EA47540A3002D50020014672
:10042000E9E7010510196941DDE90845001969414D
:10043000BDE8F04DA2E72DE9F04D00231A461B1A46
:100440008A4103DB00200146BDE8F08DC1F30A526A
:10045000C1F3130141F480154FF0000BD10702D115
:1004600000186D41521E0027044640F2FF11384625
:1004700001EB620A3E468046024600204FF480119E
:10048000FFF76CFFC2197141BB1846EB0100B4EBDA
:10049000030C75EB000C04D3E41A65EB000517465A
:1004A0000E46241908F101006D4180463428E3DD31
:1004B000F91946EB0600091BA84103D24FF0FF32A1
:1004C000134601E0002213461BEB070046EB0A51DE
:1004D000BDE8F04DFFF752BF064C074D06E0E0685F
:1004E00040F0010394E8070098471034AC42F6D37B
:1004F000FFF74EFEC8BF0208E8BF020870B58C18AF
:1005000010F8015B15F0070301D110F8013B2A1127
:1005100006D110F8012B03E010F8016B01F8016B14
:100520005B1EF9D12B0705D40023521E0DD401F810
:10053000013BFAE710F8013BCB1A921C03E013F8D9
:10054000015B01F8015B521EF9D5A142D8D300200E
:1005500070BDFEE770B51C4CA11C204602F0AEF940
:1005600038B3B4F9140094ED031A00EE100A208891
:1005700000EE900AB8EEC00AF8EE600A01EE200A1A
:1005800094ED041ABCEEC00A10EE100A85B2B4F95C
:10059000160000EE100A608800EE900AB8EEC00A5D
:1005A000F8EE600A01EE200ABCEEC00A10EE100A56
:1005B00086B20648807920B1012801D1E580A68065
:1005C00070BDA580E68070BDE40200207C020020A2
:1005D00070472DE9F04105460C380C4680B20B46B9
:1005E00005F10D0200F0FEFF04F10D0083B2193891
:1005F00081B22A46104600F0F5FF661CB1B2681CB5
:1006000001F044F8B1B26E1EB0B201F03FF8671EBF
:10061000B9B2681C01F03AF8B9B2B0B201F036F8DC
:1006200021462846BDE8F041062201F03BB81020E3
:1006300000F008B872B6FEE7102801D101F04ABFF9
:1006400070470000044910B50A68024202D00860F1
:10065000FFF7F2FF10BD0000143C01402DE9F84FF8
:10066000DFF8BCA10022012503264FF00F090AF193
:10067000040BAAF1040E00BF0B6805FA02F4234034
:10068000A34270D10F7907F00307012F01D0022F89
:1006900016D187684FEA420806FA08FC27EA0C07D9
:1006A000D1F80CC00CFA08FC4CEA070CC0F808C0E2
:1006B0004768A7430C79C4F3001494403C4344605A
:1006C0000C79E443A4070AD0C4684FEA420C06FA46
:1006D0000CF7BC438F6807FA0CF72743C7600C7907
:1006E00004F00304022C12D1D40800EB840CDCF8D3
:1006F00020405707FF0E09FA07F824EA0804D1F84A
:10070000108008FA07F848EA0408CCF8208004684A
:100710004FEA420C06FA0CF7BC430F7907F00307C7
:1007200007FA0CF7274307604C6814F4403F70D079
:100730003C4C276847F480472760246822F0030771
:1007400004F480440094384C07EB040CDCF80848AF
:1007500097074FEA177809FA08F7BC43334FB842B6
:1007600002D1002724E054E0314FB84201D10127E3
:100770001EE0304FB84201D1022719E02E4FB84297
:1007800001D1032714E02D4FB84201D104270FE017
:100790002B4FB84201D105270AE02A4FB84201D1B8
:1007A000062705E0284FB84201D1072700E00827B7
:1007B00007FA08F72743CCF80878DAF800405746DC
:1007C000D1F804C09C435FEACC2C00D51C433C60AC
:1007D000DBF800405F46D1F804C09C435FEA8C2CF4
:1007E00000D51C433C60DEF800407746D1F804C0D9
:1007F0009C435FEA8C3C00D51C433C60084F083F9B
:100800003C68D1F804C09C435FEACC3C00D51C4353
:100810003C60521C102AFFF42FAFBDE8F88F000097
:10082000083C0140443802400030014000000240D2
:100830000004024000080240000C02400010024088
:100840000014024000180240001C024000690840E9
:1008500000D0012070470AB1816170470904FBE7AD
:1008600001488068704700005400002002488168F9
:100870000278114481607047540000200B4810B585
:10088000016841F400710160016841F48061016018
:10089000016841F480710160032000F07FF80F20AF
:1008A00000F006F800F024F8002010BD003C0240E3
:1008B00070B50D4D04464FF47A712878B1FBF0F015
:1008C0000A490968B1FBF0F000F06AFC48B9102C45
:1008D00007D200222146501E00F040F800206C6034
:1008E00070BD012070BD0000540000206000002099
:1008F0000A4808B5016841F480410160006800F4CD
:10090000804000900548001F016841F0805101605F
:10091000006800F08050009008BD0000443802409C
:1009200000280DDB00F01F020121914040098000EA
:1009300000F1E020C0F88011BFF34F8FBFF36F8F3D
:100940007047002809DB00F01F0201219140400997
:10095000800000F1E020C0F800117047F0B40E4BA9
:100960001B680C46C3F30223C3F10705042D00D90D
:100970000425191D072901D2002300E0DB1E0126F2
:1009800006FA05F1491E214099409E40761E164008
:100990003143F0BC02F04EB80CED00E0064900F027
:1009A000070208684FF6FF03184040EA0220034A96
:1009B00010430860704700000CED00E00000FA05ED
:1009C0002DE9F0470E46050065D0DFF81481D8F810
:1009D0000000F7B200F00700B04207D288F80070BC
:1009E000D8F8000000F00700B04254D128683D4C10
:1009F000810712D5400703D5206840F4E0502060FD
:100A00002878000703D5206840F460402060206803
:100A1000A96820F0F000084320602878C0072DD096
:100A2000304968680839012812D0022813D00328F9
:100A300011D00968890700292DDA216821F0030106
:100A400001432160FFF70CFF814641F2883A0EE036
:100A500009688903EFE709688901ECE7FFF700FF00
:100A6000A0EB0901514502D90320BDE8F0872068B9
:100A7000696800F00C00B0EB810FEFD1D8F80010DE
:100A8000404601F00701B14207D90770006800F045
:100A90000700B04201D00120E7E72878400705D5DC
:100AA0002068E96820F4E0500843206028780007B7
:100AB00006D52068296920F4604040EAC100206022
:100AC00000F038F82168084AC1F30311515CC840AE
:100AD0000649086006480068FFF7EAFE0020C4E700
:100AE000003C0240083802401079020860000020F3
:100AF000580000200448054900680968044AC1F309
:100B00008221515CC84070476000002008380240D4
:100B1000207902080448054900680968044AC1F3BD
:100B20004231515CC84070476000002008380240E4
:100B300020790208154810B5006810F00C0214481E
:100B400013D04110042A0FD0082A0ED10F4C241FB5
:100B50002268236802F03F025B0207D52068C0F3D9
:100B60008810A0FB010106E0084610BD2168C1F312
:100B70008811A1FB00010023FFF724FB2168C1F3CA
:100B80000141491C4900B0FBF1F010BD083802409A
:100B90000024F4002DE9F84F04006ED02078DFF82F
:100BA0004C93C007A9F104054AD009F1040001687B
:100BB000C1F38101012908D00068C0F38100022837
:100BC0000AD1D9F80000400206D52868800337D53D
:100BD00060680028E1D033E06068B0F5803F10D055
:100BE000B0F5A02F286810D020F480302860286845
:100BF00020F4802028606068A8B1FFF731FE064627
:100C00000DE0286840F48030F4E740F4802028604C
:100C1000F7E700BFFFF724FE801B642873D828681D
:100C20008003F7D50CE0FFF71BFE064605E000BF8A
:100C3000FFF716FE801B6428F0D828688003F7D4DD
:100C40002078DFF8AC8280074FF0000A3ED5A74835
:100C5000001D016811F00C0F08D00068C0F381007E
:100C600002280BD1D9F80000400207D42868800779
:100C700016D5E068012800D112E033E1E068B8B190
:100C80000120C8F80000FFF7EBFD064605E000BFB5
:100C9000FFF7E6FD801B0228C0D828688007F7D53B
:100CA0002868216920F0F80040EAC10028600DE0C2
:100CB000C8F800A0FFF7D4FD064604E0FFF7D0FD1A
:100CC000801B02281FD828688007F7D420780007E7
:100CD00022D5864F87486169703771B10121016063
:100CE000FFF7BEFD064604E0FFF7BAFD801B0228B1
:100CF00009D838688007F7D50EE0C0F800A0FFF7E4
:100D0000AFFD064605E082E0FFF7AAFD801B022842
:100D10007DD838688007F7D42078400768D5DFF899
:100D2000CCB100270BF13C0BDBF80000C0000BD46A
:100D3000DBF8001041F08051CBF80010DBF8000028
:100D4000012700F0805000906B4E3068C00510D431
:100D5000306840F480703060FFF782FD009005E05D
:100D6000FFF77EFD0099401A022850D83068C00570
:100D7000F6D55E4EA0686C3601280FD00528306885
:100D800010D020F001003060306820F004003060A6
:100D9000A068B8B1FFF764FD00900FE0306840F044
:100DA0000100F4E740F004003060F7E7FFF758FD7A
:100DB0000099411A41F28830814266D83068800734
:100DC000F4D50EE0FFF74CFD009007E0FFF748FD7B
:100DD0000099411A41F28830814256D83068800724
:100DE000F4D42FB1DBF8001021F08051CBF80010C3
:100DF000A069C8B33D49091D0968C1F381010229F1
:100E00004AD00228504607D0C8F8600000E03CE015
:100E1000FFF726FD04463BE04746C8F86000FFF7B1
:100E20001FFD064605E000BFFFF71AFD801B0228E4
:100E30002BD828688001F7D4D4E907010843A16AB8
:100E40002E4A490802EB0141626A41EA82110843D5
:100E500094F82C1040EA0161C9F8001001203866AE
:100E6000FFF7FEFC044606E03EE000BFFFF7F8FC9B
:100E7000001B022809D828688001F7D534E000BF9C
:100E8000FFF7EEFC001B022802D90320BDE8F88F13
:100E900028688001F4D427E00128F7D0D9F80000B1
:100EA000E26900F4800191421CD1226A00F03F0106
:100EB000914217D147F6C071626A0140B1EB821FBF
:100EC00010D1A26A4FF0FF3300F4403103EB52021D
:100ED000B1EB024F06D194F82C1000F07060B0EB2B
:100EE000016F01D00120D1E70020CFE70438024094
:100EF00000004742800E4742007000400000FFFFA4
:100F000070B5040009D0606A002540B125616561B3
:100F1000A56294F8510040B10CE0012070BD6068FA
:100F2000B0F5827FF4D0E561F2E784F850502046B6
:100F300000F044F8022084F851002068016821F094
:100F400040010160A088218900F4827001F404410D
:100F50000843A18901F400610843217C01F00201EA
:100F60000843217D01F001010843218B01F4007148
:100F70000843217F01F03801084394F8201001F064
:100F800080010843218D01F4005108432168086065
:100F9000A069042101EA104094F8241001F0100126
:100FA0000843216848602068C16921F40061C1617B
:100FB0006565012084F85100002070BD70472DE95F
:100FC000F84F044690F8500000270A9E1D469246AE
:100FD0008B464FF0010901280ED0012084F8500003
:100FE000FFF73EFC804694F85100616801280CD060
:100FF000B1F5827F07D102E00220BDE8F88FA16839
:1010000009B9042801D00227C2E0BBF1000F27D0A4
:10101000BAF1000F24D01DB394F85100042802D077
:10102000052084F8510000206065C4F838A0E587E9
:10103000A587C4F830B0E586A58620646064206882
:101040000168490603D4016841F040010160E0688D
:10105000B0F5006F606805D0E8B3012D46D07FE0A1
:10106000012795E008B1012D39D1206B2168008856
:10107000C860206B801C2063E08E401EE0862EE05E
:101080002068816889070FD5E18E69B1B9F1010F38
:101090000AD1216B0988C160206B801C2063E08E1F
:1010A000401EE0864FF0000920688168C9070CD017
:1010B000E18F51B1C068A16B0880A06B801CA06358
:1010C000E08F401EE0874FF00109FFF7C9FBA0EB5E
:1010D0000800B04200E009E001D3701C50D1E08E5E
:1010E0000028CDD1E08F0028CAD13FE0206B2168D5
:1010F00000780873206B401C2063E08E401EE08661
:101100002EE02068816889070FD5E18E69B1B9F1B9
:10111000010F0AD1216B09780173206B401C2063F9
:10112000E08E401EE0864FF0000920688168C90704
:101130000CD0E18F51B1C068A16B0870A06B401C4E
:10114000A063E08F401EE0874FF00109FFF788FBA6
:10115000A0EB0800B04202D3701C01D010E07EB1B9
:10116000E08E0028CDD1E08F0028CAD1424631461A
:10117000204600F093FE28B101272020606507E09B
:10118000032705E0A06818B92068C168806800904E
:10119000012084F85100002084F8500038462CE7E4
:1011A00010B5401EB0F1807F01D3012010BD4FF07B
:1011B000E02460610F21601701F03CFC0020A06179
:1011C00007202061002010BD7047704770B590F86F
:1011D0003C20012A32D0012480F83C40022280F8D1
:1011E0003D2003685A689D6822F070060A68324301
:1011F0005A60134B02689A4214D0B2F1804F11D05A
:10120000104B9A420ED0104B9A420BD00F4B9A4281
:1012100008D00F4B9A4205D00E4B9A4202D00E4B8B
:101220009A4204D1496825F080031943916080F8FF
:101230003D40002180F83C10084670BD022070BD82
:10124000000001400004004000080040000C004085
:1012500000040140004001400018004010B50400A7
:1012600003D094F83D0010B107E0012010BD00202C
:1012700084F83C00204600F01EF8022084F83D006F
:10128000211D206800F0F4FE012084F8460084F857
:101290003E0084F83F0084F8400084F8410084F860
:1012A000420084F8430084F8440084F8450084F840
:1012B0003D00002010BD704790F83D10012901D07D
:1012C00001207047022180F83D100168CA6842F091
:1012D0000102CA6000681149884214D0B0F1804F01
:1012E00011D00F4988420ED00E4988420BD00E49CA
:1012F000884208D00D49884205D00D49884202D065
:101300000C49884204D1816801F00701062903D005
:10131000016841F0010101600020704700000140B8
:101320000004004000080040000C004000040140A0
:101330000040014000180040704770B50446006846
:1013400001694FF00005C943890715D4C168C94335
:10135000890711D4E91E0161012020772068806986
:101360008007204602D0FFF7E7FF04E000F098F87E
:10137000204600F096F8257720680169C94349079F
:1013800017D4C168C943490713D46FF00401016140
:10139000022020772068806910F4407F204602D028
:1013A000FFF7CAFF04E000F07BF8204600F079F870
:1013B000257720680169C943090716D4C168C94364
:1013C000090712D46FF0080101610420207720681A
:1013D000C0698007204602D0FFF7AEFF04E000F0AE
:1013E0005FF8204600F05DF8257720680169C94361
:1013F000C90617D4C168C943C90613D46FF01001D8
:101400000161082020772068C06910F4407F2046E1
:1014100002D0FFF791FF04E000F042F8204600F010
:1014200040F8257720680169C943C90708D1C16818
:10143000C943C90704D1891E0161204600F032F872
:1014400020680169C943090609D4C168C94309066E
:1014500005D46FF0800101612046FFF7B5FE2068DA
:101460000169C943490609D4C168C943490605D47D
:101470006FF040010161204600F024F82068016906
:10148000C94389060BD4C168C943890607D46FF0E4
:10149000200101612046BDE87040FFF796BE70BD97
:1014A000704770470549884202D1012020F0F6B804
:1014B0000349884201D101F0A7B8704740030020DA
:1014C00088030020704770B5040004D094F83D00F4
:1014D000002510B106E0012070BD84F83C50204684
:1014E00000F022F8242084F83D002068C16821F42F
:1014F0000051C160204601F029F92068016921F4FA
:10150000904101612068416921F02A014161206810
:10151000C16841F40051C1602564202084F83D0079
:1015200084F83E00002070BD704790F83E30202BBC
:101530000ED159B152B190F83C30012B08D00123A3
:1015400080F83C300023036301F086B90120704726
:1015500002207047FEE7000030B50C4C0546002124
:101560006088401E83B22088401E82B2084600F088
:1015700087FA002303E0284600F0BAFB5B1C608872
:10158000218848439842F6D830BD00007C020020F4
:10159000F0B5151A5E1A6D1C761CADB2B6B2059C7C
:1015A00000F06EFA00270BE0002305E0208800F031
:1015B0009FFB5B1C9BB2A41CAB42F7D37F1CBFB24A
:1015C000B742F1D3064841880088491EBDE8F04083
:1015D000401E8BB282B20021084600F051BA0000D2
:1015E0007C0200202DE9F04317461E460D460446B6
:1015F000B84205D1B54203D1BDE8F04300F046B88A
:10160000711BA7EB040000D54942002800DA4042D4
:1016100081421DDDB54203D92E4627461D4614469C
:10162000A846A6EB05093F1B0EE000BFA8EB05008E
:101630007843B0FBF9F0204480B2414600F026F830
:1016400008F101001FFA80F8B045EFD3BDE8F08340
:10165000BC4203D92E4627461D461446A6EB050973
:10166000A0463E1B0FE000BFA8EB040101FB09F1FF
:10167000B1FBF6F0284481B2404600F007F808F1CB
:1016800001001FFA80F8B845EED9DFE700B500F099
:10169000F3F9034800885DF804EB00F0CDBA0000D0
:1016A000020000202DE9FC4F0746002514460320C8
:1016B0000E46A0EB440858E0A6EB0509A7EB040A88
:1016C0001FFA89F11FFA8AF0FFF7E0FF381901903D
:1016D0001FFA89F180B2FFF7D9FF301981B2A7EB69
:1016E000050B00901FFA8BF0FFF7D0FF1FFA89F16E
:1016F0001FFA8AF0FFF7CAFFA6EB04091FFA89F167
:101700001FFA8BF0FFF7C2FF019806EB050B1FFADB
:101710008BF180B2FFF7BAFF1FFA89F107EB0509D9
:101720001FFA89F0FFF7B2FF009881B21FFA89F023
:10173000FFF7ACFF1FFA8BF11FFA8AF0FFF7A6FF45
:101740006D1CB8F1000F04DA08EB850000F1060803
:1017500005E0291B08EB810000F10A08641E30191E
:1017600081B2781980B2FFF791FFA542A4DDBDE8F0
:10177000FC8F00002DE9F04387B014216846FEF786
:1017800079FD1C480024016841F0100101600168E6
:1017900001F010010591016841F008010160006845
:1017A000DFF8548000F008004FF6FF750590012225
:1017B00029464046FFF74FF8DFF8409042F2F01715
:1017C000012239464846FFF746F8009503260125D1
:1017D0000396CDE9015469464046FEF73FFF009766
:1017E0000396CDE9015469464846FEF737FF07B036
:1017F000BDE8F0833038024000100240000C024087
:1018000010B5FFF7B7FF00F025F9CF2000F01CFA64
:10181000002000F011FAC92000F00EFA302000F08C
:101820000BFAED2000F010FA642000F005FA032016
:1018300000F002FA122000F0FFF9812000F0FCF91C
:10184000E82000F001FA852000F0F6F9102000F001
:10185000F3F97A2000F0F0F9CB2000F0F5F9392007
:1018600000F0EAF92C2000F0E7F9002000F0E4F99C
:10187000342000F0E1F9022000F0DEF9F72000F05A
:10188000E3F9202000F0D8F9EA2000F0DDF900208B
:1018900000F0D2F9002000F0CFF9C02000F0D4F918
:1018A0001B2000F0C9F9C12000F0CEF9002000F0A3
:1018B000C3F9C52000F0C8F9302000F0BDF9302090
:1018C00000F0BAF9C72000F0BFF9B72000F0B4F972
:1018D000362000F0B9F9082000F0AEF93A2000F007
:1018E000B3F9552000F0A8F9B12000F0ADF90020BF
:1018F00000F0A2F91A2000F09FF9B62000F0A4F938
:101900000A2000F099F9A22000F096F9F22000F0E8
:101910009BF9002000F090F9262000F095F90120B5
:1019200000F08AF9E02000F08FF90F2000F084F930
:101930002A2000F081F9282000F07EF9082000F02C
:101940007BF90E2000F078F9082000F075F954209A
:1019500000F072F9A92000F06FF9432000F06CF953
:101960000A2000F069F90F2000F066F9002000F06D
:1019700063F9002000F060F9002000F05DF900201C
:1019800000F05AF9E12000F05FF9002000F054F96E
:10199000152000F051F9172000F04EF9072000F053
:1019A0004BF9112000F048F9062000F045F92B20F2
:1019B00000F042F9562000F03FF93C2000F03CF9DD
:1019C000052000F039F9102000F036F90F2000F062
:1019D00033F93F2000F030F93F2000F02DF90F20BF
:1019E00000F02AF92B2000F02FF9002000F024F954
:1019F000002000F021F9012000F01EF93F2000F046
:101A00001BF92A2000F020F9002000F015F9002031
:101A100000F012F9002000F00FF9EF2000F00CF9AF
:101A2000112000F011F9782003F059FC292000F072
:101A30000BF9002000F020F9012211020448FEF702
:101A40000AFFBDE810404FF6FF70FFF785BD0000AC
:101A5000000C024010B5074C4FF480002060642059
:101A600003F03DFC40202060BDE81040322003F030
:101A700036BC0000180C02400B460246AFF3008053
:101A8000F0B5134F064614460D46B88900F0DCF851
:101A9000300A00F0D1F8F0B200F0CEF8200A00F0E1
:101AA000CBF8E0B200F0C8F8F88900F0CDF8280AC9
:101AB00000F0C2F8E8B200F0BFF8180A00F0BCF875
:101AC000D8B200F0B9F8BDE8F04000F0C5B80000A9
:101AD0007C0200202DE9FF4F81B08A460EA9DFF875
:101AE000E89091E83100203800F0FF080AEB04008C
:101AF000401E83B20198B9F800B000EB5400401EBC
:101B000082B251460198FFF7BBFF0DB1002549E0B5
:101B10002E4908EB480001EB800A01F274400023D3
:101B200000EB081716E00C2C02D0FE5C00250CE040
:101B30001AF80360FAE7F00701D0039800E0049870
:101B400000F0D6F876086D1CEDB2B5EB540FF2D369
:101B50005B1CDBB2A342E6D326E00C2C08D01C4869
:101B600000EB08100026475D0AEB0500009014E02A
:101B7000164808EB480100EB8100F3E70398A9F849
:101B80000000F80706D0009881B20198304480B276
:101B9000FFF77CFD7F08761CF6B2B6EB540FEDD351
:101BA0006D1CEDB2A542D8D30A48A9F800B041880F
:101BB000008805B0491EBDE8F04F401E8BB282B2CE
:101BC00000210846FFF75CBF02000020AC6E02084F
:101BD000207302087C0200202DE9FE471C00DDF87E
:101BE0002CA090468946064620D02078104D00282B
:101BF0001CD0104FC0B27E2818D8202816D32988B0
:101C0000491EB14212DB6988491E49450EDB8DE849
:101C100001057B883A8849463046FFF75BFF06EBB3
:101C2000580086B214F8010F0028E3D1BDE8FE8702
:101C30007C02002002000020024A4FF40051116093
:101C400000F044B8180C0240024A4FF000511160F5
:101C500000F03CB8180C024001480089FFF7F4BFBF
:101C60007C02002000B50B46FFF7EEFF18465DF83A
:101C700004EBFFF7E1BF000013492A224FF4A073E1
:101C80008A812B22CA812C220A812E224A818871C4
:101C9000F02258B101280DD002280FD0032811D10D
:101CA0000B804A80B8213620FFF7DCBF0A804B80CA
:101CB0000821F8E70B804A806821F4E70A804B800E
:101CC000D821F0E7704700007C02002006494FF45D
:101CD00000020A60054A50614FF40010086020209D
:101CE0000860802008607047180C02400010024015
:101CF000024A4FF400511160FFF7E8BF180C024090
:101D000030B587B014216846FEF7B4FA0D480024B8
:101D1000016841F00101016000680B4D00F0010015
:101D20000590224602212846FEF795FD02200090EC
:101D30000120CDE90104694628460394FEF78EFC94
:101D400007B030BD30380240000002403EB51A48AE
:101D50000024016841F0100101600068224600F093
:101D60001000029002213620FEF7F8FD3620FEF723
:101D7000E8FD13480094114901940160114944F6AB
:101D800020620968B1FBF2F1491EC0E90114092182
:101D90008461C160FFF762FA08B1FEF74BFC009462
:101DA000694607480194FFF711FA08B1FEF742FCB3
:101DB0000348FFF781FA3EBD403802400010004062
:101DC00040030020600000203EB51A48002401684E
:101DD00041F0200101600068224600F020000290DE
:101DE00003213720FEF7BAFD3720FEF7AAFD13487E
:101DF0000094114901940160114944F62062096878
:101E0000B1FBF2F1491EC0E9011463218461C16094
:101E1000FFF724FA08B1FEF70DFC00946946074865
:101E20000194FFF7D3F908B1FEF704FC0348FFF76C
:101E300043FA3EBD403802400014004088030020B1
:101E400060000020FEE7FEE77047000070B5002448
:101E50000A20FEF765FD0F4DA91C284600F02EFD57
:101E6000002028720C4D04E0641CE4B20A2003F048
:101E700036FA10212846FEF7E9FC08B9FA2CF3D906
:101E80000A20FEF75EFDFA2C01D3002070BD012070
:101E900070BD0000E40200200000024038B5044696
:101EA0001248134B0068B0FBF3F04FF47A735843B9
:101EB00000906068B0F5827F0DD10B460092002241
:101EC0008021204600F016F870B1606D40F02000CF
:101ED0006065032038BD009830B1401E0090206836
:101EE0008068C0430006F6D5002038BD60000020A1
:101EF00000366E012DE9F8431E4691468846044699
:101F0000089DFEF7ADFC401B351AFEF7A9FC0746FD
:101F100025480068C0F3CB30684338E0701C37D0E8
:101F2000FEF79EFCC01BA84203D215B1009860B317
:101F30002CE02068416821F0E00141606068B0F564
:101F4000827F0BD1A068B0F5004F02D0B0F5806F52
:101F500004D12068016821F040010160A06AB0F559
:101F6000005F09D12068016821F4005101602068F8
:101F7000016841F400510160012084F85100002003
:101F800084F850000320BDE8F8830025401E00902F
:101F90002068816838EA010004D000214945BDD19C
:101FA0000020F0E70121F9E7600000207047FEF70C
:101FB0005DBC000030B593B030216846FEF75AF999
:101FC00014210CA8FEF756F91D480025016841F0C0
:101FD00080510160006800F080501190194801683C
:101FE00041F4804101600068022400F480401190B7
:101FF0000120039010200490009406940820CDE95D
:102000000750A820CDE9090404200B906846FEF78C
:10201000C1FD08B172B6FEE70CA90F2081E83100BE
:102020004FF4A0500F904FF48050109005210CA851
:10203000FEF7C6FC002801D072B6FEE713B030BD33
:1020400040380240007000400248016841F47001CD
:102050000160704788ED00E00148FFF76EB90000AD
:10206000400300200148FFF768B900008803002002
:10207000F0B50268254C264D264E274F274B4FF0D2
:10208000804CA04209D0604507D0A84205D0B0429C
:1020900003D0B84201D0984204D122F0700E4A68B1
:1020A00042EA0E02A0421BD0604519D0A84217D0C8
:1020B000B04215D0B84213D0984211D0184DA84262
:1020C0000ED0184DA8420BD0174DA84208D0174D7E
:1020D000A84205D0164DA84202D0164DA84203D101
:1020E00022F44075CA682A434D6922F080022A43CF
:1020F00002608A68C2620A688262A04201D0984285
:1021000001D10969016301214161F0BD0000014075
:102110000004004000080040000C004000040140A2
:1021200000400140004401400048014000180040C8
:10213000001C0040002000402DE9F047002586B03B
:102140002846FFF799FD4FF6FF763046FFF704FA71
:1021500014210846FEF73DFAC14C002020729FED85
:10216000C10AC14FDFF80483DFF8049384ED030A4A
:102170004FF4967A628821883B78BEA000F04AFC32
:10218000207A0128F6D1FFF761FE48B101A8218825
:1021900020F8251000EB850061886D1C4180EDB2B0
:1021A000012D7DD0022D7CD0032D7BD0042DE1D1DB
:1021B000BDF80410BDF80800081A00D54042BDF86B
:1021C0000610BDF80A20891A00D54942404301FB98
:1021D0000100FEF778F841EC100B00F03BFC51ECED
:1021E000100BFEF77DF885B2BDF80C00BDF810109D
:1021F000401A00D54042BDF80E20BDF81210511A09
:1022000000D54942404301FB0100FEF75CF841EC78
:10221000100B00F01FFC51EC100BFEF761F800EE04
:10222000105A80B2F8EE400A00EE100AB8EE401ADA
:1022300080EE810A10EE101A41457DDD10EE101A75
:10224000494579DC002D77D0002875D0BDF8040011
:10225000BDF80C10411A00D54942BDF80600BDF882
:102260000E20801A00D54042494340430844FEF7FF
:102270002AF841EC100B00F0EDFB51EC100BFEF7CF
:102280002FF885B2BDF80800BDF81010401A00D52F
:102290004042BDF80A10BDF81220891A04D502E0A8
:1022A00075E079E080E04942404301FB0100FEF720
:1022B0000AF841EC100B00F0CDFB51EC100BFEF7CF
:1022C0000FF800EE105A80B2F8EE400A00EE100A45
:1022D000B8EE401A80EE810A10EE100A40454FDD3C
:1022E00010EE100A48454BDCBDF80800BDF80C1094
:1022F000411A00D54942BDF80A00BDF80E20801AE7
:1023000000D54042494340430844FDF7DCFF41EC1F
:10231000100B00F09FFB51EC100BFDF7E1FF85B2B5
:10232000BDF80400BDF81010401A00D54042BDF8B9
:102330000610BDF8122000E022E0891A00D54942BB
:10234000404301FB0100FDF7BEFF41EC100B00F024
:1023500081FB51EC100BFDF7C3FF00EE105A80B269
:10236000F8EE400A00EE100AB8EE401A80EE810A3C
:1023700010EE100A404503DD10EE100A484519DD45
:1023800000253046FFF7E8F81421142009E0304614
:10239000FFF7E2F814210BE03046FFF7DDF8514675
:1023A000F3E7FEF716F9E5E63046FFF7D5F85146B4
:1023B000DC20F6E7BDF80810BDF804009FED301AE8
:1023C0000A1A00EE102A0844DFED2F1AF8EEC00AB0
:1023D00081EE200A00EE900A9FED2A1AF8EE600ABC
:1023E00084ED030A00EE601AB6EE000A61EE000A00
:1023F000FDEEE00A10EE900AA082BDF80E00BDF8D6
:102400000610421A00EE902A0844B8EEE01AC1EE17
:10241000810A01EE100AF8EE411A9FED1C1AC4ED74
:10242000040A00EEE11A21EE000ABDEEC00A10EE29
:10243000100AE0823046FFF78FF80120009014A3C5
:102440000C226E212320FFF7C7FB4FF47A7002F0B5
:1024500046FF3046FFF780F806B0BDE8F087000081
:10246000E402002000000000080000203333733F26
:102470006666863F25642C25642C25640D0A0000C1
:10248000000048430000704300008C430000A0435C
:10249000546F7563682053637265656E2041646A8A
:1024A000757374204F4B2100FFF7AAF900F028F84C
:1024B0000A2002F014FF064C0025207A0128FCD1E6
:1024C000FEF748F82572E188A088FFF7DFF8F4E707
:1024D000E402002010B510210748FEF7B7F90028E4
:1024E00008D1064C2078002804D1FEF7B9F9A06085
:1024F0000120207010BD00000000024008000020F4
:1025000010B500F00FF80649881E00F0C3F94FF629
:10251000FF70FFF721F8BDE81040FFF70DBE000087
:10252000E602002070B586B014216846FDF7A2FED1
:1025300031480024016841F480510160006800F4D2
:10254000805005902C481438016841F00101016069
:1025500000682A4E00F00100059001220821304653
:10256000FEF779F9012210213046FEF774F91020A8
:1025700000904FF404100125CDE90105694630466D
:102580000395FEF76BF80820CDE9000503256946A1
:102590003046CDE90245FEF761F8E020009001A940
:1025A000022081E831000520049069463046FEF79C
:1025B00055F81448124901604FF48271C0E90114C2
:1025C000C46071150461C0E905411821C0E9071410
:1025D0000A214462C0E90A41FEF792FC08B1FEF705
:1025E00029F8002204210A20FEF7B8F90A20FEF794
:1025F000A8F906B070BD0000443802400000024057
:10260000003001408C02002070B510211848FEF700
:102610001DF9184C002101262278174D012A05D0FA
:10262000022A12D0032A04D0297270BD18B10128E1
:10263000FBD1217070BDFEF713F9A168401A322852
:10264000F8D92E720220207070BD40B10128FBD154
:10265000297203202070FEF703F9606070BDFEF759
:10266000FFF8A168401AB0F5FA7FF7D92E7270BD55
:102670000000024008000020E402002070B52E484F
:1026800086B00025016841F001010160016801F098
:1026900001010591016841F001010160006800F04D
:1026A0000100059024481430016841F010010160D8
:1026B0000068072400F0100005904FF400700090AF
:1026C00002200190012002900320CDE903041B4E5B
:1026D00069463046FDF7C2FF301500906946049404
:1026E0003046FDF7BBFF002211462520FEF736F9E4
:1026F0002520FEF726F91348114C4FF4E13204600F
:10270000C0E90125C5600C210561C0E90515C56159
:10271000FEF7D9FE08B1FDF78DFF206820F04000DC
:102720002060206820F02000206001220649054832
:10273000FEF7FBFE06B070BD3038024000000240DC
:1027400000100140FC0200200000002070B504468B
:1027500000680169E26821F4405111430161216977
:10276000A068E26908436169114308432168CA68A7
:1027700049F20C639A430243CA6020684169A26926
:1027800021F440711143416131492068884202D0EF
:102790003049884202D1FEF7BDF901E0FEF7AAF9FF
:1027A000E2690023192164253226B2F5004F6268E0
:1027B00028D0A0FB0101930F9200FDF703FD014615
:1027C000B0FBF5F06FF01802504301EB800006EB10
:1027D0000010B0FBF5F000F0F002B1FBF5F002EBF9
:1027E0000012B1FBF5F06FF01803584301EB8000C5
:1027F00006EB0010B0FBF5F000F00F00216810446C
:10280000886070BDA0FB010192185B41FDF7DAFC06
:102810000146B0FBF5F00201B1FBF5F06FF01803D3
:10282000584301EB800006EBC000B0FBF5F000F070
:10283000F80002EB4002B1FBF5F0584301EB8000D9
:1028400006EBC000B0FBF5F000F00700D6E7000093
:10285000001001400014014081628285C285002180
:102860000164222280F83E2080F83C10016921B1E9
:102870000168CA6842F48072CA6001684A6942F01D
:1028800001024A610068C16841F02001C160002076
:102890007047FEE770B506460D46D02000F086F87A
:1028A0000446902000F082F8642C01D3642801D201
:1028B000002070BD34802880012070BD7FB50C469B
:1028C0000546694602A8FFF7E5FF00282FD001A9B9
:1028D00003A8FFF7DFFF002829D0BDF80C30BDF8B2
:1028E0000820934203D803F13200824205D39A4272
:1028F0001FD802F1320083421BD2BDF80410BDF88C
:102900000000814203D801F13206B04204D388426C
:102910000FD8323081420CD2D01840082880BDF840
:102920000000BDF80410084440082080012004B0D5
:1029300070BD0020FBE70000FEB51A4C06461021D2
:102940002046FDF783FF01282AD0002208212046D7
:10295000FDF781FF8DF808600126002501953346BB
:1029600001AA02A910480096FEF729FB3021491E52
:102970000029FCDC8DF80850022301AA02A90A48AC
:102980000096FEF71CFBBDF80400012241BA21F4B9
:102990000040C50808212046FDF75DFF2846FEBD22
:1029A0000020FEBD000002408C02002070B588B0FF
:1029B000064600256C463046FFF7BEFF24F815009A
:1029C0006D1CADB20F2DF6D30020431C99B20BE065
:1029D00034F8102034F81150AA4203D924F81050CA
:1029E00024F81120491C89B20F29F1D398B20E287E
:1029F000EBD300215FF0050034F81020401C114497
:102A000080B289B20A28F7D30520B1FBF0F008B0F4
:102A100070BD00000FB4054B10B503A9044A02981D
:102A200001F058FC10BC5DF814FB000041E6000802
:102A3000740200200907090E002804DB00F1E020E1
:102A400080F80014704700F00F0000F1E02080F8DB
:102A5000141D704700B52DED048BB0EE409AF0EEDA
:102A6000609A83B051EC190BFDF7E5FC41EC180BB3
:102A700018EE100A18EE901A8DED008B002818BF82
:102A80000120084320F00040C0F17F6000F1E040E9
:102A9000C00F14D019EE101A19EE900A8DED009B9C
:102AA000002918BF0121084320F00040C0F17F60D9
:102AB00000F1E040C00F04BF012000F017F8B0EEB5
:102AC000480A03B0F0EE680ABDEC048B00BD02E0DA
:102AD00008C8121F08C1002AFAD1704770470020A9
:102AE00001E001C1121F002AFBD1704701490860B3
:102AF000704700007802002070B5044600256FF092
:102B00002F0608E02068411C2160007805EB850154
:102B100006EB410145182068007800F004F8002811
:102B2000F0D1284670BD3038092801D801207047FF
:102B30000020704710B54421074800F08DFE0022A8
:102B40001E2106481EF004FE054CA06001F0FEFFA9
:102B50000020207010BD000098180020014C0008D3
:102B6000DC0100202DE9F0470E468146174611464C
:102B7000304600F01CF94FF0FF3A00287DD00022CB
:102B80003946304600F0BFF800284FF0000075D1FC
:102B9000B6F90480B6F900305246A8EB0301491C8F
:102BA0000AFA81F10FFA81FAB6F906C0B6F90210F5
:102BB000ACEB010C0CF1010C02FA8CF2B7F802C07C
:102BC00012B2ACEB010C0FFA8CFCBCF1000F0EDD65
:102BD00063F30F0468F30F0501EB0C0061F31F446E
:102BE00060F31F45C9F800400120C9F80450B7F947
:102BF00006107388CB1AD21A12B2002A13DDB6F966
:102C0000063099420FDA338863F30F04B38861F317
:102C10001F4463F30F05114461F31F4509EBC00125
:102C2000401C0C604D60B7F90220B6F902108A42D0
:102C300000DD1146B7F90630B6F90620934200DAF6
:102C40001A463B88B6F900C0521AA3EB0C031BB21C
:102C500012B2002B10DD002A0EDD634463F30F0572
:102C60008B1863F31F456CF30F0409EBC00361F38A
:102C70001F441C605D60401C01E01AE017E0B7F9DA
:102C8000043036889F1BAAEB070636B2002E0EDDF5
:102C900063F30F0461F31F44334463F30F051144DE
:102CA00061F31F4509EBC001401C0C604D60BDE89D
:102CB000F0875046FBE770B5B1F90030B2F900403B
:102CC000A34200DC23460380B1F90250B2F902406E
:102CD000A54200DD2C464480B1F90460B2F90450ED
:102CE000AE4200DA35468580B1F90610B2F9062009
:102CF000914200DB1146C1800120AB4201DC8C42D5
:102D000000DD002070BDF8B50D460446B0F90000A6
:102D1000B1F900101646884247DBB4F90210B5F944
:102D20000220914241DBB4F90410B5F9042091422C
:102D30003BDCB4F90610B5F90620914235DC96B3B8
:102D4000ADF800006088ADF80200324669462846BA
:102D500000F099F8002827D0A088ADF8000060881E
:102D6000ADF8020032466946284600F08CF800288B
:102D70001AD02088ADF80000E088ADF80200324695
:102D80006946284600F07FF800280DD0A088ADF8ED
:102D90000000E088ADF8020032466946284600F09F
:102DA00072F8002800D00120F8BD0020F8BDB0F96D
:102DB0000020B1F904309A4213DCB0F90420B1F9D3
:102DC00000309A420DDBB0F90220B1F906309A4288
:102DD00007DCB0F90600B1F90210884201DB0120DE
:102DE000704700207047F8B50D460446B0F904005E
:102DF000B1F900101646884243DBB4F90600B5F974
:102E0000021088423DDBB4F90000B5F90410884295
:102E100037DCB4F90210B5F90620914231DC76B303
:102E2000ADF800006088ADF80200324669462846D9
:102E300000F029F818BBA088ADF800006088ADF854
:102E4000020032466946284600F01DF8B8B92088CD
:102E5000ADF80000E088ADF8020032466946284629
:102E600000F011F858B9A088ADF80000E088ADF87E
:102E7000020032466946284600F005F808B10020F5
:102E8000F8BD0120F8BD2DE9FC4114460E46B1F90C
:102E90000020B0F9001005468A423ADBB5F904007B
:102EA000824236DCB6F90270B5F90220974230DB77
:102EB000B5F906309F422CDC002C75DD401A9A1AB9
:102EC000401C521C00B212B200EBD07002EBD27266
:102ED00040105210904200DB1046844200DD044650
:102EE000ADF80010288800222044ADF8040068885E
:102EF000ADF80200688831462044ADF80600684607
:102F0000FFF7C1FF40B1BDF804002044ADF8040054
:102F10003FE00020BDE8FC81E8880022001BADF8FE
:102F20000200E888ADF8060031466846FFF7ABFFBF
:102F300028B1BDF804002044ADF8040011E0A888D1
:102F40000022001BADF80000A888ADF8040031464F
:102F50006846FFF798FF50B1BDF80000001BADF8C0
:102F60000000BDF80200001BADF8020016E0688802
:102F7000ADF80200688800222044ADF80600314612
:102F80006846FFF780FF70B1BDF80000001BADF888
:102F90000000BDF806002044ADF806003146684642
:102FA0001CF050F8B6E7FFE70120B3E710B5B1F920
:102FB0000040B2F900309C4200DA23460380B1F9A8
:102FC0000240B2F902309C4200DA23464380B1F954
:102FD0000440B2F904309C4200DD23468380B1F9FD
:102FE0000610B2F90620914200DC1146C18010BDE6
:102FF000F8B507461EF048FB0025374C06460095FD
:1030000037B1F868606038461EF070FC606802E016
:1030100011F020F9606000691BF010FF60684069E2
:1030200008B11BF00BFF6068C0691BF007FF606808
:10303000006A1BF003FF6068016991B11CF0B0F8F1
:1030400020F042FB20F068F86068B0F85011D9B366
:103050000068017CC9071DD0C0684068D0B1002756
:1030600013E0A0F85051F8BDC11991F8301151B9D1
:1030700000F5AC7000F047FC616801EBC7010A6B1A
:103080000260496B41607F1CBFB26068B0F85011AC
:10309000B942E9D860684FF48071303017F052FBC4
:1030A0006068202100F5987017F04CFB6068A0F86C
:1030B000505130461EF0E2FA009060680068436AA2
:1030C00013B122680099984717F0BAF900F032F866
:1030D000BDE8F84000F002B89C00002070B50A4D31
:1030E000002400BFC4EBC40655F8260008B117F051
:1030F0001BFA05EB86001C2117F024FB641CE4B2CC
:10310000042CEFD370BD00007419002008494968F1
:103110000AE04A68824202D00A68824203D10A7EEB
:1031200042F001020A7649690029F2D17047000095
:1031300070000020704700000421014800F08CBBA3
:103140008C1800202021014800F086BBA418002024
:103150002DE9FF410446DDE90A671D004FF000003C
:1031600002D1B6F5807F2BD0039001900290ADF88C
:103170000C100090ADF80410ADF80A20ADF80E2048
:103180003B463246294668461BF0BCFE3B4632466B
:10319000294601A81BF0B6FE3B463246294602A846
:1031A0001BF0B0FE3B463246294603A81BF0AAFEA0
:1031B000BDF90000BDF90430984209DA054608E07F
:1031C0002080491E6080A180521EE280BDE8FF8100
:1031D0001D46BDF90820BDF90C108A4201DA1646D9
:1031E00000E00E46B54203DA984206DB184604E0DA
:1031F0008A4201DA104600E00846801E2080BDF9B0
:103200000030BDF90420934201DD1D4600E0154663
:10321000BDF90800BDF90C10884201DD064600E04A
:103220000E46B54205DD934201DD194604E0114624
:1032300002E0884200DD0146891CA180BDF9023010
:10324000BDF90620934201DA1D4600E01546BDF99E
:103250000A00BDF90E10884201DA064600E00E466B
:10326000B54205DA934201DA194604E0114602E05C
:10327000884200DA0146891E6180BDF90230BDF93D
:103280000620934201DD1D4600E01546BDF90A0007
:10329000BDF90E10884201DD064600E00E46B5423B
:1032A00005DD934201DD194604E0114602E0884243
:1032B00000DD0146891CE18088E700002DE9F0412E
:1032C00015460E460746114C1EF0DEF980462B4689
:1032D00032463946204615F0A5F920B10020A062FB
:1032E000E06950B110E02C21204617F02BFA4FF086
:1032F0000040A0620020BDE8F08140461EF0BEF90B
:10330000E06108B90120E0612046F4E7C818002018
:1033100010B51421074800F09FFA15F049F940B1A3
:103320000549016005494160054981600549C16061
:1033300010BDFEE7B0180020857F01080183010859
:10334000D1840108517F010870B50D460446102153
:10335000284617F0F7F920680078012804D00228E1
:1033600007D0042807D008E0A08A2880E08A688077
:1033700003E0E06800E00A20686020684268002AF4
:1033800003D02946BDE87040104770BD2DE9FE43CB
:103390000446808A10B9E08A002874D0D4F82C80C2
:1033A0005FEA080010D120460AF02BFC5FEA000813
:1033B00069D020460CF0BAFF00220921404614F0E3
:1033C0002BF8607880075ED44FF4807900274E4652
:1033D00045460021284619F015FE384407B2002161
:1033E000284619F02DFEC11700EB1160001210FBEA
:1033F00006F006B2284618F001FE0500E9D10FB923
:103400004E450CD0784201B24FF4803090FBF6F07C
:1034100002B26B4604F1140000951BF073FDADF889
:103420000450ADF8085094F8400000F00F00032855
:10343000404616D018F034FF0646404618F0EAFD24
:1034400003460C200090B4F916103246404609F0AD
:1034500091FFADF80800404618F02EFEC10713D0CA
:1034600018E018F0B1FE0646404618F04DFE024640
:1034700003200090B4F914103346404609F07AFF57
:10348000ADF80400E7E736E0BDF90410002901DDDE
:10349000ADF80450810705D4BDF90410002901DA04
:1034A000ADF80450410705D4BDF90810002901DD2D
:1034B000ADF80850000705D4BDF90800002801DA6E
:1034C000ADF8085002AA01A9204620F033FCBDF94E
:1034D0000820BDF90410404600F08AFA60788007A1
:1034E00009D4208BBDF8041008442083608BBDF8FC
:1034F000081008446083BDE8FE832DE9FC5F0446A4
:10350000C06A5FEA000B71D094F8400000076DD0EC
:1035100015F01AFB019000684021457E584619F0CD
:10352000BBFE4FF0000818B9A4F81E80A4F81C8058
:10353000584618F0A7FE8246584618F0AAFE0646DE
:1035400094F840004FF0640900F00F000C2802D0FE
:1035500003284CD09AE0A4F81C8056B1B4F91E5050
:10356000002715F0F1FA00684946407EC0F164007A
:1035700022E0E08BC5F1640110FB01F191FBF9F051
:10358000E083584618F046FD0546584618F088FE78
:1035900002460C200090B4F91E102B46584609F044
:1035A000E9FEE083024600231EE07A1917B210FB01
:1035B00005F292FBF1F215B2002DF6D1ADF80070D4
:1035C000A4F81E806A460021204620F0B3FB41F695
:1035D000FF72BDF90030514258460AF0A9FCBDF80F
:1035E00000100123084402B200214CE09AE0A4F844
:1035F0001E80BAF1000F0AD0B4F91C50002715F054
:10360000A3FA00684946407EC0F1640022E0A08B26
:10361000C5F1640110FB01F191FBF9F0A08358465C
:1036200018F072FD0546584618F0CEFD03460320FB
:103630000090B4F91C102A46584609F09BFEA0835E
:10364000014600231EE07A1917B210FB05F292FB27
:10365000F1F215B2002DF6D1ADF80070A4F81C807F
:1036600000226946204620F065FB41F6FF72BDF955
:103670000030514258460AF0D3FBBDF80010012338
:10368000084401B2002258461AF042FFA08B0028DD
:1036900048D1E08B002845D1C6B9584618F000FE45
:1036A0000546584618F0B6FC002D06DC00280DDD56
:1036B000002D02DA01232A4604E0002806DA01235D
:1036C000404202B2002158461AF022FFBAF1000F20
:1036D00019D1584618F018FD0546584618F074FDE3
:1036E000002D07DC00280EDD002D03DA0123002267
:1036F000294605E0002806DA01230022404201B2F3
:1037000058461AF005FF0A215846019A13F084FE24
:103710006078800706D414F8400F20F00F00207066
:1037200044F8148CBDE8FC9F7FB50E46040003D11D
:1037300010F090FD04002CD010F000FE002828D0DE
:1037400094F82800400724D4002506B3ADF80050B3
:10375000ADF80250204610F095FD401EADF8040073
:10376000204610F0D5FD401EADF806006A463146F1
:1037700002A8FFF7A0FA00280BD02068017C890777
:1037800008D5DDE90001C4E90C01012029E0A4F815
:1037900050517FBD82690AB102A9904700260AE014
:1037A00004EBC601002202A83031FFF7ACFA002872
:1037B000EFD1761CB6B2B4F85001B042F0D880B266
:1037C000202804D204EBC00002A9303004E0A4F8A1
:1037D000505104F1300069460EF0DDFAB4F85001A2
:1037E000401CA4F8500160680028D2D01EF08AF86E
:1037F0007FBD70B5054600F012F804460CE0214686
:10380000284600F01EF806462146284600F0A2F899
:10381000204616F089FE3446002CF0D170BD0028F9
:1038200000D04068704700B503460022FFF7F7FF5D
:1038300003E01846521C00F004F80100F9D11046CC
:1038400000BD0068091D4058704700684058704727
:10385000002800D08068704700224260C91C21F017
:10386000030182600160704770B50446006808304B
:1038700016F0CEFD050013D00146002220461FF0B1
:103880004DF82946204662681FF042F8616819B178
:103890002A4620461FF042F86560A06800B9A5607E
:1038A000284670BD2DE9F0410C4606000AD04CB107
:1038B000FFF7B5FFA04208D13046FFF7D5FF051E40
:1038C00001D01EE00020BDE8F0813068083016F01D
:1038D0009FFD051EF7D030682A4607593046394605
:1038E0001FF016F83A46294630461FF017F82A46C8
:1038F000214630461FF012F82246294630461FF076
:1039000007F82846DFE770B504460068083016F06F
:103910007FFD050013D00146002220461EF0F8FF6F
:1039200029462046A2681EF0F9FFA16819B12A466F
:1039300020461EF0EDFFA560606800B9656028466E
:1039400070BD28B1416809B9806808B1002070478E
:103950000120704770B504000DD0FFF760FF002212
:103960008842204608D1FFF76CFF6060011E01D03D
:1039700000221EE0A26070BDFFF76AFF8842206847
:1039800008440AD10168A16029B12046BDE8704011
:1039900000221EF0BDBF626070BD05682046FFF7C3
:1039A00050FF06460246294620461EF0B1FF2A4631
:1039B00031462046BDE870401EF0B0BF10B5044649
:1039C000006882680AB12146904720680068002894
:1039D00001D02060F5E710BD8068002801D0B0F963
:1039E000160070478068002801D0807E80097047EB
:1039F00070B5164605460C4651EA06001AD0284610
:103A000017F006FCA86801233246018A214401828E
:103A1000A868418A314441822146284619F0D0FFE6
:103A200000220B21284613F0F7FC012803D1284679
:103A300019F020FF012070BD77B581B00E4605005A
:103A400017D0622219F00CFA040012D0206880B15D
:103A500028463146632219F003FA10F0FF0208D01D
:103A600023682046039998470090BDF80000ADF800
:103A70000C00039804B070BD2DE9F047074692B0E2
:103A8000408C1A9E40F00800788490463A8499460B
:103A90008A463289384619F0E3F90546A7F820909E
:103AA00032895146384619F0DBF90446788CA54234
:103AB00020F00800788403D12904B1EB044F68D0CA
:103AC000A7F8208032895146384619F0C9F90546D1
:103AD0008046A7F82090514638460BF083FC318988
:103AE00000682A461CF0D8FC30890B2823D147F601
:103AF000FF794D4501D04C451DD1384619F083FB67
:103B000000EBD0704510384618F037FA00EBD07053
:103B10004010C84506D1691C431C994200DA00E0F8
:103B2000194688464C4506D1691C421C914201DA6F
:103B30006C1C00E014461948FFF796FE05002BD0D8
:103B40002F60C5E903843089A8806846C5F808A0BD
:103B50000DF094FB1248FF21CDE90050114802906E
:103B60001148039000200890CDE9090130880B909E
:103B700070889DF8421040420C90F0680790002039
:103B800060F300018DF842103069069068460DF030
:103B9000E9FB12B0BDE8F087FEE70000BC1800208A
:103BA000ED660208D5680208316802081421014850
:103BB000FFF752BEBC1800202DE9F84F00259046B3
:103BC000894606462C460427E6E000BFF06807EB6E
:103BD000C401405881017CD480B230EA090112D07E
:103BE0005FF0000230EA08000FD00020824270D05F
:103BF000F0686A46102150F8340082461CF0AEF995
:103C0000002871D103E00122ECE70120EEE76A46CB
:103C1000112150461CF0A2F9002865D16A461221F4
:103C200050461CF09BF900285ED16A46132150468D
:103C30001CF094F9002857D16A46152150461CF013
:103C40008DF9002850D16A46142150461CF086F99F
:103C5000F0BB6A460A2150461CF080F9C0BB6A4698
:103C60006B2150461CF07AF990BB6A466C21504695
:103C70001CF074F960BB6A46012150461CF06EF9D5
:103C800030BB6A46042150461CF068F900BB6A4606
:103C9000022150461CF062F9D0B96A460321504611
:103CA0001CF05CF9A0B96A46052150461CF056F993
:103CB00070B96A46062150461CF050F940B96A4670
:103CC000322150461CF04AF910B96A466E2101E0D3
:103CD0000AE060E050461CF041F928B96A466D21BF
:103CE00050461CF03BF910B10320BDE8F88F6A463E
:103CF000692150461CF032F9F0BB6A466A215046F1
:103D00001CF02CF9C0BB6A466E2150461CF026F907
:103D100090BB6A466D2150461CF020F960BB6A4694
:103D2000372150461CF01AF930BB6A4638215046FC
:103D30001CF014F900BB6A46352150461CF00EF900
:103D4000D0B96A46402150461CF008F9A0B96A462D
:103D5000452150461CF002F970B96A46412150468F
:103D60001CF0FCF840B96A46422150461CF0F6F8B7
:103D700010B96A46432100E009E050461CF0EEF815
:103D800028B96A46492150461CF0E8F808B10225D6
:103D900001E005B90125641C708CC0F30510A04238
:103DA0003FF614AF2846A0E701484068704700007E
:103DB0009C0000207047C0F30410072800D907209A
:103DC00070470000A0F57F41FF3905D0002804D0DE
:103DD000712803D208490AE01F207047074971384B
:103DE00080B2096829B1064A5268904201D2085C43
:103DF0007047002070470000C4B802080802002085
:103E00001C02002010B518210348FFF725FD0349C7
:103E10000120087010BD0000681800202402002056
:103E20002DE9F04190460C46050015D0FCF72DFA1F
:103E30000A4F06462146BA68284690470446BA68A3
:103E40002819414690470146701A03E06218AA5C9F
:103E50002A55641CA042F9D2BDE8F0813802002046
:103E60002DE9F041094D90460E466A681C4607460A
:103E700019469047306020B120686A6838440021B4
:103E80009047C8F80000BDE8F0810000380200202B
:103E90002DE9F04F87B08A46DDE910581F4693465A
:103EA0000446002105B129805CB12078002809D0A2
:103EB000BAF1000F05D0002618F0060F15D000202B
:103EC00004E0002007B0BDE8F08F401C215C0A2907
:103ED00004D00D2902D00029F7D100E0401C002DAC
:103EE000F0D04FF0FF312980ECE75FEA887001D510
:103EF00041F6FF77894608468DF81410049127E0B3
:103F00000498CDF8189068B34FF0000C05AA06ABE2
:103F1000CDF80CC0CDF80080CDE9013220443B46FD
:103F20005A4651461DF030FE06997A1A314417B2AE
:103F30000EB288B104990144049120780A280BD06C
:103F40000D2809D0605C0A280FD00D280DD0084636
:103F5000205C08B1002FD3DC049848B105B12E8055
:103F60000498AFE74FF0010CD0E7481C0490F3E74A
:103F7000064A04A9204652689047002DF0D0014619
:103F80000022504613F05CFB06B2E8E7380200203E
:103F90002DE9F0411746884606001ED0002F1CD0A0
:103FA000FCF773F904463846FCF76FF9050014D0A6
:103FB0000B4A2C444146926830469047411903E031
:103FC000621BB25C3255641EA142F9D930442A46C4
:103FD0003946BDE8F04116F077BBBDE8F08100003E
:103FE0003802002000230278232902D0012A0DD0B4
:103FF0000FE02AB10021012A04D0022A04D008E0EF
:10400000012101E0017004E0017001E0202902D0EB
:104010000123184670470221F6E72DE9F0410E46CC
:10402000804602460021334608461DF0EBFF044659
:104030000027401C16F0ECF9050008D02F55334638
:104040004246611C1DF0DEFF2846BDE8F081FEE718
:104050002DE9F0471E4614460D468246DDF82090B5
:1040600015E000BF4FEA540808FB06573946504692
:104070004A469047002808DD44F30000C0EB540492
:1040800007EB0605A4F1010401E005DA4446002C23
:10409000E8D12046BDE8F0873846FBE72DE9FC5F14
:1040A0009B460CAB8A468146DDE9116093E812100D
:1040B000DDE90F575FEA80784FF030031AD45EB124
:1040C0005FEAC07808D000F00C0858EA0C0803D06A
:1040D000761E01E00B55641CBC4204D2202CF9D39F
:1040E00001E00B55641C5FEAC07803D0B44201D2F2
:1040F000202CF6D35FEAC06825D55FEA40580AD481
:104100004CB1BC4201D0B44205D1641E03D0102D85
:1041100003D1641E04E0102D02D0022D0AD00EE05F
:10412000850603D4202C1ED2782506E0202C1AD236
:10413000582502E0202C16D262250D55641C202C37
:1041400011D20B55641C202C0DD2BCF1000F01D0F4
:104150002D2306E0430701D52B2302E0030702D5F8
:1041600020230B55641CCDE900BAC846154681468C
:104170008B46AA46800714D1274607E02A46DDE988
:1041800000316D1C2020C446E0477F1CB742F5D3A8
:1041900007E02A466D1C641EDDE900311BF80400AF
:1041A000C047002CF5D15FEA897006D409E02A46A1
:1041B000DDE900316D1C2020C047A5EB0A00B042AC
:1041C000F5D32846BDE8FC9F2DE9F04F8FB0994606
:1041D0008B46DDE91818DDE91C63DDE91A479246D4
:1041E0008646002209B923F01003580507AD00D513
:1041F000C9B1B1FBF4F004FB1010C0B20A2801D21F
:10420000303009E05FEA836C02D54FF0410C01E0E9
:104210004FF0610C60440A38B1FBF4F1A854521C11
:1042200009B1202AE5D3CDF80880CDE90563CDE9B1
:104230000052CDE903474B46524659467046FFF7B8
:104240002DFF0FB0BDE8F08F2DE9FF4F8FB01CACF4
:10425000DDE9239594E8030820AC94E8C004002429
:1042600050EA010201D125F010056A050DF11C0884
:1042700002D550EA010217D032463B46FBF7A2FFB7
:10428000D2B20A2A01D2303206E0AB0601D5412370
:1042900000E061231A440A3A08F80420641C50EA3A
:1042A000010201D0202CE7D3CDE90084CDF808B07D
:1042B000CDE90595CDE9036A0FAF97E80F00FFF749
:1042C000EDFE13B0BDE8F08F9A4200D288547047DB
:1042D000704700002DE9FF4F89B09B46044600253A
:1042E00006E025280BD05A460B999047641C6D1C9C
:1042F00020780028F5D10DB02846BDE8F08F0027C2
:10430000B8460122474900E0074314F8013F203B2B
:1043100002FA03F00842F7D120782E2819D114F8B8
:10432000010F47F004072A280ED06FF02F022078E3
:10433000A0F1300109290CD808EB880102EB4101FA
:1043400000EB0108641CF2E70A98641C50F8048B27
:104350000A9020780028CED0642808D0692806D09A
:1043600075281ED05A460B9990476D1C58E00A9943
:104370004FF00A0901C90A91002802DA40422D21B2
:1043800002E0390504D52B218DF82010012103E02E
:10439000F90704D02021F7E78A4608AE0DE0002196
:1043A000FAE70A994FF00A0901C90A91F7E7494665
:1043B000FBF7AFFF303106F8011D0028F7D1ADEB58
:1043C000060000F12009780701D44FF00108C84524
:1043D00002DDA8EB090000E000208046002706E08F
:1043E00008A85A46C05D0B9990476D1C7F1C574525
:1043F000F6DB04E030205A460B9990476D1CB8F16B
:104400000001A8F10108F5DC05E016F8010B5A4699
:104410000B9990476D1CB9F10001A9F10109F4DC79
:10442000641C65E7092801002DE9FF4F89B00546A6
:104430000A9800249246002800D1FE4D8FE12528DD
:1044400004D02246641C53460A990BE2491C4FF0E3
:10445000000808460C9101782B2919D004DC20298A
:1044600019D0232904D119E02D290ED0302909D0E3
:104470000026C8B2FEF757FBB0B10CA8FEF73CFB14
:1044800006461FE048F001010AE048F0020107E09B
:1044900048F0040104E048F0080101E048F0100190
:1044A000401C88460C90D6E70C9908782A2809D138
:1044B000169840C81690002E02DA48F0020876429C
:1044C000491C0C910C984FF0000B01782E2919D142
:1044D000401C0C9048F480680078FEF724FB20B163
:1044E0000CA8FEF709FB83460CE00C9A10782A28EA
:1044F00008D1169802C81690002900DC0021521C31
:104500008B460C920C9801786C290AD004DC68293F
:104510000FD06A2919D128E0742929D07A2914D119
:1045200026E0401C0C90017848F480786C291CD05F
:104530000BE0401C0C90017848F08008682904D1F9
:1045400048F04001401C88460C90024600786928DB
:1045500022D015DC62281FD00DDC252871D0502810
:104560001AD058287FF46DAF16E048F40071E9E7DF
:1045700048F48071E6E7632878D06428F2D10BE034
:10458000732874D004DC6F2806D07028EAD103E0C9
:10459000752801D07828E5D178280DD058280BD07F
:1045A00070280BD0502809D06F2816D0622816D05A
:1045B0000A2128F0100016E0102107E050781021A1
:1045C00048F48878562804D1521C0C921078582848
:1045D00007D01078502804D006E0082109E0022115
:1045E00007E048F0200080461078692803D064284E
:1045F00001D028F00C085FEA485001D528F00108E6
:10460000107869281ED064281CD0562864D05FEA30
:10461000885072D5169804ABC01D002283E80608A6
:104620000292CDE9076820F007005346F0E8021235
:10463000CDE900121690224628460A99FFF704FE9B
:1046400089E00AE15FEA885024D5169804AFC01DBE
:1046500020F00703F3E802021693002387E80A0814
:10466000CDE90768002A03DA012102E080E0A6E034
:1046700000210023029119461B1A914101DA1146CB
:1046800003E00021404261EB020153462246CDE99E
:104690000001D1E75FEAC85004D5169804C80FE0BE
:1046A000524215E05FEA486003D5169810F8042BD3
:1046B00006E05FEA0860F0D5169830F8042B12B2D5
:1046C0001690CDE9021BCDE90468D00F002AE7DD82
:1046D000CDE9002053461EE01698AAEB040202C85A
:1046E00016904868006800900A980B6801192846DF
:1046F000FFF79AFE04442FE0FFE75FEAC8500CD5AD
:10470000CDE9021BCDE9046816980021534604C880
:10471000CDE900211690224619E05FEA486003D5F2
:10472000169810F8042B08E05FEA0860169803D585
:1047300030F8042B92B200E004C816900020CDE9B6
:104740000020CDE9021BCDE90468534622462846E5
:104750000A99FFF739FD04460C98401C0C900C99FF
:10476000087800287FF46BAE54457DD222467DE068
:1047700001275FEA887006D509E02246641C53468B
:1047800020200A99A84738467F1CB042F5D31699D5
:104790002246641C11F8040B169153460A99A84747
:1047A0005FEA887006D4D7E72246641C534620206F
:1047B0000A99A84738467F1CB042F5D3CCE7169833
:1047C00050F8049B16904B46BBF1000001D0014607
:1047D00001E04FF0FF31484600E0401C02780AB18A
:1047E000491EFAD2C71A5FEA485003D558465F45BA
:1047F00000D307465FEA887006D512E02246641CA3
:10480000534620200A99A84738467F1CB042F5D36A
:1048100007E000BF224609F10109641C53460A99CA
:10482000A84799F8000040B15FEA4851F2D5BBF1C2
:10483000010B01E0D1420008ECD25FEA887006D497
:104840008AE72246641C534620200A99A847384626
:104850007F1CB042F5D37FE706E02246641C534636
:1048600025200A99A84777E7AAF1010253460020BC
:104870000A99A8470DB02046BDE8F08F10B5020098
:104880004FF000000CD04B1E194200D0FEE70A4446
:10489000521E9A43B2F5803F02D20C2A01D910462B
:1048A00010BD0C2010BD08444A1E401E904311420A
:1048B00000D0FEE7704700002DE9F0410F460121CE
:1048C0000025044641862E460BE01B49FBF7E4FC1D
:1048D00010B16D1CADB202E0608E401C6086761C8B
:1048E000B6B257F8260010B101780029EDD1208E1C
:1048F000A8421ED0A06A002610B115F015FEA662CF
:10490000E06A10B115F010FEE662E80015F080FDD7
:10491000A06238B1680015F07BFDE06218B1A16AB1
:1049200011B102E0FEE7FEE70025690015F00AFF7D
:104930002586BDE8F0810000A42701082DE9F84F85
:104940008146407A0F4600F00700022819D0104631
:104950008046974200DD3A46164603202A4C2B4AF1
:1049600000EB460020F00305A06811681035411ADD
:10497000636805EB010C9C4505D2416821F00041BC
:1049800024E00846E4E79D4219D892464FF0FF3BE9
:1049900048196168884210D9002269461C48CDF840
:1049A00000B00CF09DF8002269461A480CF098F807
:1049B000A168DAF80000091AEAE7A068DDE72846EE
:1049C00015F026FDC0B1416841F0004188EA670258
:1049D000416089EA02010160416801F04041491CDF
:1049E00031F0804141608681A0F80E8005D500F14C
:1049F00010018160BDE8F88FFEE7A16801F11002A7
:104A000029448260A160F5E7A40000200402002090
:104A1000F1DB00089D0B010870B586B000224A4CFE
:104A20008DF808208DF80C208DF81020E2888A423D
:104A300001D0FF22A270E18090F83C20142302F004
:104A400003024FF4B475012A24D0022A5ED0A5785F
:104A5000AA4211D010F8265F05EB051505EB4505B8
:104A6000B5FBF3F52570407800EB001000EB40003B
:104A7000B0FBF3F06070A27004AA03A8CDE90002B5
:104A800001EB41004FF6FF7101EA400002AB627892
:104A900021781BE0A678B24210D0868C06EB460641
:104AA0007602B6FBF5F5A58090F8270000EB001024
:104AB00000EB4000B0FBF3F06070A27004AA03A802
:104AC000CDE90002C9B202AB62783AE008F0A3FD7A
:104AD0009DF810109DF80C00CB08BDF800109DF853
:104AE000082063F30401ADF800108108BDF8000050
:104AF00061F34A10D10880B261F3CF20ADF8000015
:104B000080B20090BDF8000006B070BDA678B24239
:104B100010D0868C06EB46067602B6FBF5F5A5802E
:104B200090F8260000EB001000EB4000B0FBF3F023
:104B30002070A27004AA03A8CDE90002CAB22178AD
:104B400002ABA088C2E700005001002010B5084C5D
:104B5000012020700748FEF762FE0028A06803D0FD
:104B6000BDE810401CF0CEBEBDE810401CF0BEBE3B
:104B7000DC0100209818002010B5044690F842008F
:104B8000A16B820709D4B4F840204AB1A2F57F4353
:104B9000FF3B1BD0521EA4F84020B4F84020AAB915
:104BA00009B1820712D521461448FEF7D3FEFFF75C
:104BB000CDFFE16809B120468847216909B1204647
:104BC00088472046BDE8104015F0AEBCE26B52426B
:104BD0002263002911D0820702D4626B5242226301
:104BE0004210521C62F3410084F84200A26A206A1B
:104BF0002262A062E06AE162A06310BD9818002002
:104C000070B5304D68681CF039FD0646687880F054
:104C10000100687047E00020287094F8420069782D
:104C2000C0F380028A4242D061F3820084F84200DD
:104C3000216B8A19030719D4002917DC002A15DB18
:104C4000C00709D1616939B120468847216A01440A
:104C50002162A16A0844A062A16809B12046884780
:104C600094F8420040F0080084F84200206B80195C
:104C7000206316D4E16A884200DD2163E1692046A1
:104C800088470146606A884204D0616262680AB15E
:104C900020689047D4E90B01814202DB2046FFF7F0
:104CA0006BFF287818B10848FEF7B9FD03E02146EC
:104CB0000548FEF7C6FD0400ADD11CF0E5FC6860B8
:104CC00070BD0000DC0100209818002070B504467B
:104CD00040680D4608B1FFF7F9FF2268002A04D0AA
:104CE00029462046BDE87040104770BD89B20CF0DF
:104CF000B7BF89B20CF0F0BF2DE9FF4F99B09846CD
:104D0000DDE926B12D9816468A464FF000090428A1
:104D100011D0052811D0062812D0142870D10127EF
:104D20000225002418FB06F00E901A98401E0D90E4
:104D3000701E069051E10027F2E701270325F0E7F6
:104D400001270225FFF730F80068D0F83890E8E72F
:104D5000289860430BEB2022299860430AEB20211E
:104D600010124FEA212E7DD41A9B98427ADABEF1B6
:104D7000000F77DBB64575DAD2B2CBB2802A05DAFE
:104D8000C2F17F024FF0FF31520003E001215200D7
:104D9000A2F580720992802B05DAC3F17F034FF0F0
:104DA000FF325B0003E001225B00A3F580730A93EE
:104DB0000EFB080C199B0CFB05330793431811934A
:104DC00072D4DDF834C063456EDC1EEB02036BD495
:104DD000DDF818C0634567DCDDF81CC011FB05C1B8
:104DE000CDE915C112FB08F101FB05C10C91D7B348
:104DF0002D99052905D014290BD0062955D066E038
:104E0000EFE01598807807900C9881781698807854
:104E100010E0199A0E990EFB08FC02EB41010A18EA
:104E20000EFB08111CF802000790119803FB08F311
:104E3000085C995C079A91420AD00A9A11FB02F227
:104E40000A99C1F58073079911FB0321C1F307216A
:104E5000079A90420DD0099A10FB02F20998C0F50A
:104E6000807301E02FE035E0079810FB0320C0F3CA
:104E7000072008442C994008085527D01598017838
:104E8000407801EB0020ADF80C000C9801784078D8
:104E900001EB0020ADF8100016980178407801EB86
:104EA0000020ADF8080023E04CE0159801881FFAB7
:104EB00089F0814207D00C990988814203D0169964
:104EC0000988814203D12C990020085583E0FF21F5
:104ED0000846CEE715980088ADF80C0016980088B3
:104EE000ADF808000888ADF810002C98FF21015596
:104EF000BDF80C00BDF81010884209D1BDF80810AB
:104F0000884205D12B98BDF80C1000EB440017E047
:104F10000A98C2B2DDE903100EF06EFD0490099804
:104F2000C2B2DDE902010EF067FD7F220290049912
:104F30000EF062FD00902B98BDF8001000EB4400CD
:104F4000018048E0079B93F800C05B780CEB0323DB
:104F5000DDF8ACC09BB22CF81430DDF8B4C0BCF165
:104F6000050F06D0BCF1060F06D0BCF1140F09D115
:104F70000AE0079B9B780FE01FFA89FC634501D18B
:104F8000002309E0FF2307E0199B0EFB083C0E9B62
:104F900000EB43031CF8033008B9002905DBDDF8FA
:104FA00034C0604503D1002901DD09980AE0BEF153
:104FB000000F01D1002A04DB06998E4508D1002A92
:104FC00006DD0A98C0F1FF0010FB03F0010A00E0C3
:104FD00000212C980155641C24B22A988442FFF6C3
:104FE000B7AE1DB0BDE8F08F10B5818F92B004460A
:104FF000A9B168460CF042F90B480121CDE9004007
:10500000A08F0B9000200890CDE909010748079078
:105010000748039068460CF0A5F912B010BD12B015
:10502000BDE810401DF0C6BD2D2C02083B13010841
:105030002F2C020810B50446406882080AD049683F
:1050400021F00301091D08446060204600F042F889
:10505000204610BDFEE74068103120F00300884272
:1050600001D301207047002070472DE9FC47054619
:1050700048680C4620F0030001AA69461DF0F0FACA
:10508000DDE9007005EBC71101EB80098046D9F816
:105090003C0060B164B1C4E9020504F10806C460D3
:1050A00030460421FFF7FFFB864202D0FEE7FEE711
:1050B000FEE7C9F83C400120296900FA07F21143D4
:1050C000296105EB870100FA08F04A6902434A6149
:1050D000BDE8FC8710B5044600F087F8046010BDF9
:1050E0002DE9FC4706464FF000000D0000900746F2
:1050F000019042D00C46E9460DF10408802907D3FF
:10510000084621F0CBFA411F01208840401E04448C
:105110004246494620461DF0A3FA009C0A2C2CDA90
:1051200006EB8400019A40694FF0FF3101FA02F268
:1051300010400CD1641C3069A14008401DD021F002
:10514000A5FA0446009006EB8000406978B121F092
:105150009DFA034606EBC411019001EB8000C76B7A
:105160005FB1786820F00300A84201D2FEE7FEE7B5
:1051700039463046009A1EF0F5FB3846BDE8FC87FC
:1051800010B50446FFF7A6FF416841F002014160F7
:10519000606840F00100606010BD10B5044600F08A
:1051A00024F8416821F002014160606820F00100AC
:1051B000606010BD70B506460D46084600F015F853
:1051C000040010D02079C0070BD0686880080BD08D
:1051D0002146304600F03CF821462846FFF72AFFDA
:1051E0000546284670BDFEE7FEE7426800F108016B
:1051F00022F00300001F0844910800D1FEE7704729
:1052000070B506460C004FF000001ED0F2B12079B8
:105210001546C0071BD011462046FFF71CFF78B18A
:105220002946204600F025F805462046FFF752FFA4
:105230006868294640F0020068603046FFF715FFB5
:105240002046FFF7AAFF04F1080070BDFEE7FEE765
:105250007CB5054648680C4620F0030001AA694663
:105260001DF0FEF9DDE90023214628461EF07AFBF9
:105270007CBD2DE9F0410D46044600F10801281FD0
:105280000E18606806F1080720F00300401BA0F12B
:10529000040838460421FFF706FB874200D0FEE7EA
:1052A000606820F0030108EB0500001D814200D07A
:1052B000FEE7307900F0030040EA0800706020F05B
:1052C00003000C2800D2FEE7207900F003002843F9
:1052D00060603046FFF754FF3046BDE8F0814FF480
:1052E0007A714843AFF3008030B5074A5368074CE2
:1052F000074D00212468B4FBF5F4444301E05068F5
:10530000C11AA142FBD330BD001000E060000020B4
:1053100040420F000648016841F080710160054875
:1053200000214160016841F0010101607047000007
:10533000FCED00E0001000E038B5044613F004FC7A
:10534000054613F036FC0028204605D0218FE18663
:1053500018F090FA012038BD11F01CFE00282046FC
:105360001ED011F0E3FC218FE08E81420CD020870B
:10537000E08E00906A461C21204612F04DF801286C
:10538000E9D1204618F076FA284613F01EFC0428CE
:10539000E0D1204616F0ECFD002112F04AFDD9E7DD
:1053A00011F054FED6E770B512F032F8054616F04B
:1053B00025FE044628460DF0BDFA01462046BDE80C
:1053C000704000221BF044BC2DE9F04F0D4687B021
:1053D0000446002116F000FD60B32946204600F087
:1053E00061FA2946204600F06FF80021204617F0A8
:1053F00023FC05900021204617F0D2FC04900021E8
:10540000204617F0E4FA012800D000208046002151
:10541000204617F027FE07460021204617F052FBD2
:1054200042F2D17906464F450BD1608C000508D475
:10543000012707E007B02846BDE8F04F1C2115F012
:1054400081B90027204616F045FDDFF878A0834695
:1054500020460021BAF8042017F002FDD5F810C04C
:10546000AB682968CDF800C0CDF80C80CDE90131DA
:10547000C2B239465846059B0AF026F828834E45A5
:1054800004D1608C400501D4012600E000262046AE
:1054900016F006FD074620460021BAF8082017F04E
:1054A000DFFCC2B2686900246B68E9688DE81B0004
:1054B00031463846049B0AF007F8688307B0BDE818
:1054C000F08F0000C40000202DE9F34F81B00C469E
:1054D000019809F07DFA0646019816F0FBFC824619
:1054E000304600F0E3FF2061400014F0BFFF206071
:1054F0002069400014F0BAFF002541F69A79A060B7
:105500003AE036F91510DFF82081494533D10027FC
:10551000DFF818B11FE03946019816F05DFC5946D6
:10552000009017F0C0FEA8B9009809F063FA0128AE
:1055300010D1009809F054FAA8420BD1009817F046
:1055400062FE4146404501DA084602E0009817F045
:105550005AFE80467F1C019816F050FCB842DAD8FB
:10556000B8F1000F03DBA16821F8158003E0A16802
:10557000002021F815006D1C2069A842C1D8002523
:105580002F46284641F69B784B4615E036F9101019
:10559000414504DB0D44A5F5F8559B3D0BE09942D0
:1055A00004D1A16831F81010394403E0A26822F850
:1055B000101039440FB2401C21698142E6D8002105
:1055C000019817F039FB2169C1F1010200FB02A02B
:1055D000C01B00B2002800DA002000224FF0FF3389
:1055E0001146C44611E000BF36F9117067450BDB68
:1055F000A7F5F8579B3F3AB210FB02F3B3FBF5F364
:10560000A76827F811300B46491C27698F42EBD851
:10561000002B07DBA91A4143B1FBF5F1401AA16841
:1056200021F81300BDE8FE8F01E0FFFF0100060036
:105630002DE9F14F00221146009819F0ABF8002136
:10564000009817F0FDF904460021009817F0BAFB06
:1056500020440FFA80F90021009817F0A5FA2044A1
:105660000FFA80F8009817F05FF900EB090101EBE1
:105670000800DFF898A006B25446009816F0BEFB6A
:10568000074600252AE0009821498068006850F804
:105690002500834617F007FEF8B9584618F042F97E
:1056A00040BB0021584617F063F918B3012821D0F8
:1056B00002281FD003281DD00021584617F0EAFC0D
:1056C00058B9BBF81A10BBF81600081A401C00B2F3
:1056D0004844A04200DB044624B26D1CBD42D2D334
:1056E000544504D004EB080000B2B04200DC304660
:1056F000BDE8F88F0098BBF91A10B0F91600081A27
:10570000411CA142E8DB0C46E6E7000001E0FFFF98
:10571000010004002DE9F84F00228046114619F0DF
:1057200023F80021404617F08BF90446002140463B
:1057300017F0EEFA20440FFA80FA0021404617F0E5
:1057400099FA20440FFA80F9404617F0FBF800EB75
:10575000090101EB0A00DFF844B105B25C4640469E
:1057600016F04CFB07460021404617F01EF90128B1
:105770004FF0000644D078E0D8F8080048490068A7
:1057800050F82600009017F08EFDC0BB009818F06E
:10579000C9F850B10098B8F91810B0F91400091AF6
:1057A000481CA0422ADB4C1C28E00021009817F07E
:1057B000DFF858B1032809D0062807D0082805D0FB
:1057C0000021009817F060FC58B118E00098B8F973
:1057D0001810B0F91400081A411CA1420EDB0C4647
:1057E0000CE00098143000900CF04FFB5044A042A5
:1057F00004DB00980CF049FB00EB0A0424B2761C91
:10580000BE42B9D35C453BD004EB090033E000BF96
:10581000D8F808002249006850F82600009017F0D8
:1058200042FD08BB009818F07DF860BB002100988D
:1058300017F09EF838B3012825D0042823D0072874
:1058400021D00021009817F025FC68B90098143089
:1058500000900CF01AFB4844A04204DB00980CF0C6
:1058600014FB00EB090424B2761CBE42D0D35C4585
:1058700006D004EB0A0000B2584501D0A84200DC73
:105880002846BDE8F88F0098B0F91810B8F9140050
:10589000091A481CA042E6DB4C1CE4E701E0FFFFCC
:1058A000010004002DE9F84F0C46834609F096FCF0
:1058B000064600F0FBFD6061400014F0D7FD60601B
:1058C0006069400014F0D2FD002541F69A79E0604D
:1058D0003AE036F91500DFF82881484533D1002732
:1058E000DFF820A11FE03946584616F075FA5146F8
:1058F000009017F0D8FCA8B9009809F0F7FC01282F
:1059000010D1009809F0E8FCA8420BD1009816F0DD
:1059100034FB4146404501DA084602E0009816F0A3
:105920002CFB80467F1C584616F068FAB842DAD83D
:10593000B8F1000F03DBE16821F8158003E0E168AE
:10594000002021F815006D1C6069A842C1D800250F
:105950002F46284641F69B784B4615E036F9101045
:10596000414504DB0D44A5F5F8559B3D0BE09942FC
:1059700004D1E16831F81010394403E0E26822F8FC
:10598000101039440FB2401C61698142E6D80021F1
:10599000584617F005FA8146584616F081FA014636
:1059A0006069C0F1010209FB0210C01B00B20028AF
:1059B00000DA002000224FF0FF331146C44610E009
:1059C00036F9117067450BDBA7F5F8579B3F3AB2E4
:1059D00010FB02F3B3FBF5F3E76827F811300B4631
:1059E000491C67698F42EBD8002B07DBA91A41439A
:1059F000B1FBF5F1401AE16821F81300BDE8F88F1A
:105A000001E0FFFF010006001CB50B880489234458
:105A1000ADF800304B8844892344ADF802308B88C0
:105A200004892344ADF80430C98843891944ADF88A
:105A300006104369694698471CBD00002DE9FF4FD9
:105A400089B0C8781A9CC0070D46002801D0F848D4
:105A500000E0F848069001D0F74800E0F7480490CD
:105A600001D1F54800E0F5484FF010034FF00C0E5F
:105A70004FF0080BCDF814006188A2884FF0000A9F
:105A8000A1EB0201504609B25246D4F810C00FE013
:105A900002EB8207E66803EB870816F808805FEAE6
:105AA000C87809D00BEB8707F65B891B09B2521C3B
:105AB0009445EDD8002254E00EEB8707F65B3044A6
:105AC00000B2F4E7E66802EB820703EB870CB1460D
:105AD000CDF820C016F80C60F60741D1002872D02E
