:020000040800F2
:1000000050EA0020A10100080F1F00083D18000859
:100010000D1F00087F030008E72300080000000010
:100020000000000000000000000000002520000883
:100030007106000800000000111F000827200008BA
:10004000BB010008BB010008BB010008BB010008A0
:10005000BB010008BB010008BB010008BB01000890
:10006000BB010008BB01000873060008BB010008C3
:10007000BB010008BB010008BB010008BB01000870
:10008000BB010008BB010008BB010008BB01000860
:10009000BB010008BB010008BB010008BB01000850
:1000A000BB010008BB010008BB010008BB01000840
:1000B000BB010008BB010008BB010008BB01000830
:1000C000BB010008BB010008BB010008BB01000820
:1000D000BB010008BB010008BB010008BB01000810
:1000E000BB010008BB010008BB010008BB01000800
:1000F000BB010008BB010008BB010008BB010008F0
:10010000BB010008BB010008BB010008BB010008DF
:10011000BB010008BB010008D1200008DD20000859
:10012000BB010008BB010008BB010008BB010008BF
:10013000BB010008BB010008BB010008BB010008AF
:10014000BB010008BB010008BB010008BB0100089F
:10015000BB010008BB010008BB010008BB0100088F
:10016000BB010008BB010008BB010008BB0100087F
:10017000BB010008BB010008BB0100080000000033
:10018000BB010008BB010008DFF810D000F0BAF88E
:100190000048004761180208AFF3008050EA0020D1
:1001A0000648804706480047FEE7FEE7FEE7FEE711
:1001B000FEE7FEE7FEE7FEE7FEE7FEE7C1200008F8
:1001C000890100082DE9F05F0546002092469B4614
:1001D00088460646814640241BE02846414647465D
:1001E000224600F07FF853465A46C01A914110D378
:1001F00011461846224600F066F82D1A67EB0108F2
:100200004F4622460120002100F05DF817EB00095F
:100210004E41201EA4F10104DFDC484631462A4647
:100220004346BDE8F09F10B5431A934209D28318A4
:10023000881803E010F8011D03F8011D521EF9D2C1
:1002400010BD40EA01039B0703D009E008C9121F53
:1002500008C0042AFAD203E011F8013B00F8013B80
:10026000521EF9D210BDD2B201E000F8012B491E96
:10027000FBD270470022F6E710B513460A46044643
:100280001946FFF7F0FF204610BD421C10F8011B75
:100290000029FBD1801A704710B5002200E0521CE3
:1002A000835C8C5CA34201D1002BF8D1D8B2E1B2BF
:1002B000401A10BD034611F8012B00F8012B002A4B
:1002C000F9D118467047202A04DB203A00FA02F1DF
:1002D000002070479140C2F1200320FA03F3194334
:1002E00090407047202A04DB203A21FA02F00021D6
:1002F000704721FA02F3D040C2F120029140084336
:1003000019467047064C074D06E0E06840F00103CF
:1003100094E8070098471034AC42F6D3FFF738FF53
:1003200038AD020858AD020870B58C1810F8015BA2
:1003300015F0070301D110F8013B2A1106D110F87E
:10034000012B03E010F8016B01F8016B5B1EF9D182
:100350002B0705D40023521E0DD401F8013BFAE708
:1003600010F8013BCB1A921C03E013F8015B01F873
:10037000015B521EF9D5A142D8D3002070BDFEE723
:1003800070B5104D4FF4807400222146284600F0CD
:10039000E2FB00F05DF900226100284600F0DBFB83
:1003A000012004F08FFB01222146284600F0D3FBF8
:1003B000012004F087FB21462846BDE8704000225A
:1003C00000F0C9BB0004024010B586B01421684695
:1003D000FFF750FF1048016841F00201016000681A
:1003E0000E4C00F0020005904FF440700090012088
:1003F00001900290022003906946204600F0AEFA78
:1004000001221102204600F0A6FB012251022046E3
:1004100000F0A1FB06B010BD3038024000040240DD
:1004200070B5104D4FF4807400222146284600F02C
:1004300092FB00F00DF901225102284600F08BFBDF
:10044000012004F03FFB01222146284600F083FBF7
:10045000012004F037FB21462846BDE87040002209
:1004600000F079BB000402402DE9F04780460024EB
:1004700000F0DAF8154F00254FF480764FF400793C
:1004800000223146384600F066FB032004F01AFBD8
:1004900001223146384600F05EFB6006040E4946F4
:1004A000384600F053FB08B1641CE4B26D1CEDB299
:1004B000082DE5D3B8F1000F04D0FFF761FF204607
:1004C000BDE8F087FFF7ACFFF9E700000004024049
:1004D0002DE9F041054600F0BBF8144E4FF480774B
:1004E00000223946304600F036FB00244FF40078F5
:1004F000EA094146304600F02EFB6806050E01224F
:100500003946304600F027FB012004F0DBFA0022D8
:100510003946304600F01FFB012004F0D3FA641C7A
:10052000E4B2082CE4D3BDE8F081000000040240EE
:1005300070B500F08DF801220E4D54022146284678
:1005400000F009FB012216023146284600F003FBA9
:10055000012004F0B7FA00222146284600F0FBFAF9
:10056000012004F0AFFA31462846BDE87040002271
:1005700000F0F1BA0004024070B500F069F8104DC7
:100580004FF4807400222146284600F0E4FA660009
:1005900000223146284600F0DEFA012004F092FAEB
:1005A00001222146284600F0D6FA012004F08AFAFA
:1005B00031462846BDE87040012200F0CCBA000068
:1005C000000402402DE9F041002400F02DF8012242
:1005D000144D56023146284600F0BDFA012004F0C1
:1005E00071FA012217023946284600F0B4FA0120B8
:1005F00004F068FA08E0641CE4B2FA2C04D9FFF7AE
:10060000BBFF0120BDE8F0813146284600F09EFA8C
:100610000028F0D100223946284600F09CFA00203C
:10062000F0E700000004024000B585B00020019012
:100630004FF4007000900220039001200290694660
:10064000024800F08BF905B000BD00000004024034
:1006500000B585B001200190400200900220039077
:100660006946024800F07AF905B000BD0004024076
:100670007047102000F066B972B6FEE770B588B01A
:10068000142101A8FFF7F6FD2B480024016841F072
:10069000020101600068012500F002000690402080
:1006A000CDE901050220CDE90340244E01A93046E1
:1006B00000F054F901A9802081E83100304600F0B3
:1006C0004DF9FFF781FE00224021304600F043FA49
:1006D0000A2004F0F2F901224021304600F03BFAF2
:1006E0004FF4FA7004F0E9F901226946A82000F0FD
:1006F00027F89DF80000112818D1022269469F2092
:1007000000F01EF89DF8000026280FD19DF801008A
:1007100018B1012801D0022808D101226946A3207E
:1007200000F00EF89DF80000642802D0012008B007
:1007300070BD0020FBE7000030380240000402409A
:100740002DE9F04115460E460446FFF7F1FE7020F4
:10075000FFF7BEFEFFF736FFE0B2FFF7B9FEFFF787
:1007600031FFFFF7E5FE7120FFF7B2FEFFF72AFF2A
:1007700000246F1E09E0BC4201D0012000E00020EF
:10078000FFF772FE3055641CE4B2AC42F3D3BDE80F
:10079000F041FFF7F1BE00002DE9FC5F644E00243C
:1007A0004FF00A093078DFF88C81401CC0B2B0FBF2
:1007B000F9F209FB12012746307009B10A2874D2F8
:1007C000012201A90220FFF7BBFF9DF804100029B8
:1007D0006CD003296BD2FF208840C04340F0C0009A
:1007E000DFF854A1DFF854B1454688F8100001271E
:1007F0003AF8140004226946FFF7A2FF297C07FAA1
:1008000004F001426BD09BF80610584631B1012923
:1008100019D002292FD0032961D149E09DF8001099
:100820009DF8010001F00F0100EB012105EB4400F0
:1008300001819DF802209DF8031002F00F0201EBE8
:10084000022181814BE09DF800209DF8011002F00B
:100850000F02BBF8020001EB0221411A05EB440034
:1008600081819DF802209DF8031002F00F0201EB38
:100870000221018133E09DF800209DF8011002F073
:100880000F0201EB02210288521A05EB44010A8192
:100890009DF802309DF8032003F00F03BBF802001F
:1008A00002EB0322801A888119E025E027E037E077
:1008B0009DF800209DF8011002F00F0201EB0222CA
:1008C00005EB44018A819DF802309DF8032003F076
:1008D0000F03BBF8000002EB0322801A0881641C9E
:1008E000E4B2022C84D301272989002019B9A989EF
:1008F00009B98DF8040030709DF8040080B998F8AB
:100900001000010602D520F0800007E04FF6FF71CD
:10091000A8F80810A8F80C1000F0E00088F8100003
:100920003078F02801D986F800903846BDE8FC9F61
:1009300058000020040000207C6602087C02002091
:1009400070470000044910B50A68024202D00860EE
:10095000FFF7F6FF10BD0000143C01402DE9F84FF1
:10096000DFF8BCA10022012503264FF00F090AF190
:10097000040BAAF1040E00BF0B6805FA02F4234031
:10098000A34270D10F7907F00307012F01D0022F86
:1009900016D187684FEA420806FA08FC27EA0C07D6
:1009A000D1F80CC00CFA08FC4CEA070CC0F808C0DF
:1009B0004768A7430C79C4F3001494403C43446057
:1009C0000C79E443A4070AD0C4684FEA420C06FA43
:1009D0000CF7BC438F6807FA0CF72743C7600C7904
:1009E00004F00304022C12D1D40800EB840CDCF8D0
:1009F00020405707FF0E09FA07F824EA0804D1F847
:100A0000108008FA07F848EA0408CCF82080046847
:100A10004FEA420C06FA0CF7BC430F7907F00307C4
:100A200007FA0CF7274307604C6814F4403F70D076
:100A30003C4C276847F480472760246822F003076E
:100A400004F480440094384C07EB040CDCF80848AC
:100A500097074FEA177809FA08F7BC43334FB842B3
:100A600002D1002724E054E0314FB84201D10127E0
:100A70001EE0304FB84201D1022719E02E4FB84294
:100A800001D1032714E02D4FB84201D104270FE014
:100A90002B4FB84201D105270AE02A4FB84201D1B5
:100AA000062705E0284FB84201D1072700E00827B4
:100AB00007FA08F72743CCF80878DAF800405746D9
:100AC000D1F804C09C435FEACC2C00D51C433C60A9
:100AD000DBF800405F46D1F804C09C435FEA8C2CF1
:100AE00000D51C433C60DEF800407746D1F804C0D6
:100AF0009C435FEA8C3C00D51C433C60084F083F98
:100B00003C68D1F804C09C435FEACC3C00D51C4350
:100B10003C60521C102AFFF42FAFBDE8F88F000094
:100B2000083C0140443802400030014000000240CF
:100B30000004024000080240000C02400010024085
:100B40000014024000180240001C024000690840E6
:100B500000D0012070470AB1816170470904FBE7AA
:100B600001488068704700005C00002002488168EE
:100B700002781144816070475C0000200B4810B57A
:100B8000016841F400710160016841F48061016015
:100B9000016841F480710160032000F06FF80F20BC
:100BA00000F006F800F024F8002010BD003C0240E0
:100BB00070B50D4D04464FF47A712878B1FBF0F012
:100BC0000A490968B1FBF0F000F05AFC48B9102C52
:100BD00007D200222146501E00F030F800206C6041
:100BE00070BD012070BD00005C0000206800002086
:100BF0000A4808B5016841F480410160006800F4CA
:100C0000804000900548001F016841F0805101605C
:100C1000006800F08050009008BD00004438024099
:100C2000002809DB00F01F020121914040098000EB
:100C300000F1E020C0F8001170470000F0B40E4B46
:100C40001B680C46C3F30223C3F10705042D00D92A
:100C50000425191D072901D2002300E0DB1E01260F
:100C600006FA05F1491E214099409E40761E164025
:100C70003143F0BC01F0B8BB0CED00E0064900F0D8
:100C8000070208684FF6FF03184040EA0220034AB3
:100C900010430860704700000CED00E00000FA050A
:100CA0002DE9F0470E46050065D0DFF81481D8F82D
:100CB0000000F7B200F00700B04207D288F80070D9
:100CC000D8F8000000F00700B04254D128683D4C2D
:100CD000810712D5400703D5206840F4E05020601A
:100CE0002878000703D5206840F460402060206821
:100CF000A96820F0F000084320602878C0072DD0B4
:100D0000304968680839012812D0022813D0032816
:100D100011D00968890700292DDA216821F0030123
:100D200001432160FFF71CFF814641F2883A0EE043
:100D300009688903EFE709688901ECE7FFF710FF0D
:100D4000A0EB0901514502D90320BDE8F0872068D6
:100D5000696800F00C00B0EB810FEFD1D8F80010FB
:100D6000404601F00701B14207D90770006800F062
:100D70000700B04201D00120E7E72878400705D5F9
:100D80002068E96820F4E0500843206028780007D4
:100D900006D52068296920F4604040EAC10020603F
:100DA00000F038F82168084AC1F30311515CC840CB
:100DB0000649086006480068FFF7FAFE0020C4E70D
:100DC000003C0240083802408066020868000020AB
:100DD000600000200448054900680968044AC1F31E
:100DE0008221515CC84070476800002008380240EA
:100DF000906602080448054900680968044AC1F37E
:100E00004231515CC84070476800002008380240F9
:100E100090660208154810B5006810F00C021448DE
:100E200013D04110042A0FD0082A0ED10F4C241FD2
:100E30002268236802F03F025B0207D52068C0F3F6
:100E40008810A0FB010106E0084610BD2168C1F32F
:100E50008811A1FB00010023FFF7B4F92168C1F359
:100E60000141491C4900B0FBF1F010BD08380240B7
:100E70000024F4002DE9F84F04006ED02078DFF84C
:100E80004C93C007A9F104054AD009F10400016898
:100E9000C1F38101012908D00068C0F38100022854
:100EA0000AD1D9F80000400206D52868800337D55A
:100EB00060680028E1D033E06068B0F5803F10D072
:100EC000B0F5A02F286810D020F480302860286862
:100ED00020F4802028606068A8B1FFF741FE064634
:100EE0000DE0286840F48030F4E740F4802028606A
:100EF000F7E700BFFFF734FE801B642873D828682B
:100F00008003F7D50CE0FFF72BFE064605E000BF97
:100F1000FFF726FE801B6428F0D828688003F7D4EA
:100F20002078DFF8AC8280074FF0000A3ED5A74852
:100F3000001D016811F00C0F08D00068C0F381009B
:100F400002280BD1D9F80000400207D42868800796
:100F500016D5E068012800D112E033E1E068B8B1AD
:100F60000120C8F80000FFF7FBFD064605E000BFC2
:100F7000FFF7F6FD801B0228C0D828688007F7D548
:100F80002868216920F0F80040EAC10028600DE0DF
:100F9000C8F800A0FFF7E4FD064604E0FFF7E0FD17
:100FA000801B02281FD828688007F7D42078000704
:100FB00022D5864F87486169703771B10121016080
:100FC000FFF7CEFD064604E0FFF7CAFD801B0228AE
:100FD00009D838688007F7D50EE0C0F800A0FFF701
:100FE000BFFD064605E082E0FFF7BAFD801B022840
:100FF0007DD838688007F7D42078400768D5DFF8B7
:10100000CCB100270BF13C0BDBF80000C0000BD487
:10101000DBF8001041F08051CBF80010DBF8000045
:10102000012700F0805000906B4E3068C00510D44E
:10103000306840F480703060FFF792FD009005E06A
:10104000FFF78EFD0099401A022850D83068C0057D
:10105000F6D55E4EA0686C3601280FD005283068A2
:1010600010D020F001003060306820F004003060C3
:10107000A068B8B1FFF774FD00900FE0306840F051
:101080000100F4E740F004003060F7E7FFF768FD87
:101090000099411A41F28830814266D83068800751
:1010A000F4D50EE0FFF75CFD009007E0FFF758FD78
:1010B0000099411A41F28830814256D83068800741
:1010C000F4D42FB1DBF8001021F08051CBF80010E0
:1010D000A069C8B33D49091D0968C1F3810102290E
:1010E0004AD00228504607D0C8F8600000E03CE033
:1010F000FFF736FD04463BE04746C8F86000FFF7BF
:101100002FFD064605E000BFFFF72AFD801B0228E1
:101110002BD828688001F7D4D4E907010843A16AD5
:101120002E4A490802EB0141626A41EA82110843F2
:1011300094F82C1040EA0161C9F8001001203866CB
:10114000FFF70EFD044606E03EE000BFFFF708FD96
:10115000001B022809D828688001F7D534E000BFB9
:10116000FFF7FEFC001B022802D90320BDE8F88F20
:1011700028688001F4D427E00128F7D0D9F80000CE
:10118000E26900F4800191421CD1226A00F03F0123
:10119000914217D147F6C071626A0140B1EB821FDC
:1011A00010D1A26A4FF0FF3300F4403103EB52023A
:1011B000B1EB024F06D194F82C1000F07060B0EB48
:1011C000016F01D00120D1E70020CFE704380240B1
:1011D00000004742800E4742007000400000FFFFC1
:1011E00070B5040009D0606A002540B125616561D1
:1011F000A56294F8510040B10CE0012070BD606818
:10120000B0F5827FF4D0E561F2E784F850502046D3
:1012100000F044F8022084F851002068016821F0B1
:1012200040010160A088218900F4827001F404412A
:101230000843A18901F400610843217C01F0020107
:101240000843217D01F001010843218B01F4007165
:101250000843217F01F03801084394F8201001F081
:1012600080010843218D01F4005108432168086082
:10127000A069042101EA104094F8241001F0100143
:101280000843216848602068C16921F40061C16198
:101290006565012084F85100002070BD70472DE97C
:1012A000F84F044690F8500000270A9E1D469246CB
:1012B0008B464FF0010901280ED0012084F8500020
:1012C000FFF74EFC804694F85100616801280CD06D
:1012D000B1F5827F07D102E00220BDE8F88FA16856
:1012E00009B9042801D00227C2E0BBF1000F27D0C2
:1012F000BAF1000F24D01DB394F85100042802D095
:10130000052084F8510000206065C4F838A0E58706
:10131000A587C4F830B0E586A5862064606420689F
:101320000168490603D4016841F040010160E068AA
:10133000B0F5006F606805D0E8B3012D46D07FE0BE
:10134000012795E008B1012D39D1206B2168008873
:10135000C860206B801C2063E08E401EE0862EE07B
:101360002068816889070FD5E18E69B1B9F1010F55
:101370000AD1216B0988C160206B801C2063E08E3C
:10138000401EE0864FF0000920688168C9070CD034
:10139000E18F51B1C068A16B0880A06B801CA06375
:1013A000E08F401EE0874FF00109FFF7D9FBA0EB6B
:1013B0000800B04200E009E001D3701C50D1E08E7B
:1013C0000028CDD1E08F0028CAD13FE0206B2168F2
:1013D00000780873206B401C2063E08E401EE0867E
:1013E0002EE02068816889070FD5E18E69B1B9F1D7
:1013F000010F0AD1216B09780173206B401C206317
:10140000E08E401EE0864FF0000920688168C90721
:101410000CD0E18F51B1C068A16B0870A06B401C6B
:10142000A063E08F401EE0874FF00109FFF798FBB3
:10143000A0EB0800B04202D3701C01D010E07EB1D6
:10144000E08E0028CDD1E08F0028CAD14246314637
:10145000204600F05FFD28B101272020606507E0ED
:10146000032705E0A06818B92068C168806800906B
:10147000012084F85100002084F8500038462CE701
:1014800010B5401EB0F1807F01D3012010BD4FF098
:10149000E02460610F21601700F0A6FF0020A0612A
:1014A00007202061002010BD7047704770B590F88C
:1014B0003C20012A32D0012480F83C40022280F8EE
:1014C0003D2003685A689D6822F070060A6832431E
:1014D0005A60134B02689A4214D0B2F1804F11D077
:1014E000104B9A420ED0104B9A420BD00F4B9A429F
:1014F00008D00F4B9A4205D00E4B9A4202D00E4BA9
:101500009A4204D1496825F080031943916080F81C
:101510003D40002180F83C10084670BD022070BD9F
:10152000000001400004004000080040000C0040A2
:1015300000040140004001400018004010B50400C4
:1015400003D094F83D0010B107E0012010BD002049
:1015500084F83C00204600F01EF8022084F83D008C
:10156000211D206800F0C0FD012084F8460084F8A9
:101570003E0084F83F0084F8400084F8410084F87D
:10158000420084F8430084F8440084F8450084F85D
:101590003D00002010BD704790F83D10012901D09A
:1015A00001207047022180F83D100168CA6842F0AE
:1015B0000102CA6000681149884214D0B0F1804F1E
:1015C00011D00F4988420ED00E4988420BD00E49E7
:1015D000884208D00D49884205D00D49884202D082
:1015E0000C49884204D1816801F00701062903D023
:1015F000016841F0010101600020704700000140D6
:101600000004004000080040000C004000040140BD
:101610000040014000180040704770B50446006863
:1016200001694FF00005C943890715D4C168C94352
:10163000890711D4E91E01610120207720688069A3
:101640008007204602D0FFF7E7FF04E000F098F89B
:10165000204600F096F8257720680169C9434907BC
:1016600017D4C168C943490713D46FF0040101615D
:10167000022020772068806910F4407F204602D045
:10168000FFF7CAFF04E000F07BF8204600F079F88D
:10169000257720680169C943090716D4C168C94381
:1016A000090712D46FF00801016104202077206837
:1016B000C0698007204602D0FFF7AEFF04E000F0CB
:1016C0005FF8204600F05DF8257720680169C9437E
:1016D000C90617D4C168C943C90613D46FF01001F5
:1016E0000161082020772068C06910F4407F2046FF
:1016F00002D0FFF791FF04E000F042F8204600F02E
:1017000040F8257720680169C943C90708D1C16835
:10171000C943C90704D1891E0161204600F032F88F
:1017200020680169C943090609D4C168C94309068B
:1017300005D46FF0800101612046FFF7B5FE2068F7
:101740000169C943490609D4C168C943490605D49A
:101750006FF040010161204600F028F8206801691F
:10176000C94389060BD4C168C943890607D46FF001
:10177000200101612046BDE87040FFF796BE70BDB4
:10178000704770470649884202D101201FF06CBBA8
:101790000449884202D1044840680047704700006D
:1017A000280300207003002004000020704770B55B
:1017B000040004D094F83D00002510B106E001209B
:1017C00070BD84F83C50204600F022F8242084F8B4
:1017D0003D002068C16821F40051C160204600F03E
:1017E0005FFD2068016921F4904101612068416931
:1017F00021F02A0141612068C16841F40051C160B3
:101800002564202084F83D0084F83E00002070BD4F
:10181000704790F83E30202B0ED159B152B190F85C
:101820003C30012B08D0012380F83C3000230363B7
:1018300000F0BCBD0120704702207047FEE70000A9
:101840002DE9FE4F234C074600216088401E83B2DD
:101850002088401E82B2084600F0EEF9DFF878A03A
:101860004FF40021CAF818100421CAF818100020FB
:101870004FEA17288DF804008DF808000546642605
:10188000FFB2A1461CE0002415E000BF11488DF80E
:101890000480012302AA01A910300096FFF7FFFC83
:1018A0000C488DF80470012302AA01A9103000969B
:1018B000FFF7F5FC641CB9F80000A042E6D86D1CE7
:1018C000B9F80210A942DED80821CAF81810BDE8FC
:1018D000FE8F00007C020020000002402DE9F04154
:1018E000141A641CA7B25C1A641C1FFA84F8069EC2
:1018F00000F0A2F900250BE0002405E0308800F09C
:101900003DFA641CA4B2B61CBC42F7D36D1CADB248
:101910004545F1D3064841880088491EBDE8F0419D
:10192000401E8BB282B20021084600F085B900004B
:101930007C02002010B500F00DF900F069F9CF200D
:1019400000F0C4F9002000F0A5F9C12000F0A2F9D0
:10195000302000F09FF9ED2000F0B8F9642000F08D
:1019600099F9032000F096F9122000F093F98120F4
:1019700000F090F9E82000F0A9F9852000F08AF93C
:10198000002000F087F9782000F084F9CB2000F0E7
:101990009DF9392000F07EF92C2000F07BF9002021
:1019A00000F078F9342000F075F9022000F072F9A7
:1019B000F72000F08BF9202000F06CF9EA2000F00D
:1019C00085F9002000F066F9002000F063F9C020DE
:1019D00000F07CF9132000F05DF9C12000F076F9E9
:1019E000132000F057F9C52000F070F9222000F014
:1019F00051F9352000F04EF9C72000F067F9BD20FD
:101A000000F048F9212000F061F9362000F05EF97D
:101A1000082000F03FF9B62000F058F90A2000F045
:101A200039F9A22000F036F93A2000F04FF955209C
:101A300000F030F9F62000F049F9012000F02AF911
:101A4000302000F027F9B12000F040F9002000F02C
:101A500021F91B2000F01EF9F22000F037F90020D8
:101A600000F018F9262000F031F9012000F012F9F9
:101A7000E02000F02BF90F2000F00CF9352000F0E9
:101A800009F9312000F006F90B2000F003F90E20CF
:101A900000F000F9062000F0FDF8492000F0FAF807
:101AA000A72000F0F7F8332000F0F4F8072000F04A
:101AB000F1F80F2000F0EEF8032000F0EBF80C2016
:101AC00000F0E8F80A2000F0E5F8002000F0E2F865
:101AD000E12000F0FBF8002000F0DCF80A2000F024
:101AE000D9F80F2000F0D6F8042000F0D3F8112028
:101AF00000F0D0F8082000F0CDF8362000F0CAF849
:101B0000582000F0C7F84D2000F0C4F8072000F07E
:101B1000C1F8102000F0BEF80C2000F0BBF8322015
:101B200000F0B8F8342000F0B5F80F2000F0B2F85B
:101B3000112000F0CBF8782002F0BFFF292000F040
:101B4000C5F8002000F0EEF8BDE810404FF6FF7039
:101B5000FFF776BEF0B587B014216846FEF78AFB22
:101B600027480024016841F0010101600068254F09
:101B700000F00100059022461E213846FEF7EBFFDB
:101B800001251E20CDE900050226CDE90256694651
:101B90003846FEF7E3FE1A481430016841F48051DC
:101BA00001600068694600F480500590E020CDE9AE
:101BB00000060320CDE90250052004903846FEF7C8
:101BC000CDFE1248104901604FF48271C0E9011442
:101BD0004561C0E903466902C0E9061404620721B1
:101BE0004462C0E90A41FFF7FBFA08B1FEF744FD81
:101BF000012202213846FEF7AEFF07B0F0BD00001B
:101C00003038024000000240003001408C020020C9
:101C100070B5084C1025A561322002F04EFFE0009F
:101C2000A061642002F049FFA561BDE87040322048
:101C300002F043BF000002402DE9F041DFF8508080
:101C400007461C4615460E4698F80C0000F03EF874
:101C5000380A00F01FF8F8B200F01CF8280A00F06B
:101C600019F8E8B200F016F898F80E0000F02EF817
:101C7000300A00F00FF8F0B200F00CF8200A00F083
:101C800009F8E0B200F006F8BDE8F04100F03AB81B
:101C90007C0200203EB50B4C4FF40021A1610421D1
:101CA000A1618DF80800002164208DF804100090D7
:101CB000012301AA02A90448FFF7F1FA0820A06154
:101CC0003EBD0000000002408C0200203EB50B4CDF
:101CD0004FF40021A1614910A1618DF80800002195
:101CE00064208DF804100090012301AA02A9044881
:101CF000FFF7D5FA0820A0613EBD000000000240B9
:101D00008C0200200148007AFFF7E0BF7C0200202F
:101D100010B50C46FFF7DAFFE0B2BDE81040FFF760
:101D2000B9BF000014492A228A812B22CA812C22A1
:101D30000A812E224A8110F003038B714FF0F002CA
:101D40004FF4A0700BD0012B0DD0022B0FD0032B22
:101D500011D108804A80A8213620FFF7D9BF0A8018
:101D600048800821F8E708804A806821F4E70A8063
:101D70004880C821F0E770477C020020FEB5104D76
:101D800004464FF40020A8610420A861200A8DF8C1
:101D9000040000208DF808006426012302AA01A98E
:101DA00008480096FFF77BFA8DF80440012302AA49
:101DB00001A904480096FFF772FA0820A861FEBD49
:101DC000000002408C02002030B587B01421684624
:101DD000FEF750FA0D480024016841F0010101604E
:101DE00000680B4D00F001000590224602212846B4
:101DF000FEF7B1FE022000900120CDE90104694602
:101E000028460394FEF7AAFD07B030BD30380240E3
:101E1000000002403EB51A480024016841F010015C
:101E200001600068224600F0100002900221362076
:101E3000FEF704FF3620FEF7F3FE13480094114925
:101E400001940160114944F620620968B1FBF2F186
:101E5000491EC0E9011409218461C160FFF76EFBCE
:101E600008B1FEF709FC0094694607480194FFF7A2
:101E70001DFB08B1FEF700FC0348FFF78DFB3EBDDC
:101E80004038024000100040280300206800002075
:101E90003EB51A480024016841F020010160006845
:101EA000224600F02000029003213720FEF7C6FEF4
:101EB0003720FEF7B5FE13480094114901940160E4
:101EC000114944F620620968B1FBF2F1491EC0E9EC
:101ED000011463218461C160FFF730FB08B1FEF794
:101EE000CBFB0094694607480194FFF7DFFA08B17D
:101EF000FEF7C2FB0348FFF74FFB3EBD40380240F0
:101F0000001400407003002068000020FEE7FEE798
:101F10007047000038B504461248134B0068B0FB08
:101F2000F3F04FF47A73584300906068B0F5827F05
:101F30000DD10B46009200228021204600F016F8B9
:101F400070B1606D40F020006065032038BD0098DE
:101F500030B1401E009020688068C0430006F6D56E
:101F6000002038BD6800002000366E012DE9F843DE
:101F70001E46914688460446089DFEF7F1FD401B2B
:101F8000351AFEF7EDFD074625480068C0F3CB3053
:101F9000684338E0701C37D0FEF7E2FDC01BA84252
:101FA00003D215B1009860B32CE02068416821F09D
:101FB000E00141606068B0F5827F0BD1A068B0F5A8
:101FC000004F02D0B0F5806F04D12068016821F085
:101FD00040010160A06AB0F5005F09D12068016886
:101FE00021F4005101602068016841F40051016052
:101FF000012084F85100002084F850000320BDE83F
:10200000F8830025401E00902068816838EA0100AE
:1020100004D000214945BDD10020F0E70121F9E7B6
:10202000680000207047FEF7A1BD000030B593B0F6
:1020300030216846FEF71EF914210CA8FEF71AF9A4
:102040001D480025016841F080510160006800F0E2
:10205000805011901948016841F480410160006886
:10206000022400F48040119001200390102004907D
:10207000009406940820CDE90750A820CDE9090472
:1020800004200B906846FEF7F5FE08B172B6FEE735
:102090000CA90F2081E831004FF4A0500F904FF4AD
:1020A0008050109005210CA8FEF7FAFD002801D001
:1020B00072B6FEE713B030BD4038024000700040F9
:1020C0000248016841F470010160704788ED00E04A
:1020D0000148FFF7A2BA0000280300200148FFF7DB
:1020E0009CBA000070030020F0B50268254C264D14
:1020F000264E274F274B4FF0804CA04209D0604519
:1021000007D0A84205D0B04203D0B84201D09842CF
:1021100004D122F0700E4A6842EA0E02A0421BD09F
:10212000604519D0A84217D0B04215D0B84213D09C
:10213000984211D0184DA8420ED0184DA8420BD08D
:10214000174DA84208D0174DA84205D0164DA842F9
:1021500002D0164DA84203D122F44075CA682A4322
:102160004D6922F080022A4302608A68C2620A68CE
:102170008262A04201D0984201D109690163012124
:102180004161F0BD00000140000400400008004033
:10219000000C0040000401400040014000440140A8
:1021A0000048014000180040001C00400020004092
:1021B00010B5FEF763FA08B1012010BD03490248CB
:1021C0004860002010BD00009907000804000020AE
:1021D00070B52E4886B00025016841F0010101600C
:1021E000016801F001010591016841F00101016000
:1021F000006800F00100059024481430016841F0A7
:10220000100101600068072400F0100005904FF4F1
:102210000070009002200190012002900320CDE97F
:1022200003041B4E69463046FEF798FB30150090BC
:10223000694604943046FEF791FB002211462520A2
:10224000FEF7FCFC2520FEF7EBFC1348114C4FF485
:10225000E1320460C0E90125C5600C210561C0E9D7
:102260000515C561FFF7A3FA08B1FEF705FA206866
:1022700020F040002060206820F020002060012233
:1022800006490548FFF7C5FA06B070BD3038024070
:102290000000024000100140E40200200000002085
:1022A00070B5044600680169E26821F440511143A9
:1022B00001612169A068E26908436169114308432B
:1022C0002168CA6849F20C639A430243CA602068D5
:1022D0004169A26921F4407111434161314920688B
:1022E000884202D03049884202D1FEF783FD01E0E6
:1022F000FEF770FDE2690023192164253226B2F54C
:10230000004F626828D0A0FB0101930F9200FDF7F7
:1023100059FF0146B0FBF5F06FF01802504301EB96
:10232000800006EB0010B0FBF5F000F0F002B1FB0E
:10233000F5F002EB0012B1FBF5F06FF01803584313
:1023400001EB800006EB0010B0FBF5F000F00F0091
:1023500021681044886070BDA0FB010192185B41A8
:10236000FDF730FF0146B0FBF5F00201B1FBF5F0DF
:102370006FF01803584301EB800006EBC000B0FB80
:10238000F5F000F0F80002EB4002B1FBF5F0584325
:1023900001EB800006EBC000B0FBF5F000F0070099
:1023A000D6E70000001001400014014081628285E0
:1023B000C28500210164222280F83E2080F83C1072
:1023C000016921B10168CA6842F48072CA6001687B
:1023D0004A6942F001024A610068C16841F0200187
:1023E000C16000207047FEE70907090E002804DBE2
:1023F00000F1E02080F80014704700F00F0000F1B9
:10240000E02080F8141D704702E008C8121F08C1C0
:10241000002AFAD170477047002001E001C1121F65
:10242000002AFBD1704770B5044600256FF02F06D7
:1024300008E02068411C2160007805EB850106EB6F
:10244000410145182068007800F004F80028F0D118
:10245000284670BD3038092801D801207047002077
:102460007047000010B54421074800F08DFE00229F
:102470001E2106481EF052FD054CA06001F054FFDD
:102480000020207010BD000080180020DD430008EF
:10249000E40100202DE9F0470E468146174611461B
:1024A000304600F01CF94FF0FF3A00287DD00022A2
:1024B0003946304600F0BFF800284FF0000075D1D3
:1024C000B6F90480B6F900305246A8EB0301491C66
:1024D0000AFA81F10FFA81FAB6F906C0B6F90210CC
:1024E000ACEB010C0CF1010C02FA8CF2B7F802C053
:1024F00012B2ACEB010C0FFA8CFCBCF1000F0EDD3C
:1025000063F30F0468F30F0501EB0C0061F31F4444
:1025100060F31F45C9F800400120C9F80450B7F91D
:1025200006107388CB1AD21A12B2002A13DDB6F93C
:10253000063099420FDA338863F30F04B38861F3EE
:102540001F4463F30F05114461F31F4509EBC001FC
:10255000401C0C604D60B7F90220B6F902108A42A7
:1025600000DD1146B7F90630B6F90620934200DACD
:102570001A463B88B6F900C0521AA3EB0C031BB2F3
:1025800012B2002B10DD002A0EDD634463F30F0549
:102590008B1863F31F456CF30F0409EBC00361F361
:1025A0001F441C605D60401C01E01AE017E0B7F9B1
:1025B000043036889F1BAAEB070636B2002E0EDDCC
:1025C00063F30F0461F31F44334463F30F051144B5
:1025D00061F31F4509EBC001401C0C604D60BDE874
:1025E000F0875046FBE770B5B1F90030B2F9004012
:1025F000A34200DC23460380B1F90250B2F9024045
:10260000A54200DD2C464480B1F90460B2F90450C3
:10261000AE4200DA35468580B1F90610B2F90620DF
:10262000914200DB1146C1800120AB4201DC8C42AB
:1026300000DD002070BDF8B50D460446B0F900007D
:10264000B1F900101646884247DBB4F90210B5F91B
:102650000220914241DBB4F90410B5F90420914203
:102660003BDCB4F90610B5F90620914235DC96B38F
:10267000ADF800006088ADF8020032466946284691
:1026800000F099F8002827D0A088ADF800006088F5
:10269000ADF8020032466946284600F08CF8002862
:1026A0001AD02088ADF80000E088ADF8020032466C
:1026B0006946284600F07FF800280DD0A088ADF8C4
:1026C0000000E088ADF8020032466946284600F076
:1026D00072F8002800D00120F8BD0020F8BDB0F944
:1026E0000020B1F904309A4213DCB0F90420B1F9AA
:1026F00000309A420DDBB0F90220B1F906309A425F
:1027000007DCB0F90600B1F90210884201DB0120B4
:10271000704700207047F8B50D460446B0F9040034
:10272000B1F900101646884243DBB4F90600B5F94A
:10273000021088423DDBB4F90000B5F9041088426C
:1027400037DCB4F90210B5F90620914231DC76B3DA
:10275000ADF800006088ADF80200324669462846B0
:1027600000F029F818BBA088ADF800006088ADF82B
:10277000020032466946284600F01DF8B8B92088A4
:10278000ADF80000E088ADF8020032466946284600
:1027900000F011F858B9A088ADF80000E088ADF855
:1027A000020032466946284600F005F808B10020CC
:1027B000F8BD0120F8BD2DE9FC4114460E46B1F9E3
:1027C0000020B0F9001005468A423ADBB5F9040052
:1027D000824236DCB6F90270B5F90220974230DB4E
:1027E000B5F906309F422CDC002C75DD401A9A1A90
:1027F000401C521C00B212B200EBD07002EBD2723D
:1028000040105210904200DB1046844200DD044626
:10281000ADF80010288800222044ADF80400688834
:10282000ADF80200688831462044ADF806006846DD
:10283000FFF7C1FF40B1BDF804002044ADF804002B
:102840003FE00020BDE8FC81E8880022001BADF8D5
:102850000200E888ADF8060031466846FFF7ABFF96
:1028600028B1BDF804002044ADF8040011E0A888A8
:102870000022001BADF80000A888ADF80400314626
:102880006846FFF798FF50B1BDF80000001BADF897
:102890000000BDF80200001BADF8020016E06888D9
:1028A000ADF80200688800222044ADF806003146E9
:1028B0006846FFF780FF70B1BDF80000001BADF85F
:1028C0000000BDF806002044ADF806003146684619
:1028D0001BF09EFFB6E7FFE70120B3E710B5B1F9A3
:1028E0000040B2F900309C4200DA23460380B1F97F
:1028F0000240B2F902309C4200DA23464380B1F92B
:102900000440B2F904309C4200DD23468380B1F9D3
:102910000610B2F90620914200DC1146C18010BDBC
:10292000F8B507461EF096FA0025374C0646009586
:1029300037B1F868606038461EF0BEFB606802E0A0
:1029400011F06EF8606000691BF05EFE606840691F
:1029500008B11BF059FE6068C0691BF055FE606845
:10296000006A1BF051FE6068016991B11BF0FEFF27
:1029700020F08EFA1FF0B4FF6068B0F85011D9B3A0
:102980000068017CC9071DD0C0684068D0B100272D
:1029900013E0A0F85051F8BDC11991F8301151B9A8
:1029A00000F5AC7000F047FC616801EBC7010A6BF1
:1029B0000260496B41607F1CBFB26068B0F8501183
:1029C000B942E9D860684FF48071303017F0A0FA4E
:1029D0006068202100F5987017F09AFA6068A0F8F6
:1029E000505130461EF030FA009060680068436A2B
:1029F00013B122680099984717F008F900F032F8EF
:102A0000BDE8F84000F002B8A400002070B50A4DFF
:102A1000002400BFC4EBC40655F8260008B117F027
:102A200069F905EB86001C2117F072FA641CE4B208
:102A3000042CEFD370BD00005C19002008494968E0
:102A40000AE04A68824202D00A68824203D10A7EC2
:102A500042F001020A7649690029F2D1704700006C
:102A600078000020704700000421014800F08CBB72
:102A7000741800202021014800F086BB8C1800202B
:102A80002DE9FF410446DDE90A671D004FF0000013
:102A900002D1B6F5807F2BD0039001900290ADF863
:102AA0000C100090ADF80410ADF80A20ADF80E201F
:102AB0003B463246294668461BF00AFE3B463246F4
:102AC000294601A81BF004FE3B463246294602A8CF
:102AD0001BF0FEFD3B463246294603A81BF0F8FDDD
:102AE000BDF90000BDF90430984209DA054608E056
:102AF0002080491E6080A180521EE280BDE8FF81D7
:102B00001D46BDF90820BDF90C108A4201DA1646AF
:102B100000E00E46B54203DA984206DB184604E0B0
:102B20008A4201DA104600E00846801E2080BDF986
:102B30000030BDF90420934201DD1D4600E015463A
:102B4000BDF90800BDF90C10884201DD064600E021
:102B50000E46B54205DD934201DD194604E01146FB
:102B600002E0884200DD0146891CA180BDF90230E7
:102B7000BDF90620934201DA1D4600E01546BDF975
:102B80000A00BDF90E10884201DA064600E00E4642
:102B9000B54205DA934201DA194604E0114602E033
:102BA000884200DA0146891E6180BDF90230BDF914
:102BB0000620934201DD1D4600E01546BDF90A00DE
:102BC000BDF90E10884201DD064600E00E46B54212
:102BD00005DD934201DD194604E0114602E088421A
:102BE00000DD0146891CE18088E700002DE9F04105
:102BF00015460E460746114C1EF02CF980462B4612
:102C000032463946204615F0F3F820B10020A06284
:102C1000E06950B110E02C21204617F079F94FF00F
:102C20000040A0620020BDE8F08140461EF00CF993
:102C3000E06108B90120E0612046F4E7B018002007
:102C400010B51421074800F09FFA15F097F840B12D
:102C50000549016005494160054981600549C16038
:102C600010BDFEE79818002051770108CD7A0108C1
:102C70009D7C01081D77010870B50D4604461021A2
:102C8000284617F045F920680078012804D002286A
:102C900007D0042807D008E0A08A2880E08A68804E
:102CA00003E0E06800E00A20686020684268002ACB
:102CB00003D02946BDE87040104770BD2DE9FE43A2
:102CC0000446808A10B9E08A002874D0D4F82C8099
:102CD0005FEA080010D120460AF081FB5FEA000895
:102CE00069D020460CF008FF00220921404613F06D
:102CF00079FF607880075ED44FF4807900274E46D4
:102D000045460021284619F063FD384407B20021EA
:102D1000284619F07BFDC11700EB1160001210FB73
:102D200006F006B2284618F04FFD0500E9D10FB9AC
:102D30004E450CD0784201B24FF4803090FBF6F053
:102D400002B26B4604F1140000951BF0C1FCADF813
:102D50000450ADF8085094F8400000F00F0003282C
:102D6000404616D018F082FE0646404618F038FD60
:102D700003460C200090B4F916103246404609F084
:102D8000E7FEADF80800404618F07CFDC10713D0FF
:102D900018E018F0FFFD0646404618F09BFD02467D
:102DA00003200090B4F914103346404609F0D0FED9
:102DB000ADF80400E7E736E0BDF90410002901DDB5
:102DC000ADF80450810705D4BDF90410002901DADB
:102DD000ADF80450410705D4BDF90810002901DD04
:102DE000ADF80850000705D4BDF90800002801DA45
:102DF000ADF8085002AA01A9204620F07FFBBDF9DA
:102E00000820BDF90410404600F08AFA6078800777
:102E100009D4208BBDF8041008442083608BBDF8D2
:102E2000081008446083BDE8FE832DE9FC5F04467A
:102E3000C06A5FEA000B71D094F8400000076DD0C3
:102E400015F068FA019000684021457E584619F057
:102E500009FE4FF0000818B9A4F81E80A4F81C80E1
:102E6000584618F0F5FD8246584618F0F8FD06461B
:102E700094F840004FF0640900F00F000C2802D0D5
:102E800003284CD09AE0A4F81C8056B1B4F91E5027
:102E9000002715F03FFA00684946407EC0F1640003
:102EA00022E0E08BC5F1640110FB01F191FBF9F028
:102EB000E083584618F094FC0546584618F0D6FDB5
:102EC00002460C200090B4F91E102B46584609F01B
:102ED0003FFEE083024600231EE07A1917B210FB82
:102EE00005F292FBF1F215B2002DF6D1ADF80070AB
:102EF000A4F81E806A460021204620F0FFFA41F621
:102F0000FF72BDF90030514258460AF0FFFBBDF890
:102F100000100123084402B200214CE09AE0A4F81A
:102F20001E80BAF1000F0AD0B4F91C50002715F02A
:102F3000F1F900684946407EC0F1640022E0A08BB0
:102F4000C5F1640110FB01F191FBF9F0A083584633
:102F500018F0C0FC0546584618F01CFD0346032037
:102F60000090B4F91C102A46584609F0F1FDA083E0
:102F7000014600231EE07A1917B210FB05F292FBFE
:102F8000F1F215B2002DF6D1ADF80070A4F81C8056
:102F900000226946204620F0B1FA41F6FF72BDF9E1
:102FA0000030514258460AF029FBBDF800100123B9
:102FB000084401B2002258461AF090FEA08B002867
:102FC00048D1E08B002845D1C6B9584618F04EFDCF
:102FD0000546584618F004FC002D06DC00280DDDDF
:102FE000002D02DA01232A4604E0002806DA012334
:102FF000404202B2002158461AF070FEBAF1000FAA
:1030000019D1584618F066FC0546584618F0C2FC1F
:10301000002D07DC00280EDD002D03DA012300223D
:10302000294605E0002806DA01230022404201B2C9
:1030300058461AF053FE0A215846019A13F0D2FD61
:103040006078800706D414F8400F20F00F0020703D
:1030500044F8148CBDE8FC9F7FB50E46040003D1F4
:1030600010F0DEFC04002CD010F04EFD002828D01B
:1030700094F82800400724D4002506B3ADF800508A
:10308000ADF80250204610F0E3FC401EADF80400FD
:10309000204610F023FD401EADF806006A4631467A
:1030A00002A8FFF7A0FA00280BD02068017C89074E
:1030B00008D5DDE90001C4E90C01012029E0A4F8EC
:1030C00050517FBD82690AB102A9904700260AE0EB
:1030D00004EBC601002202A83031FFF7ACFA002849
:1030E000EFD1761CB6B2B4F85001B042F0D880B23D
:1030F000202804D204EBC00002A9303004E0A4F878
:10310000505104F1300069460EF02BFAB4F850012A
:10311000401CA4F8500160680028D2D01DF0D8FFF0
:103120007FBD70B5054600F012F804460CE021465C
:10313000284600F01EF806462146284600F0A2F870
:10314000204616F0D7FD3446002CF0D170BD002883
:1031500000D04068704700B503460022FFF7F7FF34
:1031600003E01846521C00F004F80100F9D11046A3
:1031700000BD0068091D40587047006840587047FE
:10318000002800D08068704700224260C91C21F0EE
:10319000030182600160704770B504460068083022
:1031A00016F01CFD050013D00146002220461EF03B
:1031B00099FF2946204662681EF08EFF616819B1AA
:1031C0002A4620461EF08EFF6560A06800B9A56003
:1031D000284670BD2DE9F0410C4606000AD04CB1DE
:1031E000FFF7B5FFA04208D13046FFF7D5FF051E17
:1031F00001D01EE00020BDE8F0813068083016F0F4
:10320000EDFC051EF7D030682A460759304639468E
:103210001EF062FF3A46294630461EF063FF2A46FA
:10322000214630461EF05EFF2246294630461EF0FB
:1032300053FF2846DFE770B504460068083016F0F3
:10324000CDFC050013D00146002220461EF044FFAD
:1032500029462046A2681EF045FFA16819B12A46FA
:1032600020461EF039FFA560606800B965602846F9
:1032700070BD28B1416809B9806808B10020704765
:103280000120704770B504000DD0FFF760FF0022E9
:103290008842204608D1FFF76CFF6060011E01D014
:1032A00000221EE0A26070BDFFF76AFF884220681E
:1032B00008440AD10168A16029B12046BDE87040E8
:1032C00000221EF009BF626070BD05682046FFF74E
:1032D00050FF06460246294620461EF0FDFE2A46BD
:1032E00031462046BDE870401EF0FCBE10B50446D5
:1032F000006882680AB1214690472068006800286B
:1033000001D02060F5E710BD8068002801D0B0F939
:10331000160070478068002801D0807E80097047C1
:1033200070B5164605460C4651EA06001AD02846E6
:1033300017F054FBA86801233246018A2144018218
:10334000A868418A314441822146284619F01EFF6F
:1033500000220B21284613F045FC012803D1284602
:1033600019F06EFE012070BD77B581B00E460500E4
:1033700017D0622219F05AF9040012D0206880B1E7
:1033800028463146632219F051F910F0FF0208D0A7
:1033900023682046039998470090BDF80000ADF8D7
:1033A0000C00039804B070BD2DE9F047074692B0B9
:1033B000408C1A9E40F00800788490463A849946E2
:1033C0008A463289384619F031F90546A7F8209027
:1033D00032895146384619F029F90446788CA542BD
:1033E00020F00800788403D12904B1EB044F68D0A1
:1033F000A7F8208032895146384619F017F905465A
:103400008046A7F82090514638460BF0D1FB318911
:1034100000682A461CF026FC30890B2823D147F689
:10342000FF794D4501D04C451DD1384619F0D1FAF0
:1034300000EBD0704510384618F085F900EBD070DD
:103440004010C84506D1691C431C994200DA00E0CF
:10345000194688464C4506D1691C421C914201DA46
:103460006C1C00E014461948FFF796FE05002BD0AF
:103470002F60C5E903843089A8806846C5F808A094
:103480000DF0E2FA1248FF21CDE9005011480290F8
:103490001148039000200890CDE9090130880B9075
:1034A00070889DF8421040420C90F0680790002010
:1034B00060F300018DF842103069069068460DF007
:1034C00037FB12B0BDE8F087FEE70000A41800202B
:1034D000BD5E0208A56002080160020814210148CF
:1034E000FFF752BEA41800202DE9F84F00259046A2
:1034F000894606462C460427E6E000BFF06807EB45
:10350000C401405881017CD480B230EA090112D054
:103510005FF0000230EA08000FD00020824270D035
:10352000F0686A46102150F8340082461CF0FCF81E
:10353000002871D103E00122ECE70120EEE76A46A2
:10354000112150461CF0F0F8002865D16A4612217E
:1035500050461CF0E9F800285ED16A461321504617
:103560001CF0E2F8002857D16A46152150461CF09D
:10357000DBF8002850D16A46142150461CF0D4F8DC
:10358000F0BB6A460A2150461CF0CEF8C0BB6A4622
:103590006B2150461CF0C8F890BB6A466C2150461F
:1035A0001CF0C2F860BB6A46012150461CF0BCF812
:1035B00030BB6A46042150461CF0B6F800BB6A4690
:1035C000022150461CF0B0F8D0B96A46032150469B
:1035D0001CF0AAF8A0B96A46052150461CF0A4F8D0
:1035E00070B96A46062150461CF09EF840B96A46FA
:1035F000322150461CF098F810B96A466E2101E05D
:103600000AE060E050461CF08FF828B96A466D2148
:1036100050461CF089F810B10320BDE8F88F6A46C7
:10362000692150461CF080F8F0BB6A466A2150467A
:103630001CF07AF8C0BB6A466E2150461CF074F844
:1036400090BB6A466D2150461CF06EF860BB6A461E
:10365000372150461CF068F830BB6A463821504686
:103660001CF062F800BB6A46352150461CF05CF83D
:10367000D0B96A46402150461CF056F8A0B96A46B7
:10368000452150461CF050F870B96A464121504619
:103690001CF04AF840B96A46422150461CF044F8F2
:1036A00010B96A46432100E009E050461CF03CF89E
:1036B00028B96A46492150461CF036F808B102255F
:1036C00001E005B90125641C708CC0F30510A0420F
:1036D0003FF614AF2846A0E7014840687047000055
:1036E000A40000207047C0F30410072800D9072069
:1036F00070470000A0F57F41FF3905D0002804D0B5
:10370000712803D208490AE01F2070470749713821
:1037100080B2096829B1064A5268904201D2085C19
:10372000704700207047000034A6020810020020F5
:103730002402002010B518210348FFF725FD034996
:103740000120087010BD0000501800202C0200203D
:103750002DE9F04190460C46050015D0FCF795FD8B
:103760000A4F06462146BA68284690470446BA687A
:103770002819414690470146701A03E06218AA5C76
:103780002A55641CA042F9D2BDE8F0814002002015
:103790002DE9F041094D90460E466A681C460746E1
:1037A00019469047306020B120686A68384400218B
:1037B0009047C8F80000BDE8F081000040020020FA
:1037C0002DE9F04F87B08A46DDE910581F46934631
:1037D0000446002105B129805CB12078002809D079
:1037E000BAF1000F05D0002618F0060F15D0002002
:1037F00004E0002007B0BDE8F08F401C215C0A29DE
:1038000004D00D2902D00029F7D100E0401C002D82
:10381000F0D04FF0FF312980ECE75FEA887001D5E6
:1038200041F6FF77894608468DF81410049127E089
:103830000498CDF8189068B34FF0000C05AA06ABB9
:10384000CDF80CC0CDF80080CDE9013220443B46D4
:103850005A4651461DF07EFD06997A1A314417B238
:103860000EB288B104990144049120780A280BD043
:103870000D2809D0605C0A280FD00D280DD008460D
:10388000205C08B1002FD3DC049848B105B12E802C
:103890000498AFE74FF0010CD0E7481C0490F3E721
:1038A000064A04A9204652689047002DF0D00146F0
:1038B0000022504613F0AAFA06B2E8E740020020C0
:1038C0002DE9F0411746884606001ED0002F1CD077
:1038D000FCF7DBFC04463846FCF7D7FC050014D0A7
:1038E0000B4A2C444146926830469047411903E008
:1038F000621BB25C3255641EA142F9D930442A469B
:103900003946BDE8F04116F0C5BABDE8F0810000C7
:103910004002002000230278232902D0012A0DD082
:103920000FE02AB10021012A04D0022A04D008E0C5
:10393000012101E0017004E0017001E0202902D0C2
:103940000123184670470221F6E72DE9F0410E46A3
:10395000804602460021334608461DF039FF0446E2
:103960000027401C16F03AF9050008D02F553346C1
:103970004246611C1DF02CFF2846BDE8F081FEE7A1
:103980002DE9F0471E4614460D468246DDF820908C
:1039900015E000BF4FEA540808FB06573946504669
:1039A0004A469047002808DD44F30000C0EB540469
:1039B00007EB0605A4F1010401E005DA4446002CFA
:1039C000E8D12046BDE8F0873846FBE72DE9FC5FEB
:1039D0009B460CAB8A468146DDE9116093E81210E4
:1039E000DDE90F575FEA80784FF030031AD45EB1FB
:1039F0005FEAC07808D000F00C0858EA0C0803D041
:103A0000761E01E00B55641CBC4204D2202CF9D375
:103A100001E00B55641C5FEAC07803D0B44201D2C8
:103A2000202CF6D35FEAC06825D55FEA40580AD457
:103A30004CB1BC4201D0B44205D1641E03D0102D5C
:103A400003D1641E04E0102D02D0022D0AD00EE036
:103A5000850603D4202C1ED2782506E0202C1AD20D
:103A6000582502E0202C16D262250D55641C202C0E
:103A700011D20B55641C202C0DD2BCF1000F01D0CB
:103A80002D2306E0430701D52B2302E0030702D5CF
:103A900020230B55641CCDE900BAC8461546814663
:103AA0008B46AA46800714D1274607E02A46DDE95F
:103AB00000316D1C2020C446E0477F1CB742F5D37F
:103AC00007E02A466D1C641EDDE900311BF8040086
:103AD000C047002CF5D15FEA897006D409E02A4678
:103AE000DDE900316D1C2020C047A5EB0A00B04283
:103AF000F5D32846BDE8FC9F2DE9F04F8FB09946DD
:103B00008B46DDE91818DDE91C63DDE91A479246AA
:103B10008646002209B923F01003580507AD00D5E9
:103B2000C9B1B1FBF4F004FB1010C0B20A2801D2F5
:103B3000303009E05FEA836C02D54FF0410C01E0C0
:103B40004FF0610C60440A38B1FBF4F1A854521CE8
:103B500009B1202AE5D3CDF80880CDE90563CDE988
:103B60000052CDE903474B46524659467046FFF78F
:103B70002DFF0FB0BDE8F08F2DE9FF4F8FB01CACCB
:103B8000DDE9239594E8030820AC94E8C004002400
:103B900050EA010201D125F010056A050DF11C085B
:103BA00002D550EA010217D032463B46FCF70AFB29
:103BB000D2B20A2A01D2303206E0AB0601D5412347
:103BC00000E061231A440A3A08F80420641C50EA11
:103BD000010201D0202CE7D3CDE90084CDF808B054
:103BE000CDE90595CDE9036A0FAF97E80F00FFF720
:103BF000EDFE13B0BDE8F08F9A4200D288547047B2
:103C0000704700002DE9FF4F89B005460A9800244F
:103C10009246002800D1FE4D8FE1252804D022468F
:103C2000641C53460A990BE2491C4FF000080846F1
:103C30000C9101782B2919D004DC202919D02329D3
:103C400004D119E02D290ED0302909D00026C8B2A0
:103C5000FEF700FCB0B10CA8FEF7E5FB06461FE03E
:103C600048F001010AE048F0020107E048F00401D1
:103C700004E048F0080101E048F01001401C8846CB
:103C80000C90D6E70C9908782A2809D1169840C8D4
:103C90001690002E02DA48F002087642491C0C9178
:103CA0000C984FF0000B01782E2919D1401C0C9074
:103CB00048F480680078FEF7CDFB20B10CA8FEF731
:103CC000B2FB83460CE00C9A10782A2808D116988B
:103CD00002C81690002900DC0021521C8B460C9271
:103CE0000C9801786C290AD004DC68290FD06A2965
:103CF00019D128E0742929D07A2914D126E0401C52
:103D00000C90017848F480786C291CD00BE0401CA2
:103D10000C90017848F08008682904D148F04001EF
:103D2000401C88460C9002460078692822D015DC99
:103D300062281FD00DDC252871D050281AD05828B1
:103D40007FF46DAF16E048F40071E9E748F4807144
:103D5000E6E7632878D06428F2D10BE0732874D0AA
:103D600004DC6F2806D07028EAD103E0752801D062
:103D70007828E5D178280DD058280BD070280BD0A2
:103D8000502809D06F2816D0622816D00A2128F0B2
:103D9000100016E0102107E05078102148F48878D0
:103DA000562804D1521C0C921078582807D010784D
:103DB000502804D006E0082109E0022107E048F07D
:103DC000200080461078692803D0642801D028F0AC
:103DD0000C085FEA485001D528F0010810786928DE
:103DE0001ED064281CD0562864D05FEA885072D553
:103DF000169804ABC01D002283E806080292CDE9A4
:103E0000076820F007005346F0E80212CDE90012DF
:103E10001690224628460A99FFF7AEFE89E00AE18D
:103E20005FEA885024D5169804AFC01D20F0070320
:103E3000F3E802021693002387E80A08CDE9076831
:103E4000002A03DA012102E080E0A6E0002100233D
:103E5000029119461B1A914101DA114603E0002133
:103E6000404261EB020153462246CDE90001D1E711
:103E70005FEAC85004D5169804C80FE0524215E016
:103E80005FEA486003D5169810F8042B06E05FEA55
:103E90000860F0D5169830F8042B12B21690CDE9D0
:103EA000021BCDE90468D00F002AE7DDCDE9002030
:103EB00053461EE01698AAEB040202C81690486802
:103EC000006800900A980B6801192846FFF79AFECF
:103ED00004442FE0FFE75FEAC8500CD5CDE9021B90
:103EE000CDE9046816980021534604C8CDE90021A5
:103EF0001690224619E05FEA486003D5169810F83C
:103F0000042B08E05FEA0860169803D530F8042B0C
:103F100092B200E004C816900020CDE90020CDE95F
:103F2000021BCDE904685346224628460A99FFF74A
:103F3000E3FD04460C98401C0C900C99087800286E
:103F40007FF46BAE54457DD222467DE001275FEAC7
:103F5000887006D509E02246641C534620200A9941
:103F6000A84738467F1CB042F5D316992246641CF8
:103F700011F8040B169153460A99A8475FEA887016
:103F800006D4D7E72246641C534620200A99A84746
:103F900038467F1CB042F5D3CCE7169850F8049B06
:103FA00016904B46BBF1000001D0014601E04FF0F6
:103FB000FF31484600E0401C02780AB1491EFAD29F
:103FC000C71A5FEA485003D558465F4500D30746F5
:103FD0005FEA887006D512E02246641C5346202012
:103FE0000A99A84738467F1CB042F5D307E000BFC6
:103FF000224609F10109641C53460A99A84799F819
:10400000000040B15FEA4851F2D5BBF1010B01E07D
:10401000013C0008ECD25FEA887006D48AE72246A9
:10402000641C534620200A99A84738467F1CB0429A
:10403000F5D37FE706E02246641C534625200A9903
:10404000A84777E7AAF10102534600200A99A8473A
:104050000DB02046BDE8F08F10B502004FF0000013
:104060000CD04B1E194200D0FEE70A44521E9A4360
:10407000B2F5803F02D20C2A01D9104610BD0C20A7
:1040800010BD08444A1E401E9043114200D0FEE776
:10409000704700002DE9F0410F460121002504463C
:1040A00041862E460BE01B49FCF7F6F810B16D1C5B
:1040B000ADB202E0608E401C6086761CB6B257F846
:1040C000260010B101780029EDD1208EA8421ED023
:1040D000A06A002610B115F00DFEA662E06A10B1CC
:1040E00015F008FEE662E80015F078FDA06238B130
:1040F000680015F073FDE06218B1A16A11B102E029
:10410000FEE7FEE70025690015F002FF2586BDE801
:10411000F0810000701F01082DE9F84F8146407AB8
:104120000F4600F00700022819D01046804697423B
:1041300000DD3A46164603202A4C2B4A00EB460087
:1041400020F00305A06811681035411A636805EB7B
:10415000010C9C4505D2416821F0004124E008464D
:10416000E4E79D4219D892464FF0FF3B4819616839
:10417000884210D9002269461C48CDF800B00CF0E6
:1041800095F8002269461A480CF090F8A168DAF810
:104190000000091AEAE7A068DDE7284615F01EFDD1
:1041A000C0B1416841F0004188EA6702416089EA94
:1041B00002010160416801F04041491C31F0804139
:1041C00041608681A0F80E8005D500F11001816064
:1041D000BDE8F88FFEE7A16801F110022944826072
:1041E000A160F5E7AC0000200C020020CDD3000850
:1041F0006903010870B586B000224A4C8DF808208A
:104200008DF80C208DF81020E2888A4201D0FF2220
:10421000A270E18090F83C20142302F003024FF4D6
:10422000B475012A24D0022A5ED0A578AA4211D002
:1042300010F8265F05EB051505EB4505B5FBF3F515
:104240002570407800EB001000EB4000B0FBF3F06D
:104250006070A27004AA03A8CDE9000201EB41003E
:104260004FF6FF7101EA400002AB627821781BE053
:10427000A678B24210D0868C06EB46067602B6FBD4
:10428000F5F5A58090F8270000EB001000EB40004A
:10429000B0FBF3F06070A27004AA03A8CDE900029D
:1042A000C9B202AB62783AE008F0A3FD9DF81010A5
:1042B0009DF80C00CB08BDF800109DF8082063F3B2
:1042C0000401ADF800108108BDF8000061F34A1048
:1042D000D10880B261F3CF20ADF8000080B2009029
:1042E000BDF8000006B070BDA678B24210D0868C32
:1042F00006EB46067602B6FBF5F5A58090F826009B
:1043000000EB001000EB4000B0FBF3F02070A27057
:1043100004AA03A8CDE90002CAB2217802ABA088A2
:10432000C2E700005801002010B5084C01202070A1
:104330000748FEF70CFF0028A06803D0BDE8104036
:104340001CF0C6BEBDE810401CF0B6BEE401002063
:104350008018002010B5044690F84200A16B820737
:1043600009D4B4F840204AB1A2F57F43FF3B1BD0EB
:10437000521EA4F84020B4F84020AAB909B182071F
:1043800012D521461448FEF77DFFFFF7CDFFE16807
:1043900009B120468847216909B12046884720464F
:1043A000BDE8104015F0A6BCE26B52422263002922
:1043B00011D0820702D4626B524222634210521C17
:1043C00062F3410084F84200A26A206A2262A0627D
:1043D000E06AE162A06310BD8018002070B5304D26
:1043E00068681CF031FD0646687880F0010068704E
:1043F00047E00020287094F842006978C0F38002FA
:104400008A4242D061F3820084F84200216B8A190B
:10441000030719D4002917DC002A15DBC00709D1CE
:10442000616939B120468847216A01442162A16A45
:104430000844A062A16809B12046884794F8420068
:1044400040F0080084F84200206B8019206316D4E5
:10445000E16A884200DD2163E16920468847014620
:10446000606A884204D0616262680AB1206890473D
:10447000D4E90B01814202DB2046FFF76BFF28786D
:1044800018B10848FEF763FE03E021460548FEF731
:1044900070FE0400ADD11CF0DDFC686070BD000052
:1044A000E40100208018002070B5044640680D46E5
:1044B00008B1FFF7F9FF2268002A04D029462046F8
:1044C000BDE87040104770BD89B20CF0AFBF89B233
:1044D0000CF0E8BF2DE9FF4F99B09846DDE926B111
:1044E0002D9816468A464FF00009042811D0052859
:1044F00011D0062812D0142870D1012702250024DB
:1045000018FB06F00E901A98401E0D90701E069033
:1045100051E10027F2E701270325F0E701270225F3
:10452000FFF7DAF80068D0F83890E8E72898604399
:104530000BEB2022299860430AEB202110124FEA4E
:10454000212E7DD41A9B98427ADABEF1000F77DBD8
:10455000B64575DAD2B2CBB2802A05DAC2F17F0253
:104560004FF0FF31520003E001215200A2F58072AA
:104570000992802B05DAC3F17F034FF0FF325B0015
:1045800003E001225B00A3F580730A930EFB080C85
:10459000199B0CFB053307934318119372D4DDF874
:1045A00034C063456EDC1EEB02036BD4DDF818C02B
:1045B000634567DCDDF81CC011FB05C1CDE915C101
:1045C00012FB08F101FB05C10C91D7B32D99052908
:1045D00005D014290BD0062955D066E0EFE01598D8
:1045E000807807900C9881781698807810E0199A56
:1045F0000E990EFB08FC02EB41010A180EFB081194
:104600001CF802000790119803FB08F3085C995C02
:10461000079A91420AD00A9A11FB02F20A99C1F54F
:104620008073079911FB0321C1F30721079A904278
:104630000DD0099A10FB02F20998C0F5807301E0D1
:104640002FE035E0079810FB0320C0F30720084453
:104650002C994008085527D015980178407801EB2F
:104660000020ADF80C000C980178407801EB002098
:10467000ADF8100016980178407801EB0020ADF8F5
:10468000080023E04CE0159801881FFA89F0814268
:1046900007D00C990988814203D016990988814274
:1046A00003D12C990020085583E0FF210846CEE76E
:1046B00015980088ADF80C0016980088ADF8080031
:1046C0000888ADF810002C98FF210155BDF80C00AA
:1046D000BDF81010884209D1BDF80810884205D1F4
:1046E0002B98BDF80C1000EB440017E00A98C2B2FA
:1046F000DDE903100EF066FD04900998C2B2DDE911
:1047000002010EF05FFD7F22029004990EF05AFD27
:1047100000902B98BDF8001000EB4400018048E0A9
:10472000079B93F800C05B780CEB0323DDF8ACC06B
:104730009BB22CF81430DDF8B4C0BCF1050F06D0E4
:10474000BCF1060F06D0BCF1140F09D10AE0079B9B
:104750009B780FE01FFA89FC634501D1002309E033
:10476000FF2307E0199B0EFB083C0E9B00EB430365
:104770001CF8033008B9002905DBDDF834C06045BA
:1047800003D1002901DD09980AE0BEF1000F01D133
:10479000002A04DB06998E4508D1002A06DD0A9816
:1047A000C0F1FF0010FB03F0010A00E000212C988B
:1047B0000155641C24B22A988442FFF6B7AE1DB09E
:1047C000BDE8F08F10B5818F92B00446A9B168465C
:1047D0000CF03AF90B480121CDE90040A08F0B9075
:1047E00000200890CDE90901074807900748039089
:1047F00068460CF09DF912B010BD12B0BDE8104033
:104800001DF0BCBDF5230208070B0108F7230208C1
:1048100010B50446406882080AD0496821F00301B7
:10482000091D08446060204600F042F8204610BD93
:10483000FEE74068103120F00300884201D30120D8
:104840007047002070472DE9FC47054648680C4634
:1048500020F0030001AA69461DF0E6FADDE90070C8
:1048600005EBC71101EB80098046D9F83C0060B127
:1048700064B1C4E9020504F10806C46030460421AD
:10488000FFF7FFFB864202D0FEE7FEE7FEE7C9F82E
:104890003C400120296900FA07F21143296105EB28
:1048A000870100FA08F04A6902434A61BDE8FC87C3
:1048B00010B5044600F087F8046010BD2DE9FC47F0
:1048C00006464FF000000D0000900746019042D0D0
:1048D0000C46E9460DF10408802907D3084621F06B
:1048E000C1FA411F01208840401E04444246494607
:1048F00020461DF099FA009C0A2C2CDA06EB840065
:10490000019A40694FF0FF3101FA02F210400CD1D8
:10491000641C3069A14008401DD021F09BFA044678
:10492000009006EB8000406978B121F093FA0346CD
:1049300006EBC411019001EB8000C76B5FB1786892
:1049400020F00300A84201D2FEE7FEE739463046D8
:10495000009A1EF0EBFB3846BDE8FC8710B5044614
:10496000FFF7A6FF416841F002014160606840F036
:104970000100606010BD10B5044600F024F84168E5
:1049800021F002014160606820F00100606010BD0C
:1049900070B506460D46084600F015F8040010D024
:1049A0002079C0070BD0686880080BD021463046BC
:1049B00000F03CF821462846FFF72AFF0546284626
:1049C00070BDFEE7FEE7426800F1080122F0030037
:1049D000001F0844910800D1FEE7704770B50646F5
:1049E0000C004FF000001ED0F2B120791546C00730
:1049F0001BD011462046FFF71CFF78B12946204600
:104A000000F025F805462046FFF752FF6868294662
:104A100040F0020068603046FFF715FF2046FFF7C0
:104A2000AAFF04F1080070BDFEE7FEE77CB505466D
:104A300048680C4620F0030001AA69461DF0F4F90D
:104A4000DDE90023214628461EF070FB7CBD2DE9E0
:104A5000F0410D46044600F10801281F0E18606859
:104A600006F1080720F00300401BA0F104083846B7
:104A70000421FFF706FB874200D0FEE7606820F0C4
:104A8000030108EB0500001D814200D0FEE73079EC
:104A900000F0030040EA0800706020F003000C28DA
:104AA00000D2FEE7207900F0030028436060304622
:104AB000FFF754FF3046BDE8F0814FF47A71484368
:104AC000AFF3008030B5074A5368074C074D00210B
:104AD0002468B4FBF5F4444301E05068C11AA142D4
:104AE000FBD330BD001000E06800002040420F0002
:104AF0000648016841F0807101600548002141606D
:104B0000016841F00101016070470000FCED00E028
:104B1000001000E038B5044613F0FCFB054613F026
:104B20002EFC0028204605D0218FE18618F088FA57
:104B3000012038BD11F014FE002820461ED011F0CF
:104B4000DBFC218FE08E81420CD02087E08E00902C
:104B50006A461C21204612F045F80128E9D120467A
:104B600018F06EFA284613F016FC0428E0D120460F
:104B700016F0E4FD002112F042FDD9E711F04CFEE1
:104B8000D6E770B512F02AF8054616F01DFE044669
:104B900028460DF0B5FA01462046BDE870400022D7
:104BA0001BF03CBC2DE9F04F0D4687B004460021B8
:104BB00016F0F8FC60B32946204600F061FA294659
:104BC000204600F06FF80021204617F01BFC0590EE
:104BD0000021204617F0CAFC04900021204617F05F
:104BE000DCFA012800D0002080460021204617F082
:104BF0001FFE07460021204617F04AFB42F2D179FA
:104C000006464F450BD1608C000508D4012707E00C
:104C100007B02846BDE8F04F1C2115F079B90027F0
:104C2000204616F03DFDDFF878A08346204600219F
:104C3000BAF8042017F0FAFCD5F810C0AB68296860
:104C4000CDF800C0CDF80C80CDE90131C2B23946B3
:104C50005846059B0AF01EF828834E4504D1608C07
:104C6000400501D4012600E00026204616F0FEFC97
:104C7000074620460021BAF8082017F0D7FCC2B238
:104C8000686900246B68E9688DE81B003146384686
:104C9000049B09F0FFFF688307B0BDE8F08F0000B8
:104CA000CC0000202DE9F34F81B00C46019809F0AB
:104CB00075FA0646019816F0F3FC8246304600F07D
:104CC000E3FF2061400014F0B7FF2060206940003E
:104CD00014F0B2FF002541F69A79A0603AE036F967
:104CE0001510DFF82081494533D10027DFF818B1CE
:104CF0001FE03946019816F055FC5946009017F010
:104D0000B8FEA8B9009809F05BFA012810D1009804
:104D100009F04CFAA8420BD1009817F05AFE414610
:104D2000404501DA084602E0009817F052FE80463E
:104D30007F1C019816F048FCB842DAD8B8F1000F91
:104D400003DBA16821F8158003E0A168002021F8A9
:104D500015006D1C2069A842C1D800252F462846A1
:104D600041F69B784B4615E036F91010414504DBBF
:104D70000D44A5F5F8559B3D0BE0994204D1A1687F
:104D800031F81010394403E0A26822F810103944B9
:104D90000FB2401C21698142E6D80021019817F02A
:104DA00031FB2169C1F1010200FB02A0C01B00B26E
:104DB000002800DA002000224FF0FF331146C446DD
:104DC00011E000BF36F9117067450BDBA7F5F85706
:104DD0009B3F3AB210FB02F3B3FBF5F3A76827F849
:104DE00011300B46491C27698F42EBD8002B07DB9B
:104DF000A91A4143B1FBF5F1401AA16821F813004B
:104E0000BDE8FE8F01E0FFFF010006002DE9F14F34
:104E100000221146009819F0A3F80021009817F01D
:104E2000F5F904460021009817F0B2FB20440FFA70
:104E300080F90021009817F09DFA20440FFA80F8BD
:104E4000009817F057F900EB090101EB0800DFF8B3
:104E500098A006B25446009816F0B6FB0746002507
:104E60002AE0009821498068006850F825008346B0
:104E700017F0FFFDF8B9584618F03AF940BB002189
:104E8000584617F05BF918B3012821D002281FD02B
:104E900003281DD00021584617F0E2FC58B9BBF892
:104EA0001A10BBF81600081A401C00B24844A04271
:104EB00000DB044624B26D1CBD42D2D3544504D05D
:104EC00004EB080000B2B04200DC3046BDE8F88FC9
:104ED0000098BBF91A10B0F91600081A411CA1423B
:104EE000E8DB0C46E6E7000001E0FFFF01000400FC
:104EF0002DE9F84F00228046114619F01BF80021D9
:104F0000404617F083F904460021404617F0E6FAC0
:104F100020440FFA80FA0021404617F091FA20440D
:104F20000FFA80F9404617F0F3F800EB090101EBA6
:104F30000A00DFF844B105B25C46404616F044FB77
:104F400007460021404617F016F901284FF00006E9
:104F500044D078E0D8F808004849006850F82600A6
:104F6000009017F086FDC0BB009818F0C1F850B152
:104F70000098B8F91810B0F91400091A481CA0429A
:104F80002ADB4C1C28E00021009817F0D7F858B114
:104F9000032809D0062807D0082805D0002100984A
:104FA00017F058FC58B118E00098B8F91810B0F98B
:104FB0001400081A411CA1420EDB0C460CE00098BC
:104FC000143000900CF047FB5044A04204DB0098E2
:104FD0000CF041FB00EB0A0424B2761CBE42B9D3AC
:104FE0005C453BD004EB090033E000BFD8F8080073
:104FF0002249006850F82600009017F03AFD08BBDF
:10500000009818F075F860BB0021009817F096F82A
:1050100038B3012825D0042823D0072821D0002127
:10502000009817F01DFC68B90098143000900CF03F
:1050300012FB4844A04204DB00980CF00CFB00EB90
:10504000090424B2761CBE42D0D35C4506D004EBE2
:105050000A0000B2584501D0A84200DC2846BDE84D
:10506000F88F0098B0F91810B8F91400091A481C04
:10507000A042E6DB4C1CE4E701E0FFFF0100040076
:105080002DE9F84F0C46834609F08EFC064600F0E9
:10509000FBFD6061400014F0CFFD6060606940007E
:1050A00014F0CAFD002541F69A79E0603AE036F93D
:1050B0001500DFF82881484533D10027DFF820A10B
:1050C0001FE03946584616F06DFA5146009017F029
:1050D000D0FCA8B9009809F0EFFC012810D1009885
:1050E00009F0E0FCA8420BD1009816F02CFB4146D9
:1050F000404501DA084602E0009816F024FB80469D
:105100007F1C584616F060FAB842DAD8B8F1000FA2
:1051100003DBE16821F8158003E0E168002021F855
:1051200015006D1C6069A842C1D800252F4628468D
:1051300041F69B784B4615E036F91010414504DBEB
:105140000D44A5F5F8559B3D0BE0994204D1E1686B
:1051500031F81010394403E0E26822F810103944A5
:105160000FB2401C61698142E6D80021584617F011
:10517000FDF98146584616F079FA01466069C0F19A
:10518000010209FB0210C01B00B2002800DA002057
:1051900000224FF0FF331146C44610E036F911707B
:1051A00067450BDBA7F5F8579B3F3AB210FB02F3BC
:1051B000B3FBF5F3E76827F811300B46491C676924
:1051C0008F42EBD8002B07DBA91A4143B1FBF5F165
:1051D000401AE16821F81300BDE8F88F01E0FFFFF5
:1051E000010006001CB50B8804892344ADF800308B
:1051F0004B8844892344ADF802308B8804892344CA
:10520000ADF80430C98843891944ADF806104369E4
:10521000694698471CBD00002DE9FF4F89B0C8784A
:105220001A9CC0070D46002801D0F84800E0F84855
:10523000069001D0F74800E0F748049001D1F54806
:1052400000E0F5484FF010034FF00C0E4FF0080B44
:10525000CDF814006188A2884FF0000AA1EB02018A
:10526000504609B25246D4F810C00FE002EB820754
:10527000E66803EB870816F808805FEAC87809D06B
:105280000BEB8707F65B891B09B2521C9445EDD8DE
:10529000002254E00EEB8707F65B304400B2F4E7DF
:1052A000E66802EB820703EB870CB146CDF820C01D
:1052B00016F80C60F60741D1002872D091FBF0F887
:1052C0000EEB8706079639F8066006FB08F60FFA1C
:1052D00086FCCDF800C04FF0060C0CEB870C0426C2
:1052E00039F90C8006EB8706DDF800C039F9066055
:1052F000E04500DCC446664504DC009EC446B0457B
:1053000000DC6646DDF800C00196664506D0DDF893
:1053100020C04FF00108C24649F80C80D4F80C8038
:10532000019E0BEB870728F80760D4F80CC0079F95
:105330003CF80770C01B891B00B209B2521C2669D9
:105340009642ADD8BAF1000F84D10021099816F029
:105350001EFF012826D000270020ADF80800ADF878
:105360000C0003A902A8CDE900012089B4F90220AC
:1053700003B2287818991CF04EFFE878384207D01D
:10538000099816F08DF9BDF808100844ADF808002A
:105390000B99099816F006F906464FF4FA682AE1C7
:1053A000FFE7FEE70127D7E79C49304617F061FB8E
:1053B00000286FD10021304616F054FFF0B34FF0B3
:1053C0000009484621690FE0E26800EB800352F8CB
:1053D0002320B24207D1E16800EB80020BEB820090
:1053E00031F9009002E0401C8142EDD8E878C00716
:1053F000708C04D020F4806040F4006003E020F45E
:10540000006040F48060708406F1140004998246C4
:105410008847484528D0304617F012FEB08AADF8CC
:105420000000F08AADF80200308BADF80400708BFC
:10543000ADF8060049465046069A00E010E0904755
:105440006A462921304611F0CDFB304616F0BCF9F2
:105450003246222111F0C6FB304617F0F1FD03E081
:10546000708C20F4406070840020009068780128DF
:1054700011D0022817D1059906F114008847B4F914
:105480000010491C21F00101081A00EBD07040F314
:105490004F0007E0A7E0059906F11400884721882E
:1054A000081A00B20090E878384208D0049906F152
:1054B00014008847BDF80810081AADF808003046F7
:1054C00000216B2217F0B2F80FFA80F93046002164
:1054D0006C2217F0ABF80FFA80FA304617F079FA21
:1054E0000190304616F02FF90146C9F341300128EA
:1054F0000FD129F4C04040450BDCB0F57A7F01DDC7
:10550000C0F57A70019A5043642290FBF2F00FFAD2
:1055100080F9CAF3413001280ED12AF4C040404539
:105520000ADCB0F57A7F01DDC0F57A70484364216A
:1055300090FBF1F00FFA80FAB18A1698F28A411ABC
:1055400001EB0900179900B28A1A02EB0A01EA7806
:1055500009B2D207002A02D0BDF9082000E0009A63
:1055600010440FFA80FA01D0009801E0BDF908005C
:1055700008440FFA80F95AEA09011BD0304617F0A7
:105580005FFDB18A01EB0A00B082318B01EB0A00AA
:105590003083F18A01EB0900F082718B01EB090085
:1055A0007083304617F04CFD00234A465146304682
:1055B00017F0ECFDE87838420CD1049906F114009C
:1055C000884719990844BDF80C100844BDF8081024
:1055D000084406E0BDF80C1019980844BDF80810FE
:1055E000081AADF80800E8780BAAC0F38001099802
:1055F00009F0A0F80646002E04D0DDE90B01884230
:105600007FF4D2AE0DB0BDE8F08F0000DF160108C8
:10561000D51601087B1601082316010801000600B3
:105620002DE9F04F91B00E0005463FD02E8328683B
:1056300008B114F05FFB06EB4600062101EB4000C9
:1056400014F0CCFA286040B3022101EB460101447A
:10565000E960042101EB86010144C5E90101012152
:105660000024012E1AD0F000083014F0E5FA81462B
:1056700000EB860000F10408B00000B2A346ADF8CC
:105680001000C0F101028010ADF812B00FFA82FADA
:105690005C46CDF828B00690ABE0FEE7B42202707D
:1056A000E8680480E8684180A868048011B0BDE81B
:1056B000F08F0027BDF81220BAF1000F07DC03219C
:1056C00001EB42010AEB01000FFA80FA0CE0BDF891
:1056D00010100523521A03EB420202EB0A00491E86
:1056E0000FFA80FAADF81010BDF81200401CADF8AA
:1056F000120004A800F0E9F868B1BDF9100006A98D
:10570000821041F827200AA900F0030041F8270081
:105710007F1C042FCEDB042F71D109990698884293
:1057200012D129F8140028F814B0DDE90A01014467
:10573000DDE90C20104408446968085569680001D7
:105740000855641C24B252E00799884219D029F800
:10575000140028F814B06A680A9810556A680001A5
:105760001055641C069A20B2521E29F8102028F801
:1057700010B0DDE90B120A440D99091D11446A6845
:105780002FE0089929F81400884228F814B0DDE9C0
:105790000A025946104412D06A6810556A6800011E
:1057A0001055641C069A20B2521E29F8102028F8C1
:1057B0001010DDE90C12114408316A6811E00C9AEE
:1057C00010446A6810556A6800011055641C069AF6
:1057D00020B2521E29F8102028F810100D996A687E
:1057E0000C3111546A6809011154401C04B20BF1C8
:1057F000010B04A800F069F800287FF45AAF40F2CA
:10580000D32016FB00F109EB4402881232F9022C76
:10581000824205D108EB440232F9022C82421AD0AE
:10582000A1EB8021B1F5007F03DC494341F3CF3187
:1058300006E0C1F58061494341F3CF31C1F10F0169
:1058400029F8140028F814006868015568680901EF
:105850000155641C24B2A01E0EE000BF38F81020D1
:1058600029F8142039F8102028F8142069680A5CF7
:105870000A55641C24B2401E0028EFDAEA680021B1
:10588000084611801BE0EA6822F81100AB6839F87D
:10589000102023F811200AE0AE6839F9102036F8FC
:1058A0001130934200DA1A4626F81120401C38F9CC
:1058B00010208A4201D1A042EEDB491C09B2A0426D
:1058C000E1DB484614F004FAF0E6B0F90210B0F952
:1058D0000000814201DC012070470020704717B5AD
:1058E00081B0022A03D8BDF8080004B010BDBDF88D
:1058F0000830BDF80400D90A01EBD0211F2900D3DC
:105900001F2161F3CF20C3F34511C0F34514214497
:10591000ADF804003F2900D33F2161F34A1003F0A2
:105920001F0100F01F031944ADF804001F2900D324
:105930001F2161F30400ADF80400FF2A07D0DDE960
:1059400001010DF025FC0090BDF80000CDE780B20C
:10595000CBE717B581B0022A03D8BDF8080004B020
:1059600010BDBDF80400BDF80810C30ACC0A13FB33
:1059700004F35B0963F3CF2000F01F0301F01F0461
:1059800013FB04F35B0963F30400C0F34513C1F395
:10599000451113FB01F1890961F34A10ADF80400C8
:1059A000FF2A07D0DDE901010DF0F2FB0090BDF800
:1059B0000000D4E780B2D2E717B581B0022A03D83D
:1059C000BDF8080004B010BDBDF80830BDF80400F3
:1059D000D90AA1EBD021002900DC002161F3CF20FE
:1059E000C3F34511C0F34514091BADF804000029A9
:1059F00000DC002161F34A1003F01F0100F01F03D7
:105A0000C91AADF80400002900DC002161F304008C
:105A1000ADF80400FF2A07D0DDE901010DF0B8FB65
:105A20000090BDF80000CDE780B2CBE7F8B50446A2
:105A300011F0D4F80646204611F092F8054630469B
:105A400015F0C2FE04462B2D34D00A2D31D112F0B0
:105A500061FC10B1007901282BD06946304615F061
:105A600019FF94F82C0010F00C0F30462BD015F0D5
:105A700017FE05460021204616F095FB0128BDF9CA
:105A8000000005EBD5711BD000EB610090FBF5F039
:105A900001B2002900DA0021608D4FF00102884236
:105AA00020461BD01AF0BAFC00221C21204611F01F
:105AB00099F8F8BD618DBDE8F84000221AF0AEBC3F
:105AC000C0EB6100E2E715F0D1FDBDF9021000EB7B
:105AD000D07201EB620191FBF0F0D9E71AF09EFC65
