:020000040800F2
:1000000068ED0020A101000837260008571F0008EE
:10001000352600089B03000851330008000000004B
:10002000000000000000000000000000C12C0008DB
:100030002907000800000000A5280008C32C0008BC
:10004000BB010008BB010008BB010008BB010008A0
:10005000BB010008BB010008BB010008BB01000890
:10006000BB010008BB0100082B070008BB0100080A
:10007000BB010008BB010008BB010008BB01000870
:10008000F5060008BB010008BB010008BB01000821
:10009000BB010008BB010008BB010008BB01000850
:1000A000BB010008BB010008BB010008BB01000840
:1000B000BB010008BB010008BB010008BB01000830
:1000C000BB010008BB010008BB010008BB01000820
:1000D000BB010008BB01000839330008BB01000860
:1000E000BB010008BB010008BB010008BB01000800
:1000F000BB010008BB010008BB010008BB010008F0
:10010000BB010008BB010008BB010008BB010008DF
:10011000BB010008BB0100086D2D0008792D000807
:10012000BB010008BB010008BB010008BB010008BF
:10013000BB010008BB010008BB010008BB010008AF
:10014000BB010008BB010008BB010008BB0100089F
:10015000BB010008BB010008BB010008BB0100088F
:10016000BB010008BB010008BB010008BB0100087F
:10017000BB010008BB010008BB0100080000000033
:10018000BB010008BB010008DFF810D000F0C8F880
:1001900000480047752F0208AFF3008068ED00208B
:1001A0000648804706480047FEE7FEE7FEE7FEE711
:1001B000FEE7FEE7FEE7FEE7FEE7FEE75D2D00084F
:1001C000890100082DE9F05F0546002092469B4614
:1001D00088460646814640241BE02846414647465D
:1001E000224600F08CF853465A46C01A914110D36B
:1001F00011461846224600F073F82D1A67EB0108E5
:100200004F4622460120002100F06AF817EB000952
:100210004E41201EA4F10104DFDC484631462A4647
:100220004346BDE8F09F10B5431A934209D28318A4
:10023000881803E010F8011D03F8011D521EF9D2C1
:1002400010BD40EA01039B0703D009E008C9121F53
:1002500008C0042AFAD203E011F8013B00F8013B80
:10026000521EF9D210BDD2B201E000F8012B491E96
:10027000FBD270470022F6E710B513460A46044643
:100280001946FFF7F0FF204610BD421C10F8011B75
:100290000029FBD1801A704710B5002200E0521CE3
:1002A000835C8C5CA34201D1002BF8D1D8B2E1B2BF
:1002B000401A10BD30B504460020034600E05B1C28
:1002C000934203D2E05CCD5C401BF8D030BD0346C6
:1002D00011F8012B00F8012B002AF9D118467047BC
:1002E000202A04DB203A00FA02F1002070479140F6
:1002F000C2F1200320FA03F3194390407047202AEB
:1003000004DB203A21FA02F00021704721FA02F3BF
:10031000D040C2F1200291400843194670470000C6
:10032000064C074D06E0E06840F0010394E8070042
:1003300098471034AC42F6D3FFF72AFF10C50208E5
:1003400030C5020870B58C1810F8015B15F0070372
:1003500001D110F8013B2A1106D110F8012B03E05E
:1003600010F8016B01F8016B5B1EF9D12B0705D466
:100370000023521E0DD401F8013BFAE710F8013BAF
:10038000CB1A921C03E013F8015B01F8015B521ECB
:10039000F9D5A142D8D3002070BDFEE770B5104D4D
:1003A0004FF4807400222146284600F0B4FD00F08E
:1003B0005DF900226100284600F0ADFD012005F046
:1003C00063FE01222146284600F0A5FD012005F02C
:1003D0005BFE21462846BDE87040002200F09BBD30
:1003E0000004024010B586B014216846FFF742FFB2
:1003F0001048016841F00201016000680E4C00F0F5
:10040000020005904FF4407000900120019002908E
:10041000022003906946204600F080FC0122110270
:10042000204600F078FD01225102204600F073FDC5
:1004300006B010BD303802400004024070B5104DC7
:100440004FF4807400222146284600F064FD00F03D
:100450000DF901225102284600F05DFD012005F052
:1004600013FE01222146284600F055FD012005F02B
:100470000BFE21462846BDE87040002200F04BBD2F
:10048000000402402DE9F0478046002400F0DAF82D
:10049000154F00254FF480764FF400790022314645
:1004A000384600F038FD032005F0EEFD012231460C
:1004B000384600F030FD6006040E4946384600F02C
:1004C00025FD08B1641CE4B26D1CEDB2082DE5D326
:1004D000B8F1000F04D0FFF761FF2046BDE8F087B8
:1004E000FFF7ACFFF9E70000000402402DE9F041FE
:1004F000054600F0BBF8144E4FF4807700223946D1
:10050000304600F008FD00244FF40078EA09414627
:10051000304600F000FD6806050E012239463046DF
:1005200000F0F9FC012005F0AFFD0022394630460D
:1005300000F0F1FC012005F0A7FD641CE4B2082CDA
:10054000E4D3BDE8F08100000004024070B500F083
:100550008DF801220E4D54022146284600F0DBFCA6
:10056000012216023146284600F0D5FC012005F094
:100570008BFD00222146284600F0CDFC012005F02D
:1005800083FD31462846BDE87040002200F0C3BC20
:100590000004024070B500F069F8104D4FF480740B
:1005A00000222146284600F0B6FC660000223146B3
:1005B000284600F0B0FC012005F066FD012221462E
:1005C000284600F0A8FC012005F05EFD31462846D3
:1005D000BDE87040012200F09EBC00000004024013
:1005E0002DE9F041002400F02DF80122144D5602AF
:1005F0003146284600F08FFC012005F045FD012220
:1006000017023946284600F086FC012005F03CFD23
:1006100008E0641CE4B2FA2C04D9FFF7BBFF012008
:10062000BDE8F0813146284600F070FC0028F0D18A
:1006300000223946284600F06EFC0020F0E700005A
:100640000004024000B585B0002001904FF4007016
:10065000009002200390012002906946024800F0B9
:100660005DFB05B000BD00000004024000B585B090
:100670000120019040020090022003906946024848
:1006800000F04CFB05B000BD000402402DE9F04134
:100690000E46074615460421052002F02BF90021DD
:1006A000012002F033FA80210A2002F023FA00240C
:1006B00005E0395D092002F029FA641CE4B2B44275
:1006C000F7D30321012002F021FAFF24052002F0D4
:1006D000A5F9641E14F0FF0401D04007F6D52220CE
:1006E00002F09CF92870212002F098F96870BDE8AA
:1006F000F0810000014800F0DBB900007406002022
:1007000030B50468256825F4802525600468636099
:100710008368402B036803D099600068C26030BDD5
:100720009A600068C16030BD7047102000F0EABADE
:1007300072B6FEE770B588B0142101A8FFF79AFDE4
:100740002B480024016841F0020101600068012586
:1007500000F0020006904020CDE901050220CDE91D
:100760000340244E01A9304600F0D8FA01A98020A8
:1007700081E83100304600F0D1FAFFF733FE002265
:100780004021304600F0C7FB0A2005F078FC01222A
:100790004021304600F0BFFB4FF4FA7005F06FFCCB
:1007A00001226946A82000F027F89DF800001128D2
:1007B00018D1022269469F2000F01EF89DF8000023
:1007C00026280FD19DF8010018B1012801D0022878
:1007D00008D101226946A32000F00EF89DF8000020
:1007E000642802D0012008B070BD0020FBE70000A3
:1007F00030380240000402402DE9F04115460E4613
:100800000446FFF7A3FE7020FFF770FEFFF7E8FE37
:10081000E0B2FFF76BFEFFF7E3FEFFF797FE7120F4
:10082000FFF764FEFFF7DCFE00246F1E09E0BC4208
:1008300001D0012000E00020FFF724FE3055641CA9
:10084000E4B2AC42F3D3BDE8F041FFF7A3BE000031
:100850002DE9FC5F644E00244FF00A093078DFF880
:100860008C81401CC0B2B0FBF9F209FB1201274693
:10087000307009B10A2874D2012201A90220FFF7C1
:10088000BBFF9DF8041000296CD003296BD2FF2018
:100890008840C04340F0C000DFF854A1DFF854B1F5
:1008A000454688F8100001273AF8140004226946EA
:1008B000FFF7A2FF297C07FA04F001426BD09BF8F6
:1008C0000610584631B1012919D002292FD0032929
:1008D00061D149E09DF800109DF8010001F00F0181
:1008E00000EB012105EB440001819DF802209DF8F9
:1008F000031002F00F0201EB022181814BE09DF811
:1009000000209DF8011002F00F02BBF8020001EB7D
:100910000221411A05EB440081819DF802209DF8D7
:10092000031002F00F0201EB0221018133E09DF878
:1009300000209DF8011002F00F0201EB0221028855
:10094000521A05EB44010A819DF802309DF80320FC
:1009500003F00F03BBF8020002EB0322801A888128
:1009600019E025E027E037E09DF800209DF8011010
:1009700002F00F0201EB022205EB44018A819DF88F
:1009800002309DF8032003F00F03BBF8000002EBD8
:100990000322801A0881641CE4B2022C84D301274C
:1009A0002989002019B9A98909B98DF80400307086
:1009B0009DF8040080B998F81000010602D520F0D7
:1009C000800007E04FF6FF71A8F80810A8F80C1097
:1009D00000F0E00088F810003078F02801D986F89F
:1009E00000903846BDE8FC9F700000200400002005
:1009F000547E02089C0200202DE9F0410446876DD8
:100A000000F08EFA064694F835000025022806D03C
:100A10008020606584F834500120BDE8F0812068B2
:100A2000016821F0160101602068416921F0800110
:100A30004161206C08B9A06C20B12068016821F0E8
:100A4000080101602068016821F0010101600CE0EB
:100A500000F066FA801B052807D920206065032076
:100A600084F8350084F83450D7E720680068C00760
:100A7000EED194F85C103F208840B860012084F8E3
:100A8000350084F834500020C7E790F8351002296B
:100A900003D08021416501207047052180F8351081
:100AA0000068016821F0010101600020704700002A
:100AB0002DE9F84304464FF00009CDF80090634853
:100AC0004FF41651A56D0068B0FBF1F72E6894F84D
:100AD0005C10082000FA01F131420FD021680A6849
:100AE00052070BD50A6822F004020A6094F85C10E1
:100AF0008840A860606D40F00100606594F85C106B
:100B00004FF0010808FA01F0304208D02168496925
:100B1000090604D5A860606D40F00200606594F895
:100B20005C1004208840304208D021680968890799
:100B300004D5A860606D40F00400606594F85C1016
:100B400010208840304218D021680968090714D560
:100B5000A86020680168490304D50068000308D52F
:100B6000A16C07E00168C90503D4016821F0080100
:100B70000160216C09B12046884794F85C10202060
:100B80008840304231D021680968C9062DD5A86057
:100B900094F8350005282068016806D0490347D538
:100BA000006800031DD4616C1CE021F01601016097
:100BB0002068416921F080014161206C08B9A06C76
:100BC00020B12068016821F00801016094F85C10F0
:100BD0003F208840A86084F8358084F83490216DE7
:100BE0001FE0E16B09B120468847606D00282BD0DB
:100BF000606DC00714D0052084F8350020680168B6
:100C000021F0010101600098401C0090B84203D817
:100C100020680068C007F6D184F8358084F83490E5
:100C2000E16C002910D001B02046BDE8F043084730
:100C30000168C905D5D4016821F01001016084F86C
:100C4000358084F83490CCE7BDE8F8838400002038
:100C50002DE9F0410446866D90F834000025012806
:100C60000DD0012084F8340094F835700020012F55
:100C700007D084F8340002252846BDE8F081022020
:100C8000FBE7022784F8357060652046FFF738FDE2
:100C900094F85C103F208840B0602068016841F003
:100CA00016010160206C20B12068016841F0080144
:100CB00001602068016841F001010160DCE700008B
:100CC00070B5044600F02CF90546601C02D00448BB
:100CD0000078044400F024F9401BA042FAD370BD10
:100CE0007800002010B5102807D11021034800F02B
:100CF0000DF9012801D10249087010BD000C024015
:100D000071000020044910B50A68024202D0086050
:100D1000FFF7E8FF10BD0000143C01402DE9F84F3B
:100D2000DFF8BCA10022012503264FF00F090AF1CC
:100D3000040BAAF1040E00BF0B6805FA02F423406D
:100D4000A34270D10F7907F00307012F01D0022FC2
:100D500016D187684FEA420806FA08FC27EA0C0712
:100D6000D1F80CC00CFA08FC4CEA070CC0F808C01B
:100D70004768A7430C79C4F3001494403C43446093
:100D80000C79E443A4070AD0C4684FEA420C06FA7F
:100D90000CF7BC438F6807FA0CF72743C7600C7940
:100DA00004F00304022C12D1D40800EB840CDCF80C
:100DB00020405707FF0E09FA07F824EA0804D1F883
:100DC000108008FA07F848EA0408CCF82080046884
:100DD0004FEA420C06FA0CF7BC430F7907F0030701
:100DE00007FA0CF7274307604C6814F4403F70D0B3
:100DF0003C4C276847F480472760246822F00307AB
:100E000004F480440094384C07EB040CDCF80848E8
:100E100097074FEA177809FA08F7BC43334FB842EF
:100E200002D1002724E054E0314FB84201D101271C
:100E30001EE0304FB84201D1022719E02E4FB842D0
:100E400001D1032714E02D4FB84201D104270FE050
:100E50002B4FB84201D105270AE02A4FB84201D1F1
:100E6000062705E0284FB84201D1072700E00827F0
:100E700007FA08F72743CCF80878DAF80040574615
:100E8000D1F804C09C435FEACC2C00D51C433C60E5
:100E9000DBF800405F46D1F804C09C435FEA8C2C2D
:100EA00000D51C433C60DEF800407746D1F804C012
:100EB0009C435FEA8C3C00D51C433C60084F083FD4
:100EC0003C68D1F804C09C435FEACC3C00D51C438D
:100ED0003C60521C102AFFF42FAFBDE8F88F0000D1
:100EE000083C01404438024000300140000002400C
:100EF0000004024000080240000C024000100240C2
:100F00000014024000180240001C02400069084022
:100F100000D0012070470AB1816170470904FBE7E6
:100F2000014880687047000078000020024881680E
:100F30000278114481607047780000200B4810B59A
:100F4000016841F400710160016841F48061016051
:100F5000016841F480710160032000F06FF80F20F8
:100F600000F006F800F024F8002010BD003C02401C
:100F700070B50D4D04464FF47A712878B1FBF0F04E
:100F80000A490968B1FBF0F000F05DFC48B9102C8B
:100F900007D200222146501E00F030F800206C607D
:100FA00070BD012070BD000078000020840000208A
:100FB0000A4808B5016841F480410160006800F406
:100FC000804000900548001F016841F08051016099
:100FD000006800F08050009008BD000044380240D6
:100FE000002809DB00F01F02012191404009800028
:100FF00000F1E020C0F8001170470000F0B40E4B83
:101000001B680C46C3F30223C3F10705042D00D966
:101010000425191D072901D2002300E0DB1E01264B
:1010200006FA05F1491E214099409E40761E164061
:101030003143F0BC02F01CBB0CED00E0064900F0AF
:10104000070208684FF6FF03184040EA0220034AEF
:1010500010430860704700000CED00E00000FA0546
:101060002DE9F0470E46050065D0DFF81481D8F869
:101070000000F7B200F00700B04207D288F8007015
:10108000D8F8000000F00700B04254D128683D4C69
:10109000810712D5400703D5206840F4E050206056
:1010A0002878000703D5206840F46040206020685D
:1010B000A96820F0F000084320602878C0072DD0F0
:1010C000304968680839012812D0022813D0032853
:1010D00011D00968890700292DDA216821F0030160
:1010E00001432160FFF71CFF814641F2883A0EE080
:1010F00009688903EFE709688901ECE7FFF710FF4A
:10110000A0EB0901514502D90320BDE8F087206812
:10111000696800F00C00B0EB810FEFD1D8F8001037
:10112000404601F00701B14207D90770006800F09E
:101130000700B04201D00120E7E72878400705D535
:101140002068E96820F4E050084320602878000710
:1011500006D52068296920F4604040EAC10020607B
:1011600000F038F82168084AC1F30311515CC84007
:101170000649086006480068FFF7FAFE0020C4E749
:10118000003C024008380240587E020884000020DB
:101190007C0000200448054900680968044AC1F33E
:1011A0008221515CC840704784000020083802400A
:1011B000687E02080448054900680968044AC1F3CA
:1011C0004231515CC840704784000020083802401A
:1011D000687E0208154810B5006810F00C0214482B
:1011E00013D04110042A0FD0082A0ED10F4C241F0F
:1011F0002268236802F03F025B0207D52068C0F333
:101200008810A0FB010106E0084610BD2168C1F36B
:101210008811A1FB00010023FEF7D4FF2168C1F370
:101220000141491C4900B0FBF1F010BD08380240F3
:101230000024F4002DE9F84F04006ED02078DFF888
:101240004C93C007A9F104054AD009F104000168D4
:10125000C1F38101012908D00068C0F38100022890
:101260000AD1D9F80000400206D52868800337D596
:1012700060680028E1D033E06068B0F5803F10D0AE
:10128000B0F5A02F286810D020F48030286028689E
:1012900020F4802028606068A8B1FFF741FE064670
:1012A0000DE0286840F48030F4E740F480202860A6
:1012B000F7E700BFFFF734FE801B642873D8286867
:1012C0008003F7D50CE0FFF72BFE064605E000BFD4
:1012D000FFF726FE801B6428F0D828688003F7D427
:1012E0002078DFF8AC8280074FF0000A3ED5A7488F
:1012F000001D016811F00C0F08D00068C0F38100D8
:1013000002280BD1D9F80000400207D428688007D2
:1013100016D5E068012800D112E033E1E068B8B1E9
:101320000120C8F80000FFF7FBFD064605E000BFFE
:10133000FFF7F6FD801B0228C0D828688007F7D584
:101340002868216920F0F80040EAC10028600DE01B
:10135000C8F800A0FFF7E4FD064604E0FFF7E0FD53
:10136000801B02281FD828688007F7D42078000740
:1013700022D5864F87486169703771B101210160BC
:10138000FFF7CEFD064604E0FFF7CAFD801B0228EA
:1013900009D838688007F7D50EE0C0F800A0FFF73D
:1013A000BFFD064605E082E0FFF7BAFD801B02287C
:1013B0007DD838688007F7D42078400768D5DFF8F3
:1013C000CCB100270BF13C0BDBF80000C0000BD4C4
:1013D000DBF8001041F08051CBF80010DBF8000082
:1013E000012700F0805000906B4E3068C00510D48B
:1013F000306840F480703060FFF792FD009005E0A7
:10140000FFF78EFD0099401A022850D83068C005B9
:10141000F6D55E4EA0686C3601280FD005283068DE
:1014200010D020F001003060306820F004003060FF
:10143000A068B8B1FFF774FD00900FE0306840F08D
:101440000100F4E740F004003060F7E7FFF768FDC3
:101450000099411A41F28830814266D8306880078D
:10146000F4D50EE0FFF75CFD009007E0FFF758FDB4
:101470000099411A41F28830814256D8306880077D
:10148000F4D42FB1DBF8001021F08051CBF800101C
:10149000A069C8B33D49091D0968C1F3810102294A
:1014A0004AD00228504607D0C8F8600000E03CE06F
:1014B000FFF736FD04463BE04746C8F86000FFF7FB
:1014C0002FFD064605E000BFFFF72AFD801B02281E
:1014D0002BD828688001F7D4D4E907010843A16A12
:1014E0002E4A490802EB0141626A41EA821108432F
:1014F00094F82C1040EA0161C9F800100120386608
:10150000FFF70EFD044606E03EE000BFFFF708FDD2
:10151000001B022809D828688001F7D534E000BFF5
:10152000FFF7FEFC001B022802D90320BDE8F88F5C
:1015300028688001F4D427E00128F7D0D9F800000A
:10154000E26900F4800191421CD1226A00F03F015F
:10155000914217D147F6C071626A0140B1EB821F18
:1015600010D1A26A4FF0FF3300F4403103EB520276
:10157000B1EB024F06D194F82C1000F07060B0EB84
:10158000016F01D00120D1E70020CFE704380240ED
:1015900000004742800E4742007000400000FFFFFD
:1015A00090F85100704770B5040009D0606A0025BA
:1015B00040B125616561A56294F8510040B10CE02D
:1015C000012070BD6068B0F5827FF4D0E561F2E77C
:1015D00084F85050204600F044F8022084F851006E
:1015E0002068016821F040010160A088218900F491
:1015F000827001F404410843A18901F400610843A9
:10160000217C01F002010843217D01F00101084322
:10161000218B01F400710843217F01F03801084358
:1016200094F8201001F080010843218D01F400514D
:10163000084321680860A069042101EA104094F879
:10164000241001F010010843216848602068C16936
:1016500021F40061C1616565012084F8510000201A
:1016600070BD70472DE9F84F044690F850000027F0
:101670000A9E1D4692468B464FF0010901280ED066
:10168000012084F85000FFF74BFC804694F851008D
:10169000616801280CD0B1F5827F07D102E00220F9
:1016A000BDE8F88FA16809B9042801D00227C2E07B
:1016B000BBF1000F27D0BAF1000F24D01DB394F86E
:1016C0005100042802D0052084F8510000206065F4
:1016D000C4F838A0E587A587C4F830B0E586A586AC
:1016E0002064606420680168490603D4016841F001
:1016F00040010160E068B0F5006F606805D0E8B3B4
:10170000012D46D07FE0012795E008B1012D39D1A8
:10171000206B21680088C860206B801C2063E08EED
:10172000401EE0862EE02068816889070FD5E18E93
:1017300069B1B9F1010F0AD1216B0988C160206B31
:10174000801C2063E08E401EE0864FF00009206878
:101750008168C9070CD0E18F51B1C068A16B0880C6
:10176000A06B801CA063E08F401EE0874FF0010952
:10177000FFF7D6FBA0EB0800B04200E009E001D380
:10178000701C50D1E08E0028CDD1E08F0028CAD146
:101790003FE0206B216800780873206B401C2063B9
:1017A000E08E401EE0862EE02068816889070FD514
:1017B000E18E69B1B9F1010F0AD1216B097801738A
:1017C000206B401C2063E08E401EE0864FF0000935
:1017D00020688168C9070CD0E18F51B1C068A16B46
:1017E0000870A06B401CA063E08F401EE0874FF0A4
:1017F0000109FFF795FBA0EB0800B04202D3701C73
:1018000001D010E07EB1E08E0028CDD1E08F00281D
:10181000CAD142463146204601F0AAF928B1012733
:101820002020606507E0032705E0A06818B920685C
:10183000C16880680090012084F85100002084F87D
:10184000500038462CE710B5401EB0F1807F01D320
:10185000012010BD4FF0E02460610F21601701F0FE
:1018600007FF0020A06107202061002010BD704705
:101870007047000070B590F83C20012A32D0012456
:1018800080F83C40022280F83D2003685A689D6839
:1018900022F070060A6832435A60134B02689A427B
:1018A00014D0B2F1804F11D0104B9A420ED0104B91
:1018B0009A420BD00F4B9A4208D00F4B9A4205D058
:1018C0000E4B9A4202D00E4B9A4204D1496825F041
:1018D00080031943916080F83D40002180F83C105E
:1018E000084670BD022070BD0000014000040040A9
:1018F00000080040000C004000040140004001408E
:101900000018004010B5040003D094F83D0010B159
:1019100007E0012010BD002084F83C00204600F0C4
:101920001EF8022084F83D00211D206801F02AFAEB
:10193000012084F8460084F83E0084F83F0084F8D3
:10194000400084F8410084F8420084F8430084F8A1
:10195000440084F8450084F83D00002010BD704725
:1019600090F83D10012901D001207047022180F834
:101970003D100168CA6842F00102CA60006811495E
:10198000884214D0B0F1804F11D00F4988420ED058
:101990000E4988420BD00E49884208D00D49884232
:1019A00005D00D49884202D00C49884204D1816893
:1019B00001F00701062903D0016841F0010101602F
:1019C0000020704700000140000400400008004073
:1019D000000C00400004014000400140001800409D
:1019E000704770B50446006801694FF00005C943AF
:1019F000890715D4C168C943890711D4E91E01615B
:101A000001202077206880698007204602D0FFF7F8
:101A1000E7FF04E000F098F8204600F096F82577FC
:101A200020680169C943490717D4C168C9434907F8
:101A300013D46FF0040101610220207720688069CF
:101A400010F4407F204602D0FFF7CAFF04E000F008
:101A50007BF8204600F079F8257720680169C943B2
:101A6000090716D4C168C943090712D46FF00801E9
:101A70000161042020772068C0698007204602D0D9
:101A8000FFF7AEFF04E000F05FF8204600F05DF8DD
:101A9000257720680169C943C90617D4C168C943BD
:101AA000C90613D46FF01001016108202077206867
:101AB000C06910F4407F204602D0FFF791FF04E098
:101AC00000F042F8204600F040F8257720680169D0
:101AD000C943C90708D1C168C943C90704D1891ED0
:101AE0000161204600F032F820680169C943090607
:101AF00009D4C168C943090605D46FF080010161AA
:101B00002046FFF7B4FE20680169C943490609D49D
:101B1000C168C943490605D46FF040010161204600
:101B200000F028F820680169C94389060BD4C16810
:101B3000C943890607D46FF0200101612046BDE842
:101B40007040FFF795BE70BD7047704706498842E8
:101B500002D1012020F012BD0449884202D104487C
:101B600040680047704700004803002090030020B1
:101B7000040000207047704710B5044600684069B3
:101B800094F83D10C0F3C010212911D180B1206814
:101B9000143050E8001F21F0800140E80012002AB4
:101BA000F5D1606B08B1FEF727FF204601F068FA17
:101BB0002068406994F83E10C0F38010222911D1AA
:101BC00080B12068143050E8001F21F0400140E847
:101BD0000012002AF5D1A06B08B1FEF70DFF2046D8
:101BE00001F027FA002010BD70470000F8B5016829
:101BF00004460868CA684B6910F00F0F4FF00005E3
:101C000059D003F0010602F49077374365D0C1073D
:101C100005D0D10503D5216C41F0010121644107B4
:101C200005D5D90703D0216C41F002012164810759
:101C300005D5D90703D0216C41F0040121640107C7
:101C400007D502F02001314303D0216C41F0080197
:101C50002164216C00293AD0800604D5900602D573
:101C6000204601F01BFA20684069216CC0F3801007
:101C7000090700D460B3204601F0DBF92068406911
:101C8000400621D52068143050E8001F21F04001A3
:101C900040E80012002AF5D1A06BA8B16C4901659B
:101CA000A06BFEF7F2FE002811D0A06B016D01B011
:101CB000BDE8F040084783060FD593060DD52046B2
:101CC000BDE8F84001F0EAB92046FFF78DFFF8BD06
:101CD0002046FFF789FF2564F8BD266B2023012EDF
:101CE00079D1C60677D5D60675D5086848680090BC
:101CF0004869400640D5A16B086840680004000CA4
:101D0000EAD0A28D8242E7D9E085C869B0F5807F2C
:101D10002DD020680C3050E8001F21F4807140E87D
:101D20000012002AF5D12068143050E8001F21F07D
:101D3000010140E80012002AF5D12068143050E873
:101D4000001F21F0400140E80012002AF5D184F87C
:101D50003E30256320680C3050E8001F21F0100150
:101D600040E80012002AF5D1A06BFEF745FEA08DD9
:101D7000E18D401A81B229E0A08DE18D401A81B237
:101D8000E08D0028A8D00029A6D020680C3050E8AB
:101D9000002F22F4907240E80026002EF5D1206832
:101DA000143050E8002F22F0010240E80026002EF7
:101DB000F5D184F83E30256320680C3050E8002FC0
:101DC00022F0100240E80023002BF5D12046FFF757
:101DD000D2FEF8BDFFE705062BD5150629D594F8E8
:101DE0003D002128F5D1A068B0F5805F01D12069C0
:101DF000B0B1206A411C2162216800784860E08C03
:101E0000401E0004000CE084E3D12068C16821F08A
:101E10008001C1602068C16841F04001C160D8E71D
:101E2000206A0088C0F308004860206A801C206295
:101E3000E5E74006CDD55006CBD5CA68204622F04E
:101E40004002CA6084F83D3000F084F8C1E7000029
:101E50003D2F000870B5040004D094F83D00002523
:101E600010B106E0012070BD84F83C50204600F01F
:101E700022F8242084F83D002068C16821F4005134
:101E8000C160204601F06AF92068016921F490419F
:101E900001612068416921F02A0141612068C1681F
:101EA00041F40051C1602564202084F83D0084F88D
:101EB0003E00002070BD704790F83E30202B0ED1C0
:101EC00059B152B190F83C30012B08D0012380F871
:101ED0003C300023036301F0C7B9012070470220A2
:101EE000704790F83E30202B0ED159B152B190F886
:101EF0003C30012B08D0012380F83C3000230363E1
:101F000001F0FCB90120704702207047704770470C
:101F100038B5044600680C49884214D10068C006F0
:101F200011D52046FFF728FEA06B006840680749DE
:101F300001204870420206492046FFF7BDFF206895
:101F400001684068009038BD0044004071000020E6
:101F5000300400207047FEE72DE9FE4F234C074672
:101F600000216088401E83B22088401E82B208464D
:101F700000F0EEF9DFF878A04FF40021CAF818104D
:101F80000421CAF8181000204FEA17288DF8040021
:101F90008DF8080005466426FFB2A1461CE0002427
:101FA00015E000BF11488DF80480012302AA01A9A1
:101FB00010300096FFF756FB0C488DF80470012393
:101FC00002AA01A910300096FFF74CFB641CB9F877
:101FD0000000A042E6D86D1CB9F80210A942DED874
:101FE0000821CAF81810BDE8FE8F00009C020020EE
:101FF000000002402DE9F041141A641CA7B25C1ADB
:10200000641C1FFA84F8069E00F0A2F900250BE07C
:10201000002405E0308800F041FA641CA4B2B61C2C
:10202000BC42F7D36D1CADB24545F1D3064841889B
:102030000088491EBDE8F041401E8BB282B20021EB
:10204000084600F085B900009C02002010B500F0A1
:102050000DF900F069F9CF2000F0C8F9002000F078
:10206000A5F9C12000F0A2F9302000F09FF9ED2081
:1020700000F0BCF9642000F099F9032000F096F913
:10208000122000F093F9812000F090F9E82000F090
:10209000ADF9852000F08AF9002000F087F978205A
:1020A00000F084F9CB2000F0A1F9392000F07EF98E
:1020B0002C2000F07BF9002000F078F9342000F0AB
:1020C00075F9022000F072F9F72000F08FF9202056
:1020D00000F06CF9EA2000F089F9002000F066F9C0
:1020E000002000F063F9C02000F080F9132000F018
:1020F0005DF9C12000F07AF9132000F057F9C520EE
:1021000000F074F9222000F051F9352000F04EF96A
:10211000C72000F06BF9BD2000F048F9212000F045
:1021200065F9362000F062F9082000F03FF9B6208A
:1021300000F05CF90A2000F039F9A22000F036F92D
:102140003A2000F053F9552000F030F9F62000F065
:102150004DF9012000F02AF9302000F027F9B120D4
:1021600000F044F9002000F021F91B2000F01EF9D6
:10217000F22000F03BF9002000F018F9262000F0D2
:1021800035F9012000F012F9E02000F02FF90F20BE
:1021900000F00CF9352000F009F9312000F006F9C3
:1021A0000B2000F003F90E2000F000F9062000F0EB
:1021B000FDF8492000F0FAF8A72000F0F7F83320E6
:1021C00000F0F4F8072000F0F1F80F2000F0EEF82E
:1021D000032000F0EBF80C2000F0E8F80A2000F0F3
:1021E000E5F8002000F0E2F8E12000F0FFF8002020
:1021F00000F0DCF80A2000F0D9F80F2000F0D6F843
:10220000042000F0D3F8112000F0D0F8082000F0EE
:10221000CDF8362000F0CAF8582000F0C7F84D205D
:1022200000F0C4F8072000F0C1F8102000F0BEF85C
:102230000C2000F0BBF8322000F0B8F8342000F099
:10224000B5F80F2000F0B2F8112000F0CFF8782098
:1022500003F015FF292000F0C9F8002000F0F2F883
:10226000BDE810404FF6FF70FFF776BEF0B587B0BF
:1022700014216846FDF7FEFF27480024016841F05D
:10228000010101600068254F00F001000590224621
:102290001E213846FEF73FFE01251E20CDE9000530
:1022A0000226CDE9025669463846FEF737FD1A4840
:1022B0001430016841F4805101600068694600F4FF
:1022C00080500590E020CDE900060320CDE90250C2
:1022D000052004903846FEF721FD124810490160A0
:1022E0004FF48271C0E901144561C0E903466902F7
:1022F000C0E90614046207214462C0E90A41FFF7FD
:1023000052F908B1FEF714FA012202213846FEF70D
:1023100002FE07B0F0BD000030380240000002406D
:1023200000300140AC02002070B5084C1025A561BA
:10233000322003F0A4FEE000A061642003F09FFEC1
:10234000A561BDE87040322003F099BE0000024054
:102350002DE9F041DFF8508007461C4615460E4631
:1023600098F80C0000F042F8380A00F01FF8F8B2B4
:1023700000F01CF8280A00F019F8E8B200F016F88E
:1023800098F80E0000F032F8300A00F00FF8F0B2C2
:1023900000F00CF8200A00F009F8E0B200F006F8AE
:1023A000BDE8F04100F03EB89C0200203EB50D4C67
:1023B0004FF40021A1610421A16100218DF80410D6
:1023C0008DF808000121084800F0FEFB6420009011
:1023D000012301AA02A90448FFF744F90820A061DB
:1023E0003EBD000000000240AC0200203EB50B4C98
:1023F0004FF40021A1614910A1618DF8080000216E
:1024000064208DF804100090012301AA02A9044859
:10241000FFF728F90820A0613EBD0000000002403F
:10242000AC0200200148007AFFF7E0BF9C020020C8
:1024300010B50C46FFF7DAFFE0B2BDE81040FFF739
:10244000B5BF000014492A228A812B22CA812C227E
:102450000A812E224A8110F003038B714FF0F002A3
:102460004FF4A0700BD0012B0DD0022B0FD0032BFB
:1024700011D108804A80A8213620FFF7D9BF0A80F1
:1024800048800821F8E708804A806821F4E70A803C
:102490004880C821F0E770479C020020FEB5124D2D
:1024A00004464FF40020A8610420A861200A8DF89A
:1024B000040000208DF8080001210C4800F084FB86
:1024C0006426012302AA01A908480096FFF7CAF86A
:1024D0008DF80440012302AA01A904480096FFF7E1
:1024E000C1F80820A861FEBD00000240AC02002037
:1024F00030B587B014216846FDF7BCFE0D480024B6
:10250000016841F00101016000680B4D00F001001D
:102510000590224602212846FEF7FDFC022000908D
:102520000120CDE90104694628460394FEF7F6FB35
:1025300007B030BD30380240000002403EB51A48B6
:102540000024016841F0100101600068224600F09B
:102550001000029002213620FEF750FD3620FEF7D3
:102560003FFD13480094114901940160114944F65C
:1025700020620968B1FBF2F1491EC0E9011409218A
:102580008461C160FFF7BEF908B1FEF7D1F800948D
:10259000694607480194FFF76DF908B1FEF7C8F8DE
:1025A0000348FFF7DDF93EBD40380240001000400F
:1025B00048030020840000203EB51A48002401682A
:1025C00041F0200101600068224600F020000290E6
:1025D00003213720FEF712FD3720FEF701FD1348D7
:1025E0000094114901940160114944F62062096880
:1025F000B1FBF2F1491EC0E9011463218461C1609D
:10260000FFF780F908B1FEF793F800946946074890
:102610000194FFF72FF908B1FEF78AF80348FFF796
:102620009FF93EBD40380240001400409003002056
:1026300084000020FEE7FEE770B50646082188B05A
:102640000024084600F056F900210D2000F05EFA43
:1026500080210E2000F04EF993208DF804002020F8
:102660008DF8050006A801AB0090022219460C2047
:1026700000F018F8054626280DD1002101A8425C7B
:102680007254425C491C5440C9B20429F7D3405CDF
:10269000A04200D0BB2580210E2000F02BFA08B00C
:1026A000284670BD2DE9FF5F0027BB25DDF838A067
:1026B00016468B468146B8460C2805D0B9F10E0F58
:1026C00005D11227102001E077273020804647F0FF
:1026D0008001022000F01AFA8021042000F00AF99B
:1026E0000021012000F012FA80210A2000F002FAF5
:1026F000002405E01BF80410092000F007FA641C10
:10270000B442F7D34946012000F000FAB9F10C0FAA
:1027100003D180210D2000F0EDF94FF47A760420EA
:1027200000F07CF90446761E04D0E00702D114EADA
:10273000080FF4D080210D2000F0DCF836B106201F
:1027400000F06CF910F01B0F0CD0BB2580210C2081
:1027500000F0D0F90021012000F0D8F904B028469B
:10276000BDE8F09F26253C40E00700D0CC25B9F11C
:102770000C0FEBD10A2000F051F904460C2000F0B8
:102780004DF910F007004FEAC40101D008390144A7
:10279000CAF8001024B1122C04D91224002603E038
:1027A0000124FBE7002605E0092000F037F9039932
:1027B0008855761CA642F7D3C8E700B587B05020ED
:1027C0008DF8040000208DF805000DF106020221AD
:1027D00001A8FDF75BFF06A801AB00900422194693
:1027E0000C20FFF75FFF07B0262000BD30B50C4678
:1027F0000546082187B0084600F07CF807210D2027
:1028000000F084F90321142000F074F906A801AB4C
:1028100000908DF80450012219460C20FFF742FF6A
:10282000262802D10699102902D0BB2007B030BD5E
:102830009DF8041021709DF805106170F6E710B541
:1028400088B00021932206918DF8042070228DF823
:1028500005208DF80A1001AA5418435CA370445C4B
:102860009DF80A30491C6340C9B28DF80A3004292A
:10287000F2D3072101A8D21DFDF708FF0821084661
:1028800000F038F806A801AB0090092219460C2088
:10289000FFF708FF262802D10699182900D0BB208F
:1028A00008B010BD7047000010B5142000F0B6F855
:1028B000800705D005A1BDE8104009A000F0C8BE02
:1028C0000321142000F016F906A1F4E7B2BBD0E80A
:1028D000D2AABFAAC6F4CCECCFDF0D0A00000000DC
:1028E00025730000D0E8D2AABFAAC6F4CCECCFDF93
:1028F0000D0A000070B50C46054600F08FF820EA7E
:1029000004012846BDE8704000F000B910B5082168
:102910000846FFF7EFFF3D21112000F0F7F8862170
:10292000172000F0F3F87F21262000F0EFF81E2199
:102930002D2000F0EBF800212C2000F0E7F88D218D
:102940002A2000F0E3F83E212B2000F0DFF84021A0
:10295000152000F0DBF86420FEF7B2F9BDE8104066
:10296000FFF7A2BF70B586B014216846FDF782FC60
:1029700025480024016841F0040101600068234EED
:1029800000F00400059001220C213046FEF7C3FA46
:102990000C2000900125CDE901546946304603948E
:1029A000FEF7BCF918481430016841F48051016009
:1029B0000068022600F480500590E020CDE9000672
:1029C0000320CDE902500520049069461048FEF727
:1029D000A5F911480F4901604FF48271C0E9011453
:1029E0006902C0E90551C0E903461821C0E907148E
:1029F00007214462C0E90A41FEF7D5FD002801D055
:102A0000FDF796FE06B070BD303802400008024067
:102A10000000024000300140AC02002070B57E2171
:102A200001EA40000A4D40F08004002204212846BB
:102A3000FEF771FA204600F047F8002000F02CF86D
:102A40000446012204212846FEF765FA204670BD9F
:102A50000008024010B50F4C012208212046FEF765
:102A60005AFA642003F010FB002208212046FEF7EA
:102A700052FA642003F008FB012208212046FEF7E9
:102A80004AFA642003F000FB0F21BDE8104001204A
:102A900000F03CB80008024001B582B0094800F0DF
:102AA0004FF8FF200090012301AA02A90548FEF774
:102AB000D9FD0448FEF774FD0128FAD19DF8040001
:102AC0000EBD0000AC02002001B582B0084800F045
:102AD00037F8FF200090012301AA02A90448FEF75D
:102AE000C1FD0348FEF75CFD0128FAD10EBD0000D0
:102AF000AC02002070B50C460546FFF78FFF40EA98
:102B000004012846BDE87040AFF3008070B50E4662
:102B10007E2101EA4004094D002204212846FEF7E7
:102B2000FAF92046FFF7D0FF3046FFF7CDFF2846E1
:102B3000BDE8704001220421FEF7EDB90008024013
:102B40000A4910B5C96918290ED001680A6822F02F
:102B500040020A601821C161FEF725FD002803D05C
:102B6000BDE81040FDF7E4BD10BD0000AC02002040
:102B700038B504461248134B0068B0FBF3F04FF42D
:102B80007A73584300906068B0F5827F0DD10B4690
:102B9000009200228021204600F036F870B1606D6E
:102BA00040F020006065032038BD009830B1401E21
:102BB000009020688068C0430006F6D5002038BD2C
:102BC0008400002000366E0110B5C269012910D0C2
:102BD000202A06D001680A6822F040020A602021FB
:102BE000C161FEF7E0FC00280CD0BDE81040FDF705
:102BF0009FBD002AEED001680A6822F040020A60F8
:102C00000021EDE710BD00002DE9F8431E46914676
:102C100088460446089DFEF783F9401B351AFEF7E7
:102C20007FF9074625480068C0F3CB30684338E099
:102C3000701C37D0FEF774F9C01BA84203D215B13F
:102C4000009860B32CE02068416821F0E001416009
:102C50006068B0F5827F0BD1A068B0F5004F02D05C
:102C6000B0F5806F04D12068016821F04001016057
:102C7000A06AB0F5005F09D12068016821F4005115
:102C800001602068016841F400510160012084F86E
:102C90005100002084F850000320BDE8F88300258F
:102CA000401E00902068816838EA010004D00021AD
:102CB0004945BDD10020F0E70121F9E7840000205B
:102CC0007047FEF733B9000030B593B03021684645
:102CD000FDF7D0FA14210CA8FDF7CCFA1D48002509
:102CE000016841F080510160006800F0805011904F
:102CF0001948016841F4804101600068022400F431
:102D000080401190012003901020049000940694BC
:102D10000820CDE90750A820CDE9090404200B9034
:102D20006846FEF787FA08B172B6FEE70CA90F20D5
:102D300081E831004FF4A0500F904FF48050109074
:102D400005210CA8FEF78CF9002801D072B6FEE729
:102D500013B030BD403802400070004002480168A6
:102D600041F470010160704788ED00E00148FEF712
:102D700038BE0000480300200148FEF732BE0000C4
:102D800090030020F0B50268254C264D264E274FB3
:102D9000274B4FF0804CA04209D0604507D0A84295
:102DA00005D0B04203D0B84201D0984204D122F0FD
:102DB000700E4A6842EA0E02A0421BD0604519D04C
:102DC000A84217D0B04215D0B84213D0984211D0C3
:102DD000184DA8420ED0184DA8420BD0174DA8424E
:102DE00008D0174DA84205D0164DA84202D0164D66
:102DF000A84203D122F44075CA682A434D6922F0E3
:102E000080022A4302608A68C2620A688262A04223
:102E100001D0984201D10969016301214161F0BDEE
:102E2000000001400004004000080040000C004089
:102E300000040140004001400044014000480140BE
:102E400000180040001C00400020004010B5FDF7B5
:102E500071FC08B1012010BD034902484860002000
:102E600010BD0000510800080400002070B52E4875
:102E700086B00025016841F001010160016801F0A0
:102E800001010591016841F001010160006800F055
:102E90000100059024481430016841F010010160E0
:102EA0000068072400F0100005904FF400700090B7
:102EB00002200190012002900320CDE903041B4E63
:102EC00069463046FDF72AFF3015009069460494A4
:102ED0003046FDF723FF002211462520FEF78EF82D
:102EE0002520FEF77DF81348114C4FF4E1320460C1
:102EF000C0E90125C5600C210561C0E90515C56162
:102F0000FEF7A8FF08B1FDF713FC206820F0400091
:102F10002060206820F0200020600122064905483A
:102F2000FEF7DFFF06B070BD3038024000000240FF
:102F300000100140040300200000002010B5806B49
:102F40000021C185C184FEF74FFE10BD70B5846BB2
:102F50002068406994F83D10C0F3C0100025212975
:102F600004D118B1E584204600F08AF82068406951
:102F700094F83E10C0F38010222904D118B1E585E1
:102F8000204600F056F8206C40F0100020642046E7
:102F9000FEF72AFE70BD10B50146806B096809680E
:102FA000C9052FD40021C18501680C3151E8002FDB
:102FB00022F4807241E80023002BF5D1016814311E
:102FC00051E8002F22F0010241E80023002BF5D147
:102FD0000168143151E8002F22F0400241E800233B
:102FE000002BF5D1202180F83E10016B012909D179
:102FF00001680C3151E8002F22F0100241E8002353
:10300000002BF5D1016B012902D0FEF77FFF10BD27
:10301000818DFEF7B0FD10BD10B5806B016B0129ED
:1030200002D0FEF774FF10BD818D4908FEF7A3FDA5
:1030300010BD01680C3151E8002F22F4907241E874
:103040000023002BF5D10168143151E8002F22F044
:10305000010241E80023002BF5D1016B012909D1C0
:1030600001680C3151E8002F22F0100241E80023E2
:10307000002BF5D1202180F83E100021016370471C
:1030800001680C3151E8002F22F0C00241E8002312
:10309000002BF5D1202180F83D10704708B590F83D
:1030A0003E10222901D0022008BD82684FF48053CF
:1030B0009A4201D1016921B1816A9A421BD04AB179
:1030C0000AE00268816A5268C2F308020A80816AD3
:1030D000891C08E0026972B10268526802F07F023E
:1030E0000A70816A491C8162C18D491E0904090C5C
:1030F000C18503D019E002685268F1E70168CA6827
:1031000022F02002CA600168CA6822F48072CA6094
:1031100001684A6922F001024A61202180F83E10CC
:10312000016B012903D0FEF7F1FE002008BD00214C
:10313000016301680C3151E8002F22F0100241E8D0
:103140000023002BF5D101680A68D20602D50A686F
:1031500049680091818DFEF70EFDE6E770B50446E3
:1031600000680169E26821F440511143016121695D
:10317000A068E26908436169114308432168CA688D
:1031800049F20C639A430243CA6020684169A2690C
:1031900021F440711143416131492068884202D0D5
:1031A0003049884202D1FEF705F801E0FDF7F2FF51
:1031B000E2690023192164253226B2F5004F6268C6
:1031C00028D0A0FB0101930F9200FCF7FBFF014602
:1031D000B0FBF5F06FF01802504301EB800006EBF6
:1031E0000010B0FBF5F000F0F002B1FBF5F002EBDF
:1031F0000012B1FBF5F06FF01803584301EB8000AB
:1032000006EB0010B0FBF5F000F00F002168104451
:10321000886070BDA0FB010192185B41FCF7D2FFF2
:103220000146B0FBF5F00201B1FBF5F06FF01803B9
:10323000584301EB800006EBC000B0FBF5F000F056
:10324000F80002EB4002B1FBF5F0584301EB8000BF
:1032500006EBC000B0FBF5F000F00700D6E7000079
:10326000001001400014014038B5816282850025BC
:10327000134604460564222084F83E00A26B1C48D5
:10328000D063A26B1B481064A26B1B48D064A06B78
:103290000A4605652168A06B091DFDF7D9FC206869
:1032A00001684068009084F83C50206948B120686B
:1032B0000C3050E8001F41F4807140E80012002AF1
:1032C000F5D12068143050E8001F41F0010140E8BA
:1032D0000012002AF5D12068143050E8001F41F098
:1032E000400140E80012002AF5D1002038BD00005E
:1032F000972F0008193000084D2F00088162828541
:10330000C28500210164222280F83E2080F83C1012
:10331000016921B10168CA6842F48072CA6001681B
:103320004A6942F001024A610068C16841F0200127
:10333000C16000207047000010B50448FEF756FC3D
:10334000BDE810400148FEF7E3BD00003006002054
:10335000FEE700002DE9F04116460C46054600F058
:103360002BF9DFF84C804FF40047002239464046E5
:10337000FDF7D1FD032000F00DF9C4F3074000F084
:1033800009F9C4F3072000F005F9E0B200F002F9F2
:10339000002404E000F0FAF805F8010B641CB442C4
:1033A000F8D339464046BDE8F0410122FDF7B3BDF0
:1033B000000002402DE9F041074614460E4611F088
:1033C000FF000BD0C0F58075A54200D915462A46EE
:1033D000384600F087F82F442E44641B4FF4807564
:1033E000FF2C0BD92A463146384600F07BF8A4F56D
:1033F000807406F5807607F58077F1E7002C06D01B
:10340000224631463846BDE8F04100F06BB8BDE8D1
:10341000F081000030B587B014216846FCF72AFF20
:103420001A480024016841F400410160006800F47A
:103430000040059015481038016841F00101016015
:10344000016801F001010591016841F0020101608C
:10345000006801AA00F0020005904FF400400090BF
:103460000120022582E8310069460948FDF756FC33
:103470003820CDE900050320CDE902400620049064
:1034800069460448FDF74AFC07B030BD40380240A9
:10349000000002400004024010B5FFF7BBFF1048D7
:1034A0000E49022201604FF4827141600021816067
:1034B000C0E9031201224261520282610822C0E97E
:1034C0000721416281620A21C162FEF76CF800287F
:1034D00003D0BDE81040FDF72BB910BD003C004003
:1034E000D80300202DE9F04114460D46064600F0B1
:1034F00063F800F08BF84FF48070844200D90446E2
:10350000DFF854804FF40047002239464046FDF76B
:1035100002FD022000F03EF8C5F3074000F03AF843
:10352000C5F3072000F036F8E8B200F033F80025C4
:1035300004E0307800F02EF86D1C761CA542F8D31C
:10354000012239464046FDF7E6FC00F035F8BDE8BB
:10355000F04100F039B800000000024070B50A4E9A
:103560004FF40045002229463046FDF7D4FC0520E3
:1035700000F010F800F00AF804460122294630460F
:10358000FDF7C9FC204670BD00000240FF2000F09E
:1035900001B800000EB501238DF808004FF48050EB
:1035A000009001AA02A90348FEF75CF89DF8040008
:1035B0000EBD0000D80300202DE91040FFF7CEFF1C
:1035C000C007FBD110BD000070B50E4D4FF4004494
:1035D000002221462846FDF79EFC0420FFF7DAFF73
:1035E0000948E210036800E0521E9868000601D501
:1035F000002AF9D121462846BDE870400122FDF796
:103600008ABC000000000240D803002070B50E4DB7
:103610004FF40044002221462846FDF77CFC06209A
:10362000FFF7B8FF0948E210036800E0521E9868EF
:10363000000601D5002AF9D121462846BDE8704090
:103640000122FDF768BC000000000240D803002002
:103650000FB4054B10B503A9044A029801F016FCFB
:1036600010BC5DF814FB0000EDF400089802002087
:103670000907090E002804DB00F1E02080F800149F
:10368000704700F00F0000F1E02080F8141D704733
:1036900002E008C8121F08C1002AFAD1704770471B
:1036A000002001E001C1121F002AFBD1704770B554
:1036B000044600256FF02F0608E02068411C2160B9
:1036C000007805EB850106EB41014518206800787C
:1036D00000F004F80028F0D1284670BD30380928E1
:1036E00001D80120704700207047000010B5442128
:1036F000074800F08DFE00221E2106481EF098FFAC
:10370000054CA06002F0F2F80020207010BD00000F
:103710009C1B0020A1590008000200202DE9F04761
:103720000E46814617461146304600F01CF94FF010
:10373000FF3A00287DD000223946304600F0BFF81D
:1037400000284FF0000075D1B6F90480B6F90030BA
:103750005246A8EB0301491C0AFA81F10FFA81FADB
:10376000B6F906C0B6F90210ACEB010C0CF1010C75
:1037700002FA8CF2B7F802C012B2ACEB010C0FFAED
:103780008CFCBCF1000F0EDD63F30F0468F30F0532
:1037900001EB0C0061F31F4460F31F45C9F80040C2
:1037A0000120C9F80450B7F906107388CB1AD21A51
:1037B00012B2002A13DDB6F9063099420FDA3388C7
:1037C00063F30F04B38861F31F4463F30F051144DF
:1037D00061F31F4509EBC001401C0C604D60B7F957
:1037E0000220B6F902108A4200DD1146B7F9063010
:1037F000B6F90620934200DA1A463B88B6F900C0B3
:10380000521AA3EB0C031BB212B2002B10DD002ADC
:103810000EDD634463F30F058B1863F31F456CF3F0
:103820000F0409EBC00361F31F441C605D60401C82
:1038300001E01AE017E0B7F9043036889F1BAAEBC5
:10384000070636B2002E0EDD63F30F0461F31F444A
:10385000334463F30F05114461F31F4509EBC001C5
:10386000401C0C604D60BDE8F0875046FBE770B52A
:10387000B1F90030B2F90040A34200DC23460380D6
:10388000B1F90250B2F90240A54200DD2C46448055
:10389000B1F90460B2F90450AE4200DA35468580D1
:1038A000B1F90610B2F90620914200DB1146C18041
:1038B0000120AB4201DC8C4200DD002070BDF8B578
:1038C0000D460446B0F90000B1F9001016468842D2
:1038D00047DBB4F90210B5F90220914241DBB4F99B
:1038E0000410B5F9042091423BDCB4F90610B5F997
:1038F0000620914235DC96B3ADF800006088ADF843
:10390000020032466946284600F099F8002827D080
:10391000A088ADF800006088ADF802003246694624
:10392000284600F08CF800281AD02088ADF8000056
:10393000E088ADF8020032466946284600F07FF87C
:1039400000280DD0A088ADF80000E088ADF8020096
:1039500032466946284600F072F8002800D001205F
:10396000F8BD0020F8BDB0F90020B1F904309A424A
:1039700013DCB0F90420B1F900309A420DDBB0F944
:103980000220B1F906309A4207DCB0F90600B1F91D
:103990000210884201DB0120704700207047F8B513
:1039A0000D460446B0F90400B1F9001016468842ED
:1039B00043DBB4F90600B5F9021088423DDBB4F9E7
:1039C0000000B5F90410884237DCB4F90210B5F9EB
:1039D0000620914231DC76B3ADF800006088ADF886
:1039E000020032466946284600F029F818BBA08834
:1039F000ADF800006088ADF80200324669462846FE
:103A000000F01DF8B8B92088ADF80000E088ADF8E6
:103A1000020032466946284600F011F858B9A088DD
:103A2000ADF80000E088ADF802003246694628464D
:103A300000F005F808B10020F8BD0120F8BD2DE91F
:103A4000FC4114460E46B1F90020B0F900100546BD
:103A50008A423ADBB5F90400824236DCB6F90270DC
:103A6000B5F90220974230DBB5F906309F422CDCD5
:103A7000002C75DD401A9A1A401C521C00B212B27A
:103A800000EBD07002EBD27240105210904200DB7B
:103A90001046844200DD0446ADF80010288800225C
:103AA0002044ADF804006888ADF80200688831460B
:103AB0002044ADF806006846FFF7C1FF40B1BDF8ED
:103AC00004002044ADF804003FE00020BDE8FC8184
:103AD000E8880022001BADF80200E888ADF8060077
:103AE00031466846FFF7ABFF28B1BDF8040020441B
:103AF000ADF8040011E0A8880022001BADF800001A
:103B0000A888ADF8040031466846FFF798FF50B129
:103B1000BDF80000001BADF80000BDF80200001B5E
:103B2000ADF8020016E06888ADF80200688800224F
:103B30002044ADF8060031466846FFF780FF70B1BB
:103B4000BDF80000001BADF80000BDF806002044E1
:103B5000ADF80600314668461CF0E4F9B6E7FFE729
:103B60000120B3E710B5B1F90040B2F900309C4232
:103B700000DA23460380B1F90240B2F902309C42D8
:103B800000DA23464380B1F90440B2F904309C4284
:103B900000DD23468380B1F90610B2F90620914278
:103BA00000DC1146C18010BDF8B507461EF0DCFCF4
:103BB0000025374C0646009537B1F86860603846F6
:103BC0001EF004FE606802E011F0B4FA6060006963
:103BD0001CF0A4F86068406908B11CF09FF86068A8
:103BE000C0691CF09BF86068006A1CF097F8606878
:103BF000016991B11CF044FA20F02CFD20F052FA3A
:103C00006068B0F85011D9B30068017CC9071DD0B5
:103C1000C0684068D0B1002713E0A0F85051F8BD4B
:103C2000C11991F8301151B900F5AC7000F047FCA2
:103C3000616801EBC7010A6B0260496B41607F1C40
:103C4000BFB26068B0F85011B942E9D860684FF46B
:103C50008071303017F0E6FC6068202100F5987024
:103C600017F0E0FC6068A0F8505130461EF076FC7A
:103C7000009060680068436A13B122680099984711
:103C800017F04EFB00F032F8BDE8F84000F002B843
:103C9000C000002070B50A4D002400BFC4EBC4066C
:103CA00055F8260008B117F0AFFB05EB86001C2184
:103CB00017F0B8FC641CE4B2042CEFD370BD000014
:103CC000781C0020084949680AE04A68824202D00C
:103CD0000A68824203D10A7E42F001020A764969EB
:103CE0000029F2D1704700009400002070470000C6
:103CF0000421014800F08CBB901B002020210148CA
:103D000000F086BBA81B00202DE9FF410446DDE939
:103D10000A671D004FF0000002D1B6F5807F2BD05E
:103D2000039001900290ADF80C100090ADF80410D3
:103D3000ADF80A20ADF80E203B46324629466846CB
:103D40001CF050F83B463246294601A81CF04AF8C0
:103D50003B463246294602A81CF044F83B46324610
:103D6000294603A81CF03EF8BDF90000BDF9043057
:103D7000984209DA054608E02080491E6080A1804B
:103D8000521EE280BDE8FF811D46BDF90820BDF945
:103D90000C108A4201DA164600E00E46B54203DAFC
:103DA000984206DB184604E08A4201DA104600E039
:103DB0000846801E2080BDF90030BDF904209342E2
:103DC00001DD1D4600E01546BDF90800BDF90C10E7
:103DD000884201DD064600E00E46B54205DD93420D
:103DE00001DD194604E0114602E0884200DD01468B
:103DF000891CA180BDF90230BDF90620934201DA89
:103E00001D4600E01546BDF90A00BDF90E108842B6
:103E100001DA064600E00E46B54205DA934201DAC1
:103E2000194604E0114602E0884200DA0146891E84
:103E30006180BDF90230BDF90620934201DD1D46C7
:103E400000E01546BDF90A00BDF90E10884201DDFB
:103E5000064600E00E46B54205DD934201DD1946F7
:103E600004E0114602E0884200DD0146891CE18041
:103E700088E700002DE9F04115460E460746114C33
:103E80001EF072FB80462B4632463946204615F01E
:103E900039FB20B10020A062E06950B110E02C2174
:103EA000204617F0BFFB4FF00040A0620020BDE8A5
:103EB000F08140461EF052FBE06108B90120E0614C
:103EC0002046F4E7CC1B002010B51421074800F071
:103ED0009FFA15F0DDFA40B10549016005494160DE
:103EE000054981600549C16010BDFEE7B41B002093
:103EF000658E0108E1910108B1930108318E010836
:103F000070B50D4604461021284617F08BFB20683B
:103F10000078012804D0022807D0042807D008E040
:103F2000A08A2880E08A688003E0E06800E00A2038
:103F3000686020684268002A03D02946BDE87040C6
:103F4000104770BD2DE9FE430446808A10B9E08A0F
:103F5000002874D0D4F82C805FEA080010D12046E5
:103F60000AF0A5FD5FEA000869D020460DF034F99B
:103F700000220921404614F0BFF9607880075ED422
:103F80004FF4807900274E4645460021284619F017
:103F9000A9FF384407B20021284619F0C1FFC11714
:103FA00000EB1160001210FB06F006B2284618F074
:103FB00095FF0500E9D10FB94E450CD0784201B20A
:103FC0004FF4803090FBF6F002B26B4604F114001F
:103FD00000951BF007FFADF80450ADF8085094F8B9
:103FE000400000F00F000328404616D019F0C8F832
:103FF0000646404618F07EFF03460C200090B4F9B8
:104000001610324640460AF00BF9ADF8080040465B
:1040100018F0C2FFC10713D018E019F045F80646A2
:10402000404618F0E1FF024603200090B4F9141056
:10403000334640460AF0F4F8ADF80400E7E736E00E
:10404000BDF90410002901DDADF80450810705D445
:10405000BDF90410002901DAADF80450410705D478
:10406000BDF90810002901DDADF80850000705D49E
:10407000BDF90800002801DAADF8085002AA01A92C
:10408000204620F01DFEBDF90820BDF90410404671
:1040900000F08AFA6078800709D4208BBDF80410FC
:1040A00008442083608BBDF8081008446083BDE895
:1040B000FE832DE9FC5F0446C06A5FEA000B71D005
:1040C00094F8400000076DD015F0AEFC0190006838
:1040D0004021457E58461AF04FF84FF0000818B9B5
:1040E000A4F81E80A4F81C80584619F03BF88246BC
:1040F000584619F03EF8064694F840004FF064091F
:1041000000F00F000C2802D003284CD09AE0A4F84D
:104110001C8056B1B4F91E50002715F085FC0068CC
:104120004946407EC0F1640022E0E08BC5F16401A5
:1041300010FB01F191FBF9F0E083584618F0DAFE2C
:104140000546584619F01CF802460C200090B4F9B8
:104150001E102B4658460AF063F8E08302460023FF
:104160001EE07A1917B210FB05F292FBF1F215B2BC
:10417000002DF6D1ADF80070A4F81E806A4600212B
:10418000204620F09DFD41F6FF72BDF900305142FE
:1041900058460AF023FEBDF800100123084402B27D
:1041A00000214CE09AE0A4F81E80BAF1000F0AD07A
:1041B000B4F91C50002715F037FC00684946407ED2
:1041C000C0F1640022E0A08BC5F1640110FB01F195
:1041D00091FBF9F0A083584618F006FF05465846B3
:1041E00018F062FF034603200090B4F91C102A4621
:1041F00058460AF015F8A083014600231EE07A19FC
:1042000017B210FB05F292FBF1F215B2002DF6D1B8
:10421000ADF80070A4F81C8000226946204620F00A
:104220004FFD41F6FF72BDF90030514258460AF089
:104230004DFDBDF800100123084401B2002258468C
:104240001BF0D6F8A08B002848D1E08B002845D180
:10425000C6B9584618F094FF0546584618F04AFE6D
:10426000002D06DC00280DDD002D02DA01232A4690
:1042700004E0002806DA0123404202B20021584639
:104280001BF0B6F8BAF1000F19D1584618F0ACFE81
:104290000546584618F008FF002D07DC00280EDD03
:1042A000002D03DA01230022294605E0002806DA62
:1042B00001230022404201B258461BF099F80A211E
:1042C0005846019A14F018F86078800706D414F85C
:1042D000400F20F00F00207044F8148CBDE8FC9FC4
:1042E0007FB50E46040003D110F024FF04002CD04B
:1042F00010F094FF002828D094F82800400724D418
:10430000002506B3ADF80050ADF80250204610F07D
:1043100029FF401EADF80400204610F069FF401E42
:10432000ADF806006A46314602A8FFF7A0FA002859
:104330000BD02068017C890708D5DDE90001C4E9BC
:104340000C01012029E0A4F850517FBD82690AB117
:1043500002A9904700260AE004EBC601002202A849
:104360003031FFF7ACFA0028EFD1761CB6B2B4F8C2
:104370005001B042F0D880B2202804D204EBC00033
:1043800002A9303004E0A4F8505104F1300069462D
:104390000EF071FCB4F85001401CA4F850016068A4
:1043A0000028D2D01EF01EFA7FBD70B5054600F081
:1043B00012F804460CE02146284600F01EF8064696
:1043C0002146284600F0A2F8204617F01DF8344692
:1043D000002CF0D170BD002800D04068704700B5B7
:1043E00003460022FFF7F7FF03E01846521C00F0D7
:1043F00004F80100F9D1104600BD0068091D4058BD
:104400007047006840587047002800D080687047A7
:1044100000224260C91C21F00301826001607047E4
:1044200070B504460068083016F062FF050013D02E
:104430000146002220461FF0F1F929462046626815
:104440001FF0E6F9616819B12A4620461FF0E6F927
:104450006560A06800B9A560284670BD2DE9F041EF
:104460000C4606000AD04CB1FFF7B5FFA04208D1B8
:104470003046FFF7D5FF051E01D01EE00020BDE845
:10448000F0813068083016F033FF051EF7D0306831
:104490002A460759304639461FF0BAF93A462946A6
:1044A00030461FF0BBF92A46214630461FF0B6F9C8
:1044B0002246294630461FF0ABF92846DFE770B5A3
:1044C00004460068083016F013FF050013D00146BB
:1044D000002220461FF09CF929462046A2681FF0C2
:1044E0009DF9A16819B12A4620461FF091F9A560EF
:1044F000606800B96560284670BD28B1416809B997
:10450000806808B1002070470120704770B5040032
:104510000DD0FFF760FF00228842204608D1FFF748
:104520006CFF6060011E01D000221EE0A26070BD21
:10453000FFF76AFF8842206808440AD10168A16039
:1045400029B12046BDE8704000221FF061B96260C9
:1045500070BD05682046FFF750FF06460246294613
:1045600020461FF055F92A4631462046BDE87040E6
:104570001FF054B910B50446006882680AB121469C
:10458000904720680068002801D02060F5E710BD42
:104590008068002801D0B0F91600704780680028B4
:1045A00001D0807E8009704770B5164605460C46DE
:1045B00051EA06001AD0284617F09AFDA868012390
:1045C0003246018A21440182A868418A31444182ED
:1045D000214628461AF064F900220B21284613F0E0
:1045E0008BFE012803D128461AF0B4F8012070BDD3
:1045F00077B581B00E46050017D0622219F0A0FBF6
:10460000040012D0206880B128463146632219F098
:1046100097FB10F0FF0208D02368204603999847C3
:104620000090BDF80000ADF80C00039804B070BD18
:104630002DE9F047074692B0408C1A9E40F00800E2
:10464000788490463A8499468A463289384619F0E9
:1046500077FB0546A7F8209032895146384619F075
:104660006FFB0446788CA54220F00800788403D1C3
:104670002904B1EB044F68D0A7F820803289514655
:10468000384619F05DFB05468046A7F82090514654
:1046900038460BF0FDFD318900682A461CF06CFE9F
:1046A00030890B2823D147F6FF794D4501D04C4581
:1046B0001DD1384619F017FD00EBD0704510384673
:1046C00018F0CBFB00EBD0704010C84506D1691C38
:1046D000431C994200DA00E0194688464C4506D151
:1046E000691C421C914201DA6C1C00E01446194816
:1046F000FFF796FE05002BD02F60C5E903843089B3
:10470000A8806846C5F808A00DF028FD1248FF21D2
:10471000CDE9005011480290114803900020089004
:10472000CDE9090130880B9070889DF84210404215
:104730000C90F0680790002060F300018DF84210A3
:104740003069069068460DF07DFD12B0BDE8F08737
:10475000FEE70000C01B002081760208697802088D
:10476000C577020814210148FFF752BEC01B002084
:104770002DE9F84F00259046894606462C46042729
:10478000E6E000BFF06807EBC401405881017CD42B
:1047900080B230EA090112D05FF0000230EA08006E
:1047A0000FD00020824270D0F0686A46102150F885
:1047B000340082461CF042FB002871D103E0012244
:1047C000ECE70120EEE76A46112150461CF036FB6B
:1047D000002865D16A46122150461CF02FFB0028A4
:1047E0005ED16A46132150461CF028FB002857D1A1
:1047F0006A46152150461CF021FB002850D16A461C
:10480000142150461CF01AFBF0BB6A460A215046A0
:104810001CF014FBC0BB6A466B2150461CF00EFB1B
:1048200090BB6A466C2150461CF008FB60BB6A4690
:10483000012150461CF002FB30BB6A460421504661
:104840001CF0FCFA00BB6A46022150461CF0F6FA46
:10485000D0B96A46032150461CF0F0FAA0B96A4666
:10486000052150461CF0EAFA70B96A460621504606
:104870001CF0E4FA40B96A46322150461CF0DEFAD8
:1048800010B96A466E2101E00AE060E050461CF073
:10489000D5FA28B96A466D2150461CF0CFFA10B1FE
:1048A0000320BDE8F88F6A46692150461CF0C6FA1D
:1048B000F0BB6A466A2150461CF0C0FAC0BB6A468B
:1048C0006E2150461CF0BAFA90BB6A466D215046E4
:1048D0001CF0B4FA60BB6A46372150461CF0AEFAB1
:1048E00030BB6A46382150461CF0A8FA00BB6A4625
:1048F000352150461CF0A2FAD0B96A4640215046F4
:104900001CF09CFAA0B96A46452150461CF096FA64
:1049100070B96A46412150461CF090FA40B96A4687
:10492000422150461CF08AFA10B96A46432100E041
:1049300009E050461CF082FA28B96A4649215046DF
:104940001CF07CFA08B1022501E005B90125641CC0
:10495000708CC0F30510A0423FF614AF2846A0E7C4
:104960000148406870470000C00000207047C0F355
:104970000410072800D9072070470000A0F57F41E8
:10498000FF3905D0002804D0712803D208490AE075
:104990001F2070470749713880B2096829B1064A5B
:1049A0005268904201D2085C7047002070470000B6
:1049B0000CBE02082C0200204002002010B5182175
:1049C0000348FFF725FD03490120087010BD0000D2
:1049D0006C1B0020480200202DE9F04190460C4657
:1049E000050015D0FBF751FC0A4F06462146BA6870
:1049F000284690470446BA68281941469047014620
:104A0000701A03E06218AA5C2A55641CA042F9D20D
:104A1000BDE8F0815C0200202DE9F041094D90468F
:104A20000E466A681C46074619469047306020B11A
:104A300020686A68384400219047C8F80000BDE843
:104A4000F08100005C0200202DE9F04F87B08A461B
:104A5000DDE910581F4693460446002105B1298020
:104A60005CB12078002809D0BAF1000F05D00026EB
:104A700018F0060F15D0002004E0002007B0BDE8B4
:104A8000F08F401C215C0A2904D00D2902D0002996
:104A9000F7D100E0401C002DF0D04FF0FF3129800D
:104AA000ECE75FEA887001D541F6FF778946084652
:104AB0008DF81410049127E00498CDF8189068B38D
:104AC0004FF0000C05AA06ABCDF80CC0CDF8008065
:104AD000CDE9013220443B465A4651461DF0C4FF01
:104AE00006997A1A314417B20EB288B1049901447A
:104AF000049120780A280BD00D2809D0605C0A2880
:104B00000FD00D280DD00846205C08B1002FD3DC53
:104B1000049848B105B12E800498AFE74FF0010C1E
:104B2000D0E7481C0490F3E7064A04A920465268DF
:104B30009047002DF0D001460022504613F0F0FCC3
:104B400006B2E8E75C0200202DE9F04117468846EE
:104B500006001ED0002F1CD0FBF797FB04463846FA
:104B6000FBF793FB050014D00B4A2C444146926896
:104B700030469047411903E0621BB25C3255641E17
:104B8000A142F9D930442A463946BDE8F04116F031
:104B90000BBDBDE8F08100005C020020002302781C
:104BA000232902D0012A0DD00FE02AB10021012AC9
:104BB00004D0022A04D008E0012101E0017004E0E1
:104BC000017001E0202902D001231846704702211C
:104BD000F6E72DE9F0410E468046024600213346B5
:104BE00008461EF07FF904460027401C16F080FBA3
:104BF000050008D02F5533464246611C1EF072F95D
:104C00002846BDE8F081FEE72DE9F0471E46144630
:104C10000D468246DDF8209015E000BF4FEA5408AB
:104C200008FB0657394650464A469047002808DD9B
:104C300044F30000C0EB540407EB0605A4F10104A3
:104C400001E005DA4446002CE8D12046BDE8F087B3
:104C50003846FBE72DE9FC5F9B460CAB8A46814654
:104C6000DDE9116093E81210DDE90F575FEA807803
:104C70004FF030031AD45EB15FEAC07808D000F07C
:104C80000C0858EA0C0803D0761E01E00B55641C92
:104C9000BC4204D2202CF9D301E00B55641C5FEA1E
:104CA000C07803D0B44201D2202CF6D35FEAC068AA
:104CB00025D55FEA40580AD44CB1BC4201D0B44279
:104CC00005D1641E03D0102D03D1641E04E0102D05
:104CD00002D0022D0AD00EE0850603D4202C1ED26D
:104CE000782506E0202C1AD2582502E0202C16D276
:104CF00062250D55641C202C11D20B55641C202CF0
:104D00000DD2BCF1000F01D02D2306E0430701D5E1
:104D10002B2302E0030702D520230B55641CCDE9A9
:104D200000BAC846154681468B46AA46800714D16C
:104D3000274607E02A46DDE900316D1C2020C446E5
:104D4000E0477F1CB742F5D307E02A466D1C641E7E
:104D5000DDE900311BF80400C047002CF5D15FEA03
:104D6000897006D409E02A46DDE900316D1C202057
:104D7000C047A5EB0A00B042F5D32846BDE8FC9F2A
:104D80002DE9F04F8FB099468B46DDE91818DDE923
:104D90001C63DDE91A4792468646002209B923F0D2
:104DA0001003580507AD00D5C9B1B1FBF4F004FB01
:104DB0001010C0B20A2801D2303009E05FEA836CDB
:104DC00002D54FF0410C01E04FF0610C60440A380D
:104DD000B1FBF4F1A854521C09B1202AE5D3CDF857
:104DE0000880CDE90563CDE90052CDE903474B4684
:104DF000524659467046FFF72DFF0FB0BDE8F08FC1
:104E00002DE9FF4F8FB01CACDDE9239594E8030832
:104E100020AC94E8C004002450EA010201D125F03E
:104E200010056A050DF11C0802D550EA010217D0E1
:104E300032463B46FBF7C6F9D2B20A2A01D23032DB
:104E400006E0AB0601D5412300E061231A440A3A8B
:104E500008F80420641C50EA010201D0202CE7D39A
:104E6000CDE90084CDF808B0CDE90595CDE9036A18
:104E70000FAF97E80F00FFF7EDFE13B0BDE8F08F1E
:104E80009A4200D288547047704700002DE9FF4FC6
:104E90008DB09B460F460446002606E025280BD021
:104EA0005A460F999047641C761C20780028F5D14B
:104EB00011B03046BDE8F08F0025A8460122984980
:104EC00000E0054314F8013F203B02FA03F00842DA
:104ED000F7D120782E2817D114F8010F45F00405DA
:104EE0002A280ED06FF02F022078A0F13001092976
:104EF0000AD808EB880102EB410100EB0108641CB1
:104F0000F2E757F8048B641C20786C280DD004DC81
:104F10004C2812D06A2811D104E074280DD07A28C8
:104F20000CD10AE045F4001507E0617845F48015DE
:104F3000814202D1641C05F58015641C2078692823
:104F400044D008DC0028B3D0582867D063280FD09D
:104F5000642808D13AE0702865D0732812D07528EB
:104F60005AD078285AD05A460F999047761CD5E0E7
:104F700017F8040B8DF8000000208DF80100E946B9
:104F8000012003E057F8049B4FF0FF3069074FF012
:104F9000000501D40AE06D1C45450DDA8542FADBB7
:104FA00019F805100029F6D106E06D1C8542FCDBDE
:104FB00019F805100029F8D12E4404E019F8010B66
:104FC0005A460F9990476D1EF8D2A7E00A2000219B
:104FD000CDE90801C5F3025002280CD001CFC1175A
:104FE000021E71F100020CDA0023D0EB030063EB28
:104FF00001012D2208E0FF1D27F00707F7E8020155
:10500000EEE72A0504D52B228DF8282001223CE06A
:10501000EA073AD02022F7E70A2000E0102000211A
:10502000CDE9080107E01020002145F00405CDE995
:1050300008014FF00808C5F30250022810D001CF34
:1050400000214FF0000A2A0720D52278702A0DD0BF
:10505000DDE908C38CF0100C5CEA030C0CD015E001
:10506000FF1D27F00707F7E80201EAE740228DF865
:1050700028204FF0010A0CE050EA010306D030234B
:105080008DF828308DF82920022292462278582A5D
:1050900004D024A20DF120090B9209E026A2F9E721
:1050A000DDE90823FBF78EF80B9B9B5C09F8013DBB
:1050B00050EA0102F4D1ADEB0900203008906807F6
:1050C00001D44FF001080899884503DD0898A8EB42
:1050D000000000E000208046002506E00AA85A46AD
:1050E000405D0F9990476D1C761C5545F6DB04E03A
:1050F00030205A460F999047761CB8F10001A8F16C
:105100000108F5DC05E019F8010B5A460F999047A4
:10511000761C0899481E08900029F4DC641CC4E63B
:10512000092801003031323334353637383961627D
:105130006364656600000000303132333435363741
:105140003839414243444546000000002DE9FF4FF5
:1051500089B005460A9800249246002800D1FE4DE9
:105160008FE1252804D02246641C53460A990BE29D
:10517000491C4FF0000808460C9101782B2919D0E2
:1051800004DC202919D0232904D119E02D290ED0BF
:10519000302909D00026C8B2FEF7A0FAB0B10CA899
:1051A000FEF785FA06461FE048F001010AE048F0E4
:1051B000020107E048F0040104E048F0080101E0C2
:1051C00048F01001401C88460C90D6E70C990878EE
:1051D0002A2809D1169840C81690002E02DA48F005
:1051E00002087642491C0C910C984FF0000B017894
:1051F0002E2919D1401C0C9048F480680078FEF7E5
:105200006DFA20B10CA8FEF752FA83460CE00C9A16
:1052100010782A2808D1169802C81690002900DCB8
:105220000021521C8B460C920C9801786C290AD0F4
:1052300004DC68290FD06A2919D128E0742929D003
:105240007A2914D126E0401C0C90017848F480782B
:105250006C291CD00BE0401C0C90017848F08008B1
:10526000682904D148F04001401C88460C90024651
:105270000078692822D015DC62281FD00DDC252893
:1052800071D050281AD058287FF46DAF16E048F43A
:105290000071E9E748F48071E6E7632878D0642874
:1052A000F2D10BE0732874D004DC6F2806D070288C
:1052B000EAD103E0752801D07828E5D178280DD00F
:1052C00058280BD070280BD0502809D06F2816D042
:1052D000622816D00A2128F0100016E0102107E0FD
:1052E0005078102148F48878562804D1521C0C922A
:1052F0001078582807D01078502804D006E00821EC
:1053000009E0022107E048F0200080461078692873
:1053100003D0642801D028F00C085FEA485001D57A
:1053200028F00108107869281ED064281CD056285F
:1053300064D05FEA885072D5169804ABC01D002275
:1053400083E806080292CDE9076820F0070053467B
:10535000F0E80212CDE900121690224628460A997A
:10536000FFF74EFD89E00AE15FEA885024D51698E0
:1053700004AFC01D20F00703F3E8020216930023D8
:1053800087E80A08CDE90768002A03DA012102E06C
:1053900080E0A6E000210023029119461B1A9141EA
:1053A00001DA114603E00021404261EB020153465D
:1053B0002246CDE90001D1E75FEAC85004D516982E
:1053C00004C80FE0524215E05FEA486003D5169822
:1053D00010F8042B06E05FEA0860F0D5169830F864
:1053E000042B12B21690CDE9021BCDE90468D00F50
:1053F000002AE7DDCDE9002053461EE01698AAEB0F
:10540000040202C816904868006800900A980B6869
:1054100001192846FFF79AFE04442FE0FFE75FEAF0
:10542000C8500CD5CDE9021BCDE9046816980021BF
:10543000534604C8CDE900211690224619E05FEAE0
:10544000486003D5169810F8042B08E05FEA08605E
:10545000169803D530F8042B92B200E004C81690D9
:105460000020CDE90020CDE9021BCDE904685346B8
:10547000224628460A99FFF783FC04460C98401CF4
:105480000C900C99087800287FF46BAE54457DD2BF
:1054900022467DE001275FEA887006D509E02246B2
:1054A000641C534620200A99A84738467F1CB04206
:1054B000F5D316992246641C11F8040B1691534635
:1054C0000A99A8475FEA887006D4D7E72246641C89
:1054D000534620200A99A84738467F1CB042F5D38E
:1054E000CCE7169850F8049B16904B46BBF1000091
:1054F00001D0014601E04FF0FF31484600E0401C7A
:1055000002780AB1491EFAD2C71A5FEA485003D599
:1055100058465F4500D307465FEA887006D512E01B
:105520002246641C534620200A99A84738467F1C0F
:10553000B042F5D307E000BF224609F10109641C1F
:1055400053460A99A84799F8000040B15FEA4851CC
:10555000F2D5BBF1010B01E0894E0008ECD25FEA05
:10556000887006D48AE72246641C534620200A9994
:10557000A84738467F1CB042F5D37FE706E02246B5
:10558000641C534625200A99A84777E7AAF101022F
:10559000534600200A99A8470DB02046BDE8F08F79
:1055A0002DE9FC41074601F019F9002814D11448EF
:1055B000002540F232360468012221466846FDF794
:1055C000C9FE9DF80000FF2808D0641D6D1CB5427F
:1055D000F2DB0CA0FEF73CF8BDE8FC81AA208DF8B8
:1055E0000000012221466846FDF7E4FE0422611C0A
:1055F0003846FDF7DFFE06A0FEF72AF80120EBE7AC
:105600006C000020C9C8C7F8C2FAC1CB0D0A00005F
:10561000B5C7BCC7B3C9B9A60D0A000010B50200D2
:105620004FF000000CD04B1E194200D0FEE70A4498
:10563000521E9A43B2F5803F02D20C2A01D910467D
:1056400010BD0C2010BD08444A1E401E904311425C
:1056500000D0FEE7704700002DE9F0410F46012120
:105660000025044641862E460BE01B49FAF714FE3E
:1056700010B16D1CADB202E0608E401C6086761CDD
:10568000B6B257F8260010B101780029EDD1208E6E
:10569000A8421ED0A06A002610B115F0B5FEA66281
:1056A000E06A10B115F0B0FEE662E80015F020FEE9
:1056B000A06238B1680015F01BFEE06218B1A16A63
:1056C00011B102E0FEE7FEE70025690015F0AAFF30
:1056D0002586BDE8F0810000843601082DE9F84FE9
:1056E0008146407A0F4600F00700022819D0104684
:1056F0008046974200DD3A46164603202A4C2B4A44
:1057000000EB460020F00305A06811681035411A2F
:10571000636805EB010C9C4505D2416821F000410E
:1057200024E00846E4E79D4219D892464FF0FF3B3B
:1057300048196168884210D9002269461C48CDF892
:1057400000B00CF023F9002269461A480CF01EF94B
:10575000A168DAF80000091AEAE7A068DDE7284640
:1057600015F0C6FDC0B1416841F0004188EA67020A
:10577000416089EA02010160416801F04041491C31
:1057800031F0804141608681A0F80E8005D500F19E
:1057900010018160BDE8F88FFEE7A16801F11002F9
:1057A00029448260A160F5E7C8000020280200209B
:1057B0009DEA00087D1A010870B586B000224A4CA7
:1057C0008DF808208DF80C208DF81020E2888A4290
:1057D00001D0FF22A270E18090F83C20142302F057
:1057E00003024FF4B475012A24D0022A5ED0A578B2
:1057F000AA4211D010F8265F05EB051505EB45050B
:10580000B5FBF3F52570407800EB001000EB40008D
:10581000B0FBF3F06070A27004AA03A8CDE9000207
:1058200001EB41004FF6FF7101EA400002AB6278E4
:1058300021781BE0A678B24210D0868C06EB460693
:105840007602B6FBF5F5A58090F8270000EB001076
:1058500000EB4000B0FBF3F06070A27004AA03A854
:10586000CDE90002C9B202AB62783AE008F029FE45
:105870009DF810109DF80C00CB08BDF800109DF8A5
:10588000082063F30401ADF800108108BDF80000A2
:1058900061F34A10D10880B261F3CF20ADF8000067
:1058A00080B20090BDF8000006B070BDA678B2428C
:1058B00010D0868C06EB46067602B6FBF5F5A58081
:1058C00090F8260000EB001000EB4000B0FBF3F076
:1058D0002070A27004AA03A8CDE90002CAB2217800
:1058E00002ABA088C2E700007401002010B5084C8C
:1058F000012020700748FEF76EFD0028A06803D045
:10590000BDE810401CF06EBFBDE810401CF05EBF4B
:10591000000200209C1B002010B5044690F84200B5
:10592000A16B820709D4B4F840204AB1A2F57F43A5
:10593000FF3B1BD0521EA4F84020B4F84020AAB967
:1059400009B1820712D521461448FEF7DFFDFFF7A3
:10595000CDFFE16809B120468847216909B1204699
:1059600088472046BDE8104015F04EBDE26B52421C
:105970002263002911D0820702D4626B5242226353
:105980004210521C62F3410084F84200A26A206A6D
:105990002262A062E06AE162A06310BD9C1B00204D
:1059A00070B5304D68681CF0D9FD0646687880F007
:1059B0000100687047E00020287094F84200697880
:1059C000C0F380028A4242D061F3820084F8420030
:1059D000216B8A19030719D4002917DC002A15DB6B
:1059E000C00709D1616939B120468847216A01445D
:1059F0002162A16A0844A062A16809B120468847D3
:105A000094F8420040F0080084F84200206B8019AE
:105A1000206316D4E16A884200DD2163E1692046F3
:105A200088470146606A884204D0616262680AB1B0
:105A300020689047D4E90B01814202DB2046FFF742
:105A40006BFF287818B10848FEF7C5FC03E0214633
:105A50000548FEF7D2FC0400ADD11CF085FD68605E
:105A600070BD0000000200209C1B002070B50446A1
:105A700040680D4608B1FFF7F9FF2268002A04D0FC
:105A800029462046BDE87040104770BD89B20DF030
:105A900057B889B20DF090B82DE9FF4F99B09846EC
:105AA000DDE926B12D9816468A464FF000090428F4
:105AB00011D0052811D0062812D0142870D1012742
:105AC0000225002418FB06F00E901A98401E0D9037
:105AD000701E069051E10027F2E701270325F0E749
